:020000040802F0
:10000000E0920020390102084173030825340308F7
:10001000FD720308B5F10208E5D0030800000000F6
:10002000000000000000000000000000A7B5030869
:1000300055F50208000000000575030851C10308CA
:100040005301020853010208530102085301020838
:100050005301020853010208C5F5020853010208C2
:10006000E5F5020853010208530102085301020892
:1000700025F5020853010208530102085301020842
:1000800053010208530102085301020853010208F8
:10009000530102085301020853010208EBF502085C
:1000A00000000000530102080DC8030853010208B4
:1000B00019C803085301020853010208530102083A
:1000C00053010208530102085301020853010208B8
:1000D000530102085301020889CF030853010208A3
:1000E000C7F5020853010208530102085301020830
:1000F00053010208000000005301020853010208E6
:100100005301020853010208530102085301020877
:1001100053010208530102085301020800000000C5
:1001200053010208DFF80CD00CF078F800480047C3
:1001300069000408E092002006488047064800470E
:10014000FEE7FEE7FEE7FEE7FEE7FEE7FEE7FEE787
:10015000FEE7FEE7A9C70308250102082DE9F041E3
:10016000FB4C217E490001F00207A761217F490075
:1001700001F07E06E66194F82010490001F07E054A
:10018000256294F82410490001F07E03636201287F
:1001900011D0DFF8C0C3A16A07280CEA4101A162AF
:1001A000E26A0CEA4202E26216D2DFE800F01504CD
:1001B000070A0D1013007F1CA7610DE0761CE66195
:1001C0000AE06D1C256207E05B1C636204E0491CC9
:1001D000A16201E0521CE2620221384601F02CFBD0
:1001E0000025052602280AD0217AE06901F024FBC7
:1001F000217A88420ED1A079607102201DE0A07999
:1002000001216071A171022837D0032835D004285C
:1002100033D035E0206A01F00FFB217A884203D108
:10022000A0796071032008E0606A01F005FB217A83
:10023000884204D1A07960710420A07137E01E21AA
:10024000A06A01F0F9FA172803D9A0796071A671A4
:1002500009E01E21E06A01F0EFFA172831D9A079F0
:1002600060710620A0716079012814D0022812D094
:10027000032810D004280ED012E0E56125626562E3
:10028000052801D0062823D1E06A800EE062A06A2A
:10029000800EA0621CE007202072E5612562656285
:1002A000A079022803D0032801D0042809D160795D
:1002B000012803D0052801D0062802D1E562A562F5
:1002C0002672A079012803D0E571A079BDE8F081FC
:1002D000E079401CC0B2E071782804D0F5D94FF025
:1002E0007800E071F1E7E56125626562E562A5628B
:1002F0002672EAE72DE9F04F0446DDE90A70DDE9F0
:10030000199BDFF85482DDF830C0DDF840E0DDF8FD
:1003100070A00E9E149DC44555DDDDF844C0BCF1AF
:10032000804F1DDCDFF834C2664509DCDDF844C0CF
:10033000BCF5000F47DBDFF828C2654510DD42E061
:10034000DFF820C266450BDDDFF81C82DDF830C027
:10035000C44505DCDFF81482DDF858C0C44532DC42
:10036000DFF80CC267454EDCDFF808C2624539DCB5
:10037000DFF80482DDF86CC0C44527DCDFF8FC81BF
:10038000DDF83CC0C4450ADCDFF8F481DDF86CC060
:10039000C44574D2DFF8ECC1654570DDE6E1DFF8F5
:1003A000E8C1189860456ADC7848794D0620AA4271
:1003B0006FDC78498E4207DC774A0F99914203DC63
:1003C00076498F4200DC0120BDE8F08FDFF8D0C114
:1003D000E145E2DDDFF8CCC1E345E4DC4846DFF887
:1003E000C8C198E0DFF8C4C16345D6DDDFF8C0C1FD
:1003F0006045DADDDFF8BC81C245D6D3DFF8B8C18D
:100400006245D2DDB2E1DFF8B4C166457EDCDFF8DB
:10041000B081DDF84CC0C445C7DDDFF8A8C1624536
:1004200038DCDFF8A4C160450EDCDFF8A0C164450C
:100430006DDCDFF89C81DDF86CC0C4451FD3DFF8AC
:100440009481C34563DDB0E7DFF88C81C14517DCDB
:10045000DFF888C160455ADCDFF88481C24556D395
:10046000DFF880C1614552DDDFF87C81DDF854C0E2
:10047000C4454CDCDFF87481DDF860C074E107E04E
:10048000DFF86C81C34542DD5A4EB14200DD5A4E61
:100490004CE1B4E2DFF864C162453FDCDFF8608123
:1004A000C34507DCDFF85CC1644530DCDFF858C1C8
:1004B00017980AE0DFF854C1614514DCDFF850C139
:1004C000664505DCDFF84CC11298604525DD6CE718
:1004D000DFF84481DDF860C0C44518DDDFF83CC1B9
:1004E000644514DD61E7DFF838C1E24515DD4D48AC
:1004F0008242A8DC4C4882420FDD4C4884420CDD2D
:10050000DFF82CC11598604507DC01E09EE01DE096
:10051000DFF820C15846604595DD07E1DFF8188116
:10052000C24508D3DFF81481C1450FDDDFF810C1E3
:1005300061450BDDFAE0DFF80CC11898604506DC78
:10054000DFF804C11B98604501D22EE7AEE0EDE074
:1005500000140020FEFFFF3F0723423F2CB7B43BAF
:10056000FEB4213EDC2A583EA2118D41A131273F25
:10057000516761409F3D8F3E3E5A8C3F565C3E42E4
:100580006DFE5BBFE6AF903D4CA4BC3EA27D803FBC
:10059000D36A703F98F8233B9B293E42280A343E99
:1005A00087524B3E9E97CA3DD4B7083FC30F6E3F5C
:1005B0000F485841D9066EBBDBC05D3F973C1C40DD
:1005C000833227402C7D683E1058FA405AD41B3F96
:1005D000A2EE7BBF64ADA13C8045FE3E73D7544183
:1005E0002861CEBE79AE0B3FE92B1541DC7E793C0C
:1005F000F06BA43DAE2E4F3F56DCA24231946F3FCC
:10060000BA32A83CBFF31B3FBF7EA83DF06EE53D6C
:10061000C05B143FA4A77C3FA9BE433EA1BD0E3FD3
:100620003F8F093FBEDB203F122ECC3E395ED13ECC
:10063000605A1341BF63683E6F1203BA268CC63DF1
:10064000C03FC53E1FD9DC3EA0A7B1BEDFF874C4D1
:1006500062451ADCDFF870C4604503DCDC46DFF875
:100660006C845BE0DFF86884DDF824C0C4457DDC81
:10067000DFF860C4624559DCDFF85CC4604555DDD5
:10068000DFF85884DDF860C06EE0DFF854C46045E0
:1006900016DCDFF850C4674509DCDFF84CC461455F
:1006A00044DCDFF848C465457FF7CDAE5EE0DFF897
:1006B0004084C2453AD3DFF83C84DDF860C053E0A3
:1006C000DFF83484DDF848C0C44516DCDFF82CC4FC
:1006D00061454BDDDFF828C4624527DCDFF8248460
:1006E000C14523DDDFF82084DDF83CC0C4451DDCB6
:1006F000DFF81884C24519D238E0DFF81484C24507
:100700000FDCDFF81084DDF86CC0C4452EDDDFF8A7
:100710000884C3452ADDDFF80484CC46C44505DDE2
:1007200024E0DFF8FC83C24517DCFE48FE4E0520BE
:10073000B24275DCFD4EB44273DCFD4A914271DC7D
:10074000FC498C427FF740AEFB4A0D9991423FF73E
:100750003BAEFA498B42F5DDC4E0DFF8E483C145E6
:1007600004DDDFF8E083CC46C445DFDCDFF8D88366
:10077000DDF84CC0DFF8D493C44571DCDFF8D0C39A
:1007800066451BDCDFF8CCC3624512DCDFF8C8C36A
:10079000604512DCDFF8C4C364450EDCDFF8C083BB
:1007A000DDF848C0C445C1DCDFF8B883DDF83CC0E3
:1007B00033E0DFF8B4C36445B8DD76E0DFF8AC833E
:1007C000DDF824C0C44560DCDFF8F8C262450EDC09
:1007D000DFF8FC82DDF824C0C44566DCDFF8F4C233
:1007E0006245A3DCDFF888C360459FDD5DE0CE4550
:1007F0001EDCDFF880C3614557DDDFF87CC364454C
:1008000053DCDFF878C3654590DDDFF874C36245DB
:1008100009DCDFF87083DDF858C0C44545DD85E7A5
:10082000E1E0D1E0C8E0DFF86083DDF848C0F4E73C
:10083000DFF858C3674514DCDFF854C3E64534DD00
:10084000D44B9D4208DCD44B99422EDDDFF84CC3DB
:10085000169B634529DD26E0D14B994225DD22E038
:1008600019E0DFF84083DDF824C0C445D7DDDFF8A8
:1008700038C3624504DCDFF83483DDF858C0CCE7C8
:10088000DFF82CC3614510DD50E7CA4B9D420CDCFC
:100890007046C94907E06346DFF820C3634502DCC0
:1008A000C74B9C4201DD04208EE5DFF818C3139B83
:1008B000DFF8148363456DDCDFF810C3099B6345E3
:1008C00057DCDFF80CC3129B63453BDCC14B9E42F7
:1008D0000DDC1198484505DDBF48864202DDBF4862
:1008E000844201DC02206FE57046BD4913E0BD4B38
:1008F0009D4220DCBC4B9C42F4DCC6450FDCBB486F
:1009000082420ADCBA488442ECDDBA488642E9DC1D
:10091000B9488542E6DD032056E5B84835E0B849D8
:100920008E42F8DCB7498A42F5DCB74A1699914203
:10093000D8DCB6491AE0B6488242D3DDB5488742D2
:10094000E9DDCFE7B44881420BDCB44A964505DCCB
:10095000B3488142C6DCB349099807E0B24911980F
:10096000D9E7B2488742D6DDB1490C988842D2DC3B
:10097000B8E7B04B0D9A9A42B4DDAF4B0C9A9A424D
:1009800006DCAE4A9042C6DDAD488142C3DDA9E730
:10099000AC480EE0C64504DCAB488142A2DCAB4863
:1009A00007E0AB4A15989042B5DDAA48814299DC30
:1009B000A9488742AFDC95E7A8498D4293DDA84A54
:1009C000129991428EDDFFE4A64CA1428BDDA6492F
:1009D0008A4206DCA5498D4284DDA5498B4281DD32
:1009E000F2E4A449FAE7A44A11999142A9DCA34A86
:1009F0001299914290DCA2498C42A2DDE4E4A14D1F
:100A0000AB4289DCA04DAC421EDCA04DAF4209DCFC
:100A1000119BB3F1804F7FF792AC9D4B9942FADD69
:100A20009C4907E09C4DA94207DC9C4B0F999942D9
:100A3000F1DD9B498A42C6DDC5E49A498B42C2DD9D
:100A400099498C42F8DDBFE498498B42F4DDBBE460
:100A50002DE9F04F964C0D46AFB0164621460AF0F0
:100A6000C3FE0746214628460AF0BEFE054621463B
:100A700030460AF0B9FE8F4C30226178491CB1FB38
:100A8000F2F302FB13166670217821B1A17801F010
:100A90000F01491CA170884941F82670C03141F806
:100AA0002650C03141F8260001460AF06BFE804610
:100AB000294608460AF066FE0546394608460AF009
:100AC00061FEFBE096418D3EF0C1764005DC9B3E29
:100AD00067546B413CFA2F3EC20A724186ADE93E33
:100AE000BD42E541CFF0E641A436313FF626863DD2
:100AF000EE273BBF5930D13DBB9C763F3C85EC3E59
:100B000049F6F83E5D4F943DCD49C34234BC83BFA6
:100B10007A1C863C70CD973F1058493EFE277F3E99
:100B200092961A3F3ACFA83E1572713FD4472C3F98
:100B30003CDD793F44A31B3F0D5344428C30713F51
:100B4000D8465C3E20D4E53E16C866440000884185
:100B50008DD31B4054901F3EC0D43A412F52483F82
:100B6000946C793F869E36427E1C713FFA23CC43BB
:100B7000DD057241295F903E473A2F3FE23D8F3EAF
:100B80009B74FB3E274EBD402BDC423F4249F34263
:100B90000000D841DFC56B3ED8BB873E734B6B402E
:100BA00036E9563E3B1B004267F2D53EFC60E3400F
:100BB000C6DE133FC66C013F0000A841350B7F44E1
:100BC000EB8E193F40E0ED430000B041FE05D543F8
:100BD0000CB29F3FA4FDC1413964A141C765303FBC
:100BE0000000A04198A2B43EAD896D3FDA1CC73E1B
:100BF0005C043A3F4A341A42B8C9283E89D2423F7F
:100C0000A30DF441E468963E94A14E4043525B42EA
:100C100005145A3E2D938D433ACF703F0000B841E2
:100C2000EA42DC3E379C38430000204119ABE142E8
:100C300028F0B044CA4E92435CE74C459A2FA0433B
:100C40007385373EF38F5B437D91603ED7C92E435A
:100C5000F4E15643C6DD883E3257304361A8033E77
:100C60006A13833F52D1C03EE5278D3E0F5E2B3E77
:100C70005C3C8A3FDE8E7C3F000010412079833F40
:100C800007D3203E5F95873FF487163EB457233F36
:100C90002926B73EE657733F2C2E8E3EA444404291
:100CA000FAB87E3FD9CF863FD845D13CE4BD7E3FE0
:100CB000CDCC1CC100140020B437002029460AF016
:100CC00009FD41460AF006FDFE492F2E41F8260097
:100CD00001D101222270FC4A002302F1F0011579B2
:100CE0001C4641F8250001F1140000F1140240F8FF
:100CF000253042F825308346281B0521401D90FBF6
:100D0000F1F201FB1200C7B2EF48F03050F82700B3
:100D10000AF0E4FFEC4A0391503202EBC403804630
:100D2000D3E900230AF051FE81468A465BF825008C
:100D30000AF0D4FF4A4653460AF0A0FD0BF012F821
:100D4000E14A4BF82500A032069002EBC40340466E
:100D5000D3E9002303990AF038FEDFF870A3804638
:100D600089465AF825000AF0B9FF42464B460AF078
:100D700085FD0AF0F7FF4AF8250080468CB35BF842
:100D800027000AF0ABFFAAF1A00303EBC403D3E9E9
:100D900000230AF01AFE8146039106980AF09EFF8E
:100DA0004A46039B0AF00BFE0AF0DCFF4BF82500D5
:100DB0005AF827000AF092FFAAF1500303EBC4038C
:100DC000D3E900230AF001FE0746894640460AF0AF
:100DD00085FF3A464B460AF0F2FD0AF0C3FF4AF897
:100DE0002500641CE4B2052C86D3B74C5BF82500C3
:100DF0000AF074FFD4E90C230AF0E7FD0AF0B2FF11
:100E0000B04FC03747F82600B04850F825000AF028
:100E100065FFD4E910230AF0D8FD0AF0A3FF07F11B
:100E2000C0016D1C41F826000520B5FBF0F200FB67
:100E300012502071A07810287ED12046007800281A
:100E40007AD0002015901490169017900690059077
:100E50000E900990814608900F900C9010909C483D
:100E60000D9000201D901C90DFF8588204900446DD
:100E70000390984850F82470169839460AF02AFCD6
:100E800016909448C03050F82460159831460AF006
:100E900021FC15908B48C03850F8245014982946EE
:100EA0000AF018FC149058F824008246014617985E
:100EB0000AF010FC3946179008460AF063FC0E99B8
:100EC0000AF008FC31460E9008460AF05BFC0999CE
:100ED0000AF000FC2946099008460AF053FC0899DC
:100EE0000AF0F8FB5146089008460AF04BFC4946C8
:100EF0000AF0F0FB8146514610980AF04FFF02D2EB
:100F000058F824001090454658F824100D980AF01F
:100F10004FFF02D255F824000D906A48C03050F8B7
:100F20002450049829460AF0D5FB04906A4850F8EA
:100F300024600398314600E00DE30AF0CBFB29461C
:100F4000039008460AF01EFC1D990AF0C3FB3146C7
:100F50001D9008460AF016FC1C990AF0BBFB641CA5
:100F6000E4B21C90302C84D35C4D00952946169831
:100F70000AF03AFC1690294615980AF035FC1590AF
:100F8000294614980AF030FC014614900AF0FAFB46
:100F900016990446239008460AF0F4FB2146139064
:100FA0000AF098FB0AF09AFE1FF084FE04460E46F3
:100FB00015980AF093FE224633460AF078FD1EF09B
:100FC000C3FB0AF0CFFE834614980AF087FE04465E
:100FD00016980E4620F0004011900AF07FFE22463F
:100FE00033460AF064FD1EF0AFFB0AF0BBFE8246FA
:100FF000294617980AF0F8FB334C374A1790C0324D
:101000006169169802EB810342F821001598186275
:10101000149818641798491C1866C81701EB50708B
:1010200020F00700081A60610024254627AE90468C
:10103000D7E10025D5E1002DFAD005EBC40756F81D
:10104000240058F827100AF0A9FE03D258F8270008
:1010500046F8240018A858F8271050F824000AF081
:10106000A7FE04D218A858F8271040F824106D1CC9
:10107000EDB2082DDFD3641CE4B2042CD9D3189947
:1010800027980AF079FB0B90199928980AF074FBBD
:101090000A901A9929980AF06FFB21901B992A98B7
:1010A0000AF06AFB20900D980AF018FE1FF002FE6D
:1010B00005460C4610980AF011FE1FF0FBFD2A466B
:1010C00023460DE0F43900200014002018150020FC
:1010D00000002041B4370020743B00200000404253
:1010E0000AF06DFC0AF03EFE2290009904980AF086
:1010F0007BFB0490009903980AF076FB1599039006
:101100000846239C0AF03EFB014613980AF0E2FAD7
:1011100021460AF0DFFA0AF0E1FD1FF0CBFD0AF0EC
:1011200021FE0446014616980AF05EFB2B902146EC
:1011300015980AF059FB2C90214614980AF054FB9C
:101140001390119816901598169920F0004015905C
:10115000149820F00040149008460AF013FB04464F
:1011600000990E980AF040FB21460AF005FBFC4D61
:10117000E9680E460AF006FB2490159908460AF025
:1011800001FB0446009909980AF02EFB21460AF05B
:10119000F3FA31460AF0F6FA1499259008460AF057
:1011A000F1FA0446009908980AF01EFB21460AF05D
:1011B000E3FA31460AF0E6FA2690179908460AF053
:1011C000E1FA0446484600990AF00EFB21460AF06F
:1011D000D3FA31460AF0D6FACDF804904FF0000960
:1011E0002390C8460124DF48049900EB8400129044
:1011F00050F8040C0AF0C0FA0AF070FDD84BD3E99D
:101200000E2316461F460AF0DAFB0546D5480D9117
:10121000049950F824000AF0AFFA0AF05FFD324654
:101220003B460AF0CCFB2A460D9B0AF0CEFB00227F
:1012300013460AF067FD03D209F1010000F0FF092F
:101240001298049950F8040C0AF096FA0AF046FD38
:10125000C34BD3E90E2316461F460AF00FFB054683
:10126000C0480991049950F824000AF085FA0AF060
:1012700035FD32463B460AF001FB2A46099B0AF03F
:10128000A4FB002213460AF03DFD03D209F1010040
:1012900000F0FF09B348C03000EB8400129050F812
:1012A000040C03990AF068FA0AF018FDAC4BD3E974
:1012B000122316461F460AF082FB0546A9480D91E7
:1012C000C030039950F824000AF056FA0AF006FDDF
:1012D00032463B460AF073FB2A460D9B0AF075FB2B
:1012E000002213460AF00EFD03D208F1010000F0BF
:1012F000FF081298039950F8040C0AF03DFA0AF01E
:10130000EDFC974BD3E9122316461F460AF0B6FAB6
:10131000054694480891C030039950F824000AF01B
:101320002BFA0AF0DBFC32463B460AF0A7FA2A46C3
:10133000089B0AF04AFB002213460AF0E3FC03D2A2
:1013400008F1010000F0FF08641CE4B2302CFFF447
:101350004AAF0025844850F82540139821460AF0EA
:1013600011FA0D908048C03850F825702C983946F5
:101370000AF008FA09907D4850F825602B9831460C
:101380000AF000FA09990AF0A5F90D990AF0A2F9F4
:1013900001460E900AF0F6F90D9021460890084695
:1013A0000AF0F0F90446394608460AF0EBF9074618
:1013B000314608460AF0E6F939460AF08BF921462B
:1013C0000AF088F908990AF0D7F90AF087FC002298
:1013D00004460E4613460AF0ADFC0BD820463146B3
:1013E0000BE008EB441018A9006846F8240041F807
:1013F00024003CE626F0004120461FF05BFC0AF08A
:10140000B1FC04460E98069920F000400AF062F9FB
:101410000690214605980AF05DF905900F990D9800
:101420000AF058F921460F9008460AF0ABF90C99DA
:101430000AF050F96D1CEDB20C90302D8AD3009952
:1014400006980AF0D1F90690009905980AF0CCF9AF
:101450000699054608460AF095F9044600990F9842
:101460000AF0C2F921460AF087F93D49C9680F46DA
:101470000AF088F90646294608460AF083F9044628
:1014800000990C980AF0B0F921460AF075F939462E
:101490000AF078F9074640460AF098FB04464846A9
:1014A0000AF094FBDDE9203CCDF840C0CDF84CA01B
:1014B000CDE9113B0246229BDDE90A01CDE90E1080
:1014C000CDE90C730699CDE90A65CDE90841DDE95E
:1014D0001C01019B04930792CDE9051023AC94E80D
:1014E0000F00CDE90230CDE90012DDE91510179BA0
:1014F000149AFEF7FFFE1A49C8702399B1F1814F83
:101500000EDA1B4A169991420ADA1A4A1599914243
:1015100006DA194A1499914202DD0120104914E0BB
:101520000F49052801D0062810D1144A93450DD241
:10153000134A93450AD3134B9A4507D2924505D3D4
:101540002298B0F17C5F01DD0220C870044CE07885
:10155000FEF704FEE0700248C0782FB0BDE8F08FBF
:1015600000140020B43A002034390020B4370020A1
:10157000CDCC4C3E3333B33E1F856B3FA60A06BF2E
:1015800000008080A60A86BE2DE9F041064614467A
:101590000D4691F902000AF010FBA1680AF0F2F87A
:1015A000804695F901000AF008FB61680AF0EAF844
:1015B000074695F900000AF000FB21680AF0E2F8FE
:1015C00039460AF087F841460AF084F8306095F908
:1015D00005000AF0F2FAA1680AF0D4F8804695F9FD
:1015E00004000AF0EAFA61680AF0CCF8074695F9B7
:1015F00003000AF0E2FA21680AF0C4F839460AF05A
:1016000069F841460AF066F8706095F908000AF03A
:10161000D4FAA1680AF0B6F8804695F907000AF0F6
:10162000CCFA61680AF0AEF8074695F906000AF0B0
:10163000C4FA21680AF0A6F839460AF04BF8414688
:101640000AF048F8B060BDE8F08138B50022824960
:1016500013468B54521CD2B2092AFAD300226C468C
:10166000835CA3F14205182D00D22033A354521CF1
:10167000D2B2032AF4D39DF800300120821E732BCE
:1016800012D006DC642B13D0652B07D06E2B10D143
:1016900006E0752B0AD0772B0BD103E0087008E029
:1016A000C87006E00A7004E0CA7002E0887100E0C9
:1016B0008A719DF80130732B12D006DC642B13D095
:1016C000652B07D06E2B10D106E0752B0AD0772B37
:1016D0000BD103E0487008E0087106E04A7004E0AE
:1016E0000A7102E0C87100E0CA719DF80230732BE4
:1016F00010D007DC642B11D0652B09D06E2B00D1E4
:10170000487138BD752B07D0772BFAD18A7038BD58
:10171000887038BD4A7138BD087238BD0A7238BD4C
:101720000120704730B54D4D044687B0006829460A
:101730000AF028F80090294660680AF023F8019022
:101740002946A0680AF01EF802906A46424903A89A
:10175000FFF71AFF03AB93E80700FFF779F907B02B
:1017600030BD72E710B58AB0044624223C49684671
:1017700009F070FE6946204609F0D1FE684609F07E
:10178000BAFE0AB0C0B210BD70B541F2377540F272
:101790000114344A2946204609F06FFD002816D06E
:1017A000204609F09DFD002811D02D492046103912
:1017B000694009F028FE002809D0204609F0D8FD2C
:1017C00029490028086102D000688047012070BDC7
:1017D00010B5044640F2011009F082FD38B12248EC
:1017E000016921B189682046BDE810400847002002
:1017F00010BD10B5044640F2011009F071FD00283B
:1018000008D019480169002904D049682046BDE87C
:101810001040084710BD10B5044640F2011009F011
:101820005FFD38B11048016921B1C9682046BDE8A3
:1018300010400847002010BD034610B500200246A6
:1018400006E0DC0701D0401CC0B25B08521CD2B2DB
:101850008A42F6D310BD0000B43C0020C3F51C4101
:1018600090110408C430002000140020F0B5DFF807
:1018700008C4DDE90764DDE90557644539DCDFF8B4
:10188000FCE3DFF8FCC3704523DCFE4EB24203D319
:10189000FD4883421BD20DE0FC4A974210DCFC4A13
:1018A000904212DD654510D2FA48844204DCFA48C1
:1018B00081420ADC0620F0BDF8488742FAD206E0F1
:1018C000F748854201DDF74817E00D20F0BD0520FF
:1018D000F0BD6545F9D2F448864206DCF3488642FD
:1018E000E8D3F3488442F2DCE4E7F2488242EEDDDA
:1018F000E0E7F14CA04203DCF0488142E7DCE4E79A
:10190000EF488242E3D3EF488342E0DDD2E72DE99E
:10191000FF5F00F12802D0E90E4192E80C10D0F8E8
:1019200014E0D0F820B0456B006DDFF89C83E74EE3
:10193000E74FDFF8A093DFF8A0A3404507DDE748B5
:10194000DFF89C8381421CDCE64881420DDC25F0F7
:1019500000403044B84203D3012004B0BDE8F09FFA
:101960004C45F9D2544531DBF6E7002025F0004123
:10197000414524DADC4A944221D214F1814F15D832
:101980001DE0CDE90241CDE900C559467046FFF79B
:101990006DFF0D28E1D1002025F0004141450EDA10
:1019A000D14A94420BD2D14A944208DA0220D4E7B9
:1019B000CF4924F000428A42CFDD0420CDE73144F4
:1019C000B942F5D24C45F3D25445F1DA0320C4E7CD
:1019D0002DE9F041C74C0546207B400000F07E0613
:1019E000E660207C400000F07E032361207D400003
:1019F00000F07E026261207E400000F07E01A16165
:101A0000207F400000F07E00E06194F820707F00AD
:101A100007F07E072762072D16D2DFE805F01504D0
:101A2000070A0D101300761CE6600DE05B1C2361B5
:101A30000AE0521C626107E0491CA16104E0401CFD
:101A4000E06101E07F1C27620521304600F06EFD59
:101A5000052801D1012060710521206900F066FD93
:101A6000052801D1022060710521606900F05EFD4A
:101A7000052801D1032060710521A06900F056FD01
:101A8000052801D1042060710521E06900F04EFDB8
:101A9000052800D160710521206A00F047FD052866
:101AA00001D1062060710DB9002060716079BDE838
:101AB000F0812DE9F04F8F4C17460246E088B5B013
:101AC0000E46C82801D8401CE0808B4D10462946A0
:101AD00009F08AFE80462946304609F085FE064612
:101AE0002946384609F080FE054660789621401C5C
:101AF000B0FBF1F201FB120060701190207838B158
:101B0000A0783221B0FBF1F201FB1200401CA07062
:101B100040460AF0E3F8119A02EB4203774A02EBDF
:101B2000C307C7E9000130460AF0D8F8C7E9020147
:101B300028460AF0D3F8C7E904012946084609F007
:101B400021FE07463146084609F01CFE054641467F
:101B5000084609F017FE294609F0BCFD394609F090
:101B6000B9FD0AF0BBF8664A119B02EBC303C3E957
:101B7000000103461198952801D1012020705D488D
:101B800000F5DC7290F8038002EBC800C0E9003178
:101B900002F12801002301EBC8001C90C0E90033CA
:101BA0001C461D4601F1280303EBC8001990C0E94B
:101BB000004501F1500505EBC80000241890C0E96C
:101BC000004401F1780606EBC8001790C0E9004414
:101BD00001F1A00707EBC8001B90C0E90044A03149
:101BE00001EBC80028391A9001EBC800283901EB35
:101BF000C80B283901EBC80A283901EBC80916902F
:101C0000A8EB04000521401D90FBF1F201FB12003E
:101C1000C7B23C4800EBC700D0E9005335481E4628
:101C2000283000EBC4012A46D1E9000109F0CDFEBD
:101C3000D9E9002309F022FEC9E90001CDE9080134
:101C40002C483346783000EBC4012A46D1E9000124
:101C500009F0BBFEDAE9002309F010FECAE9000131
:101C6000CDE9040123483346C83000EBC4012A46BD
:101C7000D1E9000148E0000059A55D4067ED763EDE
:101C8000FAB462BF1CEEF3BE30F09CBD0A45A4421C
:101C90001B4C033EB33F2340054F213D756C57C29B
:101CA000111D823C58E1D63DDFB377421D2F45C25E
:101CB0004A090B405D6CA23EBE4DBF3D09C1EA3DE5
:101CC00035796EBFCBBADF3EE4B8F838FFFFB7BD59
:101CD000FFFF6B00000070C20000A04034D6763FCA
:101CE000000034420AD7233D00009CC200000C4291
:101CF0000000984230150020CDCC1CC1305400208B
:101D000040620020E816002009F05FFEDBE90023B6
:101D100009F0B4FDCBE90001CDE90A01FE483346E4
:101D200000EBC4012A46D1E9000109F04EFE169BE2
:101D3000D3E9002309F0A2FD169A3346C2E9000157
:101D4000CDE90601F4482A46503000EBC401D1E940
:101D5000000109F03AFE1A9BD3E9002309F08EFD39
:101D60001A9A05460E46C2E90001002C64D0EA48E2
:101D7000E949C83000EBC700C839D0E9002301EBBE
:101D8000C401D1E9000109F020FEDDE9082309F0D2
:101D900019FEC9E90001E048DF49F03000EBC70057
:101DA0007839D0E9002301EBC401D1E9000109F041
:101DB0000CFEDDE9042309F005FECAE90001D7485D
:101DC000D54900EBC7002839D0E9002301EBC40155
:101DD000D1E9000109F0F9FDDDE90A2309F0F2FD7E
:101DE000CBE90001CD48CC49283000EBC7002831B1
:101DF000D0E9002301EBC401D1E9000109F0E5FDC0
:101E0000DDE9062309F0DEFD169AC2E90001C348A8
:101E1000C149503000EBC7007831D0E9002301EB15
:101E2000C401D1E9000109F0D0FD2A46334609F08A
:101E3000C9FD1A9AC2E90001641CE4B2052CFFF442
:101E4000DFAE1C98B74AB649D0E90034119800EBD0
:101E5000800002EBC000C0E90034199BD3E90043C5
:101E6000C0E90243189CD4E90034C0E90434179B4C
:101E7000D3E90043C0E906431B9CD4E90034C0E920
:101E8000083408F101000523B0FBF3F403FB140050
:101E9000C870887832287DD108460078002879D02B
:101EA00000202990329024909F4825900020319066
:101EB00030902F902790269028902090219022906B
:101EC0001F9023900290039004460DF17C0B049028
:101ED000DFF850A2002504EB840900BF09EB0501DF
:101EE0000AEBC101D1E900010B46024609F06DFD84
:101EF00006460F46D8465BF8250009F0EFFE32464D
:101F00003B4609F0BBFC09F02DFF48F825006D1C8D
:101F1000EDB2052DE2D3DFF81482002504EB440670
:101F200002AF57F8250009F0D9FE731908EBC30377
:101F3000D3E9002309F0A2FC09F014FF47F82500BB
:101F40006D1CEDB2032DEBD3319809F0C7FE08EB01
:101F5000C6060F46D6E900918A460B464A463946E0
:101F600009F08CFC09F0FEFE3190309809F0B6FEC5
:101F7000D6E9027290463A46434609F07FFC09F0E2
:101F8000F1FE30902F9809F0A9FED6E904261546F7
:101F9000334600E06DE109F071FC09F0E3FE4A46CA
:101FA00053462F901046194609F00FFD81468A4688
:101FB000279809F093FE4A46534609F05FFC09F062
:101FC000D1FE434627903A461946384609F0FDFCB3
:101FD00007468846269809F081FE3A46434609F0AE
:101FE0004DFC09F0BFFE334626902A462846194686
:101FF00009F0EBFC06460D46289809F06FFE3246C4
:102000002B4609F03BFC09F0ADFE2890329809F010
:1020100065FE474A02EBC407D7E9005633462A4615
:1020200009F02CFC09F09EFE33462A4632901946F0
:10203000104609F0CAFC80468946299809F04EFEF0
:1020400042464B4609F01AFC09F08CFE2990249870
:1020500009F044FE33462A4609F054FE04D2D7E97B
:10206000000109F07FFE2490259809F037FED7E99A
:10207000002309F05FFE04D2D7E9000109F072FEE7
:102080002590641CE4B2962CFFF422AF9625002420
:102090005E46A24605AF209810F0FF4F07D056F8D5
:1020A0002400209909F0A0FB47F8240001E047F83C
:1020B00024A0641CE4B2052CEDD3002402AE284613
:1020C00009F084FDCDF8B40056F8242001461046EE
:1020D00009F08AFB46F82400641CE4B2032C01D208
:1020E0002D98F1E70499029809F07EFB09F0F6FDBE
:1020F0001DF02AFBDFF83C80DFF83CB042465B462F
:1021000009F063FC09F02EFE02998146084609F0A9
:1021100039FB0446049911E048160020601700209E
:1021200030150020C03C0020000020413054002029
:1021300040620020F5C1631ADCA54C40084609F056
:1021400021FB214609F0C6FA09F0C8FD1EF0B2FDD8
:1021500004460E46039809F0C1FD2246334609F0B5
:10216000A6FC1DF0F1FA42465B4609F02EFC09F090
:10217000F9FD8046DDE9240109F0FEFA32992B9041
:1021800008462D9C09F0FEFA214609F02DFB2999FD
:1021900009F0F5FA0446681E09F00FFD834659461A
:1021A000204609F021FB3199074608462D9C09F08D
:1021B000E9FA214609F018FB279909F0E0FA30996D
:1021C000064608462D9C09F0DDFA214609F00CFB75
:1021D000269909F0D4FA2F99044608462D9D09F056
:1021E000D1FA294609F000FB289909F0C8FA0546FA
:1021F0002146304609F06EFA294609F06BFA594635
:1022000009F0F2FA01461F980A9020980B90219845
:102210000C9022980D9023980E9005980F90069898
:1022200010900798119008981290099813900298AE
:102230001490039815900498CDE91609CDF86080A4
:102240002B98CDE91907CDE91D51CDE91B640AA8EA
:10225000FFF75DFBBD4C0528207101D0062804D195
:10226000E088C82801D284F804A02079FFF7B0FBE9
:102270002071B648007935B0BDE8F08F2DE9F04106
:10228000064614460D4691F9020009F096FCA16835
:1022900009F078FA804695F9010009F08EFC616832
:1022A00009F070FA074695F9000009F086FC2168EC
:1022B00009F068FA394609F00DFA414609F00AFAC0
:1022C000306095F9050009F078FCA16809F05AFA28
:1022D000804695F9040009F070FC616809F052FA33
:1022E000074695F9030009F068FC216809F04AFAED
:1022F000394609F0EFF9414609F0ECF9706095F9BB
:10230000080009F05AFCA16809F03CFA804695F9EA
:10231000070009F052FC616809F034FA074695F9A4
:10232000060009F04AFC216809F02CFA394609F048
:10233000D1F9414609F0CEF9B060BDE8F08138B579
:102340000022834913468B54521CD2B2092AFAD375
:1023500000226C46835CA3F14205182D00D2203385
:10236000A354521CD2B2032AF4D39DF800300120AA
:10237000821E732B12D006DC642B13D0652B07D082
:102380006E2B10D106E0752B0AD0772B0BD103E012
:10239000087008E0C87006E00A7004E0CA7002E045
:1023A000887100E08A719DF80130732B12D006DC31
:1023B000642B13D0652B07D06E2B10D106E0752B44
:1023C0000AD0772B0BD103E0487008E0087106E0D3
:1023D0004A7004E00A7102E0C87100E0CA719DF819
:1023E0000230732B10D007DC642B11D0652B09D081
:1023F0006E2B00D1487138BD752B07D0772BFAD1E1
:102400008A7038BD887038BD4A7138BD087238BDD1
:102410000A7238BD0120704730B54E4D044687B072
:102420000068294609F0AEF900902946606809F075
:10243000A9F901902946A06809F0A4F902906A461A
:10244000434903A8FFF71AFF03AB93E80700FFF720
:1024500030FB07B030BD72E710B58AB004462422C5
:102460003D49684608F0F6FF6946204609F057F8EE
:10247000684609F040F80AB0C0B210BD70B542F22B
:1024800037754FF48174354A2946204608F0F5FE29
:10249000002816D0204608F023FF002811D02E492E
:1024A00020461039694008F0AEFF002809D02046C8
:1024B00008F05EFF25490028886002D00068804748
:1024C000012070BD10B504464FF4817008F008FF7C
:1024D00038B11E48816821B189682046BDE81040A6
:1024E0000847002010BD10B504464FF4817008F075
:1024F000F7FE002808D015488168002904D04968F3
:102500002046BDE81040084710BD10B504464FF402
:10251000817008F0E5FE38B10C48816821B1C968C6
:102520002046BDE810400847002010BD034610B506
:102530000020024606E0DC0701D0401CC0B25B0868
:10254000521CD2B28A42F6D310BD000030150020D2
:10255000F0660020C3F51C41C4110408943000202B
:1025600070B504460068014609F00CF9064660683B
:10257000014609F007F90546A068014609F002F98D
:1025800004463046294609F0A5F8214609F0A2F88C
:1025900009F0A4FB1EF08EFBBDE8704009F0E2BB21
:1025A0002DE9F04FD0F800900C46064683B049461E
:1025B000484609F0E7F8D6F8048005464146484603
:1025C00009F0E0F80290B7684846394609F0DAF8B1
:1025D0000190F6684846314609F0D4F882464146F3
:1025E000084609F0CFF881463946404609F0CAF856
:1025F00083463146404609F0C5F8804639460846CC
:1026000009F0C0F800903146384609F0BBF807469B
:102610003146084609F0B6F8002106462046042255
:102620002160416040F8081F521EFAD149462846F1
:1026300009F0A2F8009909F09FF8314609F04AF82C
:1026400020603946029809F045F8012109F00AF99D
:10265000E0604146019809F08FF8012109F002F984
:10266000A0613946029809F087F8012109F0FAF8CB
:1026700060602946484609F07FF8009909F07CF827
:10268000314609F027F820615146584609F022F8F2
:10269000012109F0E7F8E0614146019809F01AF8D4
:1026A000012109F0DFF8A0605146584609F064F8AE
:1026B000012109F0D7F8606185F00040494609F032
:1026C0005BF8009909F006F8314609F003F820623A
:1026D00003B0BDE8F08F38B40125ADF800509DF887
:1026E000002000216FF00044012A19BF22464FF05C
:1026F000FF33FE4B0A46DFF8F8C3CCE92A23ADF8D6
:1027000000509DF80020012A08BFFA4CCCF8604028
:10271000D3B2F94AADF80050012B12BF0B46134655
:102720000A46CCE926234FF0FF42CCF85820ADF8FA
:1027300000509DF80030F14A012B12BF0B461346A2
:102740000A46CCE92823EE4ACCF85C2080F8CE1863
:1027500080F8CD1880F8CC1838BC70472DE9F047C8
:102760000E46044600684FF07E5108F0B3FF216921
:1027700009F002F8216A08F0FFFF0546B0F5000FE6
:10278000B8BF00256169E06908F0F6FF10F1FF4F5E
:102790002CBF4FF0FF394FF00109A169A06808F084
:1027A000EBFF10F1FF4F2CBF4FF0FF384FF0010847
:1027B0006168E06808F0E0FF10F1FF4F2CBF4FF0B8
:1027C000FF370127484609F0F8F98146284609F005
:1027D00085FA1EF06FFA09F0C5FA4FF0FF3109F0E3
:1027E00041F8494608F0CEFF30604FF07E50216836
:1027F00008F0C2FF216908F06DFF216A08F0BCFFF4
:102800000546B0F5000FA4BF294609F0C7FA18BF66
:102810000025404609F0D1F98046284609F05EFAC5
:102820001EF048FA09F09EFA4FF0FF3109F01AF84D
:10283000414608F0A7FF70604FF07E50216808F015
:102840009BFF216908F098FF216A08F043FF0546C5
:10285000B0F5000FA4BF294609F0A0FA18BF002563
:10286000384609F0AAF90746284609F037FA1EF05B
:1028700021FA09F077FA4FF0FF3108F0F3FF3946FB
:1028800008F080FFB0604FF07E51206808F022FF12
:10289000216908F01FFF216A08F01CFF0446B0F50B
:1028A000000FA4BF214609F079FA18BF0024204682
:1028B00009F014FA1EF0FEF909F054FA4FF0FF3156
:1028C00008F0D0FFF060BDE8F0872DE9F04F8D4CA7
:1028D00087B004EB001C04EB0110BCF90690B0F9C2
:1028E0000610009104EB021104EB0313B1F906602A
:1028F000B3F906200592B0F90820B1F90850BCF9E7
:102900000880B3F908400494B1F90A40B0F90A000C
:10291000BCF90A70B3F90A100391A8EB0501A0EB0A
:10292000040B01FB0BF0E11BA2EB050A01FB0A0003
:1029300009F043F902900099381B8F1B7843A6EBEE
:10294000090101FB0B0009F038F90190A9EB060021
:1029500000FB0AF0A5EB080101FB070009F02DF9C7
:102960000090204609F029F9009908F00BFF044671
:10297000284609F022F9019908F004FF054630467F
:1029800009F01BF9029908F0FDFE294608F0A2FEA5
:10299000214608F09FFE80F000400099069008460E
:1029A00008F0F0FE01990446084608F0EBFE029993
:1029B0000546084608F0E6FE294608F08BFE21464B
:1029C00008F088FE002401254F4FDFF84081DFF832
:1029D0004091DFF840A1DFF840B142F21076B0F14B
:1029E0009F4F5ADA09F02EF901002FD0042938BF81
:1029F0002C462BD3B14238BF022018D3B94238BF7E
:102A0000642014D3414538BF4FF49E700FD349451D
:102A100038BF4FF47A700AD3514538BF40F65A4058
:102A200005D3594534BF42F2107047F68630B1FBEA
:102A3000F0F282428CBF131A831A022B24BF104477
:102A40004008F4D2824298BF104684B2204609F072
:102A5000BDF80446039809F0B0F8009908F092FE1A
:102A60000646049809F0A9F8019908F08BFE05467E
:102A7000059809F0A2F8029908F084FE294608F0AA
:102A800029FE314608F026FE069908F023FE10F1D3
:102A9000FF4F28BF80F000407DE0204908F0A4FEF1
:102AA00009F0D0F801004AD0042938BF2C4646D39B
:102AB000B14238BF022018D3B94238BF642014D3C2
:102AC000414538BF4FF49E700FD3494538BF4FF48E
:102AD0007A700AD3514538BF40F65A4005D359455C
:102AE00034BF42F2107047F6863019E00000F8FF5C
:102AF000D81700200000C0FF0000F07F0000F0FFAA
:102B0000000080FFE8690020A086010040420F001D
:102B10008096980000E1F50500CA9A3B0000C84283
:102B2000B1FBF0F282428CBF131A831A022B24BF2E
:102B300010444008D9D2824298BF104684B2204641
:102B400009F044F80446039809F037F8009908F0B2
:102B500019FE0646049809F030F8019908F012FEB3
:102B60000546059809F029F8029908F00BFE294658
:102B700008F0B0FD314608F0ADFD069908F0AAFD59
:102B80000546FE4908F030FE10F1FF4F03D32846FA
:102B9000FB4908F029FE214608F026FEF94D0446BF
:102BA000F949B5F90800C0EBC00081FB00108110A5
:102BB000A1EBE07009F001F8214609F0EFF80CD222
:102BC000B5F90800C00008F0F8FF214609F0F0F858
:102BD0003EBF012007B0BDE8F08F002007B0BDE880
:102BE000F08F2DE9F04FE74BE84C01215F7900258C
:102BF000ADB0322F51D2002F00F0E682B3F90810A9
:102C00003A224A43DFF888939046AC46C9FB08C293
:102C10004FEAE21CACEBE27B04EB0716B0F90620AE
:102C200036F90ACC29466245D4BF9246E246DA44D8
:102C3000D8BF624652452ADC42468C46C9FB08C2D0
:102C40004FEAE21CACEBE27BB0F9082036F908CC85
:102C50006245CCBFE2469246DA44D8BF624652454E
:102C600015DCC9FB08184FEAE811A1EBE878B0F9C8
:102C70000A2036F9061C8A42CCBF8C469446C444CE
:102C8000C8BF11468C45A4BF2DB0BDE8F08F791C9C
:102C9000597190E8071086E807105879322807BF65
:102CA000002003902DB0BDE8F08F401C2A90C0B2E8
:102CB0000290322880F06E82B449039801EB001034
:102CC00029900298401CC5B22890322D80F05C8279
:102CD000AE49029801EB00102790681CC4B2269000
:102CE000322C80F04C82A94800EB05102590DDE9DC
:102CF000021023462A46FFF7E8FD002800F03F8235
:102D0000DDE902102B462246FFF7DFFD002800F028
:102D10003682DDE902302A462146FFF7D6FD00283B
:102D200000F02D82DDE9020322462946FFF7CDFDA2
:102D3000002800F02482DDF8A4C0279B934EBCF944
:102D4000060021901A90B3F906101191259A24914A
:102D500006EB0411B2F9060023900790B1F906E0E2
:102D6000CDF888E0CDF830E0BCF908001490199057
:102D7000B3F90860B2F90890CDF84890B1F90800AD
:102D80001F901590BCF90AB0B3F90A80CDF8708095
:102D9000B2F90A701E97B1F90AA011991A98401A4F
:102DA000400008F00AFF0B901998801B400008F0C3
:102DB00004FF1690ABEB0800400008F0FEFE0A90FE
:102DC00011990798081A400008F0F7FE0590A6EB45
:102DD0000900400008F0F1FE0690A8EB0700400053
:102DE00008F0EBFE0490DDF830E00798A0EB0E0051
:102DF000400008F0E2FE09901598A9EB00004000A1
:102E000008F0DBFE1790A7EB0A00400008F0D5FEA3
:102E100008901A9800FB00F1199800FB0010119916
:102E20000BFB0B00494306FB061108FB0818A0EB3F
:102E3000080008F0C2FE0F900798404309FB090004
:102E400007FB0707A8EB070008F0B7FE0790DDF8BF
:102E500030E015980EFB0EF100FB00100AFB0A0093
:102E6000381A08F0AAFE0C900A99069808F08AFC15
:102E700007460499169808F085FC394608F07CFC52
:102E8000189007460499099808F07CFC8046159034
:102E90000899059808F076FC41461B9008F06CFCF8
:102EA000394608F06FFC81460499179808F06AFCCF
:102EB00007460899069808F065FC394608F05CFC5E
:102EC000199007460A99059808F05CFC8046049919
:102ED0000B9808F057FC41462B9008F04DFC394602
:102EE00008F050FC494608F047FC814640462B99C3
:102EF00008F042FC07461A901799059808F042FC22
:102F000080460999069808F03DFC414608F034FCDB
:102F100039462B9008F036FC80461B99159808F02E
:102F20002BFC074617900B99069808F02BFC06908F
:102F30000599169808F026FC069908F01DFC3946FC
:102F4000159008F01FFC4146109008F015FC07464C
:102F50002B9816901099404608F00EFC804619F008
:102F6000FF4F1CBF17F0FF4F18F0FF4F00F0078115
:102F70001898119004990C980CE000000000204172
:102F8000000020C1D817002067666666E869002047
:102F900003B57EA508F0F6FB1090DDE9070108F007
:102FA000F1FB109908F0E8FB119908F0EBFB109089
:102FB000199808900A99079808F0E4FB0A90049978
:102FC0000F9808F0DFFB0A9908F0D6FB089908F083
:102FD000D9FB109908F0D0FB494608F005FC08F031
:102FE00018FE0FFA80F9FD48A0F80A901A9804908C
:102FF00005990C9808F0C6FB0C900999079808F001
:10300000C1FB0C9908F0B8FB0C90049908F0BAFBCE
:103010000490179809900B99079808F0B3FB079054
:1030200005990F9808F0AEFB079908F0A5FB0D90E5
:10303000099908F0A7FB049908F09EFB394608F0AF
:10304000D3FB08F0E6FD07B2E448878115990C9898
:1030500008F098FB049016990D9808F093FB0499DA
:1030600008F08AFB414608F0BFFB08F0D2FD02B22F
:10307000DA48ABEB020109B2C2812198A0EB09004A
:1030800003B214985B43C01B00B200FB003001FB8D
:10309000010CD248B0F9080000FB00F1BCEB011FA5
:1030A0006DDCCF4B4FEA011883FB08834FEAE3083E
:1030B000CA48A8EBE373634561DCDDF890C0ACEB74
:1030C000090C0FFA8CF8A6EB070C1C9E0FFA8CFC6F
:1030D00008FB08F8B61A0CFB0C8C36B206FB06CCC3
:1030E000BCEB011FD8BF634549DCDDF88CC0ACEBFD
:1030F000090C0FFA8CF8DDF848C008FB08F8ACEBB7
:10310000070C0FFA8CF6DDF878C006FB0686ACEBF0
:10311000020C0FFA8CFC0CFB0C6CBCEB011FD8BF33
:1031200063452CDCDDF888C0ACEB090C0FFA8CF899
:10313000DDF87CC008FB08F8ACEB070C0FFA8CF646
:10314000AAEB020C06FB06860FFA8CFC0CFB0C6C3F
:10315000BCEB011FD8BF634511DC018A491C018209
:10316000436E03EB09014166816E39448166C16E8D
:103170001144C166601CC4B2322CFFF4B8AD26986D
:10318000C5B2322DFFF4A9AD2898C0B20290322802
:10319000FFF497AD2A98C0B203903228FFF485ADB2
:1031A0008E48018A642916D80289002141818181D3
:1031B000C1814171018241668A4B8166C166D960D5
:1031C00002812DB0BDE8F08F59710FC884E80F005F
:1031D0002DB0BDE8F08F426E92FBF1F24281826E1B
:1031E00092FBF1F28281C26E92FBF1F1C1812DB0AE
:1031F000BDE8F08F10B5794CFA224FF47A71228134
:10320000618200206081A081E0816071208260661F
:103210007449A066E066C86001F54C70406908F02A
:10322000F8FCA06110BD704B188059809A807047DF
:103230006D4BD88019815A810020D86070472DE9E4
:10324000F04780460020014604460546A8F10806DE
:103250005FF00507D6E9022308F010FBF6E9042326
:1032600008F00CFB7F1EF5D1DFF8809100224B4661
:1032700008F01DFC06460F464FF0050AA8F10808A5
:103280003246D8E902013B4608F099FB00224FF094
:1032900080431CF06BFF00224B4608F008FC2246DE
:1032A0002B4608F0EBFA04460D46F8E904013246D5
:1032B0003B4608F084FB00224FF080431CF056FF91
:1032C00000224B4608F0F3FB22462B4608F0D6FAC4
:1032D00004460D46BAF1010AD2D1BDE8F0471DF00F
:1032E000E9BC2DE9F04FDFF8F490DFF804A10027E6
:1032F00099F806008DB0AAF1100500284CD099F875
:10330000050001273B4C32281BD0D9E92C010022B3
:10331000234608F00FFD0DD3D9E92E0100222346E4
:1033200008F008FD06D3D9E930010022234608F051
:1033300001FD02D22C48FFF754FC99F80500322811
:103340002AD12B48B9F90A100180B9F90C00AAF862
:103350000200B9F90E20AAF80420B5F90630591A6E
:10336000B5F908304943181A00FB0011B5F90A00F5
:10337000801A00FB001008F02EFC1DF09BFC08F0EA
:10338000F1FCCAF8140008F044FCC9F81800002049
:10339000C9F8740089F80600B5F9060008F00DFCBC
:1033A0000390B5F9080008F008FC0290B5F90A008E
:1033B00008F003FC8046BAF9000008F0FEFB069016
:1033C000BAF9020008F0F9FB0590BAF9040008F018
:1033D000F4FB0490D9F834000A280DE0D817002037
:1033E0001F85EB51E8690020086D00200000244093
:1033F000186D002000C06240DCBF401CC9F83400DA
:103400000024FE4EDFF8F8A304EB440B039856F8B3
:103410002B1008F0B1F906EB8B0B0790DBF80410CA
:10342000029808F0A9F90B904046DBF8081008F064
:10343000A3F9014608F0A6F90B990090084608F098
:10344000A1F907998346084608F09CF9594608F007
:1034500041F9009908F03EF908F040FC1DF02AFC03
:1034600008F080FC50451CDB641C0A2CCCDBD9F82E
:103470003810039A01EB410046F8202006EB80004B
:10348000029AC0E90128481CDE4981FB00218A100C
:10349000A2EBE171494201EB810100EB4100C9F867
:1034A0003800D9F834000A285FDBD44C4FF000080C
:1034B0004FF00A0A2068069908F05EF907906068E4
:1034C000059908F059F90646A068049908F054F9DE
:1034D000014608F057F983463146084608F052F98C
:1034E00007990646084608F04DF9314608F0F2F80B
:1034F000594608F0EFF808F0F1FB1DF0DBFB002265
:10350000C14B08F0D4FA83460E46404608F0E6FB6D
:103510005A46334608F0B2F908F024FC0C348046D1
:10352000BAF1010AC6D1D9F8180008F046FB0646E0
:10353000414608F059F904463146404608F054F92E
:10354000214608F035FCD9F8180004D208F035FB04
:103550000146404602E008F030FB414608F044F9DD
:1035600008F057FB6421484300D16420C9F870007B
:10357000822814D9D9F8740088B9002089F8050088
:10358000A9F81000C9F86400A049C9F86800C9F892
:103590006C00C8600120C9F8740089F806009C4ED0
:1035A000D9F83CA0002406F1F008BAF10A0F2CDA91
:1035B000B5F9000008F00FFB06EBCA04C4E90001EE
:1035C000B5F9020008F007FBC4E91401B5F90400DD
:1035D00008F001FBC4E92801B5F9060008F0FBFA80
:1035E00008EBCA04C4E90001B5F9080008F0F3FAD1
:1035F000C4E91401B5F90A0008F0EDFAC4E928019C
:103600000AF10100C9F83C0057E00A218048FFF7A1
:1036100016FEC9E92C010A2106F15000FFF70FFE42
:10362000C9E92E010A2106F1A000FFF708FEC9E949
:10363000300100BF06EBC400D0E90212C0E900125D
:10364000D0E91612C0E91412D0E92A12C0E92812F2
:1036500008EBC400641CD0E90212C0E90012D0E9F2
:103660001612C0E91412D0E92A12C0E92812092C56
:10367000E0DBB5F9000008F0AEFAC6E91201B5F9D1
:10368000020008F0A8FAC6E92601B5F9040008F01E
:10369000A2FAC6E93A01B5F9060008F09CFAC8E9B1
:1036A0001201B5F9080008F096FAC8E92601B5F943
:1036B0000A0008F090FAC8E93A010DB03846BDE8B2
:1036C000F08F5448407932280CBF01200020704709
:1036D000002150484D4A4171018241668166C166B0
:1036E000D16001214167817170474B490A8802808E
:1036F0004A8842808A8882808A688260CA68C260FA
:103700000A690261496941617047434902880A8038
:1037100042884A8082888A8082688A60C268CA60D9
:1037200002690A6142694A6103884188828839488E
:1037300043818181C2813221417170472DE9F05F5F
:10374000054698461446894621F0004008F0C6FA1E
:103750008B468246314E324F29F0004125F0004021
:1037600008F026FB69D224F0004125F0004008F063
:103770001FFB62D25046B5F5000F5946B14632469E
:10378000BA463B4622DB08F020F906460F4625F0F4
:10379000004008F0A3FA8B46054632463B4608F047
:1037A000C9FA80F0E48024F0004008F097FA4A4615
:1037B000534608F00AF902460B462846594608F0D7
:1037C000B9FA38BF04207DD2BDE8F09F08F0FDF8BB
:1037D00006460F4625F0004008F080FA8B46054665
:1037E0003B46324608F0A6FA6CD224F0004008F0BE
:1037F00075FA4A46534608F0E8F813E000670020DF
:103800000000A0406766666600002440E86900206A
:1038100078670020D8170020186D0020B81E85EBAF
:1038200051B8F63F02460B462846594608F082FA40
:1038300038BF052046D2BDE8F09F24F0004129F0B2
:10384000004008F0B5FA46D2B9F5000F25F0004067
:103850001FDB08F043FA32463B4608F0B6F8024652
:103860000B465046594608F065FA2BD224F000402A
:1038700008F034FA32463B4608F0A7F802460B46F9
:103880005046594608F056FA38BF01206FD2BDE8BD
:10389000F09F08F023FA32463B4608F096F80246BD
:1038A0000B465046594608F045FA60D224F00040D5
:1038B00008F014FA32463B4608F087F802460B46F9
:1038C000504600E053E0594608F034FA38BF032070
:1038D0004DD2BDE8F09F5046B4F5000F5946B146B1
:1038E0003246BA463B4621DB08F06FF806460F46E3
:1038F00024F0004008F0F2F98B46044632463B467D
:1039000008F018FA33D225F0004008F0E7F94A46EB
:10391000534608F05AF802460B462046594608F02E
:1039200009FA38BF002022D2BDE8F09F08F04DF818
:1039300006460F4624F0004008F0D0F98B460446B6
:1039400032463B4608F0F6F911D225F0004008F067
:10395000C5F94A46534608F038F802460B46204659
:10396000594608F0E7F93CBF0220BDE8F09F404609
:10397000BDE8F09F2DE9F04F0E46F849DFF8E093DF
:10398000D2F800C091F8524090E8A2015068D9F8EE
:103990004030926883B0B4B12C460D4687F00047A2
:1039A00082F000426146FFF7C9FEC9F84000DFF827
:1039B000B493DFF8B4A3ED4906287CD2DFE800F029
:1039C0000B0D5155510B0C4601466046FFF7B6FEF4
:1039D000C9F84000EBE7366890E02146084607F05A
:1039E000D1FE29460090084607F0CCFE064639462F
:1039F000084607F0C7FE83464146084607F0C2FE68
:103A000001903146009807F0B7FE594607F0B4FE22
:103A1000019907F05FFE08F061F906468B464146C2
:103A2000384607F0AFFE07462946204607F0AAFEB3
:103A3000394607F04FFE012107F014FF08F04EF958
:103A40005B4632461BF090FF00224B4607F0BDFF5D
:103A50005246C74B08F02BF80022C64B07F0AFFFC9
:103A600049E0306807F036FE47E02146C346084685
:103A700007F088FE80462946084607F083FE064682
:103A80003946084607F07EFE59460090084607F082
:103A900079FE01903146404607F06EFE009907F02E
:103AA0006BFE019907F016FE08F018F980460E46E5
:103AB0005946384600E021E007F064FE07462946F3
:103AC000204607F05FFE394607F004FE012107F0AB
:103AD000C9FE08F003F9424633461BF045FF0022B9
:103AE0004B4607F072FF5246A14B07F0E0FF002261
:103AF000A04B07F0C3FE08F035F906469E4CA642DF
:103B000004DB2146304607F037FE064616F1FF4F2C
:103B100004D32146304607F0DDFD064603B03046AB
:103B2000BDE8F08F2DE9F05F894682469046092175
:103B3000924807F0B7FCDFF848B20022CBF8C92260
:103B4000CBF8CD228BF8D122CBF8D222CBF8D622DB
:103B50008BF8DA229AF80010A1F1420018282046CA
:103B600038BF203161F3070099F80010A1F142033A
:103B7000182B38BF203161F3070698F80010A1F127
:103B80004203182B38BF203161F307079AF8011060
:103B9000A1F14203182B38BF203161F30F2099F8AF
:103BA0000110A1F14203182B38BF203161F30F2619
:103BB00098F80110A1F14203182B38BF203161F3AE
:103BC0000F279AF80210A1F14203182B38BF2031B9
:103BD00061F3174099F80210A1F14203182B38BF86
:103BE000203161F3174698F80210A1F14203182B17
:103BF00038BF203161F317470124C3B25F49A51EC6
:103C0000732B08BFCD7013D00BDC642B08BF8D71F4
:103C10000ED0652B08BF0C700AD06E2B08BFCC707D
:103C200006E0752B08BF8C7102D0772B08BF0D7092
:103C3000C0F30723732B08BF0D7113D00BDC642B6B
:103C400008BFCD710ED0652B08BF4C700AD06E2B0B
:103C500008BF0C7106E0752B08BFCC7102D0772B22
:103C600008BF4D70C0F30740732808BF4D7113D0D3
:103C70000BDC642808BF0D720ED0652808BF8C705D
:103C80000AD06E2808BF4C7106E0752808BF0C7278
:103C900002D0772808BF8D70F1B23A48732908BF67
:103CA000C57013D00BDC642908BF85710ED065295F
:103CB00008BF04700AD06E2908BFC47006E07529D9
:103CC00008BF847102D0772908BF0570C6F30721A9
:103CD000732908BF057113D00BDC642908BFC571B7
:103CE0000ED0652908BF44700AD06E2908BF047140
:103CF00006E0752908BFC47102D0772908BF457056
:103D0000C6F30741732908BF457113D00BDC642942
:103D100008BF05720ED0652908BF84700AD06E29CD
:103D200008BF447106E0752908BF047202D07729E4
:103D300008BF8570F9B21448732908BFC5702CD02C
:103D400024DC642908BF857127D0652908BF047069
:103D500023D06E2908BFC4701FE00000286E002029
:103D6000D8170020008066406F1283C000003443E3
:103D7000CA210940008056400000B443C0710020B1
:103D8000006F0020D2710020C9710020752908BF82
:103D9000847102D0772908BF0570C7F30721732902
:103DA00008BF057113D00BDC642908BFC5710ED0A4
:103DB000652908BF44700AD06E2908BF047106E067
:103DC000752908BFC47102D0772908BF4570C7F3B1
:103DD0000741732908BF457113D00BDC642908BF64
:103DE00005720ED0652908BF84700AD06E2908BFFD
:103DF000447106E0752908BF047202D0772908BF14
:103E000085701646CBF8DB22CBF8DF228BF8E32255
:103E1000FE4F38461AF00AFBCBF8ED62CBF8F162A0
:103E20008BF8F5629AF800002246A0F142011829A9
:103E300038BF203060F3070299F80010A1F142006A
:103E40001828204638BF203161F3070098F8003069
:103E5000A3F142011829214638BF203363F307013B
:103E60009AF80130A3F1420CBCF1180F38BF20338F
:103E700063F30F2299F80130A3F1420CBCF1180F43
:103E800038BF203363F30F2098F80130A3F1420CC0
:103E9000BCF1180F38BF203363F30F219AF80230BA
:103EA000A3F1420CBCF1180F38BF203363F3174263
:103EB00099F80230A3F1420CBCF1180F38BF20333F
:103EC00063F3174098F80230A3F1420CBCF1180FCD
:103ED00038BF203363F3174102F0FF0CCC4BBCF129
:103EE000730F08BFDD7018D00EDCBCF1640F08BF83
:103EF0009D7112D0BCF1650F08BF1C700DD0BCF1D4
:103F00006E0F08BFDC7008E0BCF1750F08BF9C7134
:103F100003D0BCF1770F08BF1D70C2F3072CBCF1B2
:103F2000730F08BF1D7118D00EDCBCF1640F08BF01
:103F3000DD7112D0BCF1650F08BF5C700DD0BCF113
:103F40006E0F08BF1C7108E0BCF1750F08BFDC7173
:103F500003D0BCF1770F08BF5D70C2F30742732A2C
:103F600008BF5D7113D00BDC642A08BF1D720ED030
:103F7000652A08BF9C700AD06E2A08BF5C7106E0F3
:103F8000752A08BF1C7202D0772A08BF9D70C3B281
:103F9000A04A732B08BFD57013D00BDC642B08BF6D
:103FA00095710ED0652B08BF14700AD06E2B08BF18
:103FB000D47006E0752B08BF947102D0772B08BF30
:103FC0001570C0F30723732B08BF157113D00BDCDA
:103FD000642B08BFD5710ED0652B08BF54700AD072
:103FE0006E2B08BF147106E0752B08BFD47102D088
:103FF000772B08BF5570C0F30740732808BF557171
:1040000013D00BDC642808BF15720ED0652808BFDA
:1040100094700AD06E2808BF547106E0752808BF56
:10402000147202D0772808BF9570C8B2732808BFF1
:10403000FD7013D00BDC642808BFBD710ED065285D
:1040400008BF3C700AD06E2808BFFC7006E07528D7
:1040500008BFBC7102D0772808BF3D70C1F30720AC
:10406000732808BF3D7113D00BDC642808BFFD71B5
:104070000ED0652808BF7C700AD06E2808BF3C713E
:1040800006E0752808BFFC7102D0772808BF7D7054
:10409000C1F30740732804BF7D71BDE8F09F0EDCBB
:1040A000642804BF3D72BDE8F09F652804BFBC7062
:1040B000BDE8F09F6E2808BF7C71BDE8F09F7528B1
:1040C00004BF3C72BDE8F09F772808BFBD70BDE813
:1040D000F09F514B93E80E1080E80E1070472DE9C9
:1040E000F05F4F4800244D4D8467C46705F5127694
:1040F000C830FEF7F0FA092105F5926007F0D2F911
:1041000005F5E8774748C7F8C942C7F8CD4287F8B0
:10411000D142C7F8D242C7F8D64287F8DA42FEF752
:10412000DAFAC7F8DB42C7F8DF4287F8E34205F264
:10413000B4401AF07BF9C7F8ED42C7F8F14287F8AE
:10414000F542394805F1780790E80E1087E80E101F
:1041500090E88A1005F1880282E88A1090E88E00C3
:1041600005F1980C8CE88E0090E8861005F1A80304
:1041700083E8861090E88610103383E8861090E874
:104180008610103383E8861090E88C1005F1D80172
:1041900081E88C1090E88C10103181E88C104FF081
:1041A0007E51C5E90F146C64C5E912412C656C653C
:1041B000C5E916412C666C66AC66EC662C676C67CC
:1041C000F8351A4A2A601A4A6A601A4AAA601A4AD4
:1041D000EA601A4A2A611A4A6A611A4AAA611A4AA4
:1041E000EA611A4A0127AA6385F8207085F82170D0
:1041F00085F8227085F8237085F8247085F82540AD
:1042000085F8264085F827400A2221E0E471002045
:10421000DB710020ED7100208C120408306D00204D
:10422000D8170020702100205C1204088195633F9C
:1042300021B02A40CFF7133F83C02A3F000020411E
:104240000000704200001642295C0F3E0000F04161
:1042500085F82820282285F83C20E96285F834700A
:104260004FF0020885F8298085F8504085F8518084
:1042700085F85240FE4A2A64DFF8FCA3FD4AC5E9EE
:10428000112AFE4AEA64FE4A303006F1780BC2F881
:10429000A040C2F8A440C2F8A84090E80C128BE8F5
:1042A0000C1290E80C1206F1880B8BE80C1290E8C7
:1042B0000C1206F1980B8BE80C1290E8081A06F124
:1042C000A80282E8081A90E8081A103282E8081A50
:1042D00090E8081A103282E8081A90E8081A10329A
:1042E00082E8081A90E80912103282E80912C6E939
:1042F0000F147464C6E9124134657465C6E9164149
:1043000034667466B466F4663467746705F51276CD
:10431000DC483060DC487060DC48B060DC48F0604D
:10432000DC483061DC487061DC48B061DC48F06139
:10433000DC48B06386F8207086F8217086F8224049
:1043400086F8237086F8247086F8254086F8264083
:1043500086F827400A2086F82800282086F83C00A6
:10436000F46286F8347086F8298086F8504086F822
:10437000518086F85240BE483064BE48C6E9110AF2
:10438000BE48F064C848A0F67412C0F8A040C0F857
:10439000A440A0F67811C0F8A840A0F67C10FFF762
:1043A000C1FBC34BBA493364F160C0484FF07F5240
:1043B000C6E90002C049DFF8FCC2C6E911C186F8AF
:1043C000518086F8524086F82170DFF8B092C6F826
:1043D0004C9086F8224086F8237086F82470C5E950
:1043E0000002AB482B64E860C5E911C185F8518033
:1043F00085F8524085F82180C5F84C9085F82270E8
:1044000085F8237085F82470BDE8F09F002808BF68
:104410007047AA4902680A6042684A608268CA60B6
:1044200002690A6442694A6482698A6490F82820B1
:1044300081F8512090F8352081F85220A1F51271B1
:1044400002680A6042684A608268CA60027B81F83A
:104450002120C2690A64026A4A64426A8A6490F846
:10446000282081F8512090F8352081F85220944A74
:10447000816B9162934990F829200A700A1D90F887
:104480002D30137001F1080390F831C083F800C09B
:1044900090F82AC081F801C090F82EC082F801C0BF
:1044A00090F832C083F801C090F82BC081F802C0A8
:1044B00090F82F10917090F83300121D9870111F12
:1044C000081FFFF72FBB0021002808BF704730B43A
:1044D0007D4A7C4C1368036053684360D3688360F3
:1044E00092F82130037302F51273D3F840C0C0F87C
:1044F00010C0D3F844C0C0F814C09B6C8361136C27
:10450000C361536C0362936C436292F8513080F83C
:10451000283092F8522080F83520694A231D03F193
:10452000040C926A82634218655C82F829505D5CD3
:1045300082F82D501CF80150491C82F83150032993
:10454000F1DB0844002280F8292080F82D2080F833
:10455000312030BC70475A4890F87800704758486E
:1045600090F87C00704756490028886708BF70475C
:104570004D48FEF7B0B852490028C86708BF7047D9
:104580003F48FEF7A8B82DE9F0410446006807F05F
:10459000A5FB4E4E4E4F32463B4607F016FADFF86B
:1045A00034810022434607F082FA07F0DBFB054620
:1045B0002060606807F092FB32463B4607F005FA40
:1045C0000022434607F073FA07F0CCFB6060A06856
:1045D00007F084FB32463B4607F0F7F900224346DA
:1045E00007F065FA07F0BEFBA0602548C0F8A050B0
:1045F0006168C0F8A410A168C0F8A81000F50D60AB
:104600002168C0F8A0106168C0F8A410A168C0F8C3
:10461000A810BDE8F0812DE9F04104462848C06F9C
:1046200050B11748D0F8A0102160D0F8A4106160F4
:10463000D0F8A800A06009E01B48D0F8A0102160C5
:10464000D0F8A4106160D0F8A800A060206807F03E
:1046500045FB204D00222B4607F0B7F91B4E1C4F9F
:1046600032463B4607F023FA07F07CFB206033E03C
:10467000282C713927A0093A0742B239CDCCCC3D5C
:10468000A01800208195633F21B02A40CFF7133F47
:1046900083C02A3F00002041000070420000164203
:1046A000295C0F3E0000F041702100206666663FE5
:1046B00017B7513A3480373A3480373B7070002056
:1046C000D8170020F4170020286E00206F1283C036
:1046D000CA21094000806640606807F0FFFA0022A6
:1046E0002B4607F072F932463B4607F0E0F907F037
:1046F00039FB6060A06807F0F1FA00222B4607F052
:1047000064F932463B4607F0D2F907F02BFBA06074
:10471000BDE8F0812DE9F04F93460A4690E8E001AC
:10472000D2E9029497B089F0004006904968089158
:10473000D2F800A08AF000420A920D9281F0004265
:1047400003921692CDE90F102846214607F01AF879
:10475000002106F0BFFF02903046494607F012F8EC
:10476000029906F0B7FF02903846169907F00AF84A
:10477000029906F0AFFF02904046514607F002F85A
:10478000029906F0A7FFCBF800002846069906F02C
:10479000F9FF002106F09EFF00903046214606F00A
:1047A000F1FF009906F096FF02903846514606F058
:1047B000E9FF029906F08EFF824640460F9906F007
:1047C000E1FF514606F086FFCBF804002846089921
:1047D00006F0D8FF002106F07DFF824630460D9995
:1047E00006F0D0FF514606F075FF82463846214656
:1047F00006F0C8FF514606F06DFF82464046494626
:1048000006F0C0FF514606F065FFCBF808002846C9
:104810000A9906F0B7FF002106F05CFF0546304616
:10482000039906F0AFFF294606F054FF05463846C7
:10483000109906F0A7FF294606F04CFF05464046B2
:10484000214606F09FFF294606F044FFCBF80C00F6
:1048500017B0BDE8F08F10B50446D4E9000106F0AA
:1048600039FFA168BDE8104006F034BF2DE9F04FD4
:1048700007468B46D7E900109BB01446D7E90223C0
:10488000CDE90010CDE9022307F1100204AE92E851
:104890002C1086E82C103A6A21F0004920F00048DC
:1048A0004FF0010A0225032649464046089207F0C8
:1048B0007FFA02D2AA46C1460125B868494620F0CF
:1048C000004007F075FA03D202254FF0030A0126D3
:1048D00007EB8A0050F8041C07EB850050F8040C25
:1048E00006F082FF694601EB850901EB8A0849F869
:1048F000040C01EB860758F8040C57F8042C014609
:10490000104606F071FF47F8040C59F8040CD8F86B
:10491000081006F037FFD9F8081006F030FFC9F884
:10492000080057F8040CD8F8081006F02BFFB968F7
:1049300006F025FFB86059F8040CD8F8141006F0FA
:1049400021FFD9F8141006F01AFFC9F8140057F81F
:10495000040CD8F8141006F015FF796906F00FFF63
:104960007861D9F8080020F00041B86820F00040D4
:1049700007F01EFA02D2284635460646684600EB86
:10498000850900EB8607D9F80810B86806F02CFFF7
:10499000B8600990D9F8141006F0F4FE796906F0B1
:1049A000EEFE78610BEB8A0A11905AF8040C206035
:1049B0000A9059F8040C0F9001460A9806F0E2FE9E
:1049C0000BEB850555F8041C06F0D9FE60600C90D1
:1049D000099906F0D7FE0B9057F8040C0E9001468B
:1049E0000A9806F0CFFE0BEB860656F8041C06F07C
:1049F000C6FE0B9906F0C0FE119906F0F5FE83463F
:104A0000A060D8F814000D900146584606F0BAFE92
:104A10000A9906F0B4FE0746D9F814001090014632
:104A2000584606F0AFFE0C9906F0A9FED9F808101A
:104A30000C9106F0D9FE6060D8F808100B9106F0D2
:104A4000A1FE394606F09BFE58F804BC594606F014
:104A5000CBFE2060DAF80870E76038460F9906F060
:104A600091FEA96806F08BFE20618046099906F048
:104A700089FE814638460E9906F084FEB16806F03C
:104A80007EFE494606F078FE119906F0ADFE6061A3
:104A900081460D9906F076FE394606F070FE07460F
:104AA0004846109906F06EFE414606F068FE0C99E5
:104AB00006F09AFE20610B9906F064FE394606F076
:104AC0005EFE594606F090FEE060DAF81470A761C9
:104AD00038460F9906F056FE696906F050FEE0610F
:104AE0000546099906F04EFE804638460E9906F0B6
:104AF00049FE716906F043FE414606F03DFE1199FC
:104B000006F072FE206280460D9906F03BFE3946A3
:104B100006F035FE06464046109906F033FE29465B
:104B200006F02DFE0C9906F05FFEE0610B9906F091
:104B300029FE314606F023FE594606F055FEA061D7
:104B40001BB0BDE8F08F2DE9F047884605460168A7
:104B50009246104607F02CF924BFD8F80000BDE8B3
:104B6000F0875046296B07F019F924BFD8F83000B8
:104B7000BDE8F087FE49D1E92A0107F0F3F80446C1
:104B80005046296807F014F93FD85046296B07F0C2
:104B900005F93AD801244FF002090D27E01946081B
:104BA00005EB860050F8041C504607F001F98EBF53
:104BB0003746344606F101094F45EFD808EB84002B
:104BC000661C50F8047C08EB8600394650F8040C4B
:104BD00006F0D2FD804605EB840050F8044C05EB4E
:104BE0008600214650F8040C06F0C6FD0546214615
:104BF000504606F0C1FD294606F0F6FD414606F096
:104C0000C1FD394606F066FD04462046BDE8F08742
:104C100010B50446D4E9000106F05CFDA16806F079
:104C200059FDE168BDE8104006F054BD2DE9F04F94
:104C30004FF0000989B00E468246C8464FEA090780
:104C400009F101090AEB890B0BF108045BF8040C6C
:104C50000190DBF8081008F10108039106F03AFD15
:104C60000E25E16806F036FD54F8181F06F032FDF7
:104C70006D1EF6D1BF4906F0B7FD014600900198C0
:104C800006F07AFD014606F07DFD05460BF10804AD
:104C90000099039806F070FD014606F073FD294661
:104CA00006F018FD05464FF00E0BE068009906F07F
:104CB00063FD014606F066FD294606F00BFD05463C
:104CC00054F8180F009906F057FD014606F05AFDFA
:104CD000294606F0FFFC0546BBF1010BE5D1A649CC
:104CE00006F082FD06EB88017F1C41F8040C032FBF
:104CF000A6DB306806F0F2FF1BF0DCFF07F032F8AD
:104D00003060706806F0EAFF1BF0D4FF07F02AF865
:104D10007060B06806F0E2FF1BF0CCFF07F022F8ED
:104D2000B06009B0BDE8F08F2DE9FF4F834693488E
:104D3000ADF26C6D0DF2A454B0E80E1084E80E10C4
:104D4000B0E80E10103484E80E10B0E80E101034E5
:104D500084E80E1050F8041BCDF8D415B0E80E10FE
:104D60000DF5AE6484E80E10B0E80E10103484E83F
:104D70000E10B0E80E10103484E80E1050F8041B2A
:104D8000CDF8A015B0E80E10FCAC84E80E10B0E829
:104D90000E10103484E80E10B0E80E10103484E8C1
:104DA0000E1050F8041BCDF82014B0E80E100DF5CD
:104DB000986484E80E10B0E80E10103484E80E10E9
:104DC000B0E80E10103484E80E1050F8041BCDF833
:104DD000F014B0E80E100DF59F6484E80E10B0E8F2
:104DE0000E10103484E80E10F0E80212CDF81C25E5
:104DF000CDF81815B0E80E10183484E80E10B0E89D
:104E00000E10103484E80E10F0E80212CDF844259C
:104E1000CDF84015B0E80E10183484E80E10B0E854
:104E20000E10103484E80E1070E88512CDF86C2551
:104E3000CDF8681500F50771C83C91E80E1084E8BC
:104E40000E10D0E98B12D0F83432CDF8A01400F552
:104E50000E71CDF8A834CDF8A42491E80E100DF50C
:104E6000BE6484E80E10D0E99212D0F85002CDF85A
:104E70000806DDF8F8060024CDF80426CDF8001663
:104E80000470DDF8FC060470DDF800070470DDF83E
:104E9000700601683A480160DDF8701649684160A3
:104EA000DDF8701689688160DDF87006FDF758FB43
:104EB0002F4DC5F89000C5F89400DDF87406FDF795
:104EC0004FFB3F90DDF87006DDF870160068CDF8F6
:104ED000E0054968CDF84416DDF870168968CDF80C
:104EE0004816DDF874160E68CDF8DC65D5F890101C
:104EF0000F4606F079FCCDF8D80530463F9906F00C
:104F000073FCCDF8AC04DDF8740639464668DDF86C
:104F10007006CDF8E865406806F066FCCDF8F4044C
:104F200030463F9906F060FCCDF8B004DDF8740619
:104F300039468668CDF8E465DDF87006806806F0CD
:104F400053FCCDF8300630463F9906F04DFCCDF8C5
:104F5000B404DDF8AC14DDF8D80506F013FC2146E6
:104F600006F0B8FB0646DDF8B014DDF8F40409E0FD
:104F7000D81700200000F0410000E841BC120408EE
:104F80002872002006F0FEFB314606F0A3FB064621
:104F9000DDF8B414DDF8300606F0F4FB314606F017
:104FA00099FBCDF85C04DDF80807FF4E90F8CD18AA
:104FB000001DCDF84006002940F0F281DDF8080719
:104FC00001224FF07E5780F83040DDF8080780F866
:104FD000CD28DDF8080780F83120DDF80837DDF846
:104FE000D416DDF8D006C3E90E010020F894F99438
:104FF000FA940921FB946AE000281CBF04280828C1
:1050000065D0DDF8083703EB80031C64401C491EA3
:10501000F2D100204FEA0001DDF80837891C03EBCC
:105020008003401C5C66DDF8083703EB8003401CFE
:105030005C660C29F0DBDDF80807DC49C0F8944019
:10504000DDF80807C0F89840DDF80807C0F89C4074
:10505000DDF80807C0F8AC10DDF80807C0F8B0703C
:10506000DDF80807C0F8B470DDF8D806006810F065
:10507000FF4F19BF0021512300205121DFF830C319
:1050800014BFCC48CB4B28D080FB01984FEAA8092D
:10509000A9EBE878C8F1000808EB880811EB48088C
:1050A000DDF8088708EB81080CBFC8F8B8C0C8F85D
:1050B000B840491C5B1EE7D1DDF80807114600F532
:1050C000FE7019F0B8F90020092100F0CFBDDDF81D
:1050D000083703EB80031F6498E783FB00984FEACF
:1050E000A809A9EBE878C8F1000808EB880810EBDC
:1050F0004808DDF8088708EB80080CBFC8F8B8C07E
:10510000C8F8B840401C491EE7D1D5E700281CBFAD
:105110000428082800F0AA85DDF8082702EB8002A1
:10512000C2F81442DDF8082702EB8002C2F83842C8
:10513000401C491EEAD10020DDF80827891C02EB3B
:105140008002C2F85C42421CDDF8080700EB8200D6
:10515000C0F85C42501C5A29EEDBDDF808074FF01E
:105160008041C0F8C443DDF80807C0F8C843DDF843
:105170000807C0F8CC43DDF80807C0F8D043DDF8D5
:105180000807C0F8D443DDF80807C0F8E043DDF8AD
:105190000807C0F8EC43DDF80807C0F8F843DDF86D
:1051A0000807C0F8D843DDF80807C0F8E443DDF885
:1051B0000807C0F8F043DDF80807C0F8FC43DDF845
:1051C0000807C0F8DC43DDF80807C0F8E843DDF85D
:1051D0000807C0F8F443DDF80807C0F80044DDF81C
:1051E0000807C0F80444DDF80807C0F80844DDF8F3
:1051F0000807C0F80C44DDF80807C0F81044DDF8D3
:105200000807C0F81444DDF80807C0F81844DDF8B2
:105210000807C0F81C44DDF80807C0F82014DDF8C2
:105220000807C0F82444DDF80807C0F82844DDF872
:105230000807C0F82C44DDF80807C0F83044DDF852
:105240000807C0F83444DDF80807C0F83844DDF832
:105250000807C0F83C74DDF8D416DDF8D00606F077
:1052600081FD314606F08EFADDF80817C1F84004DA
:10527000DDF808073221C0F84444DDF80807C0F81B
:105280004874DDF80807C0F84C44DDF80807C0F89A
:105290005044DDF80807C0F85444DDF80807C0F8AA
:1052A0005814DDF80807C0F85C44DDF87006DDF836
:1052B00078160268DDF87406D1F804A0DDF87016DF
:1052C0000768DDF87806D1F80890DDF87416D0F894
:1052D00000C0DDF87006D1F80880DDF87816436864
:1052E000DDF8740689684068CDF8CCC0CDE9310896
:1052F000CDE934A1CDE92D23CDE92F97DDF80807BD
:105300004FF0000C0DF1B40800F58C67634607EB15
:105310008C01D8F800200A6040460422D0F804909E
:10532000C1F8049050F8089F41F8089F521EF5D12B
:105330005B1C0CF1090C1E2BE9DBDDF8D8060168BB
:10534000DDF80807C0F89818DDF8D8064168DDF8E0
:105350000807C0F89C18DDF8D8068168DDF8080752
:10536000C0F8A018DDF808074FF47A7180F8A44857
:10537000DDF80807A0F8A648DDF80807A0F8A84857
:10538000DDF80807A0F8AA18DDF8080780F8AD488E
:10539000DDF8080780F8AE48DDF80807C0F8B04827
:1053A000DBE9001208E000000AD7A33C6666663F0E
:1053B0000000A04067666666DBF80830DBF80C008A
:1053C000CDE9F812CDE9FA30DDF80827DDF8D4167A
:1053D000DDF8D006C2E90E01DDF8D416DDF8D006FE
:1053E00006F0C0FC3146CDF8580606F0CBF9DDF8E2
:1053F0000817C1F84004DDF80807FE4ED0F8601425
:10540000D6F800B0584606F0BDF9214606F062F91C
:105410000746DDF80807D6F804A0D0F884145046F3
:1054200006F0B0F9394606F055F90746DDF80807E9
:10543000D6F80890D0F8A814484606F0A3F93946E3
:1054400006F048F90746DDF80807D6F80C80D0F8D2
:10545000CC14404606F096F9394606F03BF907466B
:10546000DDF808073669D0F8F014304606F08AF9FE
:10547000394606F02FF9DDF80817C1F8E003DDF82A
:105480000807D0F86414584606F07CF9214606F067
:1054900021F90746DDF80807D0F88814504606F0D1
:1054A00071F9394606F016F90746DDF80807D0F815
:1054B000AC14484606F066F9394606F00BF9074683
:1054C000DDF80807D0F8D014404606F05BF93946FD
:1054D00006F000F90746DDF80807D0F8F414304666
:1054E00006F050F9394606F0F5F8DDF80817C1F86E
:1054F000E403DDF80807D0F86814584606F042F9CE
:10550000214606F0E7F80746DDF80807D0F88C14C6
:10551000504606F037F9394606F0DCF80746DDF864
:105520000807D0F8B014484606F02CF9394606F0C2
:10553000D1F80746DDF80807D0F8D414404606F045
:1055400021F9394606F0C6F80746DDF80807D0F815
:10555000F814304606F016F9394606F0BBF8DDF8C7
:105560000817C1F8E803DDF80807D0F86C145846AE
:1055700006F008F9214606F0ADF8DDF808170746F1
:10558000C1F8EC03DDF80807D0F89014504606F097
:10559000F9F8394606F09EF80746DDF80807D0F816
:1055A000B414484606F0EEF8394606F093F807467C
:1055B000DDF80807D0F8D814404606F0E3F839467D
:1055C00006F088F80746DDF80807D0F8FC143046E6
:1055D00006F0D8F8394606F07DF8DDF80817C1F86E
:1055E000EC03DDF80807D0F87014584606F0CAF846
:1055F000214606F06FF80746DDF80807D0F8941446
:10560000504606F0BFF8394606F064F80746DDF864
:105610000807D0F8B814484606F0B4F8394606F042
:1056200059F80746DDF80807D0F8DC14404606F0C4
:10563000A9F8394606F04EF80746DDF80807D0F815
:105640000015304606F09EF8394606F043F8DDF8BE
:105650000817C1F8F003DDF80807D0F874145846AD
:1056600006F090F8214606F035F80746DDF8080701
:10567000D0F89814504606F085F8394606F02AF816
:105680000746DDF80807D0F8BC14484606F07AF85B
:10569000394606F01FF80746DDF80807D0F8E01491
:1056A000404606F06FF8394606F014F80746DDF874
:1056B0000807D0F80415304606F064F8394606F0BD
:1056C00009F8DDF80817C1F8F403DDF80807D0F889
:1056D0007814584606F056F8214605F0FBFF0746B9
:1056E000DDF80807D0F89C14504606F04BF8394610
:1056F00005F0F0FF0746DDF80807D0F8C01448466B
:1057000006F040F8394605F0E5FFDDF808170746D2
:10571000C1F8F803DDF80807D0F8E414404606F0B5
:1057200031F8394605F0D6FF0746DDF80807D0F80E
:105730000815304606F026F8394605F0CBFFDDF8AF
:105740000817C1F8F803DDF80807D0F87C145846AC
:1057500006F018F8214605F0BDFF0746DDF80807FA
:10576000D0F8A014504606F00DF8394605F0B2FF07
:105770000746DDF80807D0F8C414484606F002F8DA
:10578000394605F0A7FF0746DDF80807D0F8E8140A
:10579000404605F0F7FF394605F09CFF0746DDF867
:1057A0000807D0F80C15304605F0ECFF394605F037
:1057B00091FFDDF80817C1F8FC03DDF80807D0F801
:1057C0008014584605F0DEFF214605F083FF0746AA
:1057D000DDF80807D0F8A414504605F0D3FF394689
:1057E00005F078FF0746DDF80807D0F8C8144846EA
:1057F00002E00000402A002005F0C4FF394605F011
:1058000069FF0746DDF80807D0F8EC14404605F0BC
:10581000B9FF394605F05EFF0746DDF80807D0F806
:105820001015304605F0AEFF394605F053FFDDF8A0
:105830000817C1F80004DDF8080700F57870FCF7D8
:105840008FFEC5F88000DDF8080700F57B70FCF7D7
:1058500087FEC5F88400DDF8080700F57E70FCF7C8
:105860007FFEC5F88800DDF80817D5F88020C1F85C
:105870000424DDF80817D5F88420C1F80824DDF8E1
:105880000817C1F80C04DDF80807DDF8AC94C0F87F
:105890004092DDF80807DDF8B074C0F84C72DDF80E
:1058A0000807DDF8B464C0F858623046DDF8F41437
:1058B00005F068FF80463846DDF8301605F062FFD7
:1058C000414605F059FF80464846DDF8301605F0A0
:1058D00059FF82463046DDF8D81505F053FF514692
:1058E00005F04AFF06463846DDF8D81505F04AFFB0
:1058F00007464846DDF8F41405F044FF394605F044
:105900003BFFDDF8081707464046C1F83C82DDF84A
:105910000817C1F84862DDF80817C1F8547201464B
:1059200005F030FF80463146084605F02BFF06465D
:105930003946084605F026FF07464046314605F041
:10594000C9FE394605F0C6FE06F0C8F91BF0B2F9EB
:1059500006F008FA0646DDF808073146D0F83C02A2
:1059600005F042FFDDF80817C1F83C020390DDF8AE
:1059700008073146D0F8480205F036FFDDF8081771
:105980008246C1F84802DDF808073146D0F85402D3
:1059900005F02AFF8146DDF80807C0F85492DDF8CB
:1059A0000807D0F84C72D0F858B2D0F84082394687
:1059B000484605F0E7FE06465946504605F0E2FE29
:1059C000314605F0D9FE06465946039805F0DAFE41
:1059D00083464146484605F0D5FE594605F0CCFEC3
:1059E00081464146504605F0CDFE80463946039833
:1059F00005F0C8FE414605F0BFFEDDF80817C1F806
:105A00003862DDF80827C2F84492DDF8081736AA94
:105A1000C1F85002DDF8080700F50E7100F50570B9
:105A2000FEF724FFA2A936A8FCF798FE00211D224C
:105A3000A1EB8100DDF80837491C03EB8000521E02
:105A4000D0F8AC33C0F8B833D0F8B033C0F8BC33BA
:105A5000D0F8B433C0F8C033EAD10121A29805F0E0
:105A600001FFDDF8B41605F0BFFEDDF80817C1F838
:105A70005C020121A39805F0F5FEDDF8B41605F0EF
:105A8000B3FEDDF80817C1F860020121A49805F003
:105A9000E9FEDDF8B41605F0A7FEDDF80817C1F839
:105AA0006402DDF808070DF24C6100F51770FFF78E
:105AB000BDF80DF24C60FCF753FDDDF808170DF54D
:105AC0008279C1F8C403DDF8080700F51770CDF836
:105AD0003806DDF8080700F57270CDF834060020AE
