:020000040800F2
:10300000900000206D3600089936000895330008BE
:10301000A1360008A5360008A93600080000000007
:10302000000000000000000000000000AD360008B5
:10303000B136000800000000B5360008B9360008B7
:10304000BD360008C1360008C5360008C93600087C
:10305000CD360008D1360008D5360008D93600082C
:10306000DD360008E1360008E5360008E9360008DC
:10307000ED360008F1360008F5360008F93600088C
:10308000FD36000801370008053700080937000839
:103090000D370008113700081537000819370008E8
:1030A0001D37000821370008253700082937000898
:1030B0002D37000831370008353700083937000848
:1030C0003D370008413700084537000849370008F8
:1030D0004D370008513700085537000859370008A8
:1030E0005D37000861370008653700086937000858
:1030F0006D37000871370008753700087937000808
:103100007D370008813700088537000889370008B7
:103110008D37000891370008953700089937000867
:103120009D370008084A0029116814BF084321EAA6
:10313000000010607047054A0029116814BF084359
:1031400021EA0000106070471C380240203802401D
:10315000024A1140084302490860704780FFFF1F80
:1031600008ED00E001490320087070470C000020C2
:10317000F0B40022002301240D6894402540A542AC
:1031800028D103259D400668ED432E400660066861
:103190000F799F403E4306600E79012E18BF022E24
:1031A00010D186682E40866086684F799F403E43E6
:1031B0008660868826EA0404848084888E79964016
:1031C00034438480C4682C40C460C468CD799D4079
:1031D0002C43C460521C9B1C102ACCD3F0BC7047FB
:1031E000E50300001000000094040000000000202F
:0431F00000000000DB
:0832000046575F5645520002DB
:10320800BFF34F8F4F48006810F4E0604E49084301
:103218004C490860BFF34F8F00BFFDE770B504004D
:103228000D0000F0B7F840F6027000F0D7F829005A
:10323800200000F0C2F80600F6B2042E03D040F6D3
:10324800027000F0CBF800F0B1F870BD80B5012134
:103258003F20FFF763FF01210120FFF768FF0320EC
:103268003A4908603A483B49086000203A490860F2
:1032780001BD2DE9F04188B0384E4FF440515FF060
:103288000060FFF761FFFFF7E1FFFFF767FF3448D2
:1032980034490860042034490880344834490860B7
:1032A80001203449088000208DF8040000208DF8A2
:1032B80007002D480088009069462A480068FFF7F3
:1032C80053FF3068070002A82B49142200F0CAF8FF
:1032D800002F01D1049807000298B0F1A53F01D151
:1032E8000698070039002548FFF798FF5FF00108A6
:1032F8005FFA88F8B8F1060F19D2386820490840F3
:10330800B0F1005F0AD139001E48FFF787FF7868DF
:1033180005002C00386880F30888A04702A85FFAE7
:1033280088F850F82800070018F10108E0E7A521FF
:103338001548FFF773FFFFF763FF002008B0BDE8EB
:10334800F08100000CED00E00400FA052838024086
:1033580001000010303802402C380240F80F0808ED
:103368000000024000000020080000200004024085
:10337800040000200A00002058360008D00F080872
:103388000000FE2FD80F0808F00F080880B5FFF7D7
:1033980037FFFEE7DFF8BC000168C90705D5DFF88D
:1033A800B8108160DFF8B41081607047DFF8A400BE
:1033B800016841F001010160704738B504460D46C7
:1033C8004FF4004000F00DF8042801D1256000E01A
:1033D80032BD4FF40040BDE8324002E020490860A9
:1033E800704781B004218DF8001004221C490B6835
:1033F800DB0748BF012209D40B68DB0548BF02225E
:1034080004D40B6813F4F05F18BF03228DF8002072
:1034180007E00B6813F4F05F18BF03228DF8002053
:10342800401E9DF80020012A0BD158B10B680422D8
:10343800DB0748BF0122F1D40B68DB05E9D502227E
:10344800ECE710B905208DF800009DF8000001B0E8
:1034580070470000043C0240EFCDAB89050403022D
:10346800183C0240103A07D330B4B1E83810103A8B
:10347800A0E83810F9D230BC530724BFB1E80810CF
:10348800A0E8081044BF51F8043B40F8043BD207B9
:1034980024BF31F8022B20F8022B44BF0B780370AD
:1034A8007047083A07D3B1E80810083A40F8043BD7
:1034B80040F804CBF7D25307E4E7000039483A4A0A
:1034C80082B0016841F480710160816811408160B7
:1034D800364A016811400160016821F480210160C9
:1034E800816821F47D0181600021C1600191009112
:1034F800016841F480310160016801F400310091F4
:103508000199491C0191009919B90199B1F5A06F68
:10351800F2D10168490C01F00101009100990129DB
:1035280039D123490A6842F004020A600A6842F065
:1035380002020A600A6842F001020A604FF400625F
:10354800416A41F0805141621A490A604A68D206CC
:10355800FCD481688160816881608168816081684C
:1035680021F47D018160816841F405018160016871
:1035780041F08071016001688901FCD58168890882
:1035880089008160816841F003018160816801F0F0
:103598000C010C29FAD14FF000600749086002B00D
:1035A80070470000003802400CC0FF88FEFFFEEEA6
:1035B800003C02400070004008ED00E010B450F8F4
:1035C800041B79B10268436812180830DC0744BF4D
:1035D800A9F10104E31852F8044B43F8044B091FFE
:1035E800F9D1ECE710BC704710B507497944183198
:1035F800064C7C44163404E00A68081D51188847B4
:103608000146A142F8D110BDD0FBFFFFE0FBFFFF50
:103618000120C046002801D0FFF7E6FF0020C04681
:10362800C046FFF726FE00F000F800F001B80000E1
:103638000746384600F002F8FBE7000080B5C046B0
:10364800C046024A11001820ABBEFBE72600020064
:10365800A5A5A5A500000208003800080000040878
:10366800000006080148804701480047C5340008A3
:103678008D36000800000000000000000000000077
:1036880003000000C046C046C046C046FFF7C0FF62
:10369800FFF7FEBFFFF77ABEFFF7FEBFFFF7FEBFDB
:1036A800FFF7FEBFFFF7FEBFFFF7FEBFFFF7FEBF46
:1036B800FFF7FEBFFFF7FEBFFFF7FEBFFFF7FEBF36
:1036C800FFF7FEBFFFF7FEBFFFF7FEBFFFF7FEBF26
:1036D800FFF7FEBFFFF7FEBFFFF7FEBFFFF7FEBF16
:1036E800FFF7FEBFFFF7FEBFFFF7FEBFFFF7FEBF06
:1036F800FFF7FEBFFFF7FEBFFFF7FEBFFFF7FEBFF6
:10370800FFF7FEBFFFF7FEBFFFF7FEBFFFF7FEBFE5
:10371800FFF7FEBFFFF7FEBFFFF7FEBFFFF7FEBFD5
:10372800FFF7FEBFFFF7FEBFFFF7FEBFFFF7FEBFC5
:10373800FFF7FEBFFFF7FEBFFFF7FEBFFFF7FEBFB5
:10374800FFF7FEBFFFF7FEBFFFF7FEBFFFF7FEBFA5
:10375800FFF7FEBFFFF7FEBFFFF7FEBFFFF7FEBF95
:10376800FFF7FEBFFFF7FEBFFFF7FEBFFFF7FEBF85
:10377800FFF7FEBFFFF7FEBFFFF7FEBFFFF7FEBF75
:10378800FFF7FEBFFFF7FEBFFFF7FEBFFFF7FEBF65
:08379800FFF7FEBFFFF7FEBFC3
:040000050800368D2C
:00000001FF
