:020000040800F2
:103000009000002055360008813600087D33000806
:10301000893600088D36000891360008000000004F
:1030200000000000000000000000000095360008CD
:1030300099360008000000009D360008A1360008FF
:10304000A5360008A9360008AD360008B1360008DC
:10305000B5360008B9360008BD360008C13600088C
:10306000C5360008C9360008CD360008D13600083C
:10307000D5360008D9360008DD360008E1360008EC
:10308000E5360008E9360008ED360008F13600089C
:10309000F5360008F9360008FD360008013700084B
:1030A00005370008093700080D37000811370008F8
:1030B00015370008193700081D37000821370008A8
:1030C00025370008293700082D3700083137000858
:1030D00035370008393700083D3700084137000808
:1030E00045370008493700084D37000851370008B8
:1030F00055370008593700085D3700086137000868
:1031000065370008693700086D3700087137000817
:1031100075370008793700087D37000881370008C7
:1031200085370008084A0029116814BF084321EABE
:10313000000010607047054A0029116814BF084359
:1031400021EA0000106070471C380240203802401D
:10315000024A1140084302490860704780FFFF1F80
:1031600008ED00E001490320087070470C000020C2
:10317000F0B40022002301240D6894402540A542AC
:1031800028D103259D400668ED432E400660066861
:103190000F799F403E4306600E79012E18BF022E24
:1031A00010D186682E40866086684F799F403E43E6
:1031B0008660868826EA0404848084888E79964016
:1031C00034438480C4682C40C460C468CD799D4079
:1031D0002C43C460521C9B1C102ACCD3F0BC7047FB
:1031E000CD030000100000007C040000000000205F
:0431F00000000000DB
:0832000046575F5645520002DB
:10320800BFF34F8F4B48006810F4E0604A49084309
:1032180048490860BFF34F8F00BFFDE770B5040051
:103228000D0000F0ABF840F6027000F0CBF8290072
:10323800200000F0B6F80600F6B2042E03D040F6DF
:10324800027000F0BFF800F0A5F870BD80B501214C
:103258003F20FFF763FF01210120FFF768FF0320EC
:103268003649086036483749086000203649086002
:1032780001BD2DE9F04188B0344E4FF440515FF064
:103288000060FFF761FFFFF7E1FFFFF767FF3048D6
:1032980030490860042030490880304830490860C7
:1032A80001203049088000208DF8040000208DF8A6
:1032B8000700294800880090694626480068FFF7FB
:1032C80053FF3068070002A82749142200F0BEF80F
:1032D800002F01D1049807000298B0F1A53F01D151
:1032E800069807005FF001085FFA88F8B8F1060F42
:1032F80015D238681D490840B0F1005F06D17868DA
:1033080005002C00386880F30888A04702A85FFAF7
:1033180088F850F82800070018F10108E4E7A5210B
:103328001348FFF77BFFFFF76BFF002008B0BDE8ED
:10333800F08100000CED00E00400FA052838024096
:1033480001000010303802402C380240F80F0808FD
:103358000000024000000020080000200004024095
:10336800040000200A000020403600080000FE2F5C
:10337800F00F080880B5FFF743FFFEE7DFF8BC0051
:103388000168C90705D5DFF8B8108160DFF8B41007
:1033980081607047DFF8A400016841F00101016015
:1033A800704738B504460D464FF4004000F00DF85C
:1033B800042801D1256000E032BD4FF40040BDE88B
:1033C800324002E020490860704781B004218DF83E
:1033D800001004221C490B68DB0748BF012209D4EE
:1033E8000B68DB0548BF022204D40B6813F4F05FB6
:1033F80018BF03228DF8002007E00B6813F4F05F74
:1034080018BF03228DF80020401E9DF80020012AD5
:103418000BD158B10B680422DB0748BF0122F1D455
:103428000B68DB05E9D50222ECE710B905208DF819
:1034380000009DF8000001B070470000043C024005
:10344800EFCDAB8905040302183C0240103A07D3BC
:1034580030B4B1E83810103AA0E83810F9D230BCCE
:10346800530724BFB1E80810A0E8081044BF51F87A
:10347800043B40F8043BD20724BF31F8022B20F864
:10348800022B44BF0B7803707047083A07D3B1E8A2
:103498000810083A40F8043B40F804CBF7D2530729
:1034A800E4E7000039483A4A82B0016841F4807183
:1034B8000160816811408160364A016811400160ED
:1034C800016821F480210160816821F47D01816017
:1034D8000021C16001910091016841F480310160CF
:1034E800016801F4003100910199491C019100998A
:1034F80019B90199B1F5A06FF2D10168490C01F031
:10350800010100910099012939D123490A6842F043
:1035180004020A600A6842F002020A600A6842F07D
:1035280001020A604FF40062416A41F08051416231
:103538001A490A604A68D206FCD4816881608168A9
:10354800816081688160816821F47D018160816882
:1035580041F405018160016841F0807101600168F2
:103568008901FCD58168890889008160816841F0FA
:1035780003018160816801F00C010C29FAD14FF038
:1035880000600749086002B0704700000038024038
:103598000CC0FF88FEFFFEEE003C024000700040B9
:1035A80008ED00E010B450F8041B79B102684368D4
:1035B80012180830DC0744BFA9F10104E31852F8D7
:1035C800044B43F8044B091FF9D1ECE710BC7047D2
:1035D80010B5074979441831064C7C44163404E088
:1035E8000A68081D511888470146A142F8D110BD44
:1035F800E8FBFFFFF8FBFFFF0120C046002801D0D1
:10360800FFF7E6FF0020C046C046FFF732FE00F095
:1036180000F800F001B800000746384600F002F84C
:10362800FBE7000080B5C046C046024A11001820DA
:10363800ABBEFBE726000200000000000000020805
:103648000038000800000408000006080148804708
:1036580001480047AD340008753600080000000036
:10366800000000000000000003000000C046C04643
:10367800C046C046FFF7C0FFFFF7FEBFFFF77ABEA0
:10368800FFF7FEBFFFF7FEBFFFF7FEBFFFF7FEBF66
:10369800FFF7FEBFFFF7FEBFFFF7FEBFFFF7FEBF56
:1036A800FFF7FEBFFFF7FEBFFFF7FEBFFFF7FEBF46
:1036B800FFF7FEBFFFF7FEBFFFF7FEBFFFF7FEBF36
:1036C800FFF7FEBFFFF7FEBFFFF7FEBFFFF7FEBF26
:1036D800FFF7FEBFFFF7FEBFFFF7FEBFFFF7FEBF16
:1036E800FFF7FEBFFFF7FEBFFFF7FEBFFFF7FEBF06
:1036F800FFF7FEBFFFF7FEBFFFF7FEBFFFF7FEBFF6
:10370800FFF7FEBFFFF7FEBFFFF7FEBFFFF7FEBFE5
:10371800FFF7FEBFFFF7FEBFFFF7FEBFFFF7FEBFD5
:10372800FFF7FEBFFFF7FEBFFFF7FEBFFFF7FEBFC5
:10373800FFF7FEBFFFF7FEBFFFF7FEBFFFF7FEBFB5
:10374800FFF7FEBFFFF7FEBFFFF7FEBFFFF7FEBFA5
:10375800FFF7FEBFFFF7FEBFFFF7FEBFFFF7FEBF95
:10376800FFF7FEBFFFF7FEBFFFF7FEBFFFF7FEBF85
:10377800FFF7FEBFFFF7FEBFFFF7FEBFFFF7FEBF75
:040000050800367544
:00000001FF
