:020000040802F0
:10000000108100205D9C0408A1780408A3780408EE
:10001000BF780408C1780408C37804080000000011
:10002000000000000000000000000000C578040887
:10003000C778040800000000C9780408CB780408D9
:100040003D9E0408419E0408459E0408499E0408FC
:100050004D9E0408519E0408D3780408559E040858
:10006000D5780408599E04085D9E0408619E040822
:1000700035790408659E0408699E04086D9E04088D
:10008000719E0408759E0408799E04087D9E0408EC
:10009000819E0408859E0408899E0408DF78040870
:1000A000000000008D9E040821790408919E040838
:1000B0003F790408959E0408999E04089D9E0408B3
:1000C000A19E0408A59E0408A99E0408AD9E0408EC
:1000D000B19E0408B59E04082B790408B99E040853
:1000E00005790408BD9E0408C19E0408C59E040845
:1000F000C99E040800000000CD9E0408D19E04089B
:10010000D59E0408D99E0408DD9E0408E19E0408DB
:10011000E59E0408E99E0408ED9E04080000000026
:04012000F19E040840
:1002000046575F56455231313030576553555F443C
:04021000454D4F0009
:1002140070B5446881680568084609F013FE06460F
:100224002046214609F00EFE04462846294609F0D8
:1002340009FE214609F072FE314609F06FFE09F00D
:10024400AFFE09F00FFFBDE8704009F083BF000066
:100254002DE9F04F054683B0D5F800A00C46504672
:10026400514609F0EFFD6E6881465046314609F06B
:10027400E9FD02905046AF68394609F0E3FDED68A8
:1002840080465046294609F0DDFD0190314630464E
:1002940009F0D8FD82463046394609F0D3FD009076
:1002A4002946304609F0CEFD06463846394609F05F
:1002B400C9FD83463846294609F0C4FD0746284649
:1002C400294609F0BFFD0546204603215FF00002E0
:1002D40040F8042B40F8042B491E40F8042BF7D1B6
:1002E4004846514609F07EFF594609F07BFF2946EE
:1002F40009F014FE20603946029809F00FFE4FF011
:10030400804109F09FFDE0603146404609F06AFFF4
:100314004FF0804109F096FDA0613946029809F03A
:1003240061FF4FF0804109F08DFD60604946504601
:1003340009F058FF594609F055FF294609F0EEFD2A
:1003440020610099019809F0E9FD4FF0804109F01E
:1003540079FDE0613146404609F0E0FD4FF080410F
:1003640009F070FDA0600199009809F03BFF4FF07F
:10037400804109F067FD6061514689F0004009F051
:1003840031FF594609F0CAFD294609F0C7FD20622C
:1003940003B0BDE8F08F002838D0042801D2012032
:1003A400704742F21071884238BF022122D3DFF82D
:1003B400882E904238BF64211CD3DFF8802E9042EF
:1003C40038BF4FF49E7115D3DFF8742E904238BFB6
:1003D4004FF47A710ED3DFF86C2E904232BF40F6A0
:1003E4005A41DFF8642E904204D347F6863101E087
:1003F40051184908B0FBF1F2914234BF531A8B1AD9
:10040400022BF5D2914228BF114688B270470000F2
:100414002DE9F04FDFF8341E91F8D81332299BB040
:1004240040DAA1B3DFF8243EB0F9064003EB011330
:1004340033F90A5DA542B4BF2E462646A542B8BF8D
:100444002546DFF8084EB4F9DA433A277C43C62739
:1004540094FBF7F4A619AE4219DBB3F90250B0F9D4
:100464000860B542B4BF2F463746B542B8BF3546DB
:10047400E619AE420BDBB3F90430B0F90A502E464C
:10048400AB42BCBF1D46334664199C420ADADFF80E
:10049400BC3D03EB011278C878C2481CDFF8AC1DE0
:1004A40081F8D803DFF8A40D90F8D803322840F07F
:1004B4008C8600208DF80600DFF8CC0ECDF81400F1
:1004C4009DF80600401C8DF804009DF80600401CB1
:1004D400C0B2322880F23D869DF80410DFF86C0D1E
:1004E40000EB0110801D04909DF80400401C8DF861
:1004F40005009DF80400401CC0B2322880F21C861E
:100504009DF80510DFF8440D00EB0110801D0390E9
:100514009DF80500401C8DF807009DF80710DFF8D2
:100524002C0D00EB0110801D23E000BFDFF81C1D23
:10053400DFF8182DB1F8E213491CA2F8E2130FFA00
:1005440089F3D2F8E4131944C2F8E4132DB2D2F8B3
:10055400E8136918C2F8E81300B2D2F8EC13401893
:10056400C2F8EC039DF80700401C8DF807000298C0
:10057400103002909DF80700322880F2D08505984B
:10058400B0F900400498B0F900500398B0F9006045
:100594000298B0F900000990AD1B0598B0F902006B
:1005A40006900498B0F902700398B0F90200009024
:1005B4000298B0F902000099009A0890BA1A0598B6
:1005C400B0F904800498B0F904900398B0F904A039
:1005D4000298B0F904000790AAEB08030698401AA1
:1005E400A9EB0A015A4301FB002009F07DFE834672
:1005F400A9EB0A01321BA8EB0A00514305FB0010CA
:1006040009F072FE009A069B00998046D21AA01B3C
:10061400791A6A4301FB002009F066FE044630465D
:1006240009F062FE594609F00DFC054600A8B0F930
:10063400000009F059FE414609F004FC294609F07E
:100644006DFC0546504609F04FFE214609F0FAFBC1
:10065400294609F063FC80F0004509A8B0F90000C0
:1006640009F042FE594609F0EDFB064608A8B0F928
:10067400000009F039FE414609F0E4FB314609F077
:100684004DFC064607A8B0F9000009F02DFE2146EE
:1006940009F0D8FB314609F041FC294609F03EFC3B
:1006A40005465846594609F0CDFB064640464146A4
:1006B40009F0C8FB314609F031FC064620462146C4
:1006C40009F0C0FB314609F029FC4FF09F4109F0C5
:1006D40031FE044628460FD2002109F02BFE38BF14
:1006E40085F00045204609F037FEFFF754FE09F077
:1006F40005FE014628461BE0DFF8341E09F03EFEE5
:10070400002109F017FE064605D22846DFF8241E0C
:1007140009F034FE06462046DFF81C1E09F02EFEC2
:1007240009F01AFEFFF737FE09F0E8FD01463046EE
:1007340009F024FE0446DFF8140BB0F9DA03C0EB29
:10074400C0000A2190FBF1F009F0CEFD214609F02A
:10075400F1FD079080F0E384DFF8F00AB0F9DA03E2
:10076400C00009F0C1FD06902046069909F0E2FD9B
:1007740080F0D5840598B0F900400498B0F9005091
:100784000298B0F900600398B0F900000B90AD1B1B
:100794000598B0F9020008900498B0F90270029824
:1007A400B0F9020000900398B0F902000099009A91
:1007B4000A90BA1A0598B0F904800498B0F9049024
:1007C4000298B0F904A00398B0F904000990AAEBC8
:1007D40008030898401AA9EB0A015A4301FB0020B8
:1007E40009F082FD8346A9EB0A01321BA8EB0A003B
:1007F400514305FB001009F077FD009A089B00990E
:100804008046D21AA01B791A6A4301FB002009F022
:100814006BFD0446304609F067FD594609F012FBAA
:10082400054600A8B0F9000009F05EFD414609F054
:1008340009FB294609F072FB0546504609F054FDB0
:10084400214609F0FFFA294609F068FB80F00045CB
:100854000BA8B0F9000009F047FD594609F0F2FA77
:1008640006460AA8B0F9000009F03EFD414609F029
:10087400E9FA314609F052FB064609A8B0F900002E
:1008840009F032FD214609F0DDFA314609F046FB54
:10089400294609F043FB05465846594609F0D2FA61
:1008A40006464046414609F0CDFA314609F036FB8A
:1008B40006462046214609F0C5FA314609F02EFBCA
:1008C4004FF09F4109F036FD044628460FD200211F
:1008D40009F030FD38BF85F00045204609F03CFDA5
:1008E400FFF759FD09F00AFD014628461BE0DFF831
:1008F400401C09F043FD002109F01CFD064605D209
:100904002846DFF8301C09F039FD06462046DFF89A
:10091400281C09F033FD09F01FFDFFF73CFD09F029
:10092400EDFC0146304609F029FD0146079809F01F
:1009340001FD80F0F4830846069909F0FBFC80F081
:10094400EE830598B0F900400298B0F9005003987E
:10095400B0F900600498B0F900000B90AD1B059845
:10096400B0F9020008900298B0F902700398B0F947
:10097400020000900498B0F902000099009A0A90CD
:10098400BA1A0598B0F904800298B0F90490039853
:10099400B0F904A00498B0F904000990AAEB080384
:1009A4000898401AA9EB0A015A4301FB002009F0F8
:1009B4009BFC8346A9EB0A01321BA8EB0A005143B6
:1009C40005FB001009F090FC009A089B00998046F2
:1009D400D21AA01B791A6A4301FB002009F084FC97
:1009E4000446304609F080FC594609F02BFA0546C6
:1009F40000A8B0F9000009F077FC414609F022FA9A
:100A0400294609F08BFA0546504609F06DFC21464B
:100A140009F018FA294609F081FA80F000450BA87C
:100A2400B0F9000009F060FC594609F00BFA0646DB
:100A34000AA8B0F9000009F057FC414609F002FA8F
:100A4400314609F06BFA064609A8B0F9000009F02E
:100A54004BFC214609F0F6F9314609F05FFA2946C4
:100A640009F05CFA05465846594609F0EBF9064682
:100A74004046414609F0E6F9314609F04FFA064688
:100A84002046214609F0DEF9314609F047FA4FF0D5
:100A94009F4109F04FFC044628460FD2002109F07B
:100AA40049FC38BF85F00045204609F055FCFFF7A6
:100AB40072FC09F023FC014628461BE0DFF8701A9B
:100AC40009F05CFC002109F035FC064605D22846F5
:100AD400DFF8601A09F052FC06462046DFF8581A7F
:100AE40009F04CFC09F038FCFFF755FC09F006FC52
:100AF4000146304609F042FC0146079809F01AFC09
:100B040080F00D830846069909F014FC80F00783F1
:100B14000498B0F900400398B0F900500298B0F975
:100B240000600598B0F900000B90AD1B0498B0F973
:100B3400020008900398B0F902700298B0F902001C
:100B440000900598B0F902000099009A0A90BA1A28
:100B54000498B0F904800398B0F904900298B0F9AD
:100B640004A00598B0F904000990AAEB08030898BA
:100B7400401AA9EB0A015A4301FB002009F0B4FB17
:100B84008346A9EB0A01321BA8EB0A00514305FB7B
:100B9400001009F0A9FB009A089B00998046D21A1C
:100BA400A01B791A6A4301FB002009F09DFB04464F
:100BB400304609F099FB594609F044F9054600A866
:100BC400B0F9000009F090FB414609F03BF92946D1
:100BD40009F0A4F90546504609F086FB214609F0C0
:100BE40031F9294609F09AF980F000450BA8B0F9CB
:100BF400000009F079FB594609F024F906460AA8D1
:100C0400B0F9000009F070FB414609F01BF93146C8
:100C140009F084F9064609A8B0F9000009F064FB5C
:100C2400214609F00FF9314609F078F9294609F00F
:100C340075F905465846594609F004F906464046F2
:100C4400414609F0FFF8314609F068F906462046A6
:100C5400214609F0F7F8314609F060F94FF09F4159
:100C640009F068FB044628460FD2002109F062FB14
:100C740038BF85F00045204609F06EFBFFF78BFB7B
:100C840009F03CFB014628461BE0DFF8A41809F0F4
:100C940075FB002109F04EFB064605D22846DFF815
:100CA400941809F06BFB06462046DFF88C1809F00F
:100CB40065FB09F051FBFFF76EFB09F01FFB0146D2
:100CC400304609F05BFB0146079809F033FB80F0DE
:100CD40026820846069909F02DFB80F020820598AB
:100CE4000088ADF8300004980088BDF93060ADF894
:100CF4002E00BDF92E000D900398B0F90040029823
:100D04000088ADF82C00BDF92C0016900598408899
:100D1400ADF82A00BDF92A00159004984088ADF872
:100D2400280003984088BDF92880ADF82600BDF955
:100D34002600009002984088ADF82400BDF92400F4
:100D4400149005988088ADF82200BDF92200139014
:100D540004988088ADF8200003988088BDF920A00D
:100D6400ADF81E0002988088BDF91E50ADF81C0035
:100D7400BDF91C0012900D98301A400009F0B4FA25
:100D840011901598A0EB0800400009F0ADFA1A90F4
:100D94001398A0EB0A00400009F0A6FA10900D98F1
:100DA400001B400009F0A0FA06900098A8EB000090
:100DB400400009F099FA0746AAEB0500400009F043
:100DC40093FA81461698201A400009F08DFA0F9084
:100DD40014990098401A400009F086FA1990129864
:100DE400281A400009F080FA0E900D98139900FB20
:100DF40000FB1598404306FB060001FB0100A0EB35
:100E04000B0008FB18000AFB1A0009F06DFA189091
:100E140004FB04F6009840430D9008FB08B00AFB5D
:100E24000A000D99801B401A05FB150009F05CFAB5
:100E340083460D981699801905FB050001FB1100E6
:100E4400149901FB1100129901FB110009F04CFAED
:100E5400824606980E9908F0F5FF179049460F98B8
:100E640008F0F0FF1690179909F0BCF90D90494667
:100E74001A9808F0E7FF05461098394608F0E2FF93
:100E84000146284609F0AEF9159039460E9808F047
:100E9400D9FF05461998494608F0D4FF014628466B
:100EA40009F0A0F914901099069808F0CBFF0546B4
:100EB4001198494608F0C6FF0646294609F092F9FA
:100EC400149908F0BFFF804615980D9908F0BAFFF1
:100ED400414609F023F813903146284609F082F977
:100EE40005461A98069908F0ADFF0646119839464A
:100EF40008F0A8FF0146304609F074F906460F9839
:100F0400394608F09FFF00901999069808F09AFF57
:100F140080460D98314608F095FF074600994046F3
:100F240009F060F9294608F08DFF394608F0F6FF0C
:100F340007460098414609F055F91290294608F0F1
:100F440081FF80461798169909F04CF9314608F04C
:100F540079FF414608F0E2FF80461398002109F02A
:100F64008BFA00F0DC80384609F086FA00F0D7806E
:100F7400404609F081FA00F0D2801898494608F0FA
:100F840061FF00905946109808F05CFF01460098F4
:100F940009F028F9149908F055FF00904946504685
:100FA40008F050FF81460E98594608F04BFF014661
:100FB400484609F017F90146159808F043FF0099CF
:100FC40008F0ACFF139909F0D9F909F063FA8146E6
:100FD4009E48A0F8DC935146069808F033FF8246F9
:100FE4000F98594608F02EFF0146504609F0FAF8CA
:100FF40082461898069908F025FF009059461198E2
:1010040008F020FF0146009809F0ECF883460D989B
:10101400594608F017FF00905146284608F012FF81
:10102400009908F07BFF394609F0A8F909F032FA73
:1010340005468648A0F8DE535946129808F002FF88
:1010440007463046514608F0FDFE394608F066FF73
:10105400414609F093F909F01DFA7C49A1F8E0032F
:10106400BDF83010A1EB0902BDF82A104E1BBDF8E3
:10107400221036B212B20B1A7449B1F9DA1376435C
:101084001BB2494302FB0262090103FB0323994299
:10109400A2BF192291FBF2F2934240DBBDF8286013
:1010A400BDF82E30BDF82070761BA3EB090336B2D1
:1010B4001BB23F1A76433FB203FB036307FB0733BC
:1010C4009942A8BF93422ADBBDF81E60A4EB090332
:1010D400BDF82640641B24B21BB2361A644336B2F0
:1010E40003FB034306FB06339942A8BF934216DB76
:1010F400BDF82440BDF82C30BDF81C60641BA3EB84
:10110400090324B21BB2361A644336B203FB034309
:1011140006FB06339942A8BF9342BFF607AA9DF87F
:101124000500401C8DF805000398103003909DF8CD
:1011340005003228FFF6ECA99DF80400401C8DF848
:1011440004000498103004909DF804003228FFF63F
:10115400CBA99DF80600401C8DF8060005981030B8
:1011640005909DF806003228FFF6AAA93748B0F882
:10117400E203652815DA35490020A1F8DC03A1F85B
:10118400DE03A1F8E00381F8D803A1F8E203C1F873
:10119400E403C1F8E803C1F8EC03C8601BB0BDE880
:1011A400F08F2A49294AD1F8E41391FBF0F1A2F80F
:1011B400DC13D2F8E81391FBF0F1A2F8DE13D2F8B5
:1011C400EC1391FBF0F0A2F8E0031BB0BDE8F08F44
:1011D40010B5DFF8844EFA20A4F8DA030020A4F84E
:1011E400DC03A4F8DE03A4F8E00384F8D803A4F82D
:1011F400E203C4F8E403C4F8E803C4F8EC03E060D1
:10120400D4F84C0309F046F9C4F8F00310BDDFF834
:10121400483EA3F85003A3F85213A3F8542370478D
:10122400DFF8343EA3F856030020A3F85813A3F8BC
:101234005A23C3F85C037047A086010040420F00A4
:101244008096980000E1F50500CA9A3B9041002081
:101254002DE9F041DFF8004E94F8D9030025002869
:1012640082B049D094F8D8030125322819D0D4E9A2
:10127400C8010122DFF86C3E09F02EF909D9D4E93E
:10128400CA0109F029F904D9D4E9CC0109F024F9F7
:1012940003D804F55470FFF7BBF894F8D803322848
:1012A4002AD1B4F9E023B4F95A33B4F9DE13B4F90A
:1012B400DC03A4F83C23A4F83A139A1AB4F958337B
:1012C400A4F83803591AB4F95633181A494300FBE1
:1012D400001002FB020009F01BF908F0C3FE08F03D
:1012E40039FFC4F84C0309F0D5F8C4F8F003002022
:1012F400C4F8F40384F8D903B4F93C0308F0F4FF08
:101304000190B4F93A0308F0EFFF0090B4F9380300
:1013140008F0EAFF8046B4F95A0308F0E5FF0746EF
:10132400B4F9580308F0E0FF0646B4F9560308F090
:10133400DBFF43463A46314600F03CF8832812D39B
:10134400D4F8F40378B984F8D803A4F8E203C4F811
:10135400E403C4F8E803C4F8EC03E0600120C4F833
:10136400F40384F8D90300F0E9F8284602B0BDE894
:10137400F081DFF8E40C90F8D803322801D1012081
:10138400704700207047000096410020DFF8C80C29
:10139400002180F8D813A0F8E213C0F8E413C0F8D1
:1013A400E813C0F8EC13C1600121C0F8F41380F80D
:1013B400D91370472DE9F94FDFF89C4CD4F8F803A2
:1013C40081B00B28BCBF401CC4F8F8038B461746F9
:1013D40004F558750A26019855F8041B08F002FF15
:1013E400824655F8041B584608F0FCFE804655F822
:1013F400041B384608F0F6FE81465046514608F074
:1014040021FD82464046414608F01CFD514608F045
:1014140085FD82464846494608F014FD514608F0C9
:101424007DFD08F0BDFD08F01DFE08F093FEDFF819
:10143400501D08F07FFF18D3761ECCD1D4F8FC03DE
:10144400019A00EB400104EB8101C1F86023C1F86B
:1014540064B3C1F86873401C0A2190FBF1F101EBFD
:101464008102A0EB4200C4F8FC03D4F8F8030A2874
:101474005ADB002704F558755FF00A0655F8040B8B
:10148400029908F0AFFE824655F8040B0C9908F057
:10149400A9FE804655F8040B0D9908F0A3FE814679
:1014A400384608F07DFD07468B465046514608F005
:1014B400C9FC82464046414608F0C4FC514608F047
:1014C4002DFD82464846494608F0BCFC514608F0CA
:1014D40025FD08F065FD08F0C5FD0022DFF8443D58
:1014E40009F02EF83A465B4609F056F908F032FE48
:1014F400761E0746C2D1D4F8F00308F0F5FE044680
:101504003846214608F03AFF05462046394608F099
:1015140035FF294608F00EFF28BF0546284608F087
:10152400B9FF6421484300D1642003B0BDE8F08FC3
:1015340000002041000020C10000C8422DE9F04F06
:10154400DFF8E40CD0F8E0410A2C85B039DA00EB7E
:10155400C405DFF8040BB0F9500308F0D9FFC5E95E
:101564000001DFF8F40AB0F9520308F0D1FFC5E92D
:101574001401DFF8E40AB0F9540308F0C9FFC5E91F
:101584002801DFF8D40AB0F9560308F0C1FFC5E911
:101594003C01DFF8C40AB0F9580308F0B9FFC5E903
:1015A4005001DFF8B40AB0F95A0308F0B1FFC5E9F5
:1015B400640105B0DFF8701C601CC1F8E001BDE8EF
:1015C400F08F0024A04600221346A1464746054654
:1015D4005FF00506F5E8020109F0DEF802460B4665
:1015E400F5E8020109F0D8F8761E02460B46F1D15F
:1015F4000022DFF8303CDFF8306C08F0A1FFCDE9C1
:1016040002010525F6E80201DDE9022309F038F9B3
:1016140082468B46F6E80201DDE9022309F030F93F
:1016240002460B4609F0ECF90022DFF8F83B08F01B
:1016340087FFCDE900015246504659465B4609F002
:10164400DFF92246DFF8DC3B08F07AFF4A463B46E6
:1016540009F0A2F8DDE9002309F09EF86D1E814629
:101664000F46CFD108F0FEFCDFF8EC29DFF8BC5BB5
:10167400C2E9C80100221346A14647465FF00506A9
:10168400F5E8020109F088F802460B46F5E8020184
:1016940009F082F8761E02460B46F1D10022DFF8EB
:1016A400843BDFF8886B08F04BFFCDE90201052588
:1016B400F6E80201DDE9022309F0E2F882468B46EE
:1016C400F6E80201DDE9022309F0DAF802460B46E6
:1016D40009F096F90022DFF84C3B08F031FFCDE920
:1016E40000015246504659465B4609F089F92246A4
:1016F400DFF8303B08F024FF4A463B4609F04CF83B
:10170400DDE9002309F048F86D1E81460F46CFD16C
:1017140008F0A8FCDFF84029DFF8C89CC2E9CA0138
:10172400052700204FEA0001F9E8022309F034F804
:1017340002460B46F9E8020109F02EF87F1EF3D1A8
:101744000022DFF8E03ADFF89C5C08F0F9FE8246FC
:101754008B460526F5E8020152465B4609F090F8EF
:1017640081460F46F5E8020152465B4609F088F8C7
:1017740002460B4609F044F90022DFF8A83A08F0C3
:10178400DFFECDE900014A46484639463B4609F0AA
:1017940037F90022DFF88C3A08F0D2FE224643469D
:1017A40008F0FAFFDDE9002308F0F6FF761E044690
:1017B4008846CFD108F056FCDFF89C28C2E9CC015A
:1017C400DFF8640ADFF8601D5FF00302D0E902432A
:1017D400C0E90043D0E91643C0E91443D0E92A43E1
:1017E400C0E92843D1E90243C1E90043D1E91643E2
:1017F400C1E91443D1E92A43C1E92843D0E90443A8
:10180400C0E90243D0E91843C0E91643D0E92C43A8
:10181400C0E92A43D1E90443C1E90243D1E91843A9
:10182400C1E91643D1E92C43C1E92A43D0E906436F
:10183400C0E90443D0E91A43C0E91843D0E92E4370
:10184400C0E92C431830D1E90643C1E90443D1E986
:101854001A43C1E91843D1E92E43C1E92C43183195
:10186400521EB3D1DFF8F007B0F9500308F050FE70
:10187400DFF8B429C2E91201DFF8DC07B0F952033A
:1018840008F046FEDFF8A029C2E92601DFF8C80700
:10189400B0F9540308F03CFEDFF88C29C2E93A01A0
:1018A400DFF8B407B0F9560308F032FEDFF8782900
:1018B400C2E94E01DFF8A007B0F9580308F028FE8A
:1018C400DFF86429C2E96201DFF88C07B0F95A0332
:1018D40008F01EFEDFF8502905B0C2E97601BDE824
:1018E400F08FDFF87417B1F838230280B1F83A2387
:1018F4004280B1F83C238280D1F840238260D1F841
:101904004423C260D1F848230261D1F84C134161E9
:101914007047DFF844170288A1F838234288A1F8F9
:101924003A238288A1F83C238268C1F84023C26824
:10193400C1F844230269C1F848234269C1F84C2321
:10194400B0F90230B0F904200088A1F8DC03A1F852
:10195400DE333220A1F8E02381F8D80370472DE963
:10196400FF4F81B0084608F01BFB824603988B4664
:1019740008F016FB80460198894608F011FB2BF00D
:10198400004704460D4650463946224625F000439A
:1019940009F008F94ED2404629F0004109F002F955
:1019A40048D20198DFF8106DDFF8107D002109F0AE
:1019B40011F91FD22BF0004352463046394609F044
:1019C4001FF8224625F0004309F0ECF880F0B580BA
:1019D40029F00041404632463B4609F011F825F013
:1019E4000043224609F0DEF880F0A780042005B009
:1019F400BDE8F08F2BF00041504632463B4608F0DC
:101A0400FFFF224625F0004309F0CCF880F09580D2
:101A140029F00041404632463B4608F0F1FF25F0EC
:101A24000043224609F0BEF880F08780052005B007
:101A3400BDE8F08F404629F0004152462BF00043A8
:101A440009F0B0F8DFF8706CDFF8707C3BD20298D4
:101A5400002109F0BFF825F00041204632463B46FC
:101A640018D208F0CDFF52462BF0004309F09AF843
:101A740063D229F00041404632463B4608F0C0FF9D
:101A84002BF00043524609F08DF856D2012005B0E0
:101A9400BDE8F08F08F0B4FF52462BF0004309F084
:101AA40081F84AD229F00041404632463B4608F0CC
:101AB400A7FF2BF00043524609F074F83DD20320EF
:101AC40005B0BDE8F08F0398002109F083F82BF0EE
:101AD4000041504632463B4618D208F091FF424638
:101AE40029F0004309F05EF827D225F00041204692
:101AF40032463B4608F084FF29F00043424609F091
:101B040051F81AD2002005B0BDE8F08F08F078FF34
:101B1400424629F0004309F045F80ED225F0004171
:101B2400204632463B4608F06BFF29F0004342460C
:101B340009F038F838BF022000D3049805B0BDE896
:101B4400F08F00002DE9F047DFF874ABDAF8843E3B
:101B540088469AF8221B944651B9046845688668F9
:101B6400C768DCF80820DCF80410DCF800000DE09D
:101B740044680568C7688668DCF80820DCF800104B
:101B8400DCF8040086F0004682F00042FFF7E7FE2E
:101B94000528CAF8840E00F2A780DFE800F0A3034A
:101BA4009B4F9BA32046214608F04CF980462846CB
:101BB400294608F047F90146404608F013FB8046E1
:101BC4003046314608F03EF90146404608F00AFB2B
:101BD40080463846394608F035F9414608F09EF902
:101BE40008F0DEF9804689462046294608F02AF99D
:101BF40004463046394608F025F9214608F08EF9A6
:101C04004FF0804108F01EF908F0CAF942464B46ED
:101C140008F0F2FF0022DFF8AC3A08F0F1FEDFF83A
:101C2400A82ADFF8A83A08F08BFC0022DFF8A03AD3
:101C340008F0B2FD08F08EFA814655E020462146B0
:101C440008F000F980462846294608F0FBF80146CA
:101C5400404608F0C7FA80463046314608F0F2F8AC
:101C64000146404608F0BEFA80463846394608F038
:101C7400E9F8414608F052F908F092F9804689469D
:101C84002046294608F0DEF804463046394608F076
:101C9400D9F8214608F042F94FF0804108F0D2F813
:101CA40008F07EF942464B4608F0A6FF0022DFF812
:101CB400143A08F0A5FEDFF8102ADFF8103A08F00D
:101CC4003FFC0022DFF80C3A08F066FD08F042FA07
:101CD400814609E0D8F80010DFF8FC0908F01EF985
:101CE400814601E0D8F80090DFF8F04948462146E3
:101CF40008F070FF05D8DFF8E809494608F00EF946
:101D040081464846002108F015FB03D2214608F01D
:101D140005F981464846BDE8F0870000F0B5DFF8D4
:101D2400A0490020C4F89C0EC4F8A00E84F8D6087C
:101D340084F8D50884F8D40881B004F6F45004F586
:101D4400606104F60C6203235FF0000500F8015B98
:101D540001F8015B02F8015B00F8015B01F8015B2B
:101D640002F8015B00F8015B01F8015B5B1E02F8FD
:101D7400015BEBD10120ADF800004FF0FF40C4F847
:101D8400780E04F56362DFF85C09DFF85C19C4F8C7
:101D94007C0EC4E90051DFF8540980F8CE5880F86D
:101DA400CD5880F8CC5804F6186004F62461032357
:101DB40000F8015B01F8015B02F8015B00F8015BCC
:101DC40001F8015B02F8015B00F8015B01F8015BBB
:101DD4005B1E02F8015BEBD104F52D6104F53F6055
:101DE40001F0CCFD04F6243104F6E84002F04EFF85
:101DF40004F6686204F6646104F5666001F024FC8C
:101E040004F6686204F6646104F5666002F0A4FDF9
:101E14000227DFF8DC08DFF8DC58DFF8DC68DFF8DD
:101E2400DC28DFF8DC3884F8757BC4F8240BC4F8AC
:101E3400D00A002784F8767B022084F8210B01273E
:101E440084F8457B4FF0000C002084F846CB84F8DE
:101E5400220B4FF07F51DFF8AC78C4F8685BC4F80C
:101E64006C6BC4F8707B4FF0010CC4F8145BC4F8BD
:101E7400186B0220C4F81C7BC4F8281BC4F8302B50
:101E8400C4F8643B84F847CB84F848CBC4F8D41A2C
:101E9400C4F8DC2AC4F8103B84F8F10A84F8F2CAC6
:101EA40084F8F3CA84F8F4CA01B0F0BD10B5002870
:101EB40071D0DFF80C480168C4F8241B04F668628A
:101EC4004168C4F8281B8168C4F8301B0169C4F850
:101ED400641B4169C4F8681B8169C4F86C1B90F8E1
:101EE400281084F8751B90F8351084F8761B016867
:101EF400C4F8D01A4168C4F8D41A8168C4F8DC1A4A
:101F0400017B84F8F11AC169C4F8101B016AC4F892
:101F1400141B416AC4F8181B90F8281084F8211B7C
:101F240090F8351084F8221B816BC4F8801E90F859
:101F3400291084F8601E90F82D1084F8641E90F81F
:101F4400311084F8681E90F82A1084F8611E90F805
:101F54002E1084F8651E90F8321084F8691E90F8EB
:101F64002B1084F8621E90F82F1084F8661E04F675
:101F7400646190F8330084F86A0E04F5666001F039
:101F840063FB04F6686204F6646104F56660BDE808
:101F9400104002F0E1BC10BD002855D0DFF8201736
:101FA400D1F8D02A0260D1F8D42A4260D1F8DC2AD0
:101FB400826091F8F12A0273D1F8642B0261D1F89E
:101FC400682B4261D1F86C2B8261D1F8102BC2616D
:101FD400D1F8142B0262D1F8182B426291F8212B0C
:101FE40080F8282091F8222B80F83520D1F8802E13
:101FF400826391F8602E80F8292091F8642E80F88D
:102004002D2091F8682E80F8312091F8612E80F807
:102014002A2091F8652E80F82E2091F8692E80F8F8
:10202400322091F8622E80F82B2091F8662E80F8E9
:102034002F2091F86A1E80F83310002180F82C10AC
:1020440080F8301080F834107047DFF87406D0F848
:102054009C0EC0B27047000090410020DFF860067B
:10206400D0F8A00EC0B27047DFF8541681B0C1F8A2
:102074009C0EB8B10120ADF800004FF0FF40C1F84C
:10208400780E0022DFF85C06DFF85C36C1F87C0EBF
:10209400C1E90023DFF8540680F8CE2880F8CD2863
:1020A40080F8CC2801B07047DFF8141681B0C1F86D
:1020B400A00EA8B10120ADF800004FF0FF40DFF8FA
:1020C4002836C1F8780E0022C1E90023DFF814068F
:1020D400C1F87C0E81F8D62881F8D52881F8D42857
:1020E40001B0704700C06240F0B5064681B0306868
:1020F400DFF8D445DFF8D45507F052FF22462B46CB
:1021040008F07EFC0022DFF8BC3508F019FA08F06C
:1021140021F807463760706807F042FF22462B46D5
:1021240008F06EFC0022DFF89C3508F009FA08F08C
:1021340011F87060B06807F033FF22462B4608F0B0
:102144005FFC0022DFF87C3508F0FAF908F002F8A9
:10215400B060DFF86C05C0F8A8707168C0F8AC1006
:10216400B168C0F8B010DFF884053168C0F8A01079
:1021740001B07168C0F8A410B168C0F8A810F0BD2F
:102184000000A04070B50646DFF83405D0F8A01E64
:1021940041B1D0F8A8103160D0F8AC107160D0F81B
:1021A400B00009E0DFF84405D0F8A0103160D0F8A1
:1021B400A4107160D0F8A800DFF80855B0600024BE
:1021C400306807F0EDFE00222B4608F019FCDFF81A
:1021D400F824DFF8F83408F0B3F907F0BBFF3060F7
:1021E400706807F0DDFE22462B4608F009FCDFF894
:1021F400D824DFF8D83408F0A3F907F0ABFF7060F7
:10220400B06807F0CDFE22462B4608F0F9FBDFF854
:10221400B824DFF8B83408F093F907F09BFFB060F6
:1022240070BD000000002440208400207084002041
:10223400F0B504460846DFF88874C168C7F8081C7E
:1022440085B00168C7F8FC1B1E008169C7F8141C1F
:102254001546C168C7F8001D08BF01AE0168C7F87C
:10226400F41C8169C7F80C1D0169C7F80C1C41688E
:10227400C7F8001CC169C7F8181C0169C7F8041D18
:102284004168C7F8F81CC169C7F8101D4169C7F84F
:10229400101C8168C7F8041C016AC7F81C1C41693A
:1022A400C7F8081D8168C7F8FC1C016AC7F8141D2B
:1022B400D7F8801E81B197F8201B97F8742B01F092
:1022C400010102F00102114306D000F02FF90128A8
:1022D40004BF0020C7F8800ED7F89C0E68B197F8A9
:1022E400740BC00709D5009607F624332A4607F66F
:1022F400E84107F6D41002F079F8D7F8A00E80B1BF
:1023040097F8200BC0070CD50120C7F8A40E00963F
:1023140007F52D632A4607F53F6107F6D80000F05C
:102324007FFED7F8EC09606404F15402D7F8F00892
:10233400E06004F13801D7F8F009A064D7F8F40894
:102344002061D7F8F409E064D7F8F8086061D7F899
:10235400F8092065D7F8FC08A061D7F8E009A06364
:10236400D7F8680A6065D7F8740A2066D7F8E408D5
:102374002060D7F86C09E061D7F87809A062D7F833
:10238400E409E063D7F86C0AA065D7F8780A6066B8
:10239400D7F8E8086060D7F870092062D7F87C099C
:1023A400E062D7F8E8092064D7F8700AE065D7F846
:1023B4007C0AA066D7F8EC08A060D7F874096062BC
:1023C400D7F88009206304F14400FFF7BBFBE06603
:1023D40004F11C02214604F10C00FFF7B3FB606317
:1023E40005B0F0BDC084002070B50446B44EC86882
:1023F400C6F8080C15460868C6F8FC0B8869C6F8C8
:10240400140CC868C6F8000D0868C6F8F40C88698E
:10241400C6F80C0D0869C6F80C0C4868C6F8000C20
:10242400C869C6F8180C0869C6F8040D4868C6F8E7
:10243400F80CC869C6F8100D4869C6F8100C88680D
:10244400C6F8040C086AC6F81C0C4869C6F8080DDE
:102454008868C6F8FC0C086AC6F8140DD6F8A00EF5
:1024640038B106F52D6306F53F6106F6D80000F095
:102474006FF9D6F89C0E40B106F624332A4606F6C8
:10248400E84106F6D41001F047FBD6F8EC09606485
:10249400D6F8F008E060D6F8F009A064D6F8F4089D
:1024A4002061D6F8F409E064D6F8F8086061D6F83B
:1024B400F8092065D6F8FC08A061D6F8E009A06305
:1024C400D6F8680A6065D6F8740A2066D6F8E40877
:1024D4002060D6F86C09E061D6F87809A062D6F8D5
:1024E400E409E063D6F86C0AA065D6F8780A606659
:1024F400D6F8E8086060D6F870092062D6F87C093E
:10250400E062D6F8E8092064D6F8700AE065D6F8E7
:102514007C0AA066D6F8EC08A060D6F8740960625C
:10252400D6F88009206370BD108500202DE9F04F96
:10253400634CD4F8940E012881B006DB401EC4F825
:10254400940E002001B0BDE8F08FD4F8987ED4F842
:10255400A00ED4F8888ED4F890BE7D1C00283CD000
:10256400284607F0C1FE8146384607F0BDFE824684
:10257400D4F88C0E514607F065FC494607F0FEFE80
:102584000646D4F80C04494607F0F8FE314607F035
:10259400C5FCC4F88C0E4146504607F053FC49462E
:1025A40007F0ECFE0646D4F81004494607F0E6FEB0
:1025B400314607F0B3FC80465046594607F042FCCA
:1025C400494607F0DBFE0646D4F81404494607F0F2
:1025D400D5FE314607F0A2FC8346D4F89C6E4EB378
:1025E400284607F081FE8146384607F07DFE824684
:1025F400414607F027FC494607F0C0FE3B4F8046A2
:10260400D7F80804494607F0B9FE414607F086FCAE
:1026140080465046594607F015FC494607F0AEFE81
:102624008346D7F80C04494607F0A8FE594607F03C
:1026340075FC8346B5F5FA7FC4F890BEC4F8888E5D
:10264400C4F8985E7FF47DAFD4F8A00EB0B14146D3
:102654004FF07C5007F0F6FBC4F8140B4FF07C509D
:10266400D4F8901E07F0EEFBC4F8180B4FF07C5022
:10267400D4F88C1E07F0E6FBC4F8100B7EB14FF0C3
:102684007C50D4F8881E07F0DDFBC4F8680B4FF0CB
:102694007C50D4F8901E07F0D5FBC4F86C0B0020D6
:1026A400C4F88C0EC4F8880EC4F8900EC4F8980EC2
:1026B40001B00120BDE8F08FB81E85EB51B8F63F9C
:1026C400A0320020008066406F1283C0CA210940F6
:1026D400008056C000805640000034430000B443DC
:1026E4000000B4C3000080FF0000F8FF9045002004
:1026F4006666663F3480373A3480373B83C02A3F6E
:1027040017B7513ACDCCCC3DF0B50FF2200289B0C9
:10271400F8CA00A9F8C178CA78C100A908F0D2FAA9
:1027240000A808F0F1FA09B0F0BD00005354206F7E
:1027340073784D6F74696F6E46582078392F7836E8
:102744002076312E302E37000000000000000000FB
:102754002DE9F54F0C461D460FF6A401DFF81CBE0B
:10276400A9B0CCC90AA80FF6A801CCC0CCC911A83D
:10277400CCC095F851008DF80D0004F1180086685E
:102784004768D0F800909BF9F40D07F0ADFD494679
:1027940007F058FB80469BF9F50D07F0A5FD394677
:1027A40007F050FB414607F0B9FB80469BF9F60D54
:1027B40007F09AFD314607F045FB414607F0AEFBB2
:1027C40082469BF9F70D07F08FFD494607F03AFB67
:1027D40080469BF9F80D07F087FD394607F032FB78
:1027E400414607F09BFB80469BF9F90D07F07CFD01
:1027F400314607F027FB414607F090FB80469BF9E2
:10280400FA0D07F071FD494607F01CFB81469BF960
:10281400FB0D07F069FD394607F014FB494607F044
:102824007DFB07469BF9FC0D07F05EFD314607F082
:1028340009FB394607F072FB064604F124020BF645
:102844000C610EA800F09EFE04F10C008168019159
:1028540041680091D0F800909BF9000E07F044FD08
:10286400494607F0EFFA07469BF9010E07F03CFDD5
:10287400009907F0E7FA394607F050FB07469BF941
:10288400020E07F031FD019907F0DCFA394607F032
:1028940045FB02909BF9030E07F026FD494607F01D
:1028A400D1FA07469BF9040E07F01EFD009907F0C4
:1028B400C9FA394607F032FB07469BF9050E07F0C3
:1028C40013FD019907F0BEFA394607F027FB0746C6
:1028D4009BF9060E07F008FD494607F0B3FA814656
:1028E4009BF9070E07F000FD009907F0ABFA494683
:1028F40007F014FB81469BF9080E07F0F5FC0199DB
:1029040007F0A0FA494607F009FB88F000410DF1F1
:102914003808049180F00049D8F804209BF8700E20
:102924000E9982F0004281F0004100288AF0004AAA
:102934000E92C8F8041041D00499084607F082FAB0
:1029440083465046514607F07DFA594607F0E6FAA9
:1029540083463046314607F075FA594607F0DEFAE9
:1029640007F01EFB07F07EFB07F0F4FB8346049898
:10297400594607F003FD04905946504607F0FEFC03
:1029840082463046594607F0F9FC06463846394631
:1029940007F058FA02990746084607F053FA3946F1
:1029A40007F0BCFA07464846494607F04BFA394651
:1029B40007F0B4FA07F0F4FA07F054FB95F8510065
:1029C40010B9012085F8510095F82900411C95F8AB
:1029D4005100C9B291FBF0F200FB121185F82910E5
:1029E40007F08CFC01460E9807F0C8FC216B07F039
:1029F40095FA206395F8510007F080FC0146D8F859
:102A0400040007F0BBFC616B07F088FA606395F87B
:102A1400510007F073FC0146D8F8080007F0AEFC3B
:102A2400A16B07F07BFAA06395F8240050B111A8BC
:102A3400019004F17800009004F16C022A9B0EA925
:102A440006F0AEFE299818300890019004F1E803CE
:102A540004F19800009004F1D80204F1B80111A81F
:102A640006F050FF95F83400012809D1DFF8101B57
:102A7400B1E88C1015A8A0E88C100899A1E88C1076
:102A840095F85200DDF820B08DF80C0015A92998AE
:102A940000F1A00900F1940700F10C08DBF8000034
:102AA40080F00040CBF80000DBF8040080F0004028
:102AB400CBF80400DBF8080080F00040CBF80800F5
:102AC4005846FDF7C5FB9DF80C0058B915A8816957
:102AD4003960C16979604146006AB860584606F0B9
:102AE400B1FBAEE0012840F0AC8015A8C2693A60A1
:102AF40082697A60006A80F00040B86040F0A1808A
:102B0400DBF800000790DBF80800079980F000402C
:102B14000690DBF804000590DBF80C0009900846E9
:102B240007F090F901464FF0804007F08BF90699C1
:102B34008346084607F086F94FF0804107F082F992
:102B440001464FF07E5007F04DFB594607F04AFB13
:102B540007F026FACDE900010699099807F072F901
:102B640002900799059807F06DF9029907F0D6F9D4
:102B74004FF0804107F066F907F012FADDE900230F
:102B840008F03AF881F0004107F0E4FAC8F80000D0
:102B940059464FF07E5007F025FB059983460846B9
:102BA40007F050F94FF0804107F04CF901465846C0
:102BB40007F018FB07F0F4F9CDE90001079906982E
:102BC40007F040F983460599099807F03BF95946FF
:102BD40007F0A4F94FF0804107F034F907F0E0F969
:102BE400DDE9002308F008F881F0004107F0B2FAAB
:102BF400C8F804000799099807F024F98346069950
:102C0400059807F01FF90146584607F0EBFA4FF014
:102C1400804107F017F907F0C3F908F091F881F043
:102C2400004107F097FAC8F808000021D8F800001E
:102C340007F080FB05D2DFF83C1D07F06FF9C8F8F8
:102C44000000DFF834BDD8F80000594607F0FAF860
:102C5400C8F800005946D8F8040007F0F3F8C8F89B
:102C640004005946D8F8080007F0ECF8C8F8080042
:102C74009DF80C0080B93868049907F0B3FAC9F8D4
:102C840000005146786807F0ADFAC9F804003146EF
:102C9400B86807F0A7FA11E0012811D13868514645
:102CA40007F0A0FAC9F800000499786807F09AFAC6
:102CB400C9F804003146B86807F030F9C9F80800CB
:102CC400002085F8260095F85000810708D495F86F
:102CD40029109DF80D2091FBF2F302FB131139B179
:102CE40004F1A80204F1A80111A806F022FB6CE18A
:102CF40040F0010004F1880685F85000D4F88C00F7
:102D04003268C4F89C00C4F89820D4F89000C4F841
:102D1400A000D4F89400C4F8A4001198014607F068
:102D2400ABFB40F06881D4F8A800014607F0A4FB8F
:102D340040F06181D4F8C800014607F09DFB40F0E3
:102D44005A811046114607F097FB40F0548115AAAA
:102D540004F1A80111A804F1C80706F0EAFAD7F8AB
:102D640000807868039019ABB86802900DF12809C7
:102D7400F86801900DF1640AF06819904FF0040BA3
:102D8400B16881F000421A6177681F623668596041
:102D940086F0004CC3F830C0C3F824C0586187F0F3
:102DA400004CC3F834C0C3F808C09E6198629A63AB
:102DB400DE60DF61D962D8630020C9F80000DAF868
:102DC4000C10019807F03EF80090DAF80810029809
:102DD40007F038F806460398DAF8041007F032F8DA
:102DE40007465AF8100B414607F02CF8002107F06B
:102DF40095F8394607F092F8314607F08FF80099B4
:102E040007F08CF8BBF1010B49F8040BD4D115A8D9
:102E14004168DDF828C0DDF8548004918CF0004C42
:102E24008168C068039119ABC3F830C0C3F824C0EB
:102E340002900AAF0DF12809B968F8687E6881F03C
:102E4400004286F0004C1A61C3F834C0C3F808C0CD
:102E54009A631990DDF828C00A9A1E625960586175
:102E6400C3F818C09862DA60DE61D962D8630DF1E4
:102E7400640A4FF0040B0020C9F80000DAF80C10C3
:102E8400029806F0DFFF0190DAF80810039806F0C4
:102E9400D9FF0090DAF80410049806F0D3FF064630
:102EA4005AF8100B414606F0CDFF002107F036F822
:102EB400314607F033F8009907F030F8019907F02C
:102EC4002DF8BBF1010B49F8040BD4D1D7F80C90C1
:102ED4007E68D7F808804846494606F0B3FF00905C
:102EE4004146404606F0AEFF82463046314606F083
:102EF400A9FF0A998346084606F0A4FF002107F0BB
:102F04000DF8594607F00AF8514607F007F80099FA
:102F140007F004F807F044F807F0A4F807F01AF9EA
:102F240082460A98514607F029FA0A9051463046DB
:102F340007F024FA06467E604046514607F01EFA22
:102F44008046C7F808804846514607F017FA0246FB
:102F54000A98FA60014607F08FFA4CD1A067C4F8CA
:102F64008080C4F88420E66704F1D806D4F8A80069
:102F7400C4F8B800D4F8AC00C4F8BC00D4F8B0006D
:102F8400C4F8C000D4F8B400C4F8C40095F85100E3
:102F940007F0B4F90146324604F1C80006F00FFD0B
:102FA400DFF8DC05CCC800A91038CCC100A9B1E811
:102FB400C81004F1A80200A9A2E8C810CCC8CCC16A
:102FC40000A804F1E8015CC85CC195F8520001282E
:102FD4000DD108982999299A089B0068096AD26931
:102FE4001A6081F00041299AD06129980162002079
:102FF4002BB0BDE8F08F4FF0FF302BB0BDE8F08F61
:103004000000000000000000000000000000803FFD
:103014000000000000000000000000000000803FED
:103024002DE9F54F0C4604F11800F5B087684668A1
:10303400D0F800A0DFF8449599F9F40D1D4607F087
:1030440053F9514606F0FEFE804699F9F50D07F056
:103054004BF9314606F0F6FE414606F05FFF804626
:1030640099F9F60D07F040F9394606F0EBFE4146B2
:1030740006F054FF834699F9F70D07F035F95146E8
:1030840006F0E0FE804699F9F80D07F02DF9314677
:1030940006F0D8FE414606F041FF804699F9F90D45
:1030A40007F022F9394606F0CDFE414606F036FF18
:1030B400804699F9FA0D07F017F9514606F0C2FE59
:1030C400824699F9FB0D07F00FF9314606F0BAFE76
:1030D400514606F023FF064699F9FC0D07F004F962
:1030E400394606F0AFFE314606F018FF824604F179
:1030F40024008168019141680091066899F90C0ED9
:1031040007F0F2F8314606F09DFE074699F90D0ED8
:1031140007F0EAF8009906F095FE394606F0FEFE3F
:10312400074699F90E0E07F0DFF8019906F08AFEBA
:10313400394606F0F3FE029099F90F0E07F0D4F821
:10314400314606F07FFE074699F9100E07F0CCF8D9
:10315400009906F077FE394606F0E0FE074699F935
:10316400110E07F0C1F8019906F06CFE394606F01D
:10317400D5FE074699F9120E07F0B6F8314606F067
:1031840061FE064699F9130E07F0AEF8009906F0B1
:1031940059FE314606F0C2FE064699F9140E07F0B0
:1031A400A3F8019906F04EFE314606F0B7FE88F00A
:1031B40000410590019104F10C00029981F0004155
:1031C40087F00047039104978BF0004B81680291CC
:1031D40041680091066899F9030E07F085F83146B5
:1031E40006F030FE074699F9040E07F07DF80099C1
:1031F40006F028FE394606F091FE074699F9050EB9
:1032040007F072F8029906F01DFE394606F086FEB4
:10321400074699F9000E07F067F8314606F012FEEA
:10322400804699F9010E07F05FF8009906F00AFE4E
:10323400414606F073FE804699F9020E07F054F8F1
:10324400029906F0FFFD414606F068FE804699F9B2
:10325400060E07F049F8314606F0F4FD064699F9E2
:10326400070E07F041F8009906F0ECFD314606F030
:1032740055FE064699F9080E07F036F8029906F04D
:10328400E1FD314606F04AFE80F0004699F8700EE2
:10329400002853D00199084606F0D4FD0090594601
:1032A400584606F0CFFD009906F038FE00905146CE
:1032B400504606F0C7FD009906F030FE06F070FE99
:1032C40006F0D0FE06F046FF00900099019807F042
:1032D40055F801905846009907F050F88346009934
:1032E400504607F04BF882463846394606F0AAFDA8
:1032F40000904146404606F0A5FD009906F00EFEFA
:1033040000903146304606F09DFD009906F006FE19
:1033140006F046FE06F0A6FE06F01CFF00903846B6
:10332400009907F02BF807460099404607F026F865
:1033340080460099304607F021F8064695F850007B
:1033440040F0020080F0010085F8500095F851002B
:1033540006F0D4FF769906F075FD2590F822A06F4B
:10336400C4F888002146E06FC4F88C00D4F88000CB
:10337400C4F89000D4F88400C4F894002DA807F091
:103384006BFD01983390CDF8D0B0CDF8D4A0309730
:10339400CDF8C480329604983690039837900598F7
:1033A4003890002020636063A06309F10800249032
:1033B4007598FA3023907598F93022907598F83002
:1033C40021902AA82090759858301F907598EC3059
:1033D4001E907598E8301D906BA81C9004F1C800ED
:1033E4001B9026A81A90E86C06F0DAFDCDE91801C6
:1033F400A86C1690686C1590286C1490E86A06F016
:10340400CFFDCDE9120195F8260007F08BF8CDE940
:10341400100195F824000E9095F823000D9095F86E
:1034240022000C9095F821000B9095F820000A904A
:10343400286906F0B5FDCDE9080139ABE8680690C6
:1034440033AAA868059030A9686804902868039096
:103454002598029048A801903CA800904FA805F038
:10346400B9FF809840B12699016026A94A68426054
:103474008A688260C968C160759890F8FA0001286A
:103484001CD1002085F8340089F8700E26A92698EE
:10349400A0674868E0678868C4F88000C868C4F812
:1034A40084002698C4F888004868C4F88C008868AA
:1034B400C4F89000C868C4F8940007E099F8700E46
:1034C40020B10A28BCBF401E89F8700E2A98DFF884
:1034D4003C6606F065FD0022334607F091FADFF8FA
:1034E4003026DFF8303607F02BF806F033FEE066BE
:1034F4002AAF4FF00008786806F052FD4246334682
:1035040007F07EFADFF80826DFF8083607F018F827
:1035140006F020FE2067B86806F042FD42463346B6
:1035240007F06EFADFF8E825DFF8E83507F008F869
:1035340006F010FE6067759999F8710E91F8F9100C
:1035440081B10A28B8BF401C0DDB759A2A99C2F8CC
:103554008810759A7968C2F88C10759AB968C2F89F
:10356400901000E0002089F8710E77B095F85000B3
:1035740080F0020085F85000BDE8F08FA0320020F2
:10358400003B0208F0B50D4681B0044695F90000F1
:10359400164606F0A9FE316806F054FC074695F974
:1035A400010006F0A1FE716806F04CFC394606F0F5
:1035B400B5FC074695F9020006F096FEB16806F0E0
:1035C40041FC394606F0AAFC206095F9030006F098
:1035D4008BFE316806F036FC074695F9040006F0C8
:1035E40083FE716806F02EFC394606F097FC074608
:1035F40095F9050006F078FEB16806F023FC39461B
:1036040006F08CFC606095F9060006F06DFE3168EA
:1036140006F018FC074695F9070006F065FE716888
:1036240006F010FC394606F079FC074695F90800C7
:1036340006F05AFEB16806F005FC394606F06EFC49
:10364400A06001B0F0BD00002DE9F041DFF8783D45
:1036540003F6F45403F5606503F60C665FF00307A4
:103664004FF0000C04F801CB05F801CB06F801CBB0
:1036740004F801CB05F801CB06F801CB04F801CB23
:1036840005F801CB7F1E06F801CBEBD10478A4F139
:103694004205182D0D7838BF2034A5F14206182EA6
:1036A400167838BF2035A6F14207182F477838BF5F
:1036B4002036A7F1420CBCF1180F91F801C038BFB5
:1036C4002037ACF1420EBEF1180F92F801E0807879
:1036D40038BF0CF1200CAEF14208B8F1180F38BF16
:1036E4000EF1200EA0F1420889789278B8F1180FF3
:1036F40038BF2030A1F14208B8F1180F38BF20318B
:10370400A2F14208B8F1180F38BF2032E4B2642C99
:103714004FF0FF381BD0652C0AD06E2C0CD0732CC4
:103724000ED0752C0FD0772C08BF83F8F48D10E0E1
:10373400012483F8F44D0CE0012483F8F74D08E0EC
:1037440083F8F78D05E0012483F8FA4D01E083F84E
:10375400FA8DFFB2642F1BD0652F0AD06E2F0CD0C8
:10376400732F0ED0752F0FD0772F08BF83F8F58DE8
:1037740010E0012483F8F54D0CE0012483F8F84DA2
:1037840008E083F8F88D05E0012483F8FB4D01E09F
:1037940083F8FB8DC0B264281BD065280AD06E283C
:1037A4000CD073280ED075280FD0772808BF83F863
:1037B400F68D10E0012083F8F60D0CE0012083F86B
:1037C400F90D08E083F8F98D05E0012083F8FC0D7C
:1037D40001E083F8FC8DEDB2642D1BD0652D0AD079
:1037E4006E2D0CD0732D0ED0752D0FD0772D08BFF4
:1037F40083F80C8E10E0012083F80C0E0CE00120FD
:1038040083F80F0E08E083F80F8E05E0012083F89B
:10381400120E01E083F8128E5FFA8CF064281BD03C
:1038240065280AD06E280CD073280ED075280FD0C6
:10383400772808BF83F80D8E10E0012083F80D0E61
:103844000CE0012083F8100E08E083F8108E05E0E8
:10385400012083F8130E01E083F8138EC9B26429A2
:103864001BD065290AD06E290CD073290ED0752976
:103874000FD0772908BF83F80E8E10E0012083F85B
:103884000E0E0CE0012083F8110E08E083F8118E6F
:1038940005E0012083F8140E01E083F8148EF6B2DB
:1038A400642E1BD0652E0AD06E2E0CD0732E0ED033
:1038B400752E0FD0772E08BF83F8008E10E00120FC
:1038C40083F8000E0CE0012083F8030E08E083F86F
:1038D400038E05E0012083F8060E01E083F8068ECE
:1038E4005FFA8EF064281BD065280AD06E280CD0AD
:1038F40073280ED075280FD0772808BF83F8018E5F
:1039040010E0012083F8010E0CE0012083F8040E7E
:1039140008E083F8048E05E0012083F8070E01E037
:1039240083F8078ED2B2642A20D0652A0BD06E2A7F
:103934000ED0732A11D0752A13D0772A08BF83F8C2
:10394400028EBDE8F081012083F8020EBDE8F0810B
:10395400012083F8050EBDE8F08183F8058EBDE8EB
:10396400F081012083F8080EBDE8F08183F8088E09
:10397400BDE8F081560EC940E12E6542F0B40FF265
:103984007C1284B0F0CA00AB103AF0C300ABB3E8C9
:10399400E01000F1780400ABA4E8E010F0CAF0C332
:1039A40000ABB3E8E01000F18804103AA4E8E0109A
:1039B400F0CA00AB103AF0C300ABB3E8E01000F17A
:1039C400980400ABA4E8E010F0CAF0C300ABB3E87D
:1039D400E01000F1A804103AA4E8E010F0CA00AB2B
:1039E400103AF0C300ABB3E8E01000F1B80400AB48
:1039F400A4E8E010F0CAF0C300ABB3E8E01000F1B3
:103A0400C804103AA4E8E010F0CA00AB103AF0C3BE
:103A140000ABB3E8E01000F1D80400ABA4E8E01078
:103A2400F0CAF0C300F1E8034FF07E52F0C3002364
:103A3400C263036443648364C2640365436583654A
:103A4400C265036643668366C36603674367DFF83C
:103A5400080E086081F8253081F8263081F8273077
:103A6400CA6281F8503081F8523004B0DFF8EC0DAE
:103A74004860DFF8EC0D8860DFF8E80DC860DFF817
:103A8400E80D0861DFF8E40D4861DFF8E40D8861B2
:103A9400DFF8E00DC861DFF8E00D8863012081F8EC
:103AA400200081F8210081F8220081F8230081F8A8
:103AB40024000A2081F82800282081F83C000120F5
:103AC40081F83400022081F8290081F85100DFF8E0
:103AD400AC0D0864DFF8A80D4864DFF8A80D88640D
:103AE400DFF8A40DC864DFF8A40DC0F8A830C0F84E
:103AF400AC30C0F8B030F0BC7047000000000000EB
:103B040000000000000000000000803F00806640CC
:103B14006F1283C0CA2109402DE9F54F0C461D469A
:103B24000FF6A801DFF8A0B8A9B0CCC90AA80FF60F
:103B3400AC01CCC0CCC911A8CCC095F851008DF80B
:103B44000D0004F1180086684768D0F800909BF9CE
:103B5400180E06F0C9FB494606F074F980469BF935
:103B6400190E06F0C1FB394606F06CF9414606F021
:103B7400D5F980469BF91A0E06F0B6FB314606F0DD
:103B840061F9414606F0CAF982469BF91B0E06F01C
:103B9400ABFB494606F056F980469BF91C0E06F02D
:103BA400A3FB394606F04EF9414606F0B7F98046C4
:103BB4009BF91D0E06F098FB314606F043F9414689
:103BC40006F0ACF980469BF91E0E06F08DFB4946C3
:103BD40006F038F981469BF91F0E06F085FB39463D
:103BE40006F030F9494606F099F907469BF9200E8C
:103BF40006F07AFB314606F025F9394606F08EF9CF
:103C0400064604F124020BF563610EA800F042FE9F
:103C140004F10C008168019141680091D0F8009092
:103C24009BF9240E06F060FB494606F00BF90746A3
:103C34009BF9250E06F058FB009906F003F9394666
:103C440006F06CF907469BF9260E06F04DFB019928
:103C540006F0F8F8394606F061F902909BF9270E50
:103C640006F042FB494606F0EDF807469BF9280E9C
:103C740006F03AFB009906F0E5F8394606F04EF9ED
:103C840007469BF9290E06F02FFB019906F0DAF896
:103C9400394606F043F907469BF92A0E06F024FB41
:103CA400494606F0CFF881469BF92B0E06F01CFB23
:103CB400009906F0C7F8494606F030F981469BF9A9
:103CC4002C0E06F011FB019906F0BCF8494606F0EB
:103CD40025F988F000410DF13808049180F000497D
:103CE400D8F804209BF8720E0E9982F0004281F0FD
:103CF400004100288AF0004A0E92C8F8041041D00E
:103D04000499084606F09EF883465046514606F04C
:103D140099F8594606F002F983463046314606F0D2
:103D240091F8594606F0FAF806F03AF906F09AF9CD
:103D340006F010FA83460498594606F01FFB0490D7
:103D44005946504606F01AFB82463046594606F05C
:103D540015FB06463846394606F074F802990746BC
:103D6400084606F06FF8394606F0D8F80746484684
:103D7400494606F067F8394606F0D0F806F010F91F
:103D840006F070F995F8510010B9012085F851003A
:103D940095F82900411C95F85100C9B291FBF0F245
:103DA40000FB121185F8291006F0A8FA01460E98B6
:103DB40006F0E4FA216B06F0B1F8206395F851009F
:103DC40006F09CFA0146D8F8040006F0D7FA616BB5
:103DD40006F0A4F8606395F8510006F08FFA0146E6
:103DE400D8F8080006F0CAFAA16B06F097F8A063A9
:103DF40095F8240050B111A8019004F178000090C6
:103E040004F16C022A9B0EA905F0CAFC299818300B
:103E14000890019004F1E80304F19800009004F183
:103E2400D80204F1B80111A805F06CFD95F834002E
:103E3400012809D1DFF8581AB1E88C1015A8A0E8B8
:103E44008C100899A1E88C1095F85200DDF820B088
:103E54008DF80C0015A9299800F1A00900F1940728
:103E640000F10C08DBF8000080F00040CBF8000003
:103E7400DBF8040080F00040CBF80400DBF8080015
:103E840080F00040CBF808005846FCF7E1F99DF8B3
:103E94000C0058B915A881693960C1697960414637
:103EA400006AB860584605F0CDF9AEE0012840F04C
:103EB400AC8015A8C2693A6082697A60006A80F0B1
:103EC4000040B86040F0A180DBF800000790DBF808
:103ED4000800079980F000400690DBF80400059084
:103EE400DBF80C000990084605F0ACFF01464FF0E2
:103EF400804005F0A7FF06998346084605F0A2FF17
:103F04004FF0804105F09EFF01464FF07E5006F0D1
:103F140069F9594606F066F906F042F8CDE9000160
:103F24000699099805F08EFF02900799059805F007
:103F340089FF029905F0F2FF4FF0804105F082FFFE
:103F440006F02EF8DDE9002306F056FE81F000416C
:103F540006F000F9C8F8000059464FF07E5006F00C
:103F640041F905998346084605F06CFF4FF08041FE
:103F740005F068FF0146584606F034F906F010F8DB
:103F8400CDE900010799069805F05CFF8346059981
:103F9400099805F057FF594605F0C0FF4FF08041DE
:103FA40005F050FF05F0FCFFDDE9002306F024FED8
:103FB40081F0004106F0CEF8C8F80400079909988A
:103FC40005F040FF83460699059805F03BFF01463E
:103FD400584606F007F94FF0804105F033FF05F02D
:103FE400DFFF06F0ADFE81F0004106F0B3F8C8F83B
:103FF40008000021D8F8000006F09CF905D2DFF88B
:10400400841C05F08BFFC8F80000DFF87CBCD8F8EE
:104014000000594605F016FFC8F800005946D8F8C4
:10402400040005F00FFFC8F804005946D8F808004A
:1040340005F008FFC8F808009DF80C0080B938683E
:10404400049906F0CFF8C9F800005146786806F0E4
:10405400C9F8C9F804003146B86806F0C3F811E09D
:10406400012811D13868514606F0BCF8C9F800009F
:104074000499786806F0B6F8C9F804003146B868BF
:1040840005F04CFFC9F80800002085F8260095F8D3
:104094005000810708D495F829109DF80D2091FB54
:1040A400F2F302FB131139B104F1A80204F1A801DF
:1040B40011A805F03EF96CE140F0010004F1880616
:1040C40085F85000D4F88C003268C4F89C00C4F819
:1040D4009820D4F89000C4F8A000D4F89400C4F850
:1040E400A4001198014606F0C7F940F06881D4F89D
:1040F400A800014606F0C0F940F06181D4F8C80078
:10410400014606F0B9F940F05A811046114606F00E
:10411400B3F940F0548115AA04F1A80111A804F1DF
:10412400C80705F006F9D7F800807868039019AB42
:10413400B86802900DF12809F86801900DF1640A3D
:10414400F06819904FF0040BB16881F000421A61D5
:1041540077681F623668596086F0004CC3F830C037
:10416400C3F824C0586187F0004CC3F834C0C3F8C6
:1041740008C09E6198629A63DE60DF61D962D86389
:104184000020C9F80000DAF80C10019805F05AFE76
:104194000090DAF80810029805F054FE06460398D9
:1041A400DAF8041005F04EFE07465AF8100B4146A3
:1041B40005F048FE002105F0B1FE394605F0AEFEDB
:1041C400314605F0ABFE009905F0A8FEBBF1010BEA
:1041D40049F8040BD4D115A84168DDF828C0DDF8EE
:1041E400548004918CF0004C8168C068039119AB31
:1041F400C3F830C0C3F824C002900AAF0DF12809F7
:10420400B968F8687E6881F0004286F0004C1A6153
:10421400C3F834C0C3F808C09A631990DDF828C005
:104224000A9A1E6259605861C3F818C09862DA602D
:10423400DE61D962D8630DF1640A4FF0040B0020EB
:10424400C9F80000DAF80C10029805F0FBFD0190A3
:10425400DAF80810039805F0F5FD0090DAF8041078
:10426400049805F0EFFD06465AF8100B414605F098
:10427400E9FD002105F052FE314605F04FFE00999C
:1042840005F04CFE019905F049FEBBF1010B49F81C
:10429400040BD4D1D7F80C907E68D7F80880484630
:1042A400494605F0CFFD00904146404605F0CAFD61
:1042B40082463046314605F0C5FD0A9983460846D4
:1042C40005F0C0FD002105F029FE594605F026FE43
:1042D400514605F023FE009905F020FE05F060FE2E
:1042E40005F0C0FE05F036FF82460A98514606F0F6
:1042F40045F80A905146304606F040F806467E607E
:104304004046514606F03AF88046C7F808804846C9
:10431400514606F033F802460A98FA60014606F060
:10432400ABF84CD1A067C4F88080C4F88420E66759
:1043340004F1D806D4F8A800C4F8B800D4F8AC0046
:10434400C4F8BC00D4F8B000C4F8C000D4F8B40079
:10435400C4F8C40095F8510005F0D0FF0146324678
:1043640004F1C80005F02BFBDFF82405CCC800A934
:104374001038CCC100A9B1E8C81004F1A80200A902
:10438400A2E8C810CCC8CCC100A804F1E8015CC8FC
:104394005CC195F8520001280DD108982999299AF1
:1043A400089B0068096AD2691A6081F00041299A61
:1043B400D0612998016200202BB0BDE8F08F4FF046
:1043C400FF302BB0BDE8F08FA032002000000000C9
:1043D40000000000000000000000803F000000001A
:1043E40000000000000000000000803F2DE9F54FB0
:1043F4000C4604F11800F5B08768D0F804900668FC
:10440400DFF888A49AF9180E1D4605F06DFF3146B1
:1044140005F018FD80469AF9190E05F065FF494626
:1044240005F010FD414605F079FD80469AF91A0E13
:1044340005F05AFF394605F005FD414605F06EFDCD
:1044440080469AF91B0E05F04FFF314605F0FAFC41
:1044540083469AF91C0E05F047FF494605F0F2FC25
:10446400594605F05BFD83469AF91D0E05F03CFFA5
:10447400394605F0E7FC594605F050FD83469AF9A4
:104484001E0E05F031FF314605F0DCFC06469AF9B4
:104494001F0E05F029FF494605F0D4FC314605F00E
:1044A4003DFD06469AF9200E05F01EFF394605F03B
:1044B400C9FC314605F032FD074604F1240088F0BA
:1044C400004881680191D0F8049006689AF9360E84
:1044D40005F00AFF314605F0B5FC00909AF9370E55
:1044E40005F002FF494605F0ADFC009905F016FD04
:1044F40000909AF9380E05F0F7FE019905F0A2FC38
:10450400009905F00BFD03908BF0004000909AF9A0
:10451400300E05F0E9FE314605F094FC83469AF925
:10452400310E05F0E1FE494605F08CFC594605F0D4
:10453400F5FC83469AF9320E05F0D6FE019905F092
:1045440081FC594605F0EAFC83469AF9330E05F0DE
:10455400CBFE314605F076FC06469AF9340E05F09A
:10456400C3FE494605F06EFC314605F0D7FC06460D
:104574009AF9350EDFF82C9A05F0B6FE019905F08C
:1045840061FC314605F0CAFC80F000400290002630
:104594008BF000400190DFF810BA9AF8720E0028F0
:1045A40043D00099084605F04DFC814640464146FB
:1045B40005F048FC494605F0B1FC814638463946C9
:1045C40005F040FC494605F0A9FC05F0E9FC05F0BE
:1045D40049FD05F0BFFD81460098494605F0CEFE31
:1045E40000904946404605F0C9FE80463846494693
:1045F40005F0C4FE07464FF06040DFF8B01905F03F
:1046040031FD05F0A7FD8346DFF89809594605F00A
:10461400B5FE81460020594605F0B0FE0646DFF897
:104624008809594605F0AAFE834695F8500040F0E3
:10463400020080F0010085F8500095F8510005F063
:104644005DFE769905F0FEFB2590F822A06FC4F874
:1046540088002146E06FC4F88C00D4F88000C4F8C8
:104664009000D4F88400C4F894002DA806F0F4FB5C
:1046740000983390CDF8D0803597CDF8C09031961E
:10468400CDF8C8B0029836900198379003983890C6
:10469400002020636063A063DFF8140924907598F8
:1046A400FA3023907598F93022907598F83021905B
:1046B4002AA82090759858301F907598EC301E9059
:1046C4007598E8301D906BA81C9004F1C8001B90ED
:1046D40026A81A90E86C05F063FCCDE91801A86CD3
:1046E4001690686C1590286C1490E86A05F058FCD4
:1046F400CDE9120195F8260005F014FFCDE910016B
:1047040095F824000E9095F823000D9095F822005A
:104714000C9095F821000B9095F820000A902869D8
:1047240005F03EFCCDE9080139ABE868069033AAF0
:10473400A868059030A968680490286803902598B3
:10474400029048A801903CA800904FA804F042FEB3
:10475400809840B12699016026A94A6842608A6817
:104764008260C968C160759890F8FA0001281BD16D
:10477400002085F834008AF8720E26A92698A067CE
:104784004868E0678868C4F88000C868C4F8840092
:104794002698C4F888004868C4F88C008868C4F86F
:1047A4009000C868C4F894002AAF2A98DFF80498E7
:1047B40005F0F6FB00224B4606F022F9DFF8F82755
:1047C400DFF8F83705F0BCFE05F0C4FCE06600260F
:1047D400786805F0E5FB32464B4606F011F9DFF840
:1047E400D827DFF8D83705F0ABFE05F0B3FC206717
:1047F400B86805F0D5FB32464B4606F001F9DFF800
:10480400B827DFF8B83705F09BFE05F0A3FC606716
:1048140075999AF8730E91F8F91081B10A28B8BF06
:10482400401C0DDB759A2A99C2F88810759A79682C
:10483400C2F88C10759AB968C2F8901000E0002094
:104844008AF8730E77B095F8500080F0020085F86E
:104854005000BDE8F08F00008195633F21B02A40ED
:10486400CFF7133F83C02A3F00002041000070426D
:1048740000001642295C0F3E0000F041282C7139DB
:1048840027A0093A0742B239CDCCCC3DA032002052
:10489400F44D0208F0B50D4681B0044695F90000C8
:1048A400164605F021FD316805F0CCFA074695F966
:1048B400010005F019FD716805F0C4FA394605F0E8
:1048C4002DFB074695F9020005F00EFDB16805F0D1
:1048D400B9FA394605F022FB206095F9030005F08A
:1048E40003FD316805F0AEFA074695F9040005F0BA
:1048F400FBFC716805F0A6FA394605F00FFB074684
:1049040095F9050005F0F0FCB16805F09BFA39460D
:1049140005F004FB606095F9060005F0E5FC3168DC
:1049240005F090FA074695F9070005F0DDFC71687B
:1049340005F088FA394605F0F1FA074695F90800BA
:1049440005F0D2FCB16805F07DFA394605F0E6FAC7
:10495400A06001B0F0BD00002DE9F041DFF8603641
:1049640003F6186403F6246503F563665FF0030732
:104974004FF0000C04F801CB05F801CB06F801CB8D
:1049840004F801CB05F801CB06F801CB04F801CB00
:1049940005F801CB7F1E06F801CBEBD10478A4F116
:1049A4004205182D0D7838BF2034A5F14206182E83
:1049B400167838BF2035A6F14207182F477838BF3C
:1049C4002036A7F1420CBCF1180F91F801C038BF92
:1049D4002037ACF1420EBEF1180F92F801E0807856
:1049E40038BF0CF1200CAEF14208B8F1180F38BFF3
:1049F4000EF1200EA0F1420889789278B8F1180FD0
:104A040038BF2030A1F14208B8F1180F38BF203167
:104A1400A2F14208B8F1180F38BF2032E4B2642C76
:104A24004FF0FF381BD0652C0AD06E2C0CD0732CA1
:104A34000ED0752C0FD0772C08BF83F8188E10E099
:104A4400012483F8184E0CE0012483F81B4E08E07F
:104A540083F81B8E05E0012483F81E4E01E083F8E1
:104A64001E8EFFB2642F1BD0652F0AD06E2F0CD080
:104A7400732F0ED0752F0FD0772F08BF83F8198EA0
:104A840010E0012483F8194E0CE0012483F81C4E35
:104A940008E083F81C8E05E0012483F81F4E01E032
:104AA40083F81F8EC0B264281BD065280AD06E28F4
:104AB4000CD073280ED075280FD0772808BF83F840
:104AC4001A8E10E0012083F81A0E0CE0012083F8FE
:104AD4001D0E08E083F81D8E05E0012083F8200EEA
:104AE40001E083F8208EEDB2642D1BD0652D0AD031
:104AF4006E2D0CD0732D0ED0752D0FD0772D08BFD1
:104B040083F8308E10E0012083F8300E0CE0012091
:104B140083F8330E08E083F8338E05E0012083F830
:104B2400360E01E083F8368E5FFA8CF064281BD0D1
:104B340065280AD06E280CD073280ED075280FD0A3
:104B4400772808BF83F8318E10E0012083F8310EF6
:104B54000CE0012083F8340E08E083F8348E05E07D
:104B6400012083F8370E01E083F8378EC9B2642937
:104B74001BD065290AD06E290CD073290ED0752953
:104B84000FD0772908BF83F8328E10E0012083F814
:104B9400320E0CE0012083F8350E08E083F8358EE0
:104BA40005E0012083F8380E01E083F8388EF6B270
:104BB400642E1BD0652E0AD06E2E0CD0732E0ED010
:104BC400752E0FD0772E08BF83F8248E10E00120B5
:104BD40083F8240E0CE0012083F8270E08E083F804
:104BE400278E05E0012083F82A0E01E083F82A8E3F
:104BF4005FFA8EF064281BD065280AD06E280CD08A
:104C040073280ED075280FD0772808BF83F8258E17
:104C140010E0012083F8250E0CE0012083F8280E13
:104C240008E083F8288E05E0012083F82B0E01E0CC
:104C340083F82B8ED2B2642A20D0652A0BD06E2A38
:104C44000ED0732A11D0752A13D0772A08BF83F89F
:104C5400268EBDE8F081012083F8260EBDE8F081A0
:104C6400012083F8290EBDE8F08183F8298EBDE880
:104C7400F081012083F82C0EBDE8F08183F82C8E9E
:104C8400BDE8F081560EC940E12E6542F0B40FF242
:104C9400601284B0F0CA00AB103AF0C300ABB3E8C2
:104CA400E01000F1780400ABA4E8E010F0CAF0C30F
:104CB40000ABB3E8E01000F18804103AA4E8E01077
:104CC400F0CA00AB103AF0C300ABB3E8E01000F157
:104CD400980400ABA4E8E010F0CAF0C300ABB3E85A
:104CE400E01000F1A804103AA4E8E010F0CA00AB08
:104CF400103AF0C300ABB3E8E01000F1B80400AB25
:104D0400A4E8E010F0CAF0C300ABB3E8E01000F18F
:104D1400C804103AA4E8E010F0CA00AB103AF0C39B
:104D240000ABB3E8E01000F1D80400ABA4E8E01055
:104D3400F0CAF0C300F1E8034FF07E52F0C3002341
:104D4400C263036443648364C26403654365836527
:104D5400C265036643668366C3660367436799480F
:104D6400086081F8223081F8253081F8263081F8F6
:104D74002730CB6281F8503081F8523004B0924829
:104D84004860924888609248C86092480861924896
:104D94004861924888619248C861924888630120BA
:104DA40081F8200081F8210081F8230081F8240093
:104DB4000A2081F82800282081F83C00012081F88D
:104DC4003400022081F8290081F8510086480864E3
:104DD40086484864864888648648C8647448C0F82D
:104DE400A030C0F8A430C0F8A830F0BC7047000070
:104DF4000000000000000000000000000000803FF0
:104E04002DE9F043044681B027680D4690463846A4
:104E1400414605F0DFFE26D9666A4046314605F074
:104E2400D9FE24D9664AD2E9000105F093F9024675
:104E34004046394605F0CEFE47D83046414605F097
:104E4400C9FE42D8012202230A27B818460804EBF7
:104E54008601404651F8041C05F0BCFE9ABF324658
:104E6400731C374607E0286801B0BDE8F083686A20
:104E740001B0BDE8F083BB42E7D305EB8200571CC9
:104E840050F8046C04EB820050F8049C40464946F8
:104E940005F0A8F9804604EB8700494650F8040C55
:104EA40005F0A0F90146404605F068FA044605EB12
:104EB4008700314650F8040C05F094F9214604F0BB
:104EC400C1FF314605F02AF80246104601B0BDE89C
:104ED400F0832DE9F043044681B027680D469046DF
:104EE4003846414605F076FE26D9266B40463146C3
:104EF40005F070FE24D9324AD2E9000105F02AF9FE
:104F040002464046394605F065FE47D830464146DC
:104F140005F060FE42D8012202230D27B818460886
:104F240004EB8601404651F8041C05F053FE9ABF79
:104F34003246731C374607E0286801B0BDE8F083A9
:104F4400286B01B0BDE8F083BB42E7D305EB8200D8
:104F5400571C50F8046C04EB820050F8049C404643
:104F6400494605F03FF9804604EB8700494650F86E
:104F7400040C05F037F90146404605F0FFF90446F4
:104F840005EB8700314650F8040C05F02BF9214657
:104F940004F058FF314604F0C1FF0246104601B048
:104FA400BDE8F0833333333F333333BF285CEF3F03
:104FB40090450020008066406F1283C0CA210940DA
:104FC400A03200208195633F21B02A40CFF7133FE0
:104FD40083C02A3F000020410000704200001642B6
:104FE400295C0F3E0000F041282C713927A0093AB2
:104FF4000742B239CDCCCC3D2DE9F0430D460446F1
:1050040095F8CE080026002881B052D1012085F8F9
:10501400CE08C5F8B848D5E902230020014605F0BA
:10502400BBFBC5F8BC48D5E9042305F0B5FB024633
:105034000B46C5F8C048D5E9060105F0ADFB0246AC
:105044000B46C5F8C448D5E9080105F0A5FB02469E
:105054000B46C5F8C848D5E90A0105F09DFB07468B
:105064008946D5E902013A464B4605F069FAC5E995
:1050740002013A46D5E904014B4605F061FAC5E957
:1050840004013A46D5E906014B4605F059FAC5E94B
:1050940006013A46D5E908014B4605F051FAC5E93F
:1050A40008013A46D5E90A014B4605F049FAC5E933
:1050B4000A01042705EB870005EBC702D0F8B48882
:1050C400C0F8B888D2E9020105F044F8414604F07A
:1050D400B9FE31467F1E04F021FFFFB2002F0646C1
:1050E400E8D1C5F8B848D5E9020105F033F8D5F898
:1050F400B81804F0A7FE314601B0BDE8F04304F04F
:105104000DBF00002DE9FE4FDFF8A41EADF5AD6D17
:10511400B1E8BC500646FFA8FF301130A0E8BC50EF
:10512400B1E8BC10A0E8BC10DFF8881EB1E8BC50A0
:105134000DF59B60A0E8BC50B1E8BC10A0E8BC1021
:10514400DFF8741EB1E8BC50FFA8A830A0E8BC503A
:10515400B1E8BC10A0E8BC10DFF8601EB1E8BC5098
:105164000DF58E60A0E8BC50B1E8BC10A0E8BC10FE
:10517400DFF84C1EBCC9FFA81830BCC0BCC9BCC0F9
:10518400DFF8401EBCC9FBA8BCC0BCC9BCC0DFF86A
:10519400381EBCC9F1A8BCC0BCC9DFF8301EBCC0F5
:1051A400B1E8BC502FA8DFF8281EA0E8BC50B1E835
:1051B400BC503FA8A0E8BC50DDF8F015DFF8144E51
:1051C40000200870DDF8F4150870DDF8F815087093
:1051D400DDF868050068C4F83C0EDDF86805406831
:1051E400C4F8400EDDF868058068C4F8440EDDF8A4
:1051F4006805FBF70DF8C4F8E80EC4F8EC0EDDF80A
:105204006C05FBF705F80D90DDF86805DDF8681509
:105214000068D4F8E87E1B9049681C91DDF8681595
:1052240089681D91DDF86C15096800911E91394655
:1052340005F0A4F80B900D99009805F09FF80790DD
:105244003946DDF86C05406800901F90DDF868056C
:10525400406805F093F80A900D99009805F08EF8CF
:105264000546DDF86C050895394680680090209065
:10527400DDF86805806805F081F802900D990098C2
:1052840005F07CF801460991029804F0DBFD07461D
:105294000A98294604F0D6FD05460B99079804F0B0
:1052A400D1FD002104F03AFE294604F037FE3946C8
:1052B40004F034FEDDF800560F9095F8CD08002870
:1052C40040F0E18185F830000DF58061012085F81A
:1052D400CD0885F831004FF07E52D1E97201C5E95D
:1052E4000E010020039004900590069005F1400102
:1052F40008E018B1042818BF082802D14FF07E52E4
:1053040000E00022401C18BF04280A6003D00828CB
:1053140018BF002201D14FF07E52401C18BF042850
:105324004A6003D0082818BF002201D14FF07E52F2
:105334008A60401C0C310928DBDB05F16400032181
:105344005FF0000240F8042B40F8042B40F8042BD3
:10535400491E40F8042BF5D1DFF87C0CC5F8AC00ED
:10536400C5F894204FF07E50C5F8B000C5F8B400DD
:10537400C5F89820C5F89C20DDF8D005006805F034
:105384007BF805F1B801DFF8540C27D10A2392FB0E
:10539400F3F303EB8307B2EB47030CBF034600238D
:1053A4000B60521C0A2392FBF3F303EB8307B2EB6B
:1053B40047030CBF034600234B60521C0A2392FB95
:1053C400F3F303EB8307B2EB47030CBF034600235D
:1053D4008B60521C0C31512AD8DB26E00A2392FB45
:1053E400F3F303EB8307B2EB47030CBF034600233D
:1053F4000B60521C0A2392FBF3F303EB8307B2EB1B
:1054040047030CBF034600234B60521C0A2392FB44
:10541400F3F303EB8307B2EB47030CBF034600230C
:105424008B60521C0C31512AD8DB01220C2105F56A
:10543400FE7005F03DFD002005F505714FF07E522C
:1054440008E018B1042818BF082802D14FF07E5292
:1054540000E00022401C18BF04280A6003D008287A
:1054640018BF002201D14FF07E52401C18BF0428FF
:105474004A6003D0082818BF002201D14FF07E52A1
:105484008A60401C0C310928DBDB002705F50E700F
:105494004FF07E5108E01FB1042F18BF082F02D12E
:1054A4004FF07E5100E000210160791C18BF0429EF
:1054B40003D0082918BF002201D14FF07E52491CA5
:1054C40018BF0429426003D0082918BF002201D163
:1054D4004FF07E5282604F1C0C30092FDBDB05F548
:1054E40017701E215FF0000240F8042B40F8042BD3
:1054F400491E40F8042BF7D14FF08040C5F8200432
:105504000DF580614FF07E50C5F83C04C5F8C42306
:10551400C5F8C823C5F8CC23C5F8D023C5F8D423CF
:10552400C5F8E023C5F8EC23C5F8F823C5F8D8235B
:10553400C5F8E423C5F8F023C5F8FC23C5F8DC233B
:10554400C5F8E823C5F8F423C5F80024C5F80424F5
:10555400C5F80824C5F80C24C5F81024C5F814248B
:10556400C5F81824C5F81C24C5F82424C5F8282433
:10557400C5F82C24C5F83024C5F83424C5F83824DB
:10558400D1E9720104F0E6FDDFF8541A04F05AFC84
:10559400C5F840041E220020C5F844044FF07E5094
:1055A400C5F848040020C5F84C04C5F85004C5F8F3
:1055B40054043220C5F858040020C5F85C0436A809
:1055C400DDF8681509683691DDF8681549684160A9
:1055D400DDF8681589688160DDF86C150968C160BB
:1055E400DDF86C1549680161DDF86C158968416165
:1055F400DDF8701509688161DDF870154968C161CD
:10560400DDF870158968016205F58C605FF00101B1
:1056140000EB81030DF1DC074FF0030C57F804ECA9
:1056240043F804ECC91CD7F800E0C3F800E0D7F84D
:1056340004E0C3F804E00C370C33BCF1010CEDD1E9
:10564400521EE5D1DDF8D0050068C5F89808DDF8EC
:10565400D0054068C5F89C08DDF8D0058068C5F819
:10566400A008002085F8A408A5F8A608A5F8A808AD
:105674004FF47A70A5F8AA08002085F8AD0885F8DB
:10568400AE08C5F8B0080DF580613068039005F5E3
:105694007879706804904FF0030AB0680590F06858
:1056A4000690D1E97201C5E90E010DF58061D1E9D9
:1056B400720104F04FFD01900146DFF8240904F063
:1056C400C1FBC5F840040020C9F80000D9F88010D7
:1056D400D4F8E00D04F0B6FB002104F01FFC0646EC
:1056E400C9F80060D4F8E40DD9F8A41004F0AAFBBA
:1056F400314604F013FC0746C9F80070D4F8E86D8D
:10570400D9F8C800314604F09DFB394604F006FC84
:105714008046C9F80080D4F8EC7DD9F8EC0039460D
:1057240004F090FB414604F0F9FB8346C9F800B04D
:10573400D4F8F08DD9F81001414604F083FB5946A2
:1057440004F0ECFBBAF1010A49F8040BBBD105F5EE
:105754007B794FF0030A0020C9F80000D9F88010C3
:10576400D4F8E00D04F06EFB002104F0D7FB83466F
:10577400C9F800B0D4F8E40DD9F8A41004F062FB21
:10578400594604F0CBFB8346C9F800B03146D9F83A
:10579400C80004F057FB594604F0C0FB8346C9F81F
:1057A40000B03946D9F8EC0004F04CFB594604F03B
:1057B400B5FB8346C9F800B04146D9F8100104F09E
:1057C40041FB594604F0AAFBBAF1010A49F8040B5B
:1057D400C1D105F57E794FF0030A0020C9F8000015
:1057E400D9F88010D4F8E00D04F02CFB002104F06B
:1057F40095FB8346C9F800B0D4F8E40DD9F8A41099
:1058040004F020FB594604F089FB8346C9F800B034
:105814003146D9F8C80004F015FB594604F07EFB64
:105824008346C9F800B03946D9F8EC0004F00AFB05
:10583400594604F073FB8346C9F800B04146D9F8D1
:10584400100104F0FFFA594604F068FBBAF1010AAA
:1058540049F8040BC1D105F57870FAF7D9FCC4F8FE
:10586400A80E05F57B70FAF7D3FCC4F8AC0E05F569
:105874007E70FAF7CDFCC4F8B00ED4F8A80EC5F8C3
:105884000404D4F8AC0EC5F80804D4F8B00EC5F876
:105894000C040798C5F840020898D5F84062C5F88A
:1058A4004C02DDF82490D5F84C72C5F8589239466C
:1058B400029804F0C7FA80460A98494604F0C2FAEE
:1058C4000146404604F08EFC80460B98494604F09D
:1058D400B9FA81460298314604F0B4FA01464846C2
:1058E40004F080FC81460A98314604F0ABFA06467F
:1058F4000B98394604F0A6FA0146304604F072FCCF
:105904000146C5F83C82C5F84892C5F85412D5F84A
:105914003C62D5F8487204F095FA80463846394618
:1059240004F090FA07463046314604F08BFA3946C3
:1059340004F0F4FA414604F0F1FA04F031FB04F007
:1059440091FB04F007FC0646D5F83C02314604F00E
:1059540015FDC5F83C023146D5F8480204F00EFDA9
:10596400C5F848023146D5F8540204F007FD06464E
:10597400D5F83C02C5F854620090D5F84892D5F8A1
:1059840058B2D5F84082D5F84CA24846594604F09E
:1059940059FA07463046514604F054FA014638464F
:1059A40004F020FC07463046414604F04BFA064614
:1059B4000098594604F046FA0146304604F012FCB9
:1059C40006460098514604F03DFA82464846414650
:1059D40004F038FA0146504604F004FCC5F85002BD
:1059E400C5F83872C5F8446210AA05F50E7105F5BC
:1059F400057003F087FADDF850B010994FF07E502F
:105A040004F08CFA0646594604F0ECFB189904F0AD
:105A1400E9FB002105F0DEF8824628BF8A46179884
:105A2400159904F0DFFB002104F084FC1298169908
:105A340034BF4FF0FF384FF0010804F0D3FB0021CE
:105A440004F078FC1398119934BF4FF0FF394FF0EC
:105A5400010904F0C7FB002104F06CFC34BF4FF0D3
:105A6400FF370127504604F09BFA04F0FBFA04F0D8
:105A740071FB4FF07C5104F0E5F98246404604F096
:105A840033FC514604F0DEF9804610994FF07E5005
:105A940004F0A8FB8246594604F040FA189904F031
:105AA400A1FB002104F046FC024603D9114604F090
:105AB400E3FC00D00022104604F072FA04F0D2FA9B
:105AC40004F048FB4FF07C5104F0BCF900904846C8
:105AD40004F00AFC009904F0B5F981465046594691
:105AE40004F080FB189904F019FA002104F022FC58
:105AF400024603D9114604F0BFFC00D00022104630
:105B040004F04EFA04F0AEFA04F024FB4FF07C519A
:105B140004F098F98246384604F0E6FB514604F056
:105B240091F907463046594604F0F8F9189904F0FB
:105B3400F5F9002104F0FEFB024603D9114604F0F6
:105B44009BFC00D00022104604F02AFA04F08AFAE2
:105B540005F56B701D210268C260426802618268AB
:105B640042610C38491EF6D1DDF8AC654FF0804037
:105B7400414604F067F9314604F000FCC5F85C02C4
:105B840049464FF0804004F05DF9314604F0F6FBDD
:105B9400C5F8600239464FF0804004F053F93146AD
:105BA40004F0ECFBC5F8640205F5177021900020A1
