:020000040806EC
:100000001811002009A6060831A4060833A4060822
:1000100075A6060879A606087DA606080000000059
:1000200000000000000000000000000035A40608E9
:1000300037A406080000000039A406083BA40608FF
:1000400081A6060885A6060889A606088DA60608C4
:1000500091A6060895A6060899A606089DA6060874
:10006000A1A60608A5A60608A9A60608ADA6060824
:10007000B1A60608B5A60608B9A60608BDA60608D4
:10008000C1A60608C5A60608C9A60608CDA6060884
:1000900043A40608D1A60608D5A60608D9A60608D0
:1000A00000000000DDA60608E1A60608E5A6060891
:1000B000E9A60608EDA60608F1A60608F5A60608B4
:1000C000F9A60608FDA6060801A7060805A7060862
:1000D00009A706080DA70608ED7C060811A7060863
:1000E00045A4060815A7060819A706081DA70608AF
:1000F00021A706080000000025A7060829A7060872
:100100002DA7060831A7060835A7060839A706084F
:100110003DA7060841A7060845A7060800000000FD
:0401200049A70608DD
:1002000046575F56455231313030576553555F4F31
:040210005441000055
:10021400780E0020796C0008496C00084B6C0008CB
:10022400996C00089D6C0008A16C00080000000097
:100234000000000000000000000000004D6C0008F9
:100244004F6C000800000000516C0008536C00085B
:10025400A56C0008A96C0008AD6C0008B16C00081E
:10026400B56C0008B96C0008BD6C0008C16C0008CE
:10027400C56C0008C96C0008CD6C0008D16C00087E
:10028400D56C0008D96C0008DD6C0008E16C00082E
:10029400E56C0008E96C0008ED6C0008F16C0008DE
:1002A400576C0008F56C0008F96C0008FD6C000838
:1002B40000000000016D0008056D0008096D0008CC
:1002C4000D6D0008116D0008156D0008196D00080A
:1002D4001D6D0008216D0008256D0008296D0008BA
:1002E4002D6D0008316D0008E9650008356D0008C2
:1002F400596C0008396D00083D6D0008416D000817
:10030400456D000800000000496D00084D6D0008AF
:10031400516D0008556D0008596D00085D6D0008A9
:10032400616D0008656D0008696D0008000000003B
:100334006D6D00080EB400B582B003A900910246A9
:100344006B460121034878440A3001F0E7FF06BCFC
:100354005DF810FB1D33000010B5044610460A4634
:100364000146204602F02EFC204610BD030000206A
:1003740013F0030F09D0521E22BF13F8010B11F81A
:1003840001CBB0EB0C00F3D07047121F22BF53F81F
:10039400040B51F804CB6045F7D0121D0AD200BA01
:1003A4009CFA8CFCB0EB0C0038BF6FF0000088BFE7
:1003B40001207047521E22BF13F8010B11F801CB24
:1003C400B0EB0C00F6D0521C08BF104670477047C3
:1003D40000F10103810704D010F8011B89B18107E2
:1003E400FAD10268B2F10131914311F0803F04BFA8
:1003F40050F8042FF6E710F8011B11B110F8011B97
:10040400FBE7C01A704700007047000000000000BE
:1004140046575F56455231323030576553555F4F1A
:1004240054410000DFF800F0B5010020BFF34F8F06
:10043400DFF84C0ADFF84C2A016801F4E06111434B
:100444000160BFF34F8F00BFFDE710B500E0521EFF
:10045400D2B23AB110F8013B11F8014BA342F6D0E5
:10046400012010BD002010BD10B5044601F08BF82A
:1004740000F00AF8044601F095F8002C04BFBDE82A
:10048400104001F0ABB910BD2246DFF8FC19022080
:1004940001F090B810B5044601F075F8FFF7F4FFC9
:1004A400044601F07FF8204610BD30B58BB06620BD
:1004B4008DF8180006AC9A2060700C20A0702020E3
:1004C400E0700020207108206071A720A071BA207C
:1004D400E071E3202072112060720620A072852052
:1004E400E072C0202073F72060739720A0738A20E5
:1004F400E0730A23DFF89C5905F1180000900122EB
:1005040006A9022001F0B7F9002861D166208DF810
:100514001800092300F077F8C02020738C20607342
:100524002E20A0731220E07305F11A00059000201C
:1005340000F059F8022000F05EF8002848D100F0DD
:100544005EF8F0202073992060730F20A07321209F
:10055400E07305F11C000590012000F03CF80E202A
:1005640000F049F8002833D100F049F880202073C6
:10057400AA2060739120A0732620E07305F11E0069
:100584000590002000F027F8062000F034F8002839
:100594001ED100F034F86020207357206073DC20F3
:1005A400A0732B20E07305F120000590012000F0DA
:1005B4001AF8122000F01FF850B9698B288B0095A7
:1005C400092300F057F820B10FF6E800FFF7B2FE58
:1005D40047200BB030BD04901020039005200290FA
:1005E4000020019070470490102003900420029092
:1005F4000020019070470090288B01F071B96620AB
:100604008DF8180014239A20607006AA0C20A0709C
:1006140002212020E0700020207108206071A720B2
:10062400A071BA20E071E3202072112060720820CA
:10063400A0728520E072704770B582B004246425EE
:10064400DFF850682046441EC0B260B101F03AFAA7
:1006540006F1100000900423318C00F00AF80546DE
:10066400642DEFD01DB10FF68800FFF763FE284616
:1006740076BD308B002201F089B92DE9F84381461B
:10068400DFF810681422002106F12400FFF764FE4D
:100694004FF0FF30002570624FF000670FF69008AE
:1006A40000F025F801BF7C68DFF8EC072040B0F1CA
:1006B400006F14D1EDB24D450ED17762062241464A
:1006C40007F50070FFF752FE30B9102207F2062139
:1006D40006F1280001F076FB670A6D1C7F0207F51E
:1006E4000077DFF8B8078742DAD3BDE8F1833868CA
:1006F400DFF8AC170840B0F1005F704770B582B006
:1007040004246425DFF88C672046441EC0B260B11F
:1007140001F0D8F906F1240000901423B18BFFF7FF
:10072400A8FF0546642DEFD01DB10FF60C00FFF7AE
:1007340001FE284676BD10B5DFF85847616A11F10D
:10074400010F0CD00FF62400FFF7F4FD04F128008C
:10075400FFF7F0FDBDE810400BA0FFF7EBBD10BDA7
:1007640010B5DFF83047A16B12290BD3A18B491CBC
:10077400884207D1207BFFF780FFFFF7BFFF207B74
:10078400401C207310BD00000D0A00002DE9F04F3D
:1007940087B0044600200190012003900020DFF878
:1007A400F456DFF80067059028826861A98B608899
:1007B4000FF23C7A491C884240F02581A17AE07A04
:1007C40000F032FB617A00EB0120217A0818706195
:1007D400A17BE07B00F028FB617B00EB0120217B07
:1007E4000818306221790A29C0F2B4800FF28C70A3
:1007F400FFF7A0FD1220A863617C207C40EA012061
:10080400A17C40EA0140E17C40EA0160B062217DC4
:10081400B17031B9316A0FF284703161FFF78AFD2A
:100824009CE00129DFF8604604D1206830610FF2B2
:1008340088700EE00229DFF8707603D137610FF279
:10084400A47006E0032907D14FF0FF3030610FF2A6
:10085400C470FFF76FFD81E0042904D100202873E0
:100864000FF2D87004E105290FF644080FF61809B1
:1008740028D10FF2F070FFF75DFD316ADFF8202612
:1008840008681040B0F1005F1AD13161688A48B934
:1008940000F0C7FA30692168884203D0FFF7FAFDF7
:1008A40000283FD1688A002858D1FFF7C5FE08B157
:1008B40000F0C4FA4046FFF73DFD00F08FFFFEE76D
:1008C400CD2045E0062917D10FF2F470FFF732FD71
:1008D400206800F0ADFA18BFCE2039D1688A00280C
:1008E4003CD1FFF7A9FE08B100F0A8FA4046FFF793
:1008F40021FD00F073FFFEE7072924D10FF2DC701D
:10090400FFF718FDFFF7F3FE0ED13761688A68B967
:10091400394600F086FA30692168884206D0FFF72C
:10092400B9FD18B1C52013E0CF2011E0688AA8B939
:10093400FFF782FE08B100F081FA4046FFF7FAFCA7
:1009440000F04CFFFEE70FF2B070FFF7F3FCD0208D
:10095400688203E00021B162B1703061697828785F
:100964000FF6480900F060FAA97800EB0120E97855
:100974000C186979287900F057FAA97900EB01205D
:10098400E9790F1807F1010AAAEB040843463A462D
:1009940021460FF28070FFF7CDFC7269316A0FF2C5
:1009A400AC70FFF7C7FC306AA04228BF874212D25E
:1009B4003A4621460FF2C470FFF7BCFCC920688296
:1009C4007169306A081882450DD200F029FA688AE4
:1009D400002808D10AE071690818824504D200F0A1
:1009E4001FFAC82068820EE200206882306A7062B2
:1009F4007069010A000618BF491C0020F180B0800C
:100A0400F0613081FFE1298C891C884241F602782B
:100A140031D100203081B06101F00AFADFF87004AE
:100A2400C0F80080F1880FF2A470FFF783FC306AED
:100A3400029005A900200190F088039001A800F01D
:100A440069FD044601F007FA84B90FF2A070FFF7BC
:100A540071FC00202861FFF7EFFD08B1504607E064
:100A6400012001F02EFA01203070CCE10FF2AC70BD
:100A7400FFF760FCC7E1688A002801BF6088E98B42
:100A8400491C8842F6D1B6F8049049468029F1DA27
:100A940070690BE0DFF814C409F80C3019F80C3055
:100AA4005A40727009F101021FFA82F923797278AF
:100AB4005F183F1FB94507DA81453DBFA9EB010324
:100AC4001B191B7A0023E5E719190B794F798979EA
:100AD400A6F804907B40594051407170E2797178D6
:100AE400914240F07981A17E627E336A02EB012259
:100AF400318992B2914240F02881491C3181298286
:100B0400B788DFF8AC13F26900917F210F4206D059
:100B1400801A802880F087808742C0F08480D018B3
:100B24007062002701F084F9D948C0F80080306A67
:100B3400716A4FF000098142CB461DD1803070624A
:100B440080220098D94901F0CBF92021D74801F03F
:100B5400CDF9F0604FF08009F1690FF2D860FFF72A
:100B6400E9FB09E09DF810009DF8101048441FFAB5
:100B740080F9706A08187062B088814534DA80217F
:100B84008DF81010A0EB0900C849802809EB010773
:100B940008DB72B6706A3946FFF744FC62B68346D6
:100BA400802211E004208DF81000B978F87800F064
:100BB4003BF9797800EB012039780A18716A102022
:100BC40000F0F8FC83460422706A3946FFF73DFCC6
:100BD400BBF1000F074605D059460FF28860FFF7B6
:100BE400A9FB01E0002FBDD001F035F9BBF1000FE6
:100BF4000DD137B9F069B1880818F0610020B080D0
:100C04000AE00FF28060FFF795FB3C2004E00FF24E
:100C14008C60FFF78FFBFF206882316A706A88421C
:100C240001D000F0F8F8F1697069814268D30FF2DD
:100C3400B860FFF77FFB688A002861D10FF2C860B3
:100C4400FFF778FB0098202101F050F9F168814208
:100C540075D10FF2C860FFF76DFB01F0E9F88C481D
:100C6400C0F8008072B60099306AFFF7DBFB834658
:100C740062B60099306A8022FFF7E7FB07460098C6
:100C840080220021FFF768FB01F0E5F857EA0B002A
:100C94004ED10120B06170698108306A01F026F9F3
:100CA400F06268610FF2A060FFF744FBA86B1228A2
:100CB40007D1F06AB16A88422DD10FF2AC60FFF718
:100CC40039FBB07803281BDA306900F0B1F820D181
:100CD40000F059FC326AFFF7D8FB00F0C8F88046F0
:100CE40000F060FC58EA070011D100F0AAF800F007
:100CF4008DF8FFF7A1FC08B100F0A0F8FFF796FB10
:100D0400207E002878D1688A00287AD074E0C52033
:100D140049E0C62047E00FF2C060FFF70BFBC72095
:100D2400688201F085F800F095F801F094F8E7E79F
:100D3400C32068820FF2C460FFF7FCFAE0E70FF209
:100D4400F860FFF7F7FAC4202DE0207CB070B0699A
:100D5400002833D04FF6FF7082422FD12882B16A27
:100D6400F06A884221D11868FFF7C2FC1AD100F05A
:100D74000AFC326AFFF789FB00F079F8044600F0B8
:100D840011FC54EA07000BD100F05BF800F03EF8C8
:100D9400FFF752FC08B100F051F8FFF747FB2BE0D6
:100DA400C52000E0C620688226E0C720688201F0E2
:100DB4003FF800F04FF801F04EF81DE00FF2B86074
:100DC400FFF7B8FA00F027F8F0206882B0881038EE
:100DD400B080308928820FE00FF2F060FFF7AAFAA2
:100DE400F1690FF20470FFF7A5FA308928820F2009
:100DF4006882B0881038B080FFF71EFC08B100F09C
:100E04001DF80020707007B0BDE8F08F316A0FF252
:100E14009450FFF78FBAF1690FF2A040FFF78ABA36
:100E240041464846FFF786BA090401EB0060704763
:100E34001B4900680840B0F1005F70475046FFF757
:100E440079BA6882F0624FF6FF7028820FF23C5044
:100E5400FFF770BA0E48C0F8008005A9306A029006
:100E6400002001900120039001A800F053BB074625
:100E7400306A71690A180549022000F09BBB000022
:100E84000CED00E00400FA05F80F0808FC0F080850
:100E9400183C0240000000200000F80F0000080881
:100EA4000000FE2FBC000020000002083C000020CF
:100EB400EC0000204572726F72207768696C6520BF
:100EC4007570646174696E672062746C496D6167E2
:100ED400654368617248616E646C65206368617221
:100EE400616374657269737469632E0A000000009B
:100EF4004572726F72207768696C652075706461E1
:100F040074696E67204578706563746564496D61C2
:100F1400676554555365714E756D626572206368DB
:100F24006172616374657269737469632E0A000087
:100F340046575F56455200004572726F72207768BB
:100F4400696C65207570646174696E67204E65779D
:100F5400496D6167654368617220636861726163AA
:100F640074657269737469632E0A00004164647263
:100F74003A203078252E38580D0A0000686F7374B3
:100F840070726F746F636F6C76657273696F6E20C5
:100F94003D20307831320D0A000000006E52657336
:100FA4007461727441646472657373203D20307897
:100FB400253038580D0A0000737461727420746807
:100FC40065206C61737420696D616765206F6E20A4
:100FD4007472616E7366657220636F6D706C657494
:100FE400650D0A0073746172742074686520646509
:100FF4006661756C7420696D616765206F6E20741D
:1010040072616E7366657220636F6D706C65746572
:101014000D0A000072656D61696E20696E204F547F
:1010240041206F6E207472616E7366657220636F07
:101034006D706C6574650D0A000000005374617274
:1010440074207265616420617661696C61626C65AB
:1010540020696D61676520696E20666C6173680D37
:101064000A00000053746172742074686520696D0D
:10107400616765206174206261736561646472658F
:1010840073730D0A00000000536176654164647255
:10109400657373286E52657374617274416464720B
:1010A4006573733D307825303858290D0A000000E7
:1010B400526573746172744E6F7728290D0A0000AB
:1010C4005374617274206C6173742072756E6E69EE
:1010D4006E6720696D6167650D0A00005374617263
:1010E40074207468652064656661756C7420696D2C
:1010F4006167650D0A0000004F54415F494E564137
:101104004C49445F434F4D4D414E443A2025640DB4
:101114000A000000426F756E6461726965733A205B
:10112400307825303858202D203078253038583BF9
:1011340020496D616765206D61782073697A652047
:101144003D20307825303858200D0A00496D6167FC
:10115400652062617365203D203078253038582041
:101164003B20496D6167652073697A65203D2030B5
:101174007825303858200D0A0000000057726F6E31
:1011840067206261736520616464726573732C20E7
:10119400616C6C6F77656420307825303858202D69
:1011A400203078253038580D0A00000057726F6ED1
:1011B400672073697A652C206D617820616C6C6F8F
:1011C4007765642025640D0A000000005072657084
:1011D40061726520666C6173682065726173653A3B
:1011E4002025642070616765730D0A00506167658E
:1011F40020657261736520737563636573736675C7
:101204006C2C2073656E64696E67206E6F746966FA
:1012140069636174696F6E0D0A000000506167654F
:10122400206572617365206661696C757265200D55
:101234000A0000002A2A20546F74616C20627974B9
:1012440065732025642C20736B6970207772697430
:1012540065206F6E203173742070616765202A2ABF
:101264000D0A00002A2A20666C6173685374617445
:101274007573206572726F723A203D202564202AAE
:101284002A0D0A00466C6173682076657269667976
:10129400206661696C757265200D0A00466C617385
:1012A40068207772697465206D656D6F7279206648
:1012B40061696C6564200D0A000000002A2A20542C
:1012C4006F74616C206279746573207772697474C9
:1012D400656E20696E20666C617368203D2025640C
:1012E400202A2A0D0A0000002A2A20546F74616CF7
:1012F4002062797465732073656E74203D202564C3
:101304002A2A0D0A000000002A2A20436865636B1C
:1013140020435243202A2A0D0A0000002A2A20438F
:10132400524320636865636B207061737365642C3A
:101334002077726974652031737420706167652049
:101344002A2A0D0A000000002A2A20466C617368CC
:1013540020777269746520636F6D706C65746520A5
:101364002A2A0D0A000000002A2A20476C6F6261B5
:101374006C20436865636B73756D20636865636B8C
:1013840020706173732A2A0D0A0000002A2A205053
:10139400726570617265206E6577206677202A2AEF
:1013A4000D0A00002A2A2A2A2A2A2A2A2A2A2A2A2A
:1013B4002A4A554D50494E4720544F203078253005
:1013C4003858202A2A2A2A2A2A2A2A2A2A2A2A2A47
:1013D4002A2A2A2A0D0A00002A2A20476C6F6261F1
:1013E4006C20436865636B73756D20636865636B1C
:1013F400204641494C45442A2A0D0A00466C617333
:1014040068207772697465206D656D6F72792066E6
:1014140061696C65642C204F54415F464C415348CC
:101424005F31535448414C46504147455F45525201
:101434004F520D0A00000000466C617368207772F9
:10144400697465206D656D6F7279206661696C657C
:10145400642C204F54415F464C4153485F315354F0
:1014640048414C46504147455F4352435F455252C1
:101474004F520D0A0000000053657175656E636577
:10148400206E756D62657220636865636B206661AA
:10149400696C65642C206578706563746564206686
:1014A40072616D65202320307825303258206275B2
:1014B4007420307825303258207761732072656348
:1014C4006569766564200D0A00000000496E746544
:1014D400677269747920636865636B206661696CFF
:1014E40065640D0A000000002A2A546F74616C20A0
:1014F4006279746573207772697474656E20696E9D
:1015040020666C617368203D202564202A2A0D0A18
:10151400000000002DE9F843DFF820620446307C27
:1015240001280D4608BF022027D00120307400F0A6
:1015340026F800BB4FF0FF312960D4F80490DFF89F
:10154400007201E009F58079A168626802EB01216B
:10155400894510D2484600F0B1F800F012F8396815
:1015640021F0080139600028396821F400713960DC
:10157400E8D0C5F8009000213174BDE8F2834CF244
:1015840050384046ABE0DFF8B8010168C90707D519
:10159400DFF8B0118160DFF8B0118160002070477E
:1015A40001207047DFF89801016841F001010160F2
:1015B400002070472DE9F843DFF88091044699F83C
:1015C400100001280D46164608BF02203CD0012019
:1015D40089F81000FFF7D3FF002832D1042CC9F892
:1015E4001400574F06D1FFF7CCFF002827D100F095
:1015F4002DF821E0082C05D1FFF7C3FFF8B900F05E
:1016040025F813E0102C05D1FFF7BBFFB8B900F0A3
:101614001DF804E0022C04D1FFF7B3FF78B92E6063
:101624000BE0012C04D1FFF7ACFF40B92E8004E09D
:101634002CB9FFF7A6FF10B92E70FFF7A2FFFFF732
:10164400A0FF002189F81010BDE8F283386820F467
:101654008070386070473D4938480A68D20504D51F
:10166400102242614FF480720A600A68920506D51E
:10167400426942F0080242614FF400720A600A684B
:10168400520506D5426942F0010242614FF480627C
:101694000A600A68120506D5426942F002024261F4
:1016A4004FF400620A600A68D20406D5426942F027
:1016B400040242614FF48050086070471F4A0021C1
:1016C4005161000A1E490A6842F400720A6000026D
:1016D4000A6842F008020A6000210160704770B590
:1016E400054600F0F7FD0646184C2068C0070AD5E9
:1016F40015F1010FF9D025B100F0ECFD801B8542F6
:10170400F3D2032070BD2068800744BF022020600C
:101714002068C0050BD42068800508D420684005E3
:1017240005D42068C00402D42068000503D5FFF75F
:1017340092FF012070BD002070BD0000E411002064
:10174400043C0240EFCDAB8905040302183C02407F
:101754000901002806D5324A00F00F00801800F86D
:10176400041C70472F4A815470472F490A684FF66A
:10177400FF031A4000F0070042EA00202B4A1043FE
:101784000860704738B5284B1B68C3F30223C3F1C4
:101794000704052C28BF04241D1D072D34BF002376
:1017A400DB1E012505FA04F4641E2140994005FA64
:1017B40003F35B1E1A401143BDE83440C8E701211E
:1017C40000F01F0291401A4A04E0012100F01F02B8
:1017D4009140184A400942F820107047BFF34F8FD8
:1017E4001148154A016801F4E06111430160BFF337
:1017F4004F8F00BFFDE710B5401EB0F1807F01D3CD
:10180400012010BD0D4C60600F214FF0FF30FFF739
:101814009FFF0020A06007202060002010BD000072
:1018240018ED00E000E400E00CED00E00000FA0533
:1018340000E100E080E100E00400FA0510E000E0CF
:1018440000B587B000F0EAF800F0E2F840F20110C9
:10185400ADF80600002100F009F800284CBFFF2075
:101864009DF8000007B000BDC0B2049001200690AE
:1018740001A800F0BCB970B58CB001288DF81C002B
:1018840014460CBF022610261D4632460DF11D00DB
:1018940000F034FD701C07A9C0B203224454441C58
:1018A400E4B268466554002100F02EFD00F0B6F85D
:1018B40000F0AEF84FF4817000F062F8601CC0B222
:1018C40004900320FFF7D3FF002848BFFF2005D46E
:1018D4009DF8000010B9109900F049F80CB070BDE3
:1018E400F1B58EB00D4616461F4602220EA900F031
:1018F4009CF807AC012DA57031460CBF02251025BC
:101904002A4600F081F8E81CC0B2411C0755C9B250
:1019140014980855491C1598C9B203220855491C46
:101924001698C9B20855491C1798C9B24D1C0855D8
:10193400EDB21898285500F01FF800F06FF800F089
:1019440067F84FF4827000F01BF8681CC0B2049072
:101954000320FFF78CFF002848BFFF2005D49DF823
:10196400000010B9199900F002F80FB0F0BDBDF8ED
:1019740001000880002070470021684600F0C4BCC4
:10198400ADF80600002107A80390704733B51C4644
:10199400A01DA7B081281546A8BF42201FDA022245
:1019A40027A900F042F8022228A900F043F82C9954
:1019B4008DF820508DF82140224600F012F800F0F6
:1019C4002DF800F025F84FF48370FFF7D9FFA01D20
:1019D400FFF74AFF00284CBFFF209DF8000029B004
:1019E40030BD0DF1220000F089BC3F20ADF80800A5
:1019F400CDF818D070471822ADF80400002102A8D1
:101A040000F082BC224619460DF11F0000F076BC9E
:101A14003F20ADF80400CDF814D0704718220021FF
:101A240001A800F071BC022228A907A800F066BC36
:101A3400022229A90DF11E0000F060BCADF80A00D5
:101A4400002101A80490022005900120079002A81B
:101A540000F0CDB800B589B0FFF7CDFFFFF7C5FFA3
:101A640040F22710FFF7EAFF00284CBFFF209DF843
:101A7400000009B000BD000038B5AE4C201D00F0D8
:101A8400B9FE04F10C0000F0B5FE00258C2000FB2B
:101A9400054000F11401201D00F0BCFE6D1C052D55
:101AA400F4DB31BD00F108010A78042A01D00120D9
:101AB400704790F888008978C01E814214BF0220C4
:101AC4000020704710B5A2B00020009000F090FFF5
:101AD400984C10E0694604F10C0000F0A9FE00F0F7
:101AE4008BFF0098083000F016FB00F081FF00998E
:101AF400201D00F08FFE04F10C0000F07EFE002893
:101B0400E8D0207840B90CE0802101A800F08AFFD9
:101B140010B101A800F0FFFA00F060FF0028F3D133
:101B2400207000F069FF22B010BD10B582B0002013
:101B3400009000F064FF7F4C04E0201D00F063FE81
:101B440000F05DFF00F082FE00B3201D00F055FEA2
:101B5400C0B96946201D00F06BFE00988021083052
:101B640000F060FF00280099E7D081F88800009811
:101B7400FFF798FF00280099DFD104F10C0000F072
:101B840049FEDDE70120207000F039FF13BD00F0AD
:101B9400C0BF30B5890583B0890D41EA8020ADF816
:101BA4000400144601208DF800001D468DF80640FF
:101BB400032201A90DF1010000F0A0FB2346042239
:101BC40029466846FFF7E3FF37BD38B504460D469E
:101BD40007E06946284600F02BFE0099204600F0F5
:101BE40019FE284600F009FE0028F2D031BD2DE987
:101BF400F041044686B060884E4F884680052188AF
:101C0400800D40EA81254C4800680A21B0FBF1F6BA
:101C140000200090ADB202A800F0ECFDE068A368DB
:101C24006188C2B22088FFF7B4FFB8F1000F59D120
:101C340006B90126314604A800F0B0FF05E000997A
:101C440002A800F0E7FD00F0D7FE04A800F0AEFF04
:101C5400002867D107F10C0000F0CFFD0028F4D173
:101C640000F0C6FE694607F10C0000F0E1FD0098A3
:101C740000F1080210780428E1D10098527800F1AC
:101C84000B0190F88800C01E0E2A37D00F2A04D00A
:101C9400102A47D03E2A38D008E04A88AA4241D1C7
:101CA40062680F2A15D0087800283BD1009902A851
:101CB40000F0B0FD381D00F0A0FD0028C3D001A93C
:101CC40007F10C0000F0B4FD0199381D00F0A2FDED
:101CD400B9E762699042C8BF104660610246206954
:101CE40000F00CFB0099381D00F08DFD00F026F883
:101CF40000F082FE002006B0BDE8F081B1F80120BA
:101D0400AA420FD1C91CC01EE3E70A7863689A424D
:101D1400CCD16269401E9042C8BF10466061024641
:101D2400491CDCE700F00AF800F066FE4FF0FF30D3
:101D3400E1E70000780E0020946C000802A907F186
:101D44000C0042E730B58FB000F017F88DF81C4056
:101D5400202CA8BF1F2400F017F800F01BF800F097
:101D640024F8092000F01BF800F025F800284CBFE7
:101D7400FF209DF800000FB030BD04460D46202220
:101D8400002107A800F0C0BA224629460DF11D0023
:101D940000F0B4BA1822002101A800F0B5BAADF8D9
:101DA4000600002107A8039070470820ADF804003E
:101DB400CDF814D07047202004900120069001A88B
:101DC40015E7000001B58B0718D1121F21D351F874
:101DD400043BA3F1013C2CEA030C1CF0803C04BF3F
:101DE40040F8043BF1E79CFA8CFCBCFA8CF1C1F19D
:101DF40018018B40CB4040F8043B13E0042A09D37C
:101E040011F8013B521E00F8013B5BB18B07F7D17F
:101E1400DBE7121D5AB111F8013B521E00F8013BD9
:101E240003B1F8D111001CBF002200F0CFFE01BDA8
:101E34000D48016889070CD50168C90703D50B490A
:101E440081600B4981600B49C1600B49C16000206E
:101E54007047012070470448016841F00201FFE720
:101E64000160002070470000043C0240EFCDAB89C4
:101E740005040302BFAE9D8C1615141330B5044639
:101E84001548164D87B0016841F00201016001A9AF
:101E9400006800F002000090009801200190029078
:101EA4000020039003200490284600F0BFFE002287
:101EB4000121284600F08DFF204600F004F807B009
:101EC40030BD012200E000220121044800F081BF5E
:101ED4000121024800F081BF1C3802400004024086
:101EE40010B5044600F0A0FF204610BD18B5B54A51
:101EF400136843F4805313600123126802F4805280
:101F04000092009AB04A9360002303E050F8234003
:101F140014605B1C8B42F9D3106812BD1FB500F02E
:101F2400FBFFFEF754FAFFF7A7FD012000F094FC35
:101F340000F03BFD002001F062F80FF2AC20FEF748
:101F4400F9F912210FF2B420FEF7F4F90024204627
:101F5400FEF793FBFEF7EFFB641C0A2CF7DB002073
:101F6400FFF78CFF0021002001F07AF80FF2A8217E
:101F7400964C0CC968460FF2A8210CC00CC90CC0C1
:101F8400062202A92046FEF7F1F970B9062290490B
:101F9400684600F059FF80218DF804102620E121C5
:101FA4008DF805008DF8031004E0062221466846EA
:101FB40000F03AFF6A460621002001F091F8FFF78D
:101FC4003FFC03A801900DF10A0302A80090072228
:101FD4000021012001F0E2F80FF294242046FEF7DC
:101FE400F7F9611C0091431EBDF80810BDF80A0002
:101FF400DBB20022FFF7CAFC0FF22C211CC901A896
:1020040001A91CC009227348734C00F00DFFFEF7B0
:102014004CFA0421012001F08EF801F079F9E2680C
:10202400E188801A814204D200F059F801F070F975
:10203400E060FFF747FD607850B100206070002336
:102044004FF4167000901422A088092101F064F95D
:10205400207818B100F046F800202070002001F02C
:102064002EF80028D9D1FFF733FF00F035F800F03F
:1020740036F800F031F800F032F800F02DF800F0F6
:102084002EF800F029F8002001F019F80028FAD001
:1020940000F01EF8A078401CA070C0B20328BCDB7E
:1020A40000F01DF800F014F800F019F800F010F832
:1020B40000F015F800F00CF800F011F800F008F842
:1020C400464800680028A8D04548FEF7CDF9A4E7A3
:1020D4004FF4C87001F01EB9642001F01BB9002050
:1020E400FFF7F6BE00B587B03E491220FFF72AFE7F
:1020F4000020069005900490039000230FF27010C6
:10210400029000220820019000210020009001F09C
:1021140077F807B000BD411C0078042800D0704750
:1021240010B584B008782C4C052804D03E2812D071
:10213400FF282CD01FBD0020A060012020700020AB
:1021440060704FF4FA70E08004B0BDE810400FF204
:10215400E400FEF7EFB8881C0178012930D1401C57
:10216400A160B0F80110A180012161707D21E1809E
:1021740010F8051F02914178019181780091C3788C
:10218400027941790FF2BC00FEF7D4F81FBD881C18
:1021940040F601420188891A0CD0133910D1A18864
:1021A40071B18088FEF7DCFAA08804B0BDE8104065
:1021B400FFF750BC04B0BDE81040801CFEF7E6BA3F
:1021C4001FBD00001C3802400030024016100808F1
:1021D4005000F81F0000002084010020F80F0808B8
:1021E40000000208700100205374617274696E6704
:1021F400204F54412066770D0A0000004F54414699
:10220400575F56455253494F4E5F494E464F3A2009
:10221400253032580D0A0000123400E1800200001B
:10222400000000E180260000080200000807FFFF0C
:1022340012000000446973636F6E6E6563746564B5
:102244000D0A0000436F6E6E65637465642025306B
:1022540032783A253032783A253032783A2530329D
:10226400783A253032783A253032780D0A00000069
:10227400094F5441576553550000000080B51D486F
:10228400016841F004010160016841F0020101604C
:102294000320FFF76AFA002000F005F800F002F8C6
:1022A400002002BD704710B5044601F05EFD4FF4F6
:1022B4007A71B0FBF1F0FFF79EFA002221464FF04D
:1022C400FF30FFF75FFA002010BD0B480168491C7E
:1022D4000160704708480068704711B581B0FFF786
:1022E400F9FF0446FFF7F6FF0199001B8842F9D372
:1022F40013BD0000003C02400012002010B504464B
:1023040000F092FD204610BD10B5044610460A4662
:102314000146204600F056FC204610BD2DE9F04F42
:1023240093B0804602AE002092461D460291B061F1
:102334000DF130090AE01AF8011B0298C047002881
:10234400029000F0A981B069401CB0619AF80000C5
:1023540008B9B069A2E12528EDD10020F060306110
:10236400706101E040F001001AF8011F2029F9D042
:1023740023290DD02B2904D02D2906D030290AD0A9
:102384000CE040F0020080B2EEE740F00400FAE70F
:1023940040F00800F7E740F01000F4E72A290FD1D5
:1023A4002968296051F8042B2960002A326204D577
:1023B400514240F00400316280B20AF1010A15E092
:1023C400002131620CE0316A6FF00043994205D07C
:1023D40001EB810302EB4301303931620AF1010A56
:1023E4009AF80020A2F130010A29ECD39AF80010DF
:1023F4002E2903D04FF0FF31F16122E01AF8011FBA
:102404002A2908D1296829600AF1010A51F8042B04
:102414002960F26115E00021F1610CE0F1696FF0CF
:102424000043994205D001EB810302EB43013039AB
:10243400F1610AF1010A9AF80020A2F130010A2997
:10244400ECD3B0840FF2A4309AF8001000F096FF99
:1024540008B11AF8010B8DF82E009DF82E0068289B
:1024640004BF9AF80000682804D162208DF82E0079
:102474000AF1010A0CA8B0601AF8014B252C13D0FC
:10248400582C38D0632C00F09080642C18BF692C31
:1024940069D06F2C2FD0702C23D0732C0AD0752CBC
:1024A40018BF782C27D08AE00120F06025208DF811
:1024B40030008EE02868286050F8044B286074606F
:1024C400F769002F04D52046FDF782FF074606E092
:1024D4003A460021204600F05DFF00B1071B37613A
:1024E40077E02868286050F8041B286001910CA844
:1024F4007060782155E09DF82E006C280DD071286D
:1025040018BF6A2809D12868C01D20F007022A6074
:10251400D2E9000108322A6004E02968296051F8F0
:10252400040B296001909DF82E00682802D101A8AF
:10253400008803E0622802D101A80078019096F88F
:102544002400000728D5019830B344F020007828EF
:1025540022D1F068302100F80910401C411CF160C0
:1025640000F8094018E09DF82E00294600F099F87B
:102574000028019002D5F0682D2109E0B08C810774
:1025840002D5F0682B2103E0C00705D5F0682021AF
:1025940000F80910401CF0600CA8F168081870607D
:1025A400214601A800F0A3F813E00120F060286898
:1025B400286050F8041B28608DF8301009E00120D1
:1025C400F06025208DF830001CB10220F06089F8FD
:1025D4000140306AF168401A7169401A3169441A3D
:1025E40096F8240040070FD420208DF8000000271F
:1025F40008E001236A4601A9404600F0DFF80028FC
:102604004AD17F1CA742F4DBF7680DF1300B0AE0D6
:102614001BF8011B0298C047002802903CD0B06907
:10262400401CB0617F1E002FF2D130208DF80000D5
:102634004FF0000B776908E001236A4601A9404680
:1026440000F0BCF840BB0BF1010BBB45F4DB376970
:10265400D6F804B009E01BF8011B0298C0470290A9
:10266400D0B1B069401CB0617F1E002FF3D196F841
:10267400240040077FF56AAE20208DF8000000E0BA
:102684007F1CA742BFF662AE01236A4601A94046F9
:1026940000F094F80028F3D04FF0FF3013B0BDE8F9
:1026A400F08F622815D068280CD06C2818BF7428C5
:1026B40016D07A2814D10A680A6052F8040B0A600A
:1026C400002170470A680A6052F8040B0A6000B2DD
:1026D4000BE00A680A6052F8040B0A6040B204E096
:1026E4000A680A6052F8040B0A60C1177047F0B414
:1026F400C2686F2908BF082405D041F02003782B55
:1027040014BF0A24102418230668642918BF6929F1
:10271400374602D1002E48BF7F425FB9056A4DB9E2
:10272400082C27D190F82810090723D53021172326
:10273400D1751FE0B7FBF4F604FB16773037FFB210
:102744005D1E3A2FA4BFA1F1510C6744AF542B4630
:10275400370003D085689E18B542EBD3082C09D105
:1027640090F82810090705D5995C302902D05B1E22
:10277400302199549A188260C3F11801026A4161A8
:10278400914208DA511A81614FF6EF72018D1140BE
:102794000185F0BC7047002A0ED590F8282002F07D
:1027A4001402102A08D1426A0369D21A8369D21A20
:1027B400531A012BA8BF8361F0BC7047F8B50446D7
:1027C4000D4616461F46002004E0E869401CE861F7
:1027D4007F1E002047B116F8011B6868A047002837
:1027E4006860F2D14FF0FF30F2BD0000686C747A7B
:1027F4004C000000006040607047016881420CBFDB
:1028040001200020704702680A604860016008687F
:1028140041607047086042684A60416048680160EE
:102824007047426801681160416800684160704700
:1028340010B50C46016821600068FFE7FFF7F1FF5F
:102844002168002008602168486010BD4FF40051E1
:10285400DFF8100300F0B7BA70B50446DFF80803D8
:10286400DFF8086386B0016841F0010101604FF4AC
:102874000075016801F0010100910099016800F000
:102884007DF800F07BF800F079F800F06EF801684C
:1028940000F06BF8416841F48051416001A940683F
:1028A40000F48050009000980195012002900020CF
:1028B4000390012000F053F800F08AF8202000F083
:1028C40067F8402000F064F8802000F061F80820E8
:1028D4000190012002900020039003200490002026
:1028E400059001A9DFF87C62304600F09FF90122CF
:1028F400082100F094F84FF400500190DFF87002C2
:10290400029001A902200390032000F028F8DFF8C8
:102914006462DFF864023060B5614FF48270706005
:102924000020B060F0603061706130627062072036
:10293400F0620820F061304600F058FD012C06D109
:10294400002203212820FEF71DFF00F01BF9306848
:10295400016841F040010160002006B070BD0490A0
:1029640000200590304600F061B941F00401016097
:10297400016801F0040100910099704741F00101E0
:102984000160016801F0010100910099016870473C
:10299400019001A9022002900020039003200490DA
:1029A40005200590304600F041B910B56F4C002267
:1029B40000F009F800F02DF8012200F004F800F00E
:1029C40028F800BF10BD4FF40071204600F001BA92
:1029D40000224FF40071654800F0FBB980B54FF454
:1029E4000051604800F0EFF9012818BF002002BD33
:1029F40000BF2820FEF7E9BE2820FEF7E0BE5F49AD
:102A04004FF400500860704701220821484600F046
:102A1400E0B90520FFF761BC00224FF40071304695
:102A240000F0D7B92DE9F0430D460FF2601185B0DF
:102A340004460CC902A800260CC072B6DFF8249123
:102A44000022FFF7E2FFDFF82C8105236A4602A982
:102A5400404600F00DFD9DF8000002280FD19DF8BE
:102A640004009DF8031051EA002708D0BD42B8BF06
:102A74002F46FAB22146404600F02CFD3E46FFF7B1
:102A8400C3FF62B6F0B205B0BDE8F0832DE9FF479D
:102A94008A4616461F460FF2FC0104460CC902A8DA
:102AA40000210CC06846002206C0DFF8B880082167
:102AB400404600F08EF9DFF8BC9005236A4602A96F
:102AC400484600F0D5FC9DF80000022818BF4FF0DE
:102AD400FF3715D19DF80150B542B8BF6FF001071B
:102AE4000EDBF2B22146484600F0D7FCAD1BEDB236
:102AF400BD42B8BF2F46FAB25146484600F0CDFC5D
:102B040001220821404600F064F938B204B0BDE85F
:102B1400F0872DE9FC418046194800680D460A21DA
:102B2400B0FBF1F116461F46684600F037F828203E
:102B3400FEF74BFE00243B46324661194046FFF740
:102B4400A5FF002805D43F1A04190026E4B2BFB239
:102B540027B1684600F02AF80028ECD000F012F8FB
:102B6400BDE8F381000802401C3802400000024026
:102B740000001110481100200030014014040140ED
:102B8400946C00082820FEF71ABE00000B00000019
:102B9400000000000A0000000000000010B5044618
:102BA4006160FFE700F0B4FB206010BD10B504467F
:102BB40000F0AEFB22686168801A401C81428041AB
:102BC400C00F10BD62F30F2262F31F42401810F0D1
:102BD400030308D0C91A1FD3DB0748BF00F8012D2F
:102BE40028BF20F8022D130030B4144615461039BE
:102BF40028BF20E93C00FAD8490728BF20E90C0087
:102C040048BF40F8042D890028BF20F8022D48BF92
:102C140000F8012D30BC7047C91818BF00F8012D09
:102C2400CB0728BF00F8012D704700002DE9F847B5
:102C34000026714A714BDFF8C8814FF00F092EE06E
:102C4400BD402C4343F82C406FEA0A05146805EA9A
:102C5400040E4C68E40348BF4AEA0E0EC2F800E0D2
:102C6400546805EA040E4C68A40348BF4AEA0E0EF1
:102C7400C2F804E0946805EA040E4C68E40248BF14
:102C84004AEA0E0EC2F808E0D76805EA070C4D6858
:102C9400AD0248BF4AEA0C0CC2F80CC0761C0D68A1
:102CA40035FA06F700F08D80012707FA06FC1CEAC6
:102CB400050AF3D04C68022C18BF122C10D1F4086A
:102CC40000EB840E06F00704DEF82050A40009FA95
:102CD40004F7BD430F6907FA04F42C43CEF82040EF
:102CE4004FEA460E032405680F7904FA0EF4E44310
:102CF40007F00307254007FA0EF73D4305604D68CA
:102D0400012D18BF022D03D0112D18BF122D0FD184
:102D14008568CF68254007FA0EF73D43856045680E
:102D240025EA0C074D68C5F30015B5403D434560E1
:102D3400C56825408C6804FA0EF73D43C5604D68AC
:102D4400ED00ABD5D8F8004044F00104C8F80040C9
:102D54004FEA960CD8F8004004F00104009406F001
:102D64000305009C53F82C40AF0009FA07F5AC4367
:102D7400244DA84208BF002522D0234DA84208BFF5
:102D840001251DD0214DA84208BF022518D0204D91
:102D9400A84208BF032513D01E4DA84208BF04252E
:102DA4000ED01D4DA84208BF052509D01B4DA842D1
:102DB40008BF062504D01A4DA8420CBF07250825D4
:102DC4003EE7BDE8F1870069084018BF0120C0B2A2
:102DD400704702B9090481617047426951404161F9
:102DE4007047104A1368034200D1704780B51060E1
:102DF40000F084FB01BD0000000401400800014014
:102E04002038024000000240000402400008024052
:102E1400000C02400010024000180240001C024056
:102E2400001402401404014062B38B0708D0521E00
:102E340011F8013B00F8013B00F024808B07F6D128
:102E4400830740F0208000BF103A07D330B4B1E8C4
:102E54003810103AA0E83810F9D230BC530724BF18
:102E6400B1E80810A0E8081044BF51F8043B40F84A
:102E7400043BD20724BF31F8022B20F8022B44BFB5
:102E84000B7803707047083A07D3B1E80810083A82
:102E940040F8043B40F804CBF7D25307E4E70000C2
:102EA40000B51B4893B0016841F08051016000688F
:102EB40000F08050009000981648016821F4C05139
:102EC40041F4006101604168C906FCD40220069007
:102ED40010200A900120099002200F9000201090E9
:102EE4004FF4002011904FF40000129006A800F057
:102EF40047FC0F2001900121032002900020039041
:102F04000490059001A800F00AFE13B000BD000073
:102F1400243802400070004080B5FFF7AFF9BDE8E7
:102F24000140BDE730B587B0444C10BB44488168CC
:102F340041F400318160816801F4003100F043F80C
:102F4400016801F0010100F03EF8006800F00100A2
:102F5400009000983B482060204600F0C0FF4FF4EA
:102F6400E13060600020A060E0602061A0610C207E
:102F7400606104200190022002900120039003204C
:102F840004900720059001A92F4D2846FFF74EFE17
:102F94000820019001A9072005902846FFF746FE66
:102FA400002204212620FEF7EDFB2620FEF707FC75
:102FB400204600F05BFF012204F14001204601F0AD
:102FC40008F807B030BD00910099016841F0010193
:102FD4000160704738B50446184D012105F14000E1
:102FE40000F026F805F140012046BDE838400122F2
:102FF40000F0EFBF00BF7047104801F021B813493B
:10300400086000208EE780B58DF800000020FFF7EF
:10301400F6FF0A48016809680906FBD50523012261
:10302400694600F079FF0021002000F019F801BD85
:10303400064A1268130018BF10477047A0110020F9
:103044001C3802400044004000000240FC110020F3
:1030540010B50446C0B2FFF7D6FF204610BD0000ED
:1030640030B51B4887B00C4601681A4D41F0010188
:10307400016001A9006800F00100009000980020A0
:103084000290039003200490042001902846FFF747
:10309400CDFD012C11D10420019001A90020039041
:1030A400032004900C4802902846FFF7BFFD0B490B
:1030B400302008700820FEF782FB07B030BD80B5D1
:1030C40004210448FFF77FFE00B1012002BD000087
:1030D4001C380240000002400000211008E400E017
:1030E40010B50C461146A21CA8B0812AA8BF4220E4
:1030F4001FDA8DF81C008DF81D4022460DF11E00CC
:10310400FFF7FCF800F045F800F03DF80C20ADF8AE
:103114000600002107A80390A01CC0B2049001205F
:10312400069001A8FEF763FD00284CBFFF209DF820
:10313400000028B010BD00B589B08DF800008DF8EE
:10314400011000F017F83F20ADF80800CDF810D0BA
:103154000F20ADF80A0000210220059001A8069076
:10316400012000F00CF800284CBFFF209DF804005B
:1031740009B000BD1822002102A8FFF7C5B80790C6
:1031840002A8FEF734BD3F20ADF80400CDF814D0FA
:1031940070471822002101A8FFF7B6B810B58AB00D
:1031A4008DF800008DF801108DF802201C460722CE
:1031B40000F09DF800F08FF800F09DF88A20ADF83B
:1031C4000E0000210320069001A807900720089014
:1031D40003A8FEF70CFD002848BFFF200ED49DF87D
:1031E400040058B9BDF8050020800C99BDF807000B
:1031F40008800D99BDF80900088000200AB010BDB0
:1032040076B592B000F049F828BF42201BD200F0F6
:1032140051F800F049F89DF8600000F016F800F04D
:103224001FF800F032F800F028F800F05FF800F022
:1032340057F8832000F046F800F065F800284CBFEA
:10324400FF209DF8000014B070BD1A998DF822007B
:103254008DF821608DF823502A4609A8FFF74EB84F
:1032640005F10800C0B207A9451C4454EDB21C99ED
:1032740007A822462818FFF741B8A41CE4B207A8FF
:1032840002221EA92018FFF739B86419E4B207A86E
:1032940002221DA92018FFF731B8199D1B9C611942
:1032A4000E3129291E467047022213A90DF11F0071
:1032B400FFF724B88DF81C00022212A90DF11D009D
:1032C400FFF71CB8ADF80600002107A80390A01C66
:1032D400C0B2049070471822002103A8FFF714B865
:1032E4003F20ADF80400CDF814D070471822002117
:1032F40001A8FFF709B83F20ADF80C00CDF814D0B1
:1033040070470F2002900120069001A8FEF76FBCC1
:10331400FEF7E0BFFEF7E1BF00B58BB000F01FF889
:1033240004A8FEF7F1FF3F20ADF81000CDF820D03F
:1033340040F28110ADF81200002101A806900A2085
:1033440007900F2005900120099004A8FEF74FFC78
:1033540000284CBFFF209DF800000BB000BDADF865
:103364000400ADF80610ADF80820ADF80A301822B4
:103374000C98ADF80C000021704700000278C9B227
:103384008A421AB11CBF10F8012FF9E718BF0020B8
:1033940070470000C9B2830706D0521E22D310F82A
:1033A400013B9942F7D11FE0083A13D302F104021A
:1033B40041EA012141EA014150F8043B121F21BFB7
:1033C4004B40A3F1013C2CEA030C1CF0803FF3D0EA
:1033D400C9B2001F083210F8013B521E28BF91EAFF
:1033E400030FF8D818BF0120401E704738B50500F8
:1033F40001D1012032BD05F15004607818B9207064
:103404002846FDF701F8022060702868016821F061
:10341400400101606868A9680843E96808432969AC
:10342400084369690843A96901F400710843E9691B
:103434000843296A0843A96A084329680860A869F7
:10344400696A000C00F00400084329684860296890
:10345400E86A08612868C16921F40061C16100203B
:10346400606001206070002032BD0068C160704758
:103474002DE9F04104460D4616469846002706E01D
:1034840000F01BF800F01DF806F8010B7F1CFFB2DA
:103494004745F5D30020BDE8F081F8B504460D4654
:1034A4001646002704E000F008F800F00AF87F1C34
:1034B400FFB2B742F7D30020F2BD15F8011B204636
:1034C400D3E7206881688907FCD58168C907FCD5E2
:1034D400C0687047F8B504460D461646002708E054
:1034E400FF212046FFF7C1FFFFF7EBFF05F8010BB3
:1034F4007F1CFFB2B742F3D30020F2BDFEF715BB29
:103504000248006800F4C05070470000007000409A
:103514000D480E4A016841F48071016081681140D0
:1035240081600B4A016811400160016821F4802127
:103534000160816821F47D0181600021C16005483A
:103544000549086070470000003802400CC0FF883D
:10355400FEFFFEEE0038000808ED00E019E050F828
:10356400041BCB0744BFA9F101035918121F002300
:10357400042A41F8043BF9D25FEA827C0B4604D565
:103584004FF0000CA1F800C09B1CD10744BF0021E0
:10359400197050F8042B002AE1D1704730B5016846
:1035A40042688468091801EB5203D20748BF4C44AF
:1035B4000C30994200D130BD11F9012B11F8015B97
:1035C400002A04F8015B02D5521CF9D1F1E7521E1E
:1035D400F4D5EEE710B5074979441831064C7C441C
:1035E400163404E00A68081D511888470146A142B0
:1035F400F8D110BD080000002400000061FFFFFFA7
:103604008C030000780E00200000000091FFFFFFF3
:103614007C0D0000240200000000002000F00BF8E4
:10362400002801D0FFF7D6FF0020C046C046FEF7B1
:1036340075FC00F002F80120704700F001B80000AA
:103644000746384600F002F8FBE700002021090392
:1036540026311820ABBEF9E77047FEE77047704784
:103664007047FEF732BE70474FF40050FFF7B9BB06
:1036740038B504460D462846FFF7EAFCA84218BFB1
:103684000024204632BD000001488047014800471D
:10369400016B0008896C0008C046C046C046C0469D
:1036A400FFF7BCFFE8030000FFF7FEBFFFF7FEBF14
:1036B400FFF7FEBFFFF7FEBFFFF7FEBFFFF7FEBF3A
:1036C400FFF7FEBFFFF7FEBFFFF7FEBFFFF7FEBF2A
:1036D400FFF7FEBFFFF7FEBFFFF7FEBFFFF7FEBF1A
:1036E400FFF7FEBFFFF7FEBFFFF7FEBFFFF7FEBF0A
:1036F400FFF7FEBFFFF7FEBFFFF7FEBFFFF7FEBFFA
:10370400FFF7FEBFFFF7FEBFFFF7FEBFFFF7FEBFE9
:10371400FFF7FEBFFFF7FEBFFFF7FEBFFFF7FEBFD9
:10372400FFF7FEBFFFF7FEBFFFF7FEBFFFF7FEBFC9
:10373400FFF7FEBFFFF7FEBFFFF7FEBFFFF7FEBFB9
:10374400FFF7FEBFFFF7FEBFFFF7FEBFFFF7FEBFA9
:10375400FFF7FEBFFFF7FEBFFFF7FEBFFFF7FEBF99
:10376400FFF7FEBFFFF7FEBFFFF7FEBFFFF7FEBF89
:10377400FFF7FEBFFFF7FEBFFFF7FEBFFFF7FEBF79
:103784002DE9F843044641F289382078DFF894663D
:10379400C00756D500F0A6FA05D000F0A8FA0BD160
:1037A400B068C00308D500F0B1F9002849D06068BA
:1037B400002846D101208EE1306820F4803030604A
:1037C400306820F480203060FEF784FD054600F068
:1037D4009DF928B1FEF77EFD401B4045F7D377E104
:1037E400306820F4803030606068012807D1306888
:1037F40020F480203060306840F4803006E00528F2
:1038040008BFB07003D0306820F480203060606856
:1038140058B1FEF75FFD054600F078F988B9FEF768
:1038240059FD401B4045F7D352E1FEF753FD0546D1
:1038340000F06CF928B1FEF74DFD401B4045F7D36D
:1038440046E12078DFF8E075800715D500F045FAE9
:1038540005D000F04CFA2AD1B068C00327D400F098
:1038640059F91CBFE0680128A4D17068216920F4CB
:10387400F85040EA012070602078C00642D5B06854
:1038840010F00C0F56D13068C0F3402010B1A0697D
:1038940000288FD0206A716801F46041814223D2EC
:1038A40000F089FA002885D100F01EF927E0E068CD
:1038B40068B101203860FEF70DFD054600F02AF9D5
:1038C400D3D1FEF707FD401B6528F7D300E138602C
:1038D400FEF700FD054600F01DF9CDD0FEF7FAFC19
:1038E400401B6528F7D3F3E0716821F46041084375
:1038F40000F0FFF8206A00F05EFA0028D3D100201F
:10390400FEF7D1FC2078000745D56169DFF81C0576
:10391400002932D001210160FEF7DCFC0546706B02
:10392400C0F34000002836D1FEF7D4FC401B6528C4
:10393400F5D3CDE0A06988B101203862FEF7CAFC56
:1039440005463068C0F3402028B9FEF7C3FC401B8D
:103954006528F6D3BCE000F0C7F8D3E73862FEF779
:10396400B9FC05463068C0F340200028CAD0FEF7F1
:10397400B1FC401B6528F5D3AAE00160FEF7AAFC60
:103984000546706BC0F3400028B1FEF7A3FC401B52
:103994006528F6D39CE0207840075DD5706ADFF88F
:1039A400909440F080507062706A00F080500090F3
:1039B4000098D9F8000040F48070C9F80000FEF7C0
:1039C40089FC0546D9F80000C00505D4FEF782FC41
:1039D400401B6528F6D37BE0706B00F07EF87063C3
:1039E400FEF778FC0546706BC0F3402028B1FEF763
:1039F40071FC401B4045F6D36AE0A068012808D05A
:103A040008B9706B09E00528706B06D140F480603A
:103A14007063706B40F4807001E000F05EF87063D6
:103A2400A06860B1FEF756FC0546706BC0F34020F9
:103A340090B9FEF74FFC401B4045F6D348E0FEF733
:103A440049FC0546706BC0F3402028B1FEF742FCE8
:103A5400401B4045F6D33BE0606A00283AD0B16889
:103A640001F00C010C293FF4A5AE022824D100F08A
:103A740049F805463068C0F3406028B1FEF72AFCD7
:103A8400401B6528F6D323E0B068A16A20F47D00CA
:103A94000843E16A0843216B0843B060012000F049
:103AA40032F805463068C0F3406098B9FEF712FC5E
:103AB400401B6528F6D30BE000F024F80546306877
:103AC400C0F3406030B1FEF705FC401B6528F6D317
:103AD400032000E00020BDE8F28320F480707063CE
:103AE400706B20F4806070477068216A20F4604035
:103AF400084370607068E1690002000A40EA0160EE
:103B04007060704700203866FEF7E4BB3068C0F38D
:103B1400404070473068C0F34000002870472DE9EA
:103B2400F843DFF81053DFF8FC620446286889463E
:103B340000F00100484541F289384DD200F0BCF84C
:103B440016D100F0D9F840F197806068022803D1BB
:103B54003168C1F340410AE0032803D13168C1F35D
:103B6400406104E00128316803D1C1F3400121B967
:103B740080E0C1F3402100297CD000F096F807468C
:103B84006068022808D100F0ADF875D0FEF7A2FBFA
:103B9400C01B4045F7D368E0032808D100F0A7F81C
:103BA4006AD0FEF797FBC01B4045F7D35DE00128C0
:103BB40008D100F092F85FD0FEF78CFBC01B4045A3
:103BC400F7D352E0B06810F00C0F55D0FEF782FB2B
:103BD400C01B4045F6D348E000F08EF847D5606836
:103BE400022803D13168C1F340410AE0032803D11C
:103BF4003168C1F3406104E00128316803D1C1F3A5
:103C0400400121B936E0C1F34021002932D000F04F
:103C14004CF807466068022808D100F063F826D003
:103C2400FEF758FBC01B4045F7D31EE0032808D11C
:103C340000F05DF81BD0FEF74DFBC01B4045F7D3E9
:103C440013E0012808D100F048F810D0FEF742FB39
:103C5400C01B4045F7D308E0B06810F00C0F06D045
:103C6400FEF738FBC01B4045F6D303201BE000F0F1
:103C740023F801D0012016E02078400705D5B0686C
:103C8400E16820F4E0600843B0602078000706D5BE
:103C9400B068216920F4605040EAC100B06000209F
:103CA400FEF701FB0020BDE8F283B168890840EA11
:103CB4008100B060FEF70EBBB9F1010F03D1286893
:103CC40040F0040028602868400849EA4000286061
:103CD400286800F0010048457047B06800F00C0007
:103CE40004287047B06800F00C0008287047B068DA
:103CF40000F00C000C2870472078800705D5B068C8
:103D0400A16820F0F0000843B0602078C007704735
:103D140030B54A494A484A684A4B02F00C04042C1C
:103D240022D0082C02D00C2C02D014E0184630BD4E
:103D34000FF22C14C2F38345C2F381522C5D0FF2AF
:103D44001C15525D4968B4FBF2F2C9034CBF03FB76
:103D540002F0504330BD0868400B00F00700012119
:103D6400401C01FA00F0C00330BD80B5FFF7D0FF5E
:103D7400314B0FF2D8021B683349C3F303139A5C27
:103D8400D0400860086802BD80B5FFF7EEFF00F080
:103D94000DF8C2F3022206E080B5FFF7E6FF00F05B
:103DA40005F8C2F3C222515CC84002BD224A0FF298
:103DB4009C0112687047F8B51F4F1E4E04463868C0
:103DC400002510F0F00F1FD1F869C00002D5FFF7ED
:103DD40097FB0EE0F86940F08050F861F86900F054
:103DE400805000900098FFF78BFBF96921F0805117
:103DF400F961B0F5C05F08BFB4F5404F04D1306835
:103E040040F00400012530603068400845EA400075
:103E14003060306800F00100A84214BF0120002087
:103E2400F2BD0000003802400000474280064742CD
:103E340000700040003C0240083802400438024050
:103E44000024F40000366E01B001002000000000E0
:103E54000102030401020304060708090102030422
:103E6400030406080C1018203000000038B50500C3
:103E740001D1012032BD00F02EF818B92070284677
:103E840000F048F800F011F800F007F821F02A01DA
:103E9400FFE7416100F013F832BD2868016921F49D
:103EA4009041016128684169704702206070286868
:103EB400C16821F40051C160284600F0F6B92868B1
:103EC400C16841F40051C16000206060012060704D
:103ED40000207047054605F138046078704710B536
:103EE40008B9012010BD00F1380402216170016895
:103EF400CA6822F40052CA6000210268D1600268D4
:103F040011610268516100F006F800206060607081
:103F1400207010BD70477047F8B500F045F818BF21
:103F240022281E463ED1002D18BF002A01D10120AF
:103F3400F2BD3878012835D000F041F822280CBFB2
:103F4400322012207870A284E28406E000F033F874
:103F540000BB216815F8010B4860E08CA0B1401E3D
:103F6400E0843346A068B0F5805FEFD100F023F819
:103F740080B928882168C005C00D486020690028E0
:103F840014BF6D1CAD1CE8E733460022402100F04D
:103F940014F808B10320F2BD787832280CBF22202F
:103FA400012012E00220F2BD044604F138070D4658
:103FB400787801287047002280212046D5E001202E
:103FC40038700020786078787047787000203870F6
:103FD400F2BD10B500F138035C78012C18BF122C27
:103FE40021D1002918BF002A01D1012010BD1C785D
:103FF400012C18D001241C7081628285C2850021A5
:104004005960597812290CBF32212221597000219C
:1040140019700168CA6842F48072CA6000F005F839
:1040240041F0200109E0022010BD01684A6942F014
:1040340001024A610068C1687047C160002010BD78
:1040440010B5044682B020680168C268C9070AD561
:10405400D10508D501680091416800910099E16B90
:1040640041F00101E1630268416992070AD5CA0778
:1040740008D50268009242680092009AE26B42F00E
:104084000402E263026852070AD5CA0708D5026827
:10409400009242680092009AE26B42F00202E263EC
:1040A400026812070AD5C90708D50168009141685A
:1040B40000910099E16B41F00801E1630168C06877
:1040C400890604D5800644BF204600F09EF8206887
:1040D4000168C268090626D5110624D594F839105A
:1040E400122918BF32291ED1A168B1F5805F216A57
:1040F4000BD10988C905C90D416020690028206ACF
:104104000CBF801C401C206203E04A1C2262097818
:104114004160E08C401EE08480B220B900F06DF86C
:1041240041F04001C16020680168C268490612D5A7
:10413400510610D5C16821F04001C16094F83900DE
:10414400322808BF222001D000F050F884F839004A
:10415400204600F009F8E06B28B1012084F839000A
:104164002046FEF747FF13BD70472DE9F843044688
:104174000E4691461F46FEF7ADF8B9F1000F804692
:1041840004F138050FD1206800683040B0422AD0CD
:1041940017F1010FF7D0AFB1FEF79CF8A0EB0800C0
:1041A4008742F0D20EE0206800683040B0421AD155
:1041B40017F1010FF7D02FB1FEF78CF8A0EB080030
:1041C4008742F0D200F019F821F02001C160206884
:1041D400C16821F48071C16000F008F868700020A3
:1041E4002870032000E00020BDE8F28320684169C4
:1041F400490849004161012070472068C16821F0E5
:104204008001C1602068C168704780B590F839109A
:10421400222918BF322946D18168B1F5805F11D1B6
:104224000269816A002A0268526805D1D205D20D5A
:104234000A80816A891C03E0D2B20A80816A491C1F
:1042440081620FE001690029816A04D14A1C8262FB
:104254000268526805E04A1C82620268526802F0F1
:104264007F020A70C18D491EC18589B2C9B901682E
:10427400CA6822F02002CA6090F83910322908BFB7
:1042840012210AD00168CA6822F48072CA600168E7
:104294004A69520852004A61012180F83910FEF738
:1042A40099FE002002BD022002BD2DE9F041044622
:1042B400642520680169E26821F4405111430161D9
:1042C4001926C1682F4A1140A2681143226911437B
:1042D40062691143E2691143C1604169A26921F431
:1042E400407111434161E2692749B2F5004F15D18C
:1042F400884208D1FFF750FD8046FFF74DFD074681
:10430400FFF74AFD07E0FFF73FFD8046FFF73CFD5E
:104314000746FFF739FD61684A0014E0884208D176
:10432400FFF73AFD8046FFF737FD0746FFF734FDF8
:1043340007E0FFF729FD8046FFF726FD0746FFF754
:1043440023FD61688A00704306FB07F3B0FBF2F0BB
:10435400B3FBF2F3B0FBF5F005FB1030000106FBF4
:1043640008F13230B1FBF2F1B0FBF5F0B1FBF5F13D
:1043740000F00F0040EA011021688860BDE8F08178
:1043840000000000F369FFFF0038014008080070D6
:10439400000801FFFF12D10000108100EC00FCFFB7
:1043A4008100DF001411068A97F7C0850611E3BA6D
:1043B400A70800200C9A66000001FB0001F401F834
:1043C4000008030406080C10182030F5007E0102D2
:1043D4000304060708090048E8012DE9F8432C4FB7
:1043E400044600F02BF8894600F026F80026A8B908
:1043F40000F01BF840F00800286059F8040B44F85A
:104404002600761C202EF8D300F016F8296821F037
:1044140008012960296821F480612960FFE739686F
:10442400490849003960BDE8F2831A4D286840F410
:104434008060286028687047404606E0386840F08D
:10444400010038604CF25038704713490140E020B5
:10445400B1401E0A68D207FAD408B903207047088D
:1044640068800744BF022008600868C0050BD408B0
:1044740068800508D40868400505D40868C00402AB
:10448400D40868000501D50120704700207047FC5E
:10449400000B08E000E0043C0240183C024000002D
:1044A400DFF800F029000020BFF34F8FDFF8480544
:1044B400006810F4E060DFF844150843DFF83815AD
:1044C4000860BFF34F8F00BFFDE781B011200021CA
:1044D4008DF80010C0B201B0704780B501F040F90A
:1044E40041F60270DFF81C15086001BD80B501F0CB
:1044F4004FF901BD70B403001C000D00D2B2002AB4
:1045040009D02000441C2E00751C00783678B04277
:1045140001D1521EF2E7D2B2002A01D0012000E0FC
:10452400002070BC704738B5040001F093F92200F4
:10453400DFF8CC14022001F0AAF9050001F09DF97E
:10454400EDB2002D01D101F0DCFB31BDDFF8B00488
:104554000068704780B501F0D4FBFEE738B504006D
:1045640001F078F92200DFF89814022001F08FF9A5
:10457400050001F082F92800C0B232BD30B58BB01D
:1045840066208DF818009A208DF819000C208DF8FB
:104594001A0020208DF81B0000208DF81C00082034
:1045A4008DF81D00A7208DF81E00BA208DF81F007D
:1045B400E3208DF8200011208DF8210006208DF8CD
:1045C400220085208DF82300C0208DF82400F720D8
:1045D4008DF8250097208DF826008A208DF8270075
:1045E400DFF8240400900A23012206A9022001F026
:1045F400C5FB0400E4B2002C40F0458166208DF830
:1046040018009A208DF819000C208DF81A0020202B
:104614008DF81B0000208DF81C0008208DF81D006B
:10462400A7208DF81E00BA208DF81F00E3208DF816
:10463400200011208DF8210008208DF8220085200B
:104644008DF82300C0208DF824008C208DF82500DF
:104654002E208DF8260012208DF827000825FFF75C
:1046640034FF122801D109200500DFF8A0030590CA
:104674000020049010200390042002900020019058
:10468400022000902B00DBB206AA0221DFF8780397
:10469400008801F0DAFB0400E4B2002C40F0F3805F
:1046A40066208DF818009A208DF819000C208DF8DA
:1046B4001A0020208DF81B0000208DF81C00082013
:1046C4008DF81D00A7208DF81E00BA208DF81F005C
:1046D400E3208DF8200011208DF8210008208DF8AA
:1046E400220085208DF82300F0208DF824009920E5
:1046F4008DF825000F208DF8260021208DF8270045
:10470400FFF7E3FE122801D1142300E00923C04877
:1047140005900120049010200390052002900020B1
:1047240001900E200090DBB206AA0221B648008850
:1047340001F08BFB0400E4B2002C40F0A48066205E
:104744008DF818009A208DF819000C208DF81A00A5
:1047540020208DF81B0000208DF81C0008208DF807
:104764001D00A7208DF81E00BA208DF81F00E3203D
:104774008DF8200011208DF8210008208DF82200EA
:1047840085208DF8230080208DF82400AA208DF840
:10479400250091208DF8260026208DF827009D48BD
:1047A4000590002004901020039005200290002022
:1047B400019006200090142306AA02219248008842
:1047C40001F043FB0400E4B2002C5CD166208DF8B8
:1047D40018009A208DF819000C208DF81A0020205A
:1047E4008DF81B0000208DF81C0008208DF81D009A
:1047F400A7208DF81E00BA208DF81F00E3208DF845
:10480400200011208DF8210008208DF82200852039
:104814008DF8230060208DF8240057208DF82500A2
:10482400DC208DF826002B208DF827007A4805908F
:104834000120049010200390042002900020019095
:1048440012200090142306AA02216F48008801F068
:10485400FCFA0400E4B2002C15D1704800902B003F
:10486400DBB20022694801886748008801F089FBAF
:104874000400E4B2002C04D0694801F003FC472092
:1048840002E0002000E047200BB030BD38B5002026
:1048940004000420050064200400E4B2642C12D156
:1048A4002800451EC0B200280DD001F029FC5D4847
:1048B400009004230022584801885348008801F0DE
:1048C40060FB0400E9E7E4B2002C02D0564801F092
:1048D400D9FB2000C0B232BDF8B504000025142273
:1048E4000021524801F0DEFD5FF0FF304F490860BF
:1048F4005FF000664E48864225D230684D49084034
:10490400B0F1005F1CD177684B483840B0F1006FBC
:1049140016D1EDB2E4B2A5420FD144480660062296
:10492400464916F5007001F0C7FD002805D1102294
:1049340006F20621424801F0F1FD6D1C7E0A760262
:1049440016F50076D6E7F1BD38B500200400042042
:10495400050064200400E4B2642C12D12800451E32
:10496400C0B200280DD001F0CBFB304800901423D6
:104974000022274801882448008801F002FB040033
:10498400E9E7E4B2002C03D0DFF8C80C01F07AFBAD
:104994002000C0B232BD80B52448006810F1010F78
:1049A4000AD022480168274801F06CFB244801F032
:1049B40069FB10A001F066FB01BD10B5040022489C
:1049C4000068122813D3A4B211480088401C844202
:1049D4000DD1DFF8840C0078FFF77EFFFFF7B4FFFA
:1049E400DFF8740C0078401CDFF86C1C087010BDF4
:1049F400000000000D0A00000CED00E00400FA05C0
:104A0400F80F0808183C0240E4150020E6150020C1
:104A1400E8150020EA150020EC1500200000002015
:104A2400349E06089C150020749D060888150020F5
:104A3400000008080000FE2F0000F80F3CA606083E
:104A44008C150020B8A50608080000202DE9F04FB9
:104A540087B004000025002002900120049000206B
:104A640001900020DFF8F41B08800020DFF8EC1B25
:104A740048606088DFF8E81B0988491C884240F0D8
:104A84002482E07AA17A090411EB0060617A10EBC8
:104A94000120217A0818DFF8CC1B0860E07BA17B99
:104AA400090411EB0060617B10EB0120217B0818E5
:104AB400DFF8B41B086020790A28C0F24C81DFF8C3
:104AC400AC0B01F0DFFA1220DFF8A41B0860207C95
:104AD400617C50EA0120A17C50EA0140E17C50EA6B
:104AE4000160DFF8901B0860207DDFF88C1B0870E4
:104AF400DFF8840B007800280DD1DFF86C0B006818
:104B0400DFF8781B0860DFF8740B0168DFF8700BBE
:104B140001F0B8FA2DE1DFF8600B0078012809D123
:104B2400FFF714FDDFF8541B0860DFF8580B01F0A1
:104B3400A9FA1EE1DFF8400B0078022809D1DFF85A
:104B4400480BDFF8381B0860DFF8400B01F09AFAD5
:104B54000FE1DFF8240B0078032809D15FF0FF3060
:104B6400DFF8181B0860DFF8280B01F08BFA00E16E
:104B7400DFF8040B0078042809D10020DFF8D81AE4
:104B84000870DFF8100B01F07DFA00F05FBDDFF86C
:104B9400E80A007805284FD1DFF8FC0A01F072FA20
:104BA400DFF8C40A00680068DFF8F01A0840B0F1C2
:104BB400005F06D1DFF8B00A0068DFF8C01A0860A9
:104BC40003E0CD20DFF8941A4880DFF8900A40888B
:104BD400002818D1DFF8A40A0168DFF8C40A01F03C
:104BE40051FAFFF7B3FCDFF8941A096881420AD03E
:104BF400DFF8880A0068FFF7B1FC002803D0C5205D
:104C0400DFF8581A4880DFF8540A4088002840F03A
:104C1400B080FFF73BFE82465FFA8AFABAF1000FD2
:104C240003D0DFF8800A01F02DFADFF87C0A01F0E6
:104C340029FAFFF78FFC9CE0DFF83C0A007806288D
:104C44002BD1DFF8680A01F01DFAFFF77FFC8246DA
:104C5400DAF80000DFF8441A0840B0F1005F03D02E
:104C6400CE20DFF8F8194880DFF8F00940880028E2
:104C740040F07F80FFF70AFE83465FFA8BFBBBF1AF
:104C8400000F03D0DFF81C0A01F0FCF9DFF8180A62
:104C940001F0F8F9FFF75EFC6BE0DFF8DC0900785F
:104CA40007284CD1DFF8080A01F0ECF9DFF8D8093D
:104CB4000068DFF8E8190840B0F1005F05D1DFF8BB
:104CC400C809DFF8B819086003E0CF20DFF88C19B1
:104CD4004880DFF888094088002818D1DFF89C094B
:104CE4000168DFF8BC0901F0CDF9FFF72FFCDFF80C
:104CF4008C19096881420AD0DFF880090068FFF73F
:104D04002DFC002803D0C520DFF850194880DFF8B7
:104D14004C09408800282CD1FFF7B8FD82465FFA81
:104D24008AFABAF1000F03D0DFF8780901F0AAF982
:104D3400DFF8740901F0A6F9FFF70CFC19E0DFF8BD
:104D440038090178DFF86C0901F09CF9D020DFF80C
:104D54000C1948800DE00020DFF8181908600020C5
:104D6400DFF814190870DFF800090068DFF80C197F
:104D74000860DFF844090078DFF83C194978090431
:104D840011EB0060DFF83019897810EB0120DFF8AF
:104D94002819C97811EB000ADFF81C090079DFF83B
:104DA40018194979090411EB0060DFF80C198979A5
:104DB40010EB0120DFF80019C97911EB000B1BF18E
:104DC4000100B0EB0A000090009B5A465146DFF800
:104DD400EC0801F057F9DFF88C080268DFF888085E
:104DE4000168DFF8DC0801F04DF9DFF87C080068A1
:104DF400504504D3DFF87008006883451AD25A4638
:104E04005146DFF8C00801F03DF9C920DFF84C181D
:104E140048801BF10100DFF850180968DFF84428C6
:104E24001268511888421ED20099DFF89C0801F0DC
:104E340029F918E01BF10100DFF82C180968DFF8E4
:104E4400242812685118884209D20099DFF878089A
:104E540001F018F9C820DFF80418488003E00020A6
:104E6400DFF8F8174880DFF8F4074088002840F09E
:104E7400ED83DFF8F4070068DFF850180860DFF806
:104E8400E4070068000ADFF848180880DFF8D40750
:104E940000684FF48071B0FBF1F202FB1102002AAA
:104EA40006D0DFF82C080088401CDFF8241808809E
:104EB4000020DFF8201808800020DFF81C180860A4
:104EC4000020DFF818180880C0E36088DFF81018A5
:104ED4000988891C88424CD10020DFF8001808801A
:104EE4000020DFF800180860FFF7F7FADFF8E007A2
:104EF4000188DFF8F40701F0C5F802200600DFF8A6
:104F040068070068039000200290DFF8C407008857
:104F1400049001A902A800F051FC0600FFF7E6FA8C
:104F2400F6B2002E20D1DFF8C40701F0ABF8002060
:104F3400DFF8281708800020DFF820174880FFF7E3
:104F4400A5FC80465FFA88F8B8F1000F04D0DFF8BA
:104F5400540701F097F879E3012001F0F2FB0120F6
:104F6400DFF88C17087071E3DFF8880701F08AF81E
:104F74006CE3DFF8E8064088002840F06783608827
:104F8400DFF874170988491C884240F05F83DFF812
:104F940044070088802880F25983DFF838070088A6
:104FA40081461FFA89F9DFF82C070088217908184F
:104FB400001F81452DDA1FFA89F9DFF8A806006879
:104FC40081450FD21FFA89F9DFF808070088B9EB89
:104FD40000000019007ADFF824171FFA89F909F88C
:104FE400010006E00020DFF814171FFA89F909F818
:104FF4000100DFF80C070078DFF800171FFA89F9C1
:1050040019F801104840DFF8F816087019F1010981
:10501400C7E7DFF8EC0600782179091909792279C4
:10502400121952795140227912199279514048400B
:10503400DFF8CC160870DFF89C06A0F80090DFF8C3
:10504400C0060078E179884240F0DE82A07E617E6D
:1050540011EB0020ADF81400DFF880060088BDF8DD
:105064001410884240F02D82DFF870060088401C3E
:10507400DFF868160880DFF864060088DFF8DC15BE
:1050840008800020DFF8D4154880DFF8480600883F
:10509400802190FBF1F202FB1102002A16D0DFF806
:1050A400C4050068DFF830160968401A802880F0CB
:1050B4000281DFF820060088DFF8A8150968DFF808
:1050C40018261268891A8842C0F0F580DFF898051E
:1050D4000068DFF8041609680818DFF8F01508609E
:1050E4000020814600200700FFF7F7F900200600A2
:1050F400DFF8D8050068DFF87015096888421ED10A
:10510400DFF8640500688030DFF8C015086080228D
:10511400DFF8E815DFF8EC0501F045FB2021DFF8A6
:10512400DC0501F047FBDFF8E015086080208146CC
:10513400DFF8A4050168DFF8D40500F0A3FFDFF869
:10514400940500881FFA89F9814579D25FF0800AB5
:10515400DFF8800500881FFA89F9B0EB0900802880
:105164001BDB72B6DFF894051FFA89F919EB00010D
:10517400DFF858050068FFF793F9060062B680224D
:10518400DFF878051FFA89F919EB0001DFF83C050F
:105194000068FFF7AFF9070036E004208246DFF825
:1051A4005C051FFA89F919EB0000C078DFF84C158B
:1051B4001FFA89F919EB01018978090411EB0060E0
:1051C400DFF838151FFA89F919EB0101497810EB5A
:1051D4000120DFF828151FFA89F919F801100A18B7
:1051E400DFF8E8040168102000F051FB06000422F7
:1051F400DFF808051FFA89F919EB0001DFF8CC0480
:105204000068FFF777F90700F6B2002E06D0F6B271
:105214003100DFF8FC0400F035FF11E0FFB2002F8D
:105224000ED15FFA8AFA1AEB0909DFF8A0040068C4
:105234005FFA8AFA1AEB0000DFF8901408607EE740
:10524400FFF754F9F6B2002E1ED1FFB2002F12D18F
:10525400DFF884040068DFF87C1409880818DFF894
:10526400781408600020DFF8F41348800020DFF889
:105274006414088010E0DFF89C0400F003FF3C2075
:10528400DFF8D813488007E0DFF88C0400F0FAFE5A
:10529400FF20DFF8C8134880DFF830040068DFF827
:1052A400C8130968884206D0DFF82C040168DFF8C7
:1052B4006C0400F0E7FEDFF820040068DFF8A413B4
:1052C40009688842C0F0E780DFF80C040168DFF861
:1052D400500400F0D7FEDFF884034088002840F033
:1052E400DA80DFF8400400F0CDFE2021DFF814045A
:1052F40001F060FA8246DFF810040068504540F07F
:10530400C480DFF8240400F0BDFEFFF7E6F872B6AF
:10531400DFF8F013DFF850030068FFF7C1F8060068
:1053240062B68022DFF8DC13DFF83C030068FFF785
:10533400E1F8070080220021DFF8C80301F0B2F889
:10534400FFF7D4F8F6B2002E40F09880FFB2002F99
:1053540040F094800120DFF88C130860C148006895
:105364008108C148006801F025FADFF8C01308601D
:10537400DFF8B8030068B9494860DFF8B40300F007
:1053840081FEBB480068122806D1DFF8A00300683C
:10539400B8490968884203D0B5480068122856D035
:1053A400B3480068122803D1DFF8880300F06AFECE
:1053B400B148007803286EDAB04800680068B7493D
:1053C4000840B0F1005F3ED100F044FAA6480268FC
:1053D400DFF86413022000F05AFA0600A2480068BD
:1053E400A04909680A18DFF85413022000F04FFAA4
:1053F4003043060000F041FAF6B2002E1FD100201F
:10540400964948800020C94908604FF6FF709349C7
:105414000880CB4800F036FE93480168C94800F084
:1054240031FEFFF733FA80465FFA88F8B8F1000FCF
:1054340002D09C4800F026FEFFF736F82BE0C5208A
:105444008649488027E0C6208449488023E0BE4836
:1054540000F018FEC72081494880FFF73EF88248D3
:1054640000680390002002900120049001A902A882
:1054740000F0A4F90600FFF739F80CE0C3207749DF
:105484004880B24800F0FEFD05E0B14800F0FAFDA6
:10549400C42072494880207E002806D1EDB2002D38
:1054A40003D16E48408800280AD0FFF7EFF9804600
:1054B4005FFA88F8B8F1000F02D07A4800F0E2FDF4
:1054C400C1E0207C6C49087086480068002877D0C9
:1054D400BDF814004FF6FF71884271D14FF6FF708A
:1054E4005E4908809148006862490968884248D149
:1054F4005D480068006869490840B0F1005F3CD12C
:1055040000F0A8F9584802688B49022000F0BFF95E
:10551400060055480068534909680A18874902205B
:1055240000F0B5F93043060000F0A7F9F6B2002EFA
:105534001FD100204949488000207C4908604FF66B
:10554400FF70464908807E4800F09CFD464801688B
:105554007C4800F097FDFFF799F980465FFA88F8D8
:10556400B8F1000F02D04F4800F08CFDFEF79CFF0D
:105574001AE0C5203949488016E0C62037494880DA
:1055840012E0C72035494880FEF7A7FF3648006877
:105594000390002002900120049001A902A800F0C9
:1055A4000DF90600FEF7A2FFFFF770F980465FFAD7
:1055B40088F8B8F1000F46D03A4800F063FD42E0A5
:1055C400BDF8142045480188624800F05BFD42485C
:1055D4000168524800F056FDF020204948803D48BB
:1055E400008810383B4908803C4800881B490880E3
:1055F400FFF74CF980465FFA88F8B8F1000F22D023
:10560400284800F03FFD1EE0534800F03BFD3248BF
:105614000168524800F036FD304800880F49088080
:105624000F200E4948802B480088103829490880EB
:10563400FFF72CF980465FFA88F8B8F1000F02D022
:10564400184800F01FFD00202D49087007B0BDE880
:10565400F08F0000E49E0608F61500209C1500203B
:10566400E8150020B8150020C4150020D0A20608B3
:1056740008000020CC150020F9150020200000208F
:1056840050A406086CA00608000002084C9F0608F7
:10569400A0A10608C8A1060840A206080000FE2F23
:1056A400F0A10608749D0608C8A506086CA406089F
:1056B40088A40608A4A4060800000020AC9E0608DE
:1056C4007C9F0608AC9F0608F0A20608C8150020B7
:1056D400F0150020EE150020C0150020F215002062
:1056E400EC150020BC15002010A30608DC9F06085A
:1056F400F715002018A50608EA1500205814002004
:10570400F8150020D4130020B41500200CA00608BE
:1057140030A3060830A5060850A3060898A006087A
:1057240070A3060890A50608C4A00608D01500209A
:1057340090A3060864A20608F80F0808FC0F0808DE
:1057440048A50608189F060888A20608709E060841
:10575400B49D0608209D0608C0A40608F0A006080B
:105764000F480068800711D50D480068C00705D5AB
:105774000C480D4908600D480B4908600C480D4958
:1057840008600D480B490860002000E001207047C4
:105794000348006850F00200014908600020704787
:1057A400043C0240EFCDAB890C3C024005040302EB
:1057B400BFAE9D8C103C024016151413F8B50400BE
:1057C4000D0001260027DFF8D403007C012801D155
:1057D40002203EE00120DFF8C41308744CF250307C
:1057E40000F0A5F90600F6B2002E2CD15FF0FF30D0
:1057F400286060680700A0684FF48071626801FB4C
:10580400002087421FD2380000F0E8F84CF25030F4
:1058140000F08DF90600DFF88803006830F0080016
:10582400DFF87C130860DFF87803006830F4007058
:10583400DFF86C130860F6B2002E01D02F6002E08E
:1058440017F58077D7E70020DFF85013087430008D
:10585400C0B2F2BDDFF848030068C0070BD5DFF81B
:105864004803DFF848130860DFF84403DFF83C130B
:105874000860002000E001207047DFF8240300687E
:1058840050F00100DFF81813086000207047F8B5E5
:1058940004000D0016000127DFF80003007C012836
:1058A40001D1022042E00120DFF8F01208744CF22A
:1058B400503000F03CF90700FFB2002F30D1002037
:1058C400DFF8D8124861042C04D13100C9B2280091
:1058D40000F09DF8082C04D1310089B2280000F0B2
:1058E400B1F8102C03D13100280000F0C6F8022CC6
:1058F40003D13100280000F005F9012C04D1310056
:1059040089B2280000F0E9F8002C04D13100C9B2B2
:10591400280000F0CDF84CF2503000F008F90700F0
:105924000020DFF8781208743800C0B2F2BDDFF846
:1059340074020068C00508D51020DFF860124861C1
:105944004FF48070DFF85C120860DFF858020068DA
:1059540080050CD5DFF84402406950F00800DFF8F8
:105964003C1248614FF40070DFF838120860DFF829
:105974003402006840050CD5DFF82002406950F07D
:105984000100DFF8181248614FF48060DFF8141248
:105994000860DFF81002006800050CD5DFF8FC0190
:1059A400406950F00200DFF8F41148614FF40060E0
:1059B400DFF8F0110860DFF8EC010068C0040CD5D2
:1059C400DFF8D801406950F00400DFF8D0114861D5
:1059D4004FF48050DFF8CC11086070470021DFF8E5
:1059E400BC215161DFF8B811096851F40071DFF886
:1059F400B0211160DFF8A811096851F00801DFF83F
:105A0400A02111600021020A12021160704770B5D2
:105A140004000D0000264CF2503000F088F8060017
:105A2400F6B2002E0BD15E48006830F480705C49F9
:105A3400086025704CF2503000F079F80600300010
:105A4400C0B270BD70B504000D0000264CF2503099
:105A540000F06DF80600F6B2002E0BD15048006835
:105A640030F480704E49086025804CF2503000F0CC
:105A74005EF806003000C0B270BD70B504000D00C1
:105A840000264CF2503000F052F80600F6B2002E18
:105A94000BD14348006830F48070414908602560A8
:105AA4004CF2503000F043F806003000C0B270BD34
:105AB40070B504000D0000264CF2503000F037F8A9
:105AC4000600F6B2002E05D125704CF2503000F0DD
:105AD4002EF806003000C0B270BD70B504000D0091
:105AE40000264CF2503000F022F80600F6B2002EE8
:105AF40005D125804CF2503000F019F80600300032
:105B0400C0B270BD70B504000D0000264CF25030D8
:105B140000F00DF80600F6B2002E05D125604CF217
:105B2400503000F004F806003000C0B270BD38B543
:105B3400040001F029F905001A480068C0070BD5D4
:105B440014F1010FF8D0002C04D001F01DF9401B12
:105B54008442F1D203201FE012480068800702D576
:105B64000220104908600F480068C0050FD40D4892
:105B7400006880050BD40B480068400507D4094829
:105B84000068C00403D407480068000503D5FFF784
:105B9400CEFE012000E0002032BD00007015002080
:105BA400043C0240183C0240EFCDAB890C3C02405F
