:020000040802F0
:1000000070290020E5F7020809ED02080BED02084F
:1000100027ED020829ED02082BED02080000000080
:100020000000000000000000000000002DED0208AC
:100030002FED02080000000031ED020833ED020848
:100040001DF9020821F9020825F9020829F9020818
:100050002DF9020831F902083BED020835F90208D2
:100060003DED020839F902083DF9020841F902089C
:1000700093ED020845F9020849F902084DF9020812
:1000800051F9020855F9020859F902085DF9020808
:1000900061F9020865F9020869F9020847ED0208EA
:1000A000000000006DF9020871F9020875F90208F4
:1000B00079F902087DF9020881F9020885F9020838
:1000C00089F902088DF9020891F9020895F90208E8
:1000D00099F902089DF9020889ED0208A1F90208C0
:1000E0006DED0208A5F90208A9F90208ADF90208A8
:1000F000B1F9020800000000B5F90208B9F90208D8
:10010000BDF90208C1F90208C5F90208C9F90208D7
:10011000CDF90208D1F90208D5F902080000000063
:04012000D9F90208FF
:1002000046575F56455231313030576553555F413F
:0302100043430065
:1002140010B501F097F9DFF8280A0068804700F06C
:100224004AF8DFF8200A0088002804D1DFF8180A09
:100234000088002827D0DFF80C0A0088002817D08F
:10024400DFF8100E00680400002001F0D2FA02F07A
:1002540032F8DFF8F819DFF8F80901F09BFB02F037
:100264004EF80121002001F079FADFF8E80D04606E
:10027400DFF8D4090088002805D0DFF8D019DFF8AA
:10028400D00901F0A7FB002001F0FFF902F0A0F96A
:1002940001F087F9DFF8C01D09681431884206D3DC
:1002A40001F07FF9DFF8B01D086000F03FFA01208B
:1002B40001F078F8EAE710B590B000F0B7FC002040
:1002C40001F078F9002001F0C6F9DFF87809008818
:1002D400042809DADFF870090088042804DADFF852
:1002E4007409007800282CD0DFF858090088042805
:1002F40015DBDFF8600D00680400002001F079FAD6
:1003040001F0D9FFDFF8500901F044FB01F0F7FFD9
:100314000121002001F022FADFF8380D0460DFF833
:1003240028090088042803DBDFF82C0901F052FBBC
:10033400DFF820090078002803D0DFF81C0902F058
:100344005DFB0121002001F009FA01F00AF8DFF851
:100354000C0902F0A1FBDFF8EC080088042809DA94
:10036400DFF8E4080088042804DADFF8E8080078F5
:1003740000282CD0DFF8CC080088042815DBDFF82F
:10038400D40C00680400002001F033FA01F093FF5C
:10039400DFF8C80C01F0FEFA01F0B1FF01210020E2
:1003A40001F0DCF9DFF8AC0C0460DFF89C0800888D
:1003B400042803DBDFF8A40C01F00CFBDFF894083D
:1003C4000078002803D0DFF8940C02F017FB01201A
:1003D40001F047FA01F039FADFF8841C0860DFF80D
:1003E40064080088002804D1DFF85C08008800282D
:1003F40023D0DFF850080088002815D0DFF8540C0B
:1004040000680400002001F0F4F901F054FFDFF863
:10041400540C01F0BFFA01F072FF0121002001F039
:100424009DF9DFF8300C0460DFF81C080088002810
:1004340003D0DFF8300C01F0CDFADFF808080088AB
:10044400002804D1DFF800080088002823D0DFF852
:10045400F4070088002815D0DFF8F80B00680400C2
:10046400002001F0C6F901F026FFDFF8FC0B01F0D3
:1004740091FA01F044FF0121002001F06FF9DFF847
:10048400D40B0460DFF8C0070088002803D0DFF82D
:10049400D80B01F09FFA02F0AAFCDFF8A807008845
:1004A400002804D1DFF8A0070088002823D0DFF853
:1004B40094070088002815D0DFF8980B0068040022
:1004C400002001F096F901F0F6FEDFF8A00B01F030
:1004D40061FA01F014FF0121002001F03FF9DFF877
:1004E400740B0460DFF860070088002803D0DFF88D
:1004F4007C0B01F06FFA03F01CF9DFF84807008861
:10050400002804D1DFF840070088002823D0DFF852
:1005140034070088002815D0DFF8380B0068040081
:10052400002001F066F901F0C6FEDFF8440B01F08B
:1005340031FA01F0E4FE0121002001F00FF9DFF8A7
:10054400140B0460DFF800070088002803D0DFF8EC
:10055400200B01F03FFA02F040FC00208DF800006F
:100564006946DFF8A80C006803F02EFA00281BD1B6
:100574009DF80000012817D10DA9DFF8900C006840
:1005840003F030FA0D9803F07FFADFF8941C08604A
:100594000E9803F079FADFF8881C48600F9803F08E
:1005A40073FADFF87C1C88606946DFF8640C006825
:1005B40003F0D4FA00281BD19DF80000012817D1BC
:1005C4000AA9DFF84C0C006803F0D6FA0A9803F085
:1005D4005BFADFF8501C08600B9803F055FADFF85B
:1005E400441C48600C9803F04FFADFF8381C88600C
:1005F4006946DFF8200C006803F0F4FA00281BD1E8
:100604009DF80000012817D107A9DFF8080C00683D
:1006140003F0F6FA079803F037FADFF80C1C0860C9
:10062400089803F031FADFF8001C4860099803F0D9
:100634002BFADFF8F41B88606946DFF8DC0B0068EE
:1006440003F014FB002817D19DF80000012813D1F2
:1006540006A9DFF8C40B006803F016FB022305AA01
:1006640004A9069800F0EAFE04986421059A01FBA7
:100674000020DFF8B81B08606946DFF8B40B006897
:1006840003F038FB002817D19DF80000012813D18E
:1006940003A9DFF89C0B006803F03AFB012302AACC
:1006A40001A9039800F0CAFE01980A21029A01FBED
:1006B4000020DFF8801B0860DFF888050088002828
:1006C40004D1DFF884050088002823D0DFF87405FE
:1006D4000088002815D0DFF87C0900680400002099
:1006E40001F087F801F0E7FDDFF8300B01F052F973
:1006F40001F005FE0121002001F030F8DFF8540973
:100704000460DFF844050088002803D0DFF80C0BF0
:1007140001F060F9012003F019FB322000F0F1FF31
:100724000020DFF83019086010B010BD30B589B072
:1007340000F037FFDFF8001B096801F5EA413031AA
:100744008842C0F0C38000F02CFFDFF8EC1A086088
:1007540001A802F052FADFF8EC040088002804D162
:10076400DFF8E4040088002829D0DFF8D8040088E2
:10077400002818D0DFF8DC0800680400002001F02D
:1007840038F801F098FD00F00CFF0100DFF8AC0A26
:1007940001F000F901F0B3FD0121002000F0DEFFBB
:1007A400DFF8B0080460DFF8A0040088002806D051
:1007B40000F0F7FE0100DFF8840A01F00BF9DFF81E
:1007C40084040088002804D1DFF87C040088002811
:1007D40043D0DFF870040088002825D0DFF87408BF
:1007E40000680400002001F004F801F064FD9DF8A5
:1007F400080002F044F905009DF80A0002F032F9FD
:100804009DF8091000912B009DF807200100DFF8E6
:10081400D40A01F0BFF801F072FD0121002000F0BC
:100824009DFFDFF830080460DFF81C04008800280E
:1008340013D09DF8080002F022F904009DF80A0084
:1008440002F010F99DF80910009123009DF807208B
:100854000100DFF8900A01F0BDF8DFF8E803008832
:10086400002804D1DFF8E003008800282ED0DFF848
:10087400D403008800281BD0DFF8D80700680400E0
:10088400002000F0B6FF01F016FD9DF806309DF83B
:1008940005209DF80410DFF8500A01F07BF801F000
:1008A4002EFD0121002000F059FFDFF8A8070460A5
:1008B400E5480088002809D09DF806309DF80520F9
:1008C4009DF80410DFF8200A01F084F8002002F0FB
:1008D40074FA00F0C5F903F03AFA00F0CBFB01F02A
:1008E4008EFD002002F078FADFF86807006800281F
:1008F40000F09A810020DFF85C170860142000F0F3
:1009040022FF142000F01FFF1E2000F00CFF03F054
:1009140068FADFF80409006803F090F9DFF81009B9
:10092400006803F0CFF9DFF8E408006803F02AF860
:10093400DFF8DC08006803F0F9F8DFF8D80800688D
:1009440003F038F902F053FABE480088042807DAA5
:10095400BD480088042803DABE480078002829D05E
:10096400B8480088042815DBDFF8E80600680400AE
:10097400002000F03EFF01F09EFCDFF8240A01F0A5
:1009840009F801F0BCFC0121002000F0E7FEDFF8CB
:10099400C4060460AC480088042803DBDFF8000ABE
:1009A40001F018F8AB480078002803D0DFF8F0090C
:1009B40002F024F84FF400614FF4006002F07EF975
:1009C40001F006FE002000F081FF00280ED0002078
:1009D40000F041FE4FF4FA7000F0E4FC03F0F2F989
:1009E40003F014FC322000F0AEFEFBE7002000F020
:1009F40000FFDFF8440A006850F00100DFF8381AFD
:100A04000860DFF8340A006810F0010000900098D4
:100A1400DFF8240A006850F00200DFF81C1A0860AE
:100A2400DFF8140A006810F0020000900098DFF864
:100A3400080A006850F00400DFF8FC190860DFF8C9
:100A4400F809006810F0040000900098DFF8E80945
:100A5400006850F00800DFF8E0190860DFF8D809F2
:100A6400006810F0080000900098DFF8CC090068D6
:100A740050F01000DFF8C0190860DFF8BC09006806
:100A840010F0100000900098DFF8AC09006850F0F6
:100A94002000DFF8A4190860DFF89C09006810F052
:100AA400200000900098DFF89009006850F04000A2
:100AB400DFF884190860DFF88009006810F040004E
:100AC40000900098DFF87009006850F08000DFF8AB
:100AD40068190860DFF86009006810F08000009071
:100AE40000980320049000200590022006904FF601
:100AF400FF70039003A9DFF89C0903F0D7FB03A957
:100B0400DFF8940903F0D2FB03A9DFF8900903F09E
:100B1400CDFB03A9DFF8880903F0C8FB03A9DFF8BC
:100B2400840903F0C3FB03A9DFF87C0903F0BEFBCF
:100B340003A9DFF8780903F0B9FB4FF6FF700390BF
:100B4400039830F4C040039003A9DFF8640903F06C
:100B5400ADFBDFF8E408006840084000DFF8D8186F
:100B64000860DFF8D408006830F00200DFF8C81825
:100B74000860DFF8C408006830F00400DFF8B81833
:100B84000860DFF8B408006830F00800DFF8A8183F
:100B94000860DFF8A408006830F01000DFF8981847
:100BA4000860DFF89408006830F02000DFF8881847
:100BB4000860DFF88408006830F04000DFF8781837
:100BC4000860DFF87408006830F08000DFF8681807
:100BD40008600121002000F0C1FDDFF85C08006816
:100BE40050F00400DFF850180860DFF84C08006883
:100BF40010F004000090009803F084FE012101200D
:100C040003F0BEFEDFF84C040068012801D103F0B4
:100C14007EFF01F0DDFCDFF89C080068002803D1AA
:100C24000120DFF89418087009B030BDDFF88C0893
:100C3400008850F08000DFF88418088070470000B6
:100C440098080020660900206409002000020208B8
:100C5400A4F20208F432002084F70208F512020814
:100C640030B58FB0DFF854080078000617D50CA90A
:100C7400DFF89805006802F0B5FE0C9802F004FF56
:100C8400DFF89C1508600D9802F0FEFEDFF8901561
:100C940048600E9802F0F8FEDFF884158860DFF8EB
:100CA4001C080078400617D509A9DFF86405006818
:100CB40002F062FF099802F0E7FEDFF868150860A9
:100CC4000A9802F0E1FEDFF85C1548600B9802F028
:100CD400DBFEDFF850158860DFF8E0070078800657
:100CE40017D506A9DFF82C05006802F089FF0698DD
:100CF40002F0CAFEDFF830150860079802F0C4FE5F
:100D0400DFF824154860089802F0BEFEDFF81815D5
:100D14008860DFF8A8070078C00613D505A9DFF8B6
:100D2400F804006802F0B0FF022304AA03A905989E
:100D340000F084FB03986421049A01FB0020DFF88F
:100D4400EC140860DFF874070078400713D502A993
:100D5400DFF8DC04006802F0DBFF012301AA694626
:100D6400029800F06BFB00980A21019A01FB002015
:100D7400DFF8C0140860DFF844070078800740F10A
:100D8400668100F00EFCDFF83817096811F5FA5196
:100D94008842C0F0558100F004FCDFF82417086095
:100DA400DFF820070068401CDFF81817086002F01D
:100DB400D5FF002840F0188103F03EF802F064FEED
:100DC400DFF80417086003F029F802F05DFEDFF88D
:100DD400FC16086003F014F8DFF8F4160880DFF856
:100DE400F4060088042804DADFF8EC0600880428F6
:100DF40021DBDFF8E0060088042813DB954800684F
:100E04000400002000F0F5FC01F055FADFF8CC06F0
:100E140000F0C0FD01F073FA0121002000F09EFCF7
:100E24008C480460DFF8B0060088042803DBDFF890
:100E3400AC0600F0CFFDDFF89C060088042804DA35
:100E4400DFF89406008804283DDBDFF88806008874
:100E5400042821DB7F4800680400002000F0C9FC5E
:100E640001F029FADFF8680600880A2190FBF1F204
:100E740001FB1202DFF8580600880A2190FBF1F109
:100E8400DFF85C0600F086FD01F039FA012100204C
:100E940000F064FC6F480460DFF83C060088042816
:100EA40011DBDFF82C0600880A2190FBF1F201FB2C
:100EB4001202DFF81C0600880A2190FBF1F1DFF82A
:100EC400200600F087FDDFF80C060088042804DA09
:100ED400DFF80406008804284DDBDFF8F8050088F5
:100EE400042829DB5B4800680400002000F081FC32
:100EF40001F0E1F9DFF8D005006803F037FE4FF4A4
:100F04007A71B0FBF1F201FB12021500DFF8B805AB
:100F1400006803F03DFE4FF47A7190FBF1F12A0072
:100F2400DFF8C00500F036FD01F0E9F901210020E9
:100F340000F014FC47480460DFF89C05008804288E
:100F440019DBDFF88405006803F010FE4FF47A71B2
:100F5400B0FBF1F201FB12021400DFF86C0500682B
:100F640003F016FE4FF47A7190FBF1F12200DFF8E2
:100F7400740500F02FFDDFF85C050088042804DA0E
:100F8400DFF85405008804282DDBDFF848050088C5
:100F9400042819DB2F4800680400002000F029FC15
:100FA40001F089F9DFF82405006803F0F1FD010080
:100FB400DFF8340500F0EEFC01F0A1F90121002076
:100FC40000F0CCFB23480460DFF80C0500880428FB
:100FD40009DBDFF8F804006803F0DAFD0100DFF84C
:100FE400080500F0F7FC2BE0DFF8E804008804288B
:100FF40004DADFF8E4040088042821DBDFF8D404F1
:101004000088042813DB134800680400002000F063
:10101400F0FB01F050F9DFF8D40400F0BBFC01F060
:101024006EF90121002000F099FB0A480460DFF802
:10103400A8040088042803DBDFF8B00400F0CAFC2D
:1010440003F00AF9DFF8A814087003F0E6F80FB00B
:1010540030BD00009C320020A8320020E8F30208D2
:101064009832002004F4020820F402083CF4020838
:101074007CF6020838B5DFF840040078002848D030
:10108400002420200400DFF84C040088042809DA36
:10109400DFF844040088042804DADFF858040078F0
:1010A40000282CD0DFF82C040088042815DBDFF896
:1010B4003C0200680500002000F09BFB01F0FBF8F7
:1010C400DFF8DC0200F066FC01F019F901210020D0
:1010D40000F044FBDFF814020560DFF8FC0300882D
:1010E400042803DBDFF8B80200F074FCDFF8040422
:1010F4000078002803D0DFF8A80201F07FFC21006B
:1011040089B2200080B201F0D9FD0020DFF8A813D5
:101114000870DFF8A0030068002876D000F041FAD8
:10112400DFF8D4130860DFF8D4030088401CDFF82C
:10113400CC1308803A4800685FF07E5103F04AFD02
:1011440003F026FDDFF8B8130880354840685FF0E7
:101154007E5103F03FFD03F01BFDDFF8A41348802C
:101164002F4880685FF07E5103F034FD03F010FDDA
:10117400DFF88C1388802B480068DFF8881303F0AD
:1011840029FD03F005FDDFF8801308802548406839
:10119400DFF8701303F01EFD03F0FAFCDFF86813A8
:1011A400488020488068DFF85C1303F013FD03F0E7
:1011B400EFFCDFF8541388801B4800685FF07E5111
:1011C40003F008FD03F0E4FCDFF840130880164840
:1011D40040685FF07E5103F0FDFC03F0D9FCDFF8BA
:1011E4002C134880104880685FF07E5103F0F2FCB5
:1011F40003F0CEFCDFF814138880DFF81023DFF847
:101204000813DFF8FC0204F044FA31BD80320020F8
:1012140084320020883200208C32002090F60208AC
:10122400E4310020F0310020FC3100206C32002039
:101234009032002070320020AC32002094F7020873
:1012440000B595B0DFF8C802006850F08050DFF8B0
:10125400C0120860DFF8B802006810F080500090F7
:101264000098DFF8B002006830F4C05050F4006019
:10127400DFF8A012086005200890012009900120E1
:101284000A90022011905FF4803012905FF4802065
:1012940013905FF40000149008A804F0F5FD0120F9
:1012A4000390032004900020059000200690002065
:1012B4000790012103A805F030FA012001905FF4A2
:1012C4008030029001A805F05DFC05F0C9FB4FF4E5
:1012D4007A71B0FBF1F003F01EFC042003F021FC52
:1012E40015B000BD80F5020858F402089C320020B5
:1012F40000B583B08848D0E90023CDE900239DF8E8
:101304000700A02811D0A12810D0B02812D0B128ED
:1013140014D0B32816D0D02802D0D12801D015E09B
:1013240017E0A0208DF8070013E012E0A0208DF84C
:1013340007000EE0A0208DF807000AE0A0208DF839
:10134400070006E0A0208DF8070002E000208DF8D9
:1013540007009DF80700002802D0684601F0E5FB6D
:1013640007BD80B56D486E49086040206C494860EF
:101374007F206B498860FF206949C8600020684964
:101384000861002066494861002065498861644815
:1013940005F0B4FC002801D000F011F801BD0000F4
:1013A400A4F6020811B581B0002400F0FAF8040094
:1013B40000F0F7F8001B01998842F9D313BDFEE74A
:1013C40010B50400A4B22000042815D0202817D09A
:1013D40040281AD080281CD0B0F5007F21D0B0F569
:1013E400806F1AD0B0F5005F03D0B0F5004F1CD069
:1013F4001FE001F02FF91CE001204A49086018E0C1
:1014040000F023FA4849086013E0012047490870B6
:101414000FE00120464908700BE00120454908709F
:1014240007E001204449087003E0012043490870A3
:10143400FFE710BD000000001C3802402DE9F8430E
:1014440006000F0091469846300003F0A1FB386077
:10145400386802F019FB0100300005F01FFE060099
:10146400404605F093FE02000B000020344906F0CC
:10147400B4F804000D00300006F0C8FA22002B0076
:1014840006F0ECFA06F0BBFB06F0C2FBC9F800005C
:10149400BDE8F183000C0240001002400014024039
:1014A40000180240001C02400004024000080240F0
:1014B400000002404832002068090020D832002091
:1014C400B032002074320020783200207C320020B8
:1014D400D63200206609002064090020A4F702081F
:1014E400B8F60208CCF60208B4F7020898F5020828
:1014F400EE320020F432002094320020D432002056
:10150400183200200000C842203200202832002077
:10151400243802400070004080F80208002800408F
:10152400603100209C32002098320020EF320020ED
:10153400F0320020F1320020F2320020F332002099
:101544000000244080B51848006850F00400164993
:1015540008601548006850F0020013490860032031
:1015640003F0AEFA0F2000F004F806F077FB002039
:1015740002BD10B504000D4800684FF47A71B0FB49
:10158400F1F003F0C8FA002221005FF0FF3003F00D
:101594009DFA002010BD06480068401C04490860FC
:1015A4007047034800687047003C0240EC08002084
:1015B400B432002010B586B00400E4B2002C0ED181
:1015C400DFF83003006850F00200DFF828130860E9
:1015D400DFF82003006810F0020000900098E4B2E5
:1015E400012C0ED1DFF80C03006850F00400DFF882
:1015F40004130860DFF8FC02006810F00400009097
:101604000098DFF8F402E4B2225CDFF8F002E4B2FE
:1016140030F81410DFF8E802E4B250F8240002F0C5
:10162400D8FFDFF8D802E4B230F814000190DFF8F4
:10163400D402E4B230F81400029000200390022097
:10164400049001A9DFF8B802E4B250F8240002F0D3
:101654002DFE06B010BD10B50400DFF8AC02E4B2F4
:10166400225CDFF89802E4B230F81410DFF890023C
:10167400E4B250F8240002F0ACFFFFF792FFDFF869
:101684008C12E4B241F8240010BD10B50400DFF858
:101694006802E4B2225CDFF86402E4B230F81410A9
:1016A400DFF85C02E4B250F8240002F092FF10BDAF
:1016B40010B50400DFF84402E4B230F81410DFF887
:1016C4004002E4B250F8240002F08DFF10BDF8B5DA
:1016D40004000D0000200600AE4211D200200700D5
:1016E400642F0BDAE4B2A74203DA0020FFF7B3FF5A
:1016F40002E00020FFF7C9FF7F1CF1E7761CEBE74F
:10170400F1BD38B5040000200500642D07DAE4B209
:1017140021002800C0B2FFF7DAFF6D1CF5E70020B6
:10172400FFF799FF31BD38B5040000200500642D92
:1017340008DAE4B22100D5F16400C0B2FFF7C7FFB4
:101744006D1CF4E731BD10B504002000C0B2FFF7F2
:10175400D8FF2000C0B2FFF7E6FF10BD30B587B058
:1017640004000D00E4B2002C0BD16248006850F074
:101774000100604908605F48006810F001000090B3
:101784000098EDB2002D11D16148E4B230F8140094
:10179400019000200290012003900220049001A9EE
:1017A4005C48E4B250F8240002F080FDEDB2012D53
:1017B4001DD15748E4B230F8140001900020039082
:1017C4005548029001A95348E4B250F8240002F0AD
:1017D4006DFD00220F215148E4B2205640B203F0BF
:1017E40075F94E48E4B2205640B203F082F907B0CE
:1017F40030BD10B586B00400E4B2002C0BD13D48D6
:10180400006850F001003B4908603A48006810F055
:101814000100009000983E48E4B230F814000190B2
:1018240000200290002003900220049001A939486E
:10183400E4B250F8240002F039FD3848E4B22056EE
:1018440040B203F05DF906B010BD80B520213448E4
:1018540002F0B3FE002801D0012000E00020C0B255
:1018640002BD10B586B004002248006850F00400A0
:10187400204908601F48006810F004000090009898
:10188400E4B2002C0BD12020019000200290002013
:1018940003900220049001A9214802F007FDE4B25C
:1018A400012C11D120200190002003901D480290AA
:1018B40001A91B4802F0FAFC00220F21172003F0B3
:1018C40005F9172003F015F906B010BD10B5040092
:1018D4000F48E4B230F814100E48E4B250F8240073
:1018E40002F06BFE002801D1012000E00020C0B20C
:1018F40010BD00001C3802404A84020810F9020896
:10190400F008002014F902085E7A0208FC0800209E
:10191400C2840208F808002000002110D28E0208B8
:1019240000080240000031102DE9F84304000D00C6
:10193400160006F0DBFBFFF734FE07004CF25038CC
:101944004CF2503006F0DAFC00280BD018F1010FED
:10195400F6D0B8F1000F04D0FFF723FEC01B80457A
:10196400EED215E000208146B1450FD219F80520CA
:10197400D2B219EB0401002006F0D5FB002802D1F5
:1019840019F10109F0E719F10109EDE706F0C1FBCE
:10199400BDE8F1830EB4F0B50400002505A80600E7
:1019A400330022006421DFF8300B06F013FD00271A
:1019B400DFF8240B06F02CFD874206D2DFF8180B63
:1019C400385C00F0C0FC7F1CF2E72800C0B2F0BC19
:1019D4005DF810FB0EB478B504000025DFF8FC0AAE
:1019E400007800281AD00020DFF8F01A087005A843
:1019F4000600330022006421DFF8DC0A06F0EAFC6A
:101A0400DFF8D40A06F004FD0100C9B2DFF8C80A01
:101A140003F00DFB0120DFF8C41A08702800C0B2DF
:101A240072BC5DF810FBF8B50024DFF8B40A006856
:101A340000284BD06420FFF7B5FC5520DFF8A41A2A
:101A44000870DFF8A40A808DDFF89C1AC98D451A46
:101A5400DFF8986ADFF8987A2A003100380006F037
:101A6400F3FCDFF8840A40690C2810D15FF0FF33DF
:101A7400DFF8740A808DDFF8701AC98D421A92B2A9
:101A8400DFF8681ADFF8600A06F077FD13E000F06B
:101A940012FC5FF0FF33DFF8500A808DDFF8481A3C
:101AA400C98D421A92B2DFF8441ADFF83C0A06F0F4
:101AB40064FD00F024FCC720DFF82C1AC885DFF889
:101AC4002C0ADFF8241A886201200400DFF8180ABF
:101AD400808DDFF8141AC98D401ADFF8041A0860E3
:101AE4002000C0B2F2BD38B504000020FFF781FE2B
:101AF40000F0E1FBDFF8FC09FFF74CFF00F0FFFB0F
:101B040001210020FFF72AFEDFF8E809FFF762FF52
:101B14000020FFF76EFE00F0CEFB74A0FFF73AFF43
:101B240000F0EDFB01210020FFF718FE6FA0FFF786
:101B340051FF0025082D62D2DFF8BC09F82101FB12
:101B4400050090F8F400012857D10020FFF751FE5A
:101B540000F0B1FBDFF8A009F82101FB0500FFF755
:101B640019FF00F0CCFB01210020FFF7F7FDDFF89F
:101B74008809F82101FB0500FFF72CFF0020FFF77F
:101B840038FE00F098FBDFF87409FFF703FF00F05C
:101B9400B6FB01210020FFF7E1FDDFF86009FFF744
:101BA40019FF0020FFF725FE00F085FBDFF8480948
:101BB400F82101FB0500C830FFF7ECFE00F09FFBA5
:101BC40001210020FFF7CAFDDFF82C09F82101FBF1
:101BD4000500C830FFF7FEFE0020FFF70AFE00F004
:101BE4006AFB42A0FFF7D6FE00F089FB012100202A
:101BF400FFF7B4FD3DA0FFF7EDFE6D1C9AE731BD84
:101C04003EB5040001A800F0F8FF0020FFF7F1FD45
:101C140000F051FB9DF80B0000F002FF0100DFF81B
:101C2400E008FFF7B7FE00F06AFB01210020FFF790
:101C340095FD9DF80B0000F0F3FE0100DFF8C008ED
:101C4400FFF7C8FE0020FFF7D4FD00F034FB9DF839
:101C5400080000F014FF05009DF80A0000F002FFE0
:101C64009DF8091000912B009DF807200100DFF872
:101C74009408FFF78FFE00F042FB01210020FFF7DC
:101C84006DFD9DF8080000F0FAFE05009DF80A00BD
:101C940000F0E8FE9DF8091000912B009DF8072044
:101CA4000100DFF86008FFF795FE0020FFF7A1FDB3
:101CB40000F001FB9DF806309DF805209DF8041006
:101CC400DFF84408FFF766FE00F019FB012100204D
:101CD400FFF744FD9DF806309DF805209DF804109B
:101CE400DFF82408FFF776FE37BD00000D0A000078
:101CF4002DE9F04784B00400002500275FF00008B8
:101D04005FF0000900260020FFF773FD00F0D3FA0E
:101D1400DFF8F807FFF73EFE00F0F1FA012100209A
:101D2400FFF71CFDDFF8E407FFF754FEA7A120002E
:101D340007F022F80500002D00F0E28068783028D2
:101D4400C0F2DC8068783A2880F2D880A8783028FD
:101D5400C0F2D480A8783A2880F2D08068783038ED
:101D6400060037000A204743A87830380600F719E0
:101D740097A1200007F000F80500002D00F0C080B6
:101D840068783028C0F2B78068783A2880F2B38047
:101D9400A8783028C0F2AF80A8783A2880F2AB80C7
:101DA400687830380600B0460A2000FB08F8A878A6
:101DB4003038060016EB0808CBA1200006F0DCFF43
:101DC4000500002D00F09C8068783028C0F29080D7
:101DD40068783A2880F28C80A8783028C0F288800D
:101DE400A8783A2880F28480687830380600B146B2
:101DF4000A2000FB09F9A8783038060016EB090917
:101E040001A800F0FAFE8DF804708DF805808DF8B5
:101E14000690B3208DF80B0001A800F086FE002088
:101E2400FFF7E7FC00F047FADFF8E406FFF7B2FD3E
:101E340000F065FA01210020FFF790FCDFF8D006DE
:101E4400FFF7C8FD01A800F0D8FE0020FFF7D1FC81
:101E540000F031FA9DF8080000F011FE82469DF86A
:101E64000A0000F0FFFD9DF80910009153469DF80B
:101E740007200100DFF88C06FFF78CFD00F03FFA25
:101E840001210020FFF76AFC9DF8080000F0F7FD2F
:101E940082469DF80A0000F0E5FD01009DF8090066
:101EA400009053469DF80720DFF85806FFF792FD8F
:101EB4000020FFF79EFC00F0FEF99DF806309DF827
:101EC40005209DF80410DFF84006FFF763FD00F0DD
:101ED40016FA01210020FFF741FC9DF806309DF819
:101EE40005209DF80410DFF82006FFF773FD07E0D6
:101EF4000020050004E00020050001E000200500AA
:101F0400002D25D10020FFF774FC00F0D4F9DFF890
:101F14000406FFF73FFD00F0F2F901210020FFF76E
:101F24001DFCDFF8F005FFF755FD0020FFF761FC0D
:101F340000F0C1F9DFF8E005FFF72CFD00F0DFF950
:101F440001210020FFF70AFCDFF8CC05FFF742FD72
:101F5400BDE8FF8710B504000020FFF74AFC00F03D
:101F6400AAF9DFF8B805FFF715FD00F0C8F901215B
:101F74000020FFF7F3FBDFF8A405FFF72BFD00209B
:101F8400FFF737FC00F097F9DFF89405FFF702FD3F
:101F940000F0B5F901210020FFF7E0FBDFF8800530
:101FA400FFF718FD0020FFF724FC00F084F9DFF8A8
:101FB4007405FFF7EFFC00F0A2F901210020FFF700
:101FC400CDFBDFF86005FFF705FD10BD48000000FC
:101FD4004D000000F0B58DB004000020FFF709FCAF
:101FE40000F069F9DFF84005FFF7D4FC00F087F949
:101FF40001210020FFF7B2FBDFF82C05FFF7EAFC14
:102004000C25DFF8286509AF2A003100380006F0F6
:102014001BFA0020FFF7EDFB00F04DF99DF82F00AF
:1020240008909DF82E0007909DF82D0006909DF8CD
:102034002C0005909DF82B0004909DF82A00039035
:102044009DF8290002909DF8280001909DF8270032
:1020540000909DF826309DF825209DF82410DFF887
:10206400D004FFF797FC00F04AF901210020FFF7A4
:1020740075FB9DF82F0008909DF82E0007909DF8A1
:102084002D0006909DF82C0005909DF82B000490DF
:102094009DF82A0003909DF8290002909DF82800DD
:1020A40001909DF8270000909DF826309DF825208A
:1020B4009DF82410DFF87804FFF78CFC0020FFF76C
:1020C40098FB00F0F8F8DFF86C04FFF763FC00F00D
:1020D40016F901210020FFF741FBDFF85804FFF750
:1020E40079FC0DB0F0BD00005300000010B50400F1
:1020F4000020FFF77EFB00F0DEF80023012201211F
:10210400DFF83404FFF746FC00F0F9F80121002061
:10211400FFF724FB002301220121DFF81C04FFF751
:1021240059FC10BD10B504000020FFF762FB00F05D
:10213400C2F8DFF80804FFF72DFC00F0E0F80121F5
:102144000020FFF70BFBDFF8F403FFF743FC0A2042
:10215400FFF7F9FA0A20FFF7F6FA0A20FFF7F3FA75
:102164000A20FFF7F0FA0020FFF743FB00F0A3F882
:10217400DFF8CC03FFF70EFC00F0C1F801210020CA
:10218400FFF7ECFADFF8B803FFF724FC10BD10B535
:1021940004000020FFF72DFB00F08DF8DFF8A40306
:1021A400FFF7F8FB00F0ABF801210020FFF7D6FAA7
:1021B400DFF89003FFF70EFC4FF47A70FFF7F2F8A4
:1021C4000020FFF716FB00F076F8DFF87C03FFF73A
:1021D400E1FB00F094F801210020FFF7BFFADFF8DB
:1021E4006803FFF7F7FB4FF47A70FFF7DBF8002082
:1021F400FFF7FFFA00F05FF8DFF85003FFF7CAFBC0
:1022040000F07DF801210020FFF7A8FADFF83C0375
:10221400FFF7E0FB4FF47A70FFF7C4F80020FFF7F4
:10222400E8FA00F048F8CA48FFF7B4FB00F067F892
:1022340001210020FFF792FAC548FFF7CBFB4FF4CA
:102244007A70FFF7AFF8C3480068C3490840B0F19B
:10225400005F1AD1BF4801F0B8FA0020FFF7C9FAAD
:1022640000F029F8BD48FFF795FB00F048F801217C
:102274000020FFF773FAB948FFF7ACFB4FF47A700C
:10228400FFF790F802F043FC14E00020FFF7B1FAE6
:1022940000F011F8B248FFF77DFB00F030F801219F
:1022A4000020FFF75BFAAE48FFF794FB4FF47A7017
:1022B400FFF778F810BD80B5AA488B4908605FF431
:1022C400E1308949486000208749886000208649B8
:1022D400C8600020844908610020834988610C207B
:1022E40081494861804806F023F97F4806F0E8F800
:1022F400C7227E497C4806F0BEF9002002BD80B5A5
:102304009848794908605FF4E130774948600020D3
:102314007549886000207449C860002072490861CA
:1023240000207149886104206F4948616E4806F0B5
:10233400FFF86D4806F0C4F8C7226C496A4806F0F5
:102344009AF9002002BD01B55FF0FF33012269460E
:10235400654806F012F9009802BDF8B504000D00B6
:1023640000260027082F19D26348F82101FB070033
:1023740006F04EF8020021005F48F82303FB070033
:1023840006F002FD002807D15B48F82101FB070095
:10239400D0F8F000060001E07F1CE3E730000028DD
:1023A40002D02000B04723E00020FFF722FAFFF715
:1023B40082FF21006C48FFF7EDFAFFF7A0FF01212F
:1023C4000020FFF7CBF921006748FFF703FB00204B
:1023D400FFF70FFAFFF76FFF6448FFF7DBFAFFF729
:1023E4008EFF01210020FFF7B9F96048FFF7F2FAE8
:1023F40000273A002900200006F0DAFCF1BD80B580
:1024040034A13B4806F0B8FC002806D0384805F053
:10241400FFFF01003648FFF7A0FF55480078002869
:102424000AD1FFF700FB002806D0314805F0F0FF81
:1024340001002F48FFF791FF00204E49086000205B
:102444002849087000204A49087001BDF8B5040005
:102454000D0047480078002803D02248007842281D
:1024640036D101204249087042480068D0F1C800C2
:10247400EDB2A84204D23F480068D0F1C80005007C
:102484004220184908701A4805F0C2FF0600EDB250
:10249400174837182A002100380005F0D5FF3548C1
:1024A4000068EDB22818334908600020FFF7A1F94D
:1024B400FFF701FF0E483018FFF76CFAFFF71FFF14
:1024C40001210020FFF74AF909483018FFF782FA82
:1024D400F1BD00000A000000C02E002069090020A0
:1024E40068320020EC320020C4300020F82D002097
:1024F4002C2D002040F602080000002060F802089D
:1025040054F6020850F502085CF3020844F7020886
:1025140054F7020868F5020830EF0208B4EF020825
:10252400DCEF020804F0020878F302085000F81FF8
:10253400F4EE020894F3020860EF0208B0F3020814
:1025440084F2020800F2020868F8020870F802082F
:1025540078F80208003800080000FE2F64F702082B
:1025640068F602080044004074F70208CCF302083D
:10257400EB3200206432002010B5DFF8780306F057
:102584004AFCDFF8740306F046FC00200400E4B2C1
:10259400052C0ADADFF86403E4B28C2101FB0401A0
:1025A400D44806F04AFC641CF1E710BD010011F1A7
:1025B40008021078042801D0012008E0907891F8EE
:1025C4008830DB1E984201D0022000E000207047D2
:1025D40030B5A1B00020009002F0B2F9C64806F070
:1025E4001DFC0500EDB2002D14D16946C24806F069
:1025F40032FC02F0A0F90098083003F065FB02F009
:102604009FF90099BB4806F018FCBB4806F006FC8D
:102614000500E7E7BA480078002812D002F08AF8EB
:1026240000280BD0802101A802F090F80400E4B245
:10263400002CF3D001A803F047FBEFE70020B049DA
:10264400087002F078F921B030BD80B5AA4806F0D0
:10265400E5FB02BD10B582B00020009002F075F9D0
:1026640002F068F8002830D0A24806F0D7FB002812
:1026740025D169469F4806F0EEFB8021009808307A
:1026840002F064F80400E4B2002C11D0009880F841
:1026940088400098FFF78AFF002804D100999648E3
:1026A40006F0CBFB08E00099924806F0BFFB03E07C
:1026B4000099904806F0BAFB02F047F9D0E70120F0
:1026C4008F49087002F041F9FFE713BDF8B5040023
:1026D4000D0016001F00FFB23B009BB2F6B23200A1
:1026E40092B22900200001F0BDFFF1BDF0B583B026
:1026F40004000D0016001F00A805800D50EA842078
:10270400ADF804008DF8066001208DF80000032266
:1027140001A90DF1010006F0ADFB3300DBB2042288
:1027240039006846FFF7D2FFF7BD38B504000D0045
:10273400280006F073FB002808D16946280006F03B
:102744008AFB0099200006F078FBF1E731BD2DE902
:10275400F04F89B004000D0060888005800D218849
:1027640050EA8126674800680A21B0FBF1F800208E
:10277400009004A806F04FFBA368E0680200D2B200
:1027840061882088FFF7B2FFEDB2002D40F0A480ED
:10279400B8F1000F01D101208046414607A806F098
:1027A4007FFB07A806F084FB002840F08C80FFF72D
:1027B4004CFF0028F5D102F0C3F869464E4806F0F4
:1027C4004AFB0098083007003878042806D000999E
:1027D40004A806F032FB02F0AEF8E2E7781C06909B
:1027E40000980B308246009890F88800C01E8346FB
:1027F400069800780E2821D00F2804D010284DD038
:102804003E2834D04BE0D146B9F80200B6B2B0420B
:1028140059D160680F2804D099F80000002852D1DB
:102824003DE06069834501DA584600E06069606113
:1028340062695146206906F01DFB4DE0CDF80CA0FD
:102844000398B0F80100B6B2B0423CD11AF1030AC1
:10285400BBF1030B6069834501DA584600E0606907
:10286400606162695146206906F004FB34E0CDF8EA
:1028740004A0019800786168884210D1BBF1010B73
:102884006069834501DA584600E060696061626905
:102894000198411C206906F0EDFA1DE013E000994F
:1028A40004A806F0CAFA134806F0B8FA002807D0BC
:1028B40002A9114806F0CFFA02990E4806F0BDFAB3
:1028C40002F039F86DE704A90B48FFF72EFF02F078
:1028D40032F85FF0FF300AE00099064806F0A6FAE5
:1028E40004A90548FFF721FF02F025F8002009B0EC
:1028F400BDE8F08F0832002010320020702900203B
:10290400ED32002008F902082DE9F0418AB00400F4
:102914000D0016001F00DDF84080092200216846E2
:1029240006F0B3FA1822002103A806F0AEFA042038
:10293400ADF80C000120ADF80E0000200590002039
:1029440006906846079009200890002103A8FFF725
:10295400FEFE002801D5FF2017E09DF800000028A6
:1029640002D09DF8000010E09DF801002070BDF831
:10297400020028809DF804003070BDF805003880FE
:10298400BDF80700A8F8000000200AB0BDE8F081F7
:1029940030B58FB004000D002022002107A806F0F6
:1029A40074FA8DF81C40E4B2202C01DB1F2201E0F4
:1029B400E4B2220029000DF11D0006F05BFA182292
:1029C400002101A806F061FA0820ADF804000920EE
:1029D400ADF8060007A803902020049068460590EF
:1029E40001200690002101A8FFF7B1FE002801D5BF
:1029F400FF2001E09DF800000FB030BD0EB400B51B
:102A040082B003A9009102466B4601210348784431
:102A14000A3006F05DFA06BC5DF810FB09CC000034
:102A24000100C9B20800A02810D0A12810D0B028F5
:102A340010D0B12810D0B32810D0D02802D0D1287B
:102A440002D00DE092480CE092480AE0924808E077
:102A5400924806E0924804E0924802E0924800E07E
:102A6400924870470100012901DB082901DB87A096
:102A740004E08F4810EB810050F8040C704701000B
:102A8400012901DB0D2901DB80A004E0894810EB5A
:102A9400810050F8040C704770B504000025002133
:102AA400854806F0DFFC06000121834806F0DAFCC5
:102AB40086422CD10021804806F0D4FC80B201006B
:102AC400A02912D0A12913D0B02914D0B12915D02E
:102AD400B32916D0D02902D0D12903D014E0012182
:102AE4000D0016E001210D0013E001210D0010E09E
:102AF40001210D000DE002210D000AE002210D006C
:102B040007E002210D0004E000210D0001E0002097
:102B14000500EDB2002D05D12000002802D0A04709
:102B2400012005002800C0B270BD30B587B0040094
:102B34000025614804F06EFA01285AD160798DF8B5
:102B4400030020798DF80100E0788DF80200A07967
:102B54008DF8000000226946574804F0B0F90028B7
:102B640001D055F001052078002803D10C208DF800
:102B740004000DE020780C2801D10C2006E0207818
:102B84000C2801DA207801E020780C388DF8040054
:102B940060788DF80500A0788DF80600207800286C
:102BA40003D140208DF807000CE020780C2801D1D7
:102BB400002005E020780C2801DA002000E0402005
:102BC4008DF807000020049000200590002201A940
:102BD400394804F0E9F8002801D055F00105E279FC
:102BE4000021354806F034FCE2790121324806F030
:102BF4002FFC2800C0B207B030BD30B587B0040048
:102C04000125FF20E0712C4804F004FA012839D191
:102C1400002201A9284806F0C7FB0022694626487D
:102C240004F0CBF99DF80600A0709DF805006070D3
:102C34009DF80700002808D19DF804000C2801D154
:102C440000200BE09DF8040008E09DF804000C2827
:102C540001D10C2002E09DF804000C3020709DF896
:102C64000200E0709DF8010020719DF8030060717E
:102C74009DF80000A07100210F4806F0F3FBE071FD
:102C8400002005002800C0B207B030BD20000000BD
:102C9400E0F50208ACF40208F8F5020804F30208AF
:102CA4001CF70208C8F4020830F7020810F60208FC
:102CB4000C09002028090020603100202DE9F34F81
:102CC4008DB0DFF8140B0088032803DBDFF80C0B4E
:102CD400FEF780FE07A8142106F0CEFB0024002591
:102CE40009208DF81C000622DFF8F41A0DF11D00EE
:102CF40006F0C6FB07A805F08BFB040000210020AA
:102D0400FFF746FE06F039FC06000020069000207E
:102D14000590002004900020039007A80290200052
:102D2400C0B20190002000902B00DBB2BDF8382027
:102D3400BDF83410002006F03DFC06006846DFF8BC
:102D4400A41A102205F090FB00208DF80400002046
:102D54008DF8050000208DF8060000208DF807008E
:102D640000275FF0000857F08007380080B2000A9F
:102D74008DF8040038008DF80500404680B2000A42
:102D84008DF8060040468DF807005FF00609DFF86D
:102D940058AA0DF1080B4A465146584605F054FB13
:102DA400EDB2012D02D107208DF8000069460E20F6
:102DB40006F0FBFC0FB0BDE8F08F10B50400DFF89F
:102DC4002C0A0068002803D00020FEF771FC02E002
:102DD4000020FEF75AFC10BD704780B501F0F5F9EC
:102DE40001F0AEF901F036F800F0B2FF01BD38B5DC
:102DF4000020DFF8FC1908800020DFF8F8190880AB
:102E0400DFF8F4090088042809DADFF8CC0900881F
:102E1400042804DADFF8E409007800282CD0DFF86D
:102E2400D8090088042815DBDFF8D40900680400F9
:102E34000020FEF7DEFCFFF73EFADFF8C809FEF7D4
:102E4400A9FDFFF75CFA01210020FEF787FCDFF8FB
:102E5400B0090460DFF880090088042803DBDFF888
:102E6400A409FEF7B7FDDFF894090078002803D021
:102E7400DFF89009FFF7C2FD00F01FF9DFF87809C9
:102E84000088002804D1DFF85009008800282FD0DA
:102E9400DFF86409008800281BD0DFF864090068A3
:102EA40004000020FEF7A5FCFFF705FADFF844094B
:102EB4000288DFF83C090188DFF84C09FEF76AFD57
:102EC400FFF71DFA01210020FEF748FCDFF8300966
:102ED4000460DFF804090088002809D0DFF8140929
:102EE4000288DFF80C090188DFF81C09FEF772FD7F
:102EF400DFF804090088042809DADFF8DC08008810
:102F0400042804DADFF8F408007800282CD0DFF86D
:102F1400E8080088042815DBDFF8E40800680400EA
:102F24000020FEF766FCFFF7C6F9DFF8E008FEF7BD
:102F340031FDFFF7E4F901210020FEF70FFCDFF873
:102F4400C0080460DFF890080088042803DBDFF879
:102F5400BC08FEF73FFDDFF8A4080078002803D082
:102F6400DFF8A808FFF74AFD00F098F9DFF88808B1
:102F74000088042809DADFF860080088042804DAE5
:102F8400DFF87808007800282CD0DFF86C08008877
:102F9400042815DBDFF86808006804000020FEF749
:102FA40028FCFFF788F9DFF86808FEF7F3FCFFF761
:102FB400A6F901210020FEF7D1FBDFF844080460E4
:102FC400DFF814080088042803DBDFF84408FEF760
:102FD40001FDDFF828080078002803D0DFF8300866
:102FE400FFF70CFD00F0D2FA0520050001200400D3
:102FF4002900C9B22000C0B206F049FC31BD70B549
:1030040084B004000D0001A800900DF10A0302AA87
:103014000DF106010DF10900FFF776FC0600F6B28A
:10302400002E18D1BDF8060080B2000A2070BDF849
:103034000600000228802888BDF80410C9B20909D6
:10304400C9B250EA011028802888BDF8041011F094
:103054000F0108432880FFF7BBFA3000C0B204B068
:1030640070BD80B500208DF800000020ADF802008E
:103074000DF102016846FFF7C2FF9DF800003028F9
:1030840007DA9DF80000002803D00020FEF7E3FAD9
:10309400FEE79DF80000DFF858170880BDF802002D
:1030A400DFF850170880DFF848070088312803D07C
:1030B4000020FEF7D0FAFEE701BDF8B501F0F0FA02
:1030C40001F02DFB0020DFF824170860FFF754FA05
:1030D40001F011FBFFF7C5FF01F00DFBDFF834072A
:1030E40000680500DFF8300700680600DFF82C07E9
:1030F400006807007D19DFF8F0060570280ADFF87C
:10310400E8164870DFF8E0064078290C4840DFF8FC
:10311400D8164870280EDFF8D0168870DFF8C80675
:1031240080787040DFF8C0168870DFF8BC064078FD
:10313400310A4840DFF8B0164870DFF8AC068078F2
:10314400310C4840DFF8A0168870DFF89C068078C0
:10315400310E4840DFF890168870E120DFF88816B9
:10316400C8708020DFF8801608712620DFF87816F2
:1031740048710920DFF8A81608700622DFF86016E7
:10318400DFF8A00606F07CF9DFF85C2606210020B3
:1031940006F041FB0400E4B2002C3CD0DFF85806F2
:1031A4000088042809DADFF830060088042804DAE5
:1031B400DFF84806007800282CD0DFF83C060088A9
:1031C400042815DBDFF83806006805000020FEF748
:1031D40010FBFFF770F8DFF85006FEF7DBFBFFF794
:1031E4008EF801210020FEF7B9FADFF81406056015
:1031F400DFF8E4050088042803DBDFF82C06FEF77B
:10320400E9FBDFF8F8050078002803D0DFF818069A
:10321400FFF7F4FB41E006F061FB0400E4B2002C8C
:103224003BD0DFF8D4050088042809DADFF8A805C4
:103234000088042804DADFF8C405007800282CD0BC
:10324400DFF8B4050088042815DBDFF8B40500684E
:1032540005000020FEF7CDFAFFF72DF8DFF8CC05C6
:10326400FEF798FBFFF74BF801210020FEF776FAF2
:10327400DFF88C050560DFF860050088042803DBAF
:10328400DFF8A805FEF7A6FBDFF870050078002834
:1032940003D0DFF89805FFF7B1FBF1BD30B587B077
:1032A400DFF87C0505F0B4F805A9019104A90091A3
:1032B4000DF11203421ED2B20021012006F016F9CC
:1032C4000400002C3CD0DFF830050088042809DA1B
:1032D400DFF804050088042804DADFF82005007804
:1032E40000282CD0DFF810050088042815DBDFF84F
:1032F4001005006805000020FEF77BFAFEF7DBFFEF
:10330400DFF82C05FEF746FBFEF7F9FF012100204C
:10331400FEF724FADFF8E8040560DFF8BC0400884F
:10332400042803DBDFF80805FEF754FBDFF8CC04C0
:103334000078002803D0DFF8F804FFF75FFB23E1EF
:10334400DFF8DC0405F064F8DFF8D8140091431EBC
:10335400DBB20022BDF81010BDF8120006F0DFFB4E
:103364000400002C3CD0DFF890040088042809DA1B
:10337400DFF864040088042804DADFF880040078A5
:1033840000282CD0DFF870040088042815DBDFF84F
:103394007004006805000020FEF72BFAFEF78BFF8F
:1033A400DFF89004FEF7F6FAFEF7A9FF01210020EA
:1033B400FEF7D4F9DFF848040560DFF81C04008840
:1033C400042803DBDFF86C04FEF704FBDFF82C04AD
:1033D4000078002803D0DFF85C04FFF70FFBFEE75A
:1033E40001200390DFF85004029000200190102087
:1033F4000090072300220021012006F090F9040028
:10340400002C3CD0DFF8F0030088042809DADFF848
:10341400C8030088042804DADFF8E00300780028F1
:103424002CD0DFF8D4030088042815DBDFF8D003A0
:10343400006805000020FEF7DCF9FEF73CFFDFF82A
:10344400FC03FEF7A7FAFEF75AFF01210020FEF75E
:1034540085F9DFF8AC030560DFF87C0300880428F5
:1034640003DBDFF8D803FEF7B5FADFF89003007842
:10347400002803D0DFF8C403FFF7C0FA84E0DFF8C4
:1034840078030088042809DADFF84C03008804284C
:1034940004DADFF868030078002874D0DFF85803F2
:1034A400008804282DDBDFF858030068050000209D
:1034B400FEF79FF9FEF7FFFEDFF82C030078039078
:1034C400DFF8240340780290DFF81C038078019031
:1034D400DFF81403C0780090DFF80C030379DFF8F9
:1034E40008034279DFF83813DFF85403FEF752FA81
:1034F400FEF705FF01210020FEF730F9DFF8000395
:103504000560DFF8D402008804281BDBDFF8D8024A
:1035140000780390DFF8D00240780290DFF8C80208
:1035240080780190DFF8C002C0780090DFF8B8021C
:103534000379DFF8B4024279DFF8E412DFF800031C
:10354400FEF748FADFF8B402007800281BD0DFF851
:10355400980200780390DFF8900240780290DFF838
:10356400880280780190DFF88002C0780090DFF84C
:1035740078020379DFF870024279DFF8A412DFF8E9
:10358400C002FFF73BFAFFE707B030BD38B501F0E2
:10359400C8FE0400002C32D197480088042807DABA
:1035A4008D480088042803DA94480078002825D040
:1035B40091480088042813DB914800680500002026
:1035C400FEF717F9FEF777FEDFF87802FEF7E2F967
:1035D400FEF795FE01210020FEF7C0F8884805603B
:1035E4007D480088042802DB9648FEF7F3F98348F7
:1035F4000078002802D09348FFF700FA30E07E48B4
:103604000088042807DA74480088042803DA7B4811
:103614000078002824D078480088042812DB7848F1
:10362400006805000020FEF7E4F8FEF744FE864833
:10363400FEF7B0F9FEF763FE01210020FEF78EF8D5
:103644006F48056064480088042802DB7E48FEF762
:10365400C1F96A480078002802D07B48FFF7CEF908
:1036640001F088FD0400002C31D16348008804284F
:1036740007DA59480088042803DA604800780028EB
:1036840024D05D480088042812DB5D4800680500EA
:103694000020FEF7AEF8FEF70EFE6C48FEF77AF94E
:1036A400FEF72DFE01210020FEF758F8544805606E
:1036B40049480088042802DB6448FEF78BF94F4828
:1036C4000078002802D06148FFF798F930E04A48B2
:1036D4000088042807DA40480088042803DA4748A9
:1036E4000078002824D044480088042812DB444889
:1036F400006805000020FEF77CF8FEF7DCFD544866
:10370400FEF748F9FEF7FBFD01210020FEF726F83D
:103714003B48056030480088042802DB4C48FEF72B
:1037240059F936480078002802D04948FFF766F96D
:1037340031BD10B530480088042807DA26480088CF
:10374400042803DA2D480078002824D02A48008869
:10375400042812DB2A48006804000020FEF749F818
:10376400FEF7A9FD3B48FEF715F9FEF7C8FD012158
:103774000020FDF7F3FF224804601748008804285E
:1037840002DB3448FEF726F91C480078002802D0F2
:103794003048FFF733F930495FF0FF3000F064F848
:1037A4002E4908702C48006800F0D4F85FF081417D
:1037B4002948006800F04EF929492748006800F0BC
:1037C4002FF9002000F0C2FA10BD01B504226946A9
:1037D4002448FEF7A9F801BD6409002074F4020826
:1037E400A8F80208D4F7020840320020483200202A
:1037F400E0320020E232002066090020F43200208A
:103804009C320020E0F60208C4F20208B0F5020877
:10381400E4F202085000F81F5400F81F6400F81F77
:10382400383200203932002090F40208C8F502082A
:10383400F4F602082CF0020840E2010054F00208F9
:1038440014EE02087CF00208A4F00208CCF002088E
:10385400F4F0020808F7020880320020F632002053
:103864000000D042F80F080838B504000D0064B217
:10387400002C07D0280000F010F8012801D1012005
:103884000AE006E0280000F008F8012801D1012030
:1038940002E006F03BFA002032BD2DE9F0410400BD
:1038A4004448C078012801D1002051E0002506F0E9
:1038B40075FB012801D101204AE069203D490870C7
:1038C400D4203C49487000203A4988700020394986
:1038D400C8700020374908710120364948713648BC
:1038E4003449886035483349C860354831490861EE
:1038F40034483149086000202F4948602D48206031
:103904002068C0680500286800280CD11426002708
:10391400D4F800803A003100404605F049FA00200E
:103924002060012014E020682968884701280CD110
:1039340014260027D4F800803A003100404605F0F0
:1039440037FA00202060012002E006F0DFF90020B1
:10395400BDE8F08170B5040025000026002D01D1DA
:1039640001200EE0E8680600B068002801D10120BB
:1039740007E02800B1688847012801D1012000E050
:10398400002070BD70B5040025000026002D01D173
:1039940001200EE0E8680600F068002801D101204B
:1039A40007E02800F1688847012801D1012000E0E0
:1039B400002070BDC03100203032002054080020A7
:1039C400C0070020B832002002001300002B01D1F0
:1039D400012006E0002901D1012002E0D878087016
:1039E40000207047F8B504000D0026000027002EC3
:1039F40001D1012013E0F0680700002D01D101205E
:103A04000DE0B869002801D1012008E02900300048
:103A1400BA699047012801D1012000E00020F2BDDD
:103A2400F8B504000D0026000027002E01D1012066
:103A34000FE0F0680700F86A002801D1012008E0CF
:103A440029003000FA6A9047012801D1012000E0E2
:103A54000020F2BDF8B504000D0026000027002E5A
:103A640001D101200FE0F0680700B86B002801D1F4
:103A7400012008E029003000BA6B9047012801D1E9
:103A8400012000E00020F2BD002840F10780F44648
:103A9400404200F003F850F0004060470AD0B0FA0A
:103AA40080F18840D1F19D01C905020672F10042FE
:103AB40041EB10207047F0B401684468836809182A
:103AC40001EB5402E40748BF4B440C3091422BD025
:103AD40011F8014B14F0030504BF11F8015BED1C50
:103AE40026090F2E07D111F8016B0F3603E011F8E8
:103AF400017B03F8017B6D1EF9D1002EE6D0A408EA
:103B040011F8015B04F00304032C08BF11F8014B06
:103B140005EB04241C1BB51CD8D014F8016B03F866
:103B2400016B6D1EF9D1D1E7F0BC704770B504008C
:103B340025000026002D01D101200EE0E8680600D2
:103B4400F068002801D1012007E02800F1688847C7
:103B5400012801D1012000E0002070BD0200130003
:103B6400002B01D1012006E0002901D1012002E04F
:103B7400D878087000207047F8B504000D002600BE
:103B84000027002E01D1012013E0F0680700002D6A
:103B940001D101200DE0B869002801D1012008E01D
:103BA40029003000BA699047012801D1012000E0C2
:103BB4000020F2BD70B5040025000026002D01D1BF
:103BC40001200EE0E8680600F068002801D1012019
:103BD40007E02800F1688847012801D1012000E0AE
:103BE400002070BD02001300002B01D1012006E06B
:103BF400002901D1012002E0D87808700020704724
:103C0400F8B504000D0026000027002E01D1012084
:103C140013E0F0680700002D01D101200DE0B86920
:103C2400002801D1012008E029003000BA6990473A
:103C3400012801D1012000E00020F2BD70B504008C
:103C440025000026002D01D101200EE0E8680600C1
:103C5400F068002801D1012007E02800F1688847B6
:103C6400012801D1012000E0002070BD02001300F2
:103C7400002B01D1012006E0002901D1012002E03E
:103C8400D878087000207047F8B504000D002600AD
:103C94000027002E01D1012013E0F0680700002D59
:103CA40001D101200DE0B869002801D1012008E00C
:103CB40029003000BA699047012801D1012000E0B1
:103CC4000020F2BD70B5040025000026002D01D1AE
:103CD40001200EE0E8680600B068002801D1012048
:103CE40007E02800B1688847012801D1012000E0DD
:103CF400002070BD02001300002B01D1012006E05A
:103D0400002901D1012002E0D87808700020704712
:103D1400F8B504000D0026000027002E01D1012073
:103D240013E0F0680700002D01D101200DE0B8690F
:103D3400002801D1012008E029003000BA69904729
:103D4400012801D1012000E00020F2BD7047704736
:103D540080B5DFF88C030068804701BD38B50124C5
:103D6400DFF87C034068002829D05FF0FF35DFF8D6
:103D74007003406880470500002D17D5012004001A
:103D8400DFF860030078C0B250F48070DFF8541399
:103D94000880DFF850030088401CDFF848130988C6
:103DA40060F30701DFF83C03018008E00020040011
:103DB400DFF830030078C0B2DFF828130880200051
:103DC400C0B232BD10B50124DFF81403C068002866
:103DD40004D0DFF80C03C068804704002000C0B2A0
:103DE40010BD10B50124DFF8F802C06C002804D01F
:103DF400DFF8EC02C06C804704002000C0B210BDA4
:103E040010B50024DFF8D8020069002804D0DFF8D8
:103E1400D002006980470400200010BD10B50024C2
:103E2400DFF8BC028069002804D0DFF8B40280699E
:103E340080470400200010BD10B50024DFF8A00264
:103E4400006A002804D0DFF89802006A8047040062
:103E5400200010BD80B500F07DF800F001F801BD30
:103E640000B587B0A048006850F002009E49086081
:103E74009D48006810F00200009000984FF4004044
:103E840001909A4802900020039001A9984800F0FC
:103E94000DFA00220F21282000F018FE282000F03F
:103EA40028FE07B000BD80B54FF40041904800F0F3
:103EB40084FB02BDFEB504000D00160000278948EE
:103EC400008880B2000A80B2012801D100F0B6F85F
:103ED400884800680290300080B201900094012369
:103EE400EDB22A0092B2E021834806F009FA0700F5
:103EF400FFB2002F04D000F0A1F85FF0FF3000E023
:103F04000020FEBDFEB504000D0016000027754814
:103F1400008880B2000A80B2012801D100F08EF836
:103F2400744800680290300080B20190009401232C
:103F3400EDB22A0092B2E0216F4806F0B1FA070010
:103F4400FFB2002F04D000F079F85FF0FF3000E0FA
:103F54000020FEBD80B5684806F02AFC002814D174
:103F64006648654948600020634988603320624997
:103F7400C8604FF480406049086161485E49086048
:103F840000F066F85C4806F0D3F801BD70B5040093
:103F94005C480068401C5B4908605548006805009F
:103FA40035F4403555F48035514805606420FDF7FB
:103FB400F9F935F4403555F400354D48056052485B
:103FC4000088042807DA51480088042803DA504896
:103FD400007800282AD04C480088042814DB4D4877
:103FE400006806000020FDF704FCFEF764F945486C
:103FF40001684948FDF7CEFCFEF781F90121002054
:10400400FDF7ACFB4348066040480088042804DB05
:104014003C4801684048FDF7DDFC3D480078002835
:1040240004D0384801683C48FEF7E8FC2D48007885
:10403400C0B250F480702B49088070BD80B52E4802
:1040440006F030F90020FFF7A1FFFFF783FF01BD61
:1040540000B587B02448006850F002002249086087
:104064002148006810F00200009000984FF440705E
:10407400019012200290022004900020039004205A
:10408400059001A91A4800F011F92448006850F479
:104094000010224908602148006810F400100090C4
:1040A40000981F48006850F400101D4908601C481F
:1040B400006830F400101A490860002200211F2013
:1040C40000F004FD1F2000F014FD00220021202038
:1040D40000F0FCFC202000F00CFD07B000BD000047
:1040E4009C080020E43200201C380240000021100B
:1040F4000004024008090020D82F0020A0860100F7
:1041040000540040BC3200206609002064090020ED
:10411400F43200209C3200201CF1020824380240B2
:104124001838024080B5012202215C4800F051FA9F
:1041340001BD80B500220221584800F04AFA01BDB1
:1041440000B587B05648006850F004005449086030
:104154005348006810F0040000900098504800682C
:1041640050F004004E4908604D48006810F0040007
:10417400009000984A48006850F0040048490860DC
:104184004748006810F004000090009801220221C2
:10419400424800F01EFA0420019000200290002002
:1041A40003902020019001A93C4800F07FF80220F0
:1041B400019001200290002003900220049001A9A4
:1041C400364800F073F807B000BD00B587B0344836
:1041D400006850F00400324908603148006810F06B
:1041E400040000900098102001900120029000200B
:1041F40003900220049001A9284800F057F80022F7
:104204001021264800F0E5F907B000BD80B5012271
:104214001021224800F0DDF901BD80B5FDF7C1F998
:1042240020490968884216D3FDF70FFB002812D0F5
:10423400FDF7B7F91B49096811F57A71814208D273
:10424400FFF770FFFDF7ADF9174908181549086025
:1042540001E0FFF76EFF01BD10B5FF24FDF7F5FA8D
:10426400002802D1012004000FE000F011F8C0B2D0
:10427400002802D103210C0007E0C0B2012802D1BA
:1042840002210C0001E0FF210C002000C0B210BD8F
:1042940080B50421014800F090F902BD00080240F5
:1042A4001C38024004090020C027090078B4002209
:1042B400002300240D68D540002D00F0DE800D6839
:1042C4000126964035402B00002B00F0D4804D6829
:1042D400022D02D04D68122D16D1D50810EB85059C
:1042E4002D6A2C000F2512F00706F6B2B600B54071
:1042F400AC430D6912F00706F6B2B600B5402C4384
:10430400D50810EB85052C6205682C0003251600E2
:10431400F6B27600B540AC430D7915F003051600EE
:10432400F6B27600B5402C4304604D68012D08D0E8
:104334004D68022D05D04D68112D02D04D68122D07
:1043440019D185682C0003251600F6B27600B54015
:10435400AC43CD681600F6B27600B5402C438460B9
:1043640045682C0001259540AC434D68C5F3001504
:1043740095402C434460C5682C0003251600F6B212
:104384007600B540AC438D681600F6B27600B540B1
:104394002C43C4604D68ED006DD59D4D2D6855F0DE
:1043A40001059B4E35609A4D2D6815F00105009569
:1043B400009D984D960855F826502C000F2512F0B4
:1043C4000306F6B2B600B540AC43934DA84201D102
:1043D40000251EE0914DA84201D1012519E0904D20
:1043E400A84201D1022514E08E4DA84201D1032533
:1043F4000FE08D4DA84201D104250AE08B4DA8425F
:1044040001D1052505E08A4DA84201D1062500E029
:10441400072512F00306F6B2B600B5402C437D4DD5
:10442400960845F82640834D2D682C009C434D6822
:10443400ED0300D51C437F4D2C607F4D2D682C006F
:104444009C434D68AD0300D51C437B4D2C607B4DD4
:104454002D682C009C434D68ED0200D51C43774D1C
:104464002C60774D2D682C009C434D68AD0200D51F
:104474001C43734D2C60521C1CE771BC7047F0B494
:104484000022002300240D00D540002D00F093806D
:10449400012595400D402B00002B00F08A80056813
:1044A40003261700FFB27F00BE40B5430560D50860
:1044B40010EB8505D60810EB8606366A0F2712F036
:1044C400070C5FFA8CFC5FEA8C0C17FA0CF7BE43FE
:1044D4002E62856803261700FFB27F00BE40B543F5
:1044E4008560456801269640B5434560C568032646
:1044F4001700FFB27F00BE40B543C560454D960826
:1045040055F826502C000F2512F00306F6B2B6001B
:10451400B5402C40404DA84201D100251EE03F4D3E
:10452400A84201D1012519E03D4DA84201D102253F
:1045340014E03C4DA84201D103250FE03A4DA842B6
:1045440001D104250AE0394DA84201D1052505E031
:10455400374DA84201D1062500E0072512F00306D5
:10456400F6B2B600B540AC4223D10F2512F00306D3
:10457400F6B2B600B5402C00264D960855F82650E4
:10458400A543244E970846F827502A4D2D689D438D
:10459400284E3560284D2D689D43274E3560274DA4
:1045A4002D689D43254E3560254D2D689D43244E31
:1045B4003560521C67E7F0BC70470200136989B28A
:1045C4000B4202D00123180001E000231800C0B2FE
:1045D4007047D2B2002A02D089B2816102E089B266
:1045E4000B0483617047426989B24A404261704753
:1045F40010B5040013480068A4B2204206D0A4B247
:1046040010480460200080B2FCF7DAFE10BD000000
:10461400203802400800014000000240000402402B
:1046240000080240000C0240001002400014024046
:104634000018024000040140040401400804014041
:104644000C0401401404014081B000200090009843
:10465400B0F5D27F04DA00BF0098401C0090F6E762
:1046640001B07047F0B583B004000D0016001F00C0
:10467400B94800680A21B0FBF1F1684604F010FC67
:104684003B00DBB23200D2B22900200000F0B9F8BE
:10469400002804D0684604F00BFC0028F0D0F7BDD5
:1046A40080B5AE48AE4908604FF48270AC494860AA
:1046B4000020AB4988600020A949C8600020A849AF
:1046C40008610020A64948614FF40070A44988613C
:1046D4000020A34908620020A14948620720A0499C
:1046E400C86208209E49C86100209D4988629C4890
:1046F40006F0BDFA01BD80B500224FF4007199485F
:10470400FFF767FF0520FCF74DFE01224FF400710F
:104714009448FFF75EFF0520FCF744FE01BD80B519
:1047240000224FF400718F48FFF753FF0520FCF778
:1047340039FE01BD80B54FF400518B48FFF73DFFB2
:10474400012801D1012000E0002002BDF0B587B0AE
:1047540004000D000027FF208DF8050004A88349FC
:104764000CC90CC008390838002208217E48FFF71C
:1047740030FF0F200090052302AA04A9784806F010
:10478400D9FC9DF80800022828D19DF80C009DF85A
:104794000B1051EA00200600B6B2002E1ED02800ED
:1047A400C0B280B2B6B2B04201D2EDB22E00002047
:1047B40007003800C0B280B2B6B2B0420ED20F20A9
:1047C4000090012301AA0DF10501654806F0B2FC31
:1047D4009DF80400FFB238557F1CEAE70122082146
:1047E4006148FFF7F6FE002000900098022804DAE2
:1047F40000BF0098401C0090F7E7FFB2380007B0F4
:10480400F0BD2DE9F043C5B004000D0016001F00F3
:104814005FF000085FF0000903A855490CC90CC0FB
:104824000839083801A853490CC90CC0083908389C
:1048340000F086F8B9F1000F03D000F04CF8FFF750
:1048440003FF002208214848FFF7C3FE0F20009011
:10485400052301AA03A9424806F06CFCB9F1000F34
:1048640001D000F04FF89DF80400022825D19DF8EE
:104874000500F6B2FFB2B91988421ADBF6B2002E6F
:1048840009D00F200090F6B233009BB205AA210094
:10489400334806F04FFCFFB2002F11D00F200090D8
:1048A400FFB23B009BB205AA29002D4806F042FC4A
:1048B40006E07FF00100804602E05FF0FF308046B2
:1048C400012208212848FFF784FE00F034F840460E
:1048D40045B0BDE8F08300B585B04FF400500090BA
:1048E40001200190032003900020029069461E4895
:1048F400FFF7DCFC01224FF400511B48FFF769FE6F
:1049040005B000BD00B585B04FF4005000901A48C2
:104914000190022002900320039000200490694635
:104924001148FFF7C3FC0020029069460E48FFF7C8
:10493400BDFC05B000BD80B5282000F0DAF801BD4B
:1049440080B5282000F0DCF801BD4FF400500B497D
:10495400086070470000000008F9020800300140B8
:10496400282F0020000002400008024088F80208B6
:1049740090F8020898F8020800001110140401408D
:104984000D4A12689208920002430B4B1A600B4ABC
:10499400126852F00402094B1A60C9B2012901D10C
:1049A40030BF02E040BF20BF20BF044A126832F08B
:1049B4000402024B1A6070470070004010ED00E0E2
:1049C40010F007025F4B1B6819004FF6FF031940F4
:1049D4005D4B53EA022319435A4B196070475948F7
:1049E4000068C0F302207047012110F01F029140BB
:1049F400564A40B2430942F823107047012110F08F
:104A04001F029140524A40B2430942F823107047B2
:104A140010B440B2002808D50A014E4B40B210F041
:104A24000F04E31803F8042C03E00A014A4B40B2D4
:104A3400C25410BC704770B4030013F00704D4F1DF
:104A44000706052E01D3042001E0D4F10700261D3A
:104A5400072E01D2002500E0E51E012616FA00F01B
:104A6400401E0840A8400121A940491E11400843A6
:104A740070BC7047BFF34F8F3248006810F4E06099
:104A8400364908432F490860BFF34F8F00BFFDE745
:104A940010B50400601EB0F1807F01D301200EE048
:104AA400601E2F4908600F215FF0FF30FFF7B0FF51
:104AB40000202C49086007202B490860002010BD05
:104AC40010B504002000FFF77BFF10BDF8B504000B
:104AD4000D0016000027FFF782FF070032002900AF
:104AE4003800FFF7A8FF0100200040B2FFF790FF55
:104AF400F1BD10B50400200040B2FFF775FF10BDF2
:104B040010B50400200040B2FFF778FF10BD80B557
:104B1400FFF7B0FF01BD10B504002000FFF7B8FF98
:104B240010BD042806D11049096851F004010E4A49
:104B3400116005E00C49096831F004010A4A11606A
:104B4400704700000CED00E00000FA0500E100E011
:104B540080E100E018ED00E000E400E00400FA0564
:104B640014E000E018E000E010E000E040000DD2A6
:104B7400010E7F390AD4D1F11F0104D4C00140F0E1
:104B84000040C84070477FF0000070470020704725
:104B94004100090E7F3915D4D1F11F0114D440000E
:104BA40007D2C00140F00040C84048BF6FF0004049
:104BB4007047C00140F00040C8404CBF4FF0004077
:104BC400404270470020704700424FF0004058BFF9
:104BD400C043704710B5FF2313EAD0541DBF13EA36
:104BE400D1529C429A4239E0A41ADA0780EA0103BE
:104BF400134042EA012142EA0020421A3CBF641EEB
:104C040001EB4202090AB2FBF1FE01FB1E22120271
:104C1400B2FBF1F001FB10226EF30F201202B2FB83
:104C2400F1FE4EEA00207F3406DDFE2C24DA53EA3E
:104C3400500050EBC45010BDD4F1020401FB1E22FD
:104C440040F08071192C1DDC21FA04F0C4F1200419
:104C5400A140114371F10042584110BD9C421ABF5A
:104C640003EAD1529A420FE080EA010E0EF00043AB
:104C7400400004D0490016D143F0FF4010BD490064
:104C840008BFD343180010BD9C4205D1D21AF7D0F7
:104C940001F00041484010BD4A0212BF0846484096
:104CA40000F0004010BD4AB90902B1FA81F2914006
:104CB40044B1A418C00140F000409EE7C90141F08E
:104CC400004152420002B0FA80F4A040141B94E761
:104CD4002DE9F84304000D0016001F00DDF82080C4
:104CE4005FF06409DFF8F00C0068012807DBDFF8E7
:104CF400E80C0068401EDFF8E01C086015E0CDF801
:104D040000803B00DBB23200D2B2290089B220001D
:104D140080B204F004FF81465FFA89F9B9F1000F0B
:104D240003D00320DFF8B01C08604846C0B2BDE8D9
:104D3400F28310B582B0DFF8A00B0090DFF89C0B73
:104D440003780022DFF8980B0188DFF89C0D0088B7
:104D5400FFF7BEFF0400E4B2002C01D0472000E0BE
:104D6400002016BD38B5DFF87C0B0090DFF8780B17
:104D740003780022DFF8740B0188DFF86C0D0088DB
:104D8400FFF7A6FF0400E4B2002C53D0DFF84C0C6C
:104D94000068002810D0DFF8541DDFF8440C06F03A
:104DA400F7FBDFF8401C0870DFF8380C0178DFF8F7
:104DB400300C00F0FEF83BE0DFF82C0C00880428EF
:104DC40009DADFF8280C0088042804DADFF8200C5C
:104DD400007800282CD0DFF8100C0088042815DB9C
:104DE400DFF8100C006805000020FCF702FDFDF759
:104DF40062FADFF8F80CFCF7CDFDFDF780FA01212B
:104E04000020FCF7ABFCDFF8EC0B0560DFF8DC0BF3
:104E14000088042803DBDFF8D40CFCF7DBFDDFF8A3
:104E2400D00B0078002803D0DFF8C00CFDF7E6FDB6
:104E3400472000E0002032BD70B584B004000D00AE
:104E44000120DFF8B41B0860DFF8B00B0580DFF841
:104E5400980B0088042809DADFF8900B00880428EE
:104E640004DADFF88C0B0078002847D0DFF8780BE1
:104E7400008804281EDBDFF87C0B00680600002095
:104E8400FCF7B7FCFDF717FA2078029060780190E0
:104E9400A0780090E37822796179DFF8640BFCF75D
:104EA40079FDFDF72CFA01210020FCF757FCDFF80F
:104EB400440B0660DFF8340B008804280CDB2078F0
:104EC400029060780190A0780090E378227961796B
:104ED400DFF82C0BFCF77EFDDFF8140B00780028BC
:104EE4000CD02078029060780190A0780090E3784C
:104EF40022796179DFF8080BFDF780FD0020DFF8E7
:104F0400F01B08807FBD10B50020DFF8EC1A0860A4
:104F1400DFF8D40A0088042809DADFF8D00A008808
:104F2400042804DADFF8C80A007800282CD0DFF857
:104F3400B80A0088042815DBDFF8B80A0068040002
:104F44000020FCF756FCFDF7B6F9DFF8A80BFCF7D8
:104F540021FDFDF7D4F901210020FCF7FFFBDFF868
:104F6400940A0460DFF8840A0088042803DBDFF86D
:104F7400840BFCF72FFDDFF8780A0078002803D0B3
:104F8400DFF8700BFDF73AFD0120DFF86C1B0870A9
:104F94000020DFF8681B08600020DFF8641B08604D
:104FA4000020DFF8201D08600020DFF8441B088083
:104FB40010BD2DE9F04782B004000D000020070069
:104FC400FFB2EDB2AF422FD2E81B80465FFA88F8F9
:104FD400B8F1150F02DB5FF01408FFE75FFA88F8F9
:104FE400FFB217EB0409DFF8F0A8424649465046E1
:104FF40003F02AFADFF8E40880F80080FFB23819D9
:1050040000904346DBB20022DFF8D4080188DFF8C1
:10501400D80A0088FFF75CFE0600F6B2002E01D025
:10502400472002E01437CBE70020BDE8F6872DE9DE
:10503400F04782B004000D0000200700FFB2EDB27B
:10504400AF4280F09480E81B80465FFA88F8B8F19C
:10505400150F02DB5FF01408FFE75FFA88F8FFB270
:1050640017EB0409DFF87CA842464946504603F092
:10507400EBF9DFF8740880F80080DFF8880A00682C
:10508400002872D0DFF8800A0078FCF78BF9FFB2B1
:10509400381900904346DBB20022DFF8500801883B
:1050A400DFF8440A0088FFF713FE0600F6B2002E6C
:1050B4005BD0DFF8540A0078401CDFF84C1A087003
:1050C400DFF818090068002810D0DFF8201ADFF88C
:1050D400100906F05DFADFF80C190870DFF804090E
:1050E4000178DFF8FC08FFF764FF3CE0DFF8F8081C
:1050F4000088042809DADFF8F4080088042804DAB0
:10510400DFF8EC08007800282DD0DFF8DC080088F0
:10511400042816DBDFF8DC08006881460020FCF771
:1051240068FBFDF7C8F8DFF8C409FCF733FCFDF7AA
:10513400E6F801210020FCF711FBDFF8B808C0F8FD
:105144000090DFF8A8080088042803DBDFF89C0936
:10515400FCF740FCDFF898080078002803D0DFF85B
:105164008C09FDF74BFC472002E0143766E700206A
:10517400BDE8F68710B58AB01B208DF81800C5204D
:105184008DF81900D5208DF81A00A5208DF81B0084
:1051940002208DF81C0000208DF81D00B4208DF82D
:1051A4001E009A208DF81F00E1208DF820001120A8
:1051B4008DF821000E208DF8220000208DF82300A8
:1051C40000208DF8240000208DF8250000208DF8A3
:1051D400260000208DF82700DFF80C090090082332
:1051E400012206A9022004F097FB0400E4B2002C7B
:1051F40040F094801B208DF81800C5208DF819000C
:10520400D5208DF81A00A5208DF81B0002208DF8FA
:105214001C0000208DF81D0036208DF81E00AC20E7
:105224008DF81F00E1208DF8200011208DF8210059
:105234000E208DF8220000208DF8230001208DF827
:10524400240000208DF8250000208DF82600002081
:105254008DF82700DFF894060590012004901020B3
:10526400039005200290002001901E20009014233A
:1052740006AA0221DFF87008008804F0B4FB0400D9
:10528400E4B2002C4AD11B208DF81800C5208DF8FB
:105294001900D5208DF81A00A5208DF81B000220D6
:1052A4008DF81C0000208DF81D0036208DF81E009E
:1052B400AC208DF81F00E1208DF8200011208DF81E
:1052C40021000E208DF8220000208DF823000220FA
:1052D4008DF8240000208DF8250000208DF826008C
:1052E40000208DF82700DFF8F805059001200490D0
:1052F40010200390042002900020019012200090BE
:10530400142306AA0221DFF8E007008804F06BFBEF
:105314000400E4B2002C01D1002000E047200AB0D0
:1053240010BD30B58BB01B208DF81800C5208DF84A
:105334001900D5208DF81A00A5208DF81B00022035
:105344008DF81C0000208DF81D00B4208DF81E007F
:105354009A208DF81F00E1208DF8200011208DF88F
:10536400210001208DF8220000208DF82300002068
:105374008DF8240000208DF8250000208DF82600EB
:1053840000208DF827000625DFF8700A0090EDB2A2
:10539400032000FB05F0401C0300DBB2012206A938
:1053A400022004F0B9FA0400E4B2002C40F0288191
:1053B4001B208DF81800C5208DF81900D5208DF814
:1053C4001A00A5208DF81B0002208DF81C00002077
:1053D4008DF81D0036208DF81E00AC208DF81F00BE
:1053E400E1208DF8200011208DF8210001208DF896
:1053F400220000208DF8230000208DF824000020D6
:105404008DF82500E0208DF8260000208DF8270077
:10541400DFF8EC090590002004901020039004208C
:1054240002900020019012200090142306AA022169
:10543400DFF8C809008804F0D6FA0400E4B2002CAE
:1054440040F0DE801B208DF81800C5208DF819006F
:10545400D5208DF81A00A5208DF81B0002208DF8A8
:105464001C0000208DF81D0036208DF81E00AC2095
:105474008DF81F00E1208DF8200011208DF8210007
:1054840001208DF8220000208DF8230000208DF8E3
:10549400240000208DF8250010208DF8260000201F
:1054A4008DF82700DFF85C09059000200490102097
:1054B4000390042002900020019012200090062303
:1054C40006AA0221DFF83409008804F08CFA0400EB
:1054D400E4B2002C40F094801B208DF81800C52005
:1054E4008DF81900D5208DF81A00A5208DF81B0021
:1054F40002208DF81C0000208DF81D0036208DF848
:105504001E00AC208DF81F00E1208DF82000112032
:105514008DF8210001208DF8220000208DF8230051
:1055240000208DF8240000208DF8250004208DF83B
:10553400260000208DF82700DFF8CC080590002015
:105544000490102003900420029000200190122067
:105554000090042306AA0221DFF8A008008804F0C2
:1055640042FA0400E4B2002C4AD11B208DF8180042
:10557400C5208DF81900D5208DF81A00A5208DF8C6
:105584001B0002208DF81C0000208DF81D00362021
:105594008DF81E00AC208DF81F00E1208DF820004E
:1055A40011208DF8210001208DF8220000208DF8B3
:1055B400230000208DF8240000208DF8250002200F
:1055C4008DF8260000208DF82700DFF840080590AC
:1055D40000200490102003900420029000200190E9
:1055E40012200090092306AA0221DFF8100800887F
:1055F40004F0F9F90400E4B2002C01D1002000E029
:1056040047200BB030BD2DE9FF4104000D0016000A
:105614001F00DFF8DC0400888DF80400DFF8D004F4
:10562400008880B2000A8DF8050020008DF806007D
:1056340024B220128DF8070028008DF808002DB23E
:1056440028128DF8090030008DF80A0036B23012A5
:105654008DF80B008DF80C7000208DF80D008DF87E
:105664000C7001A8009009230022DFF8A00701882C
:10567400DFF888070088FFF72BFB80465FFA88F87D
:10568400B8F1000F01D0472000E0002004B0BDE8CD
:10569400F0812DE9F04186B004000D001600DFF81A
:1056A400500400888DF80400DFF84404008880B2B8
:1056B400000A8DF8050020888DF80600B4F9000072
:1056C40000128DF8070060888DF80800B4F9020014
:1056D40000128DF80900A0888DF80A00B4F90400BE
:1056E40000128DF80B0028888DF80C00B5F9000025
:1056F40000128DF80D0068888DF80E00B5F90200CF
:1057040000128DF80F00A8888DF81000B5F9040078
:1057140000128DF8110030888DF81200B6F90000DF
:1057240000128DF8130070888DF81400B6F9020089
:1057340000128DF81500B0888DF81600B6F9040033
:1057440000128DF8170001A8009014230022DFF83E
:10575400B0060188DFF8A4060088FFF7B9FA07004D
:10576400FFB2002F47D09D48006800280CD0DFF816
:10577400A0169B4805F00CFF9A49087099480178D7
:105784009748FFF716FC34E097480088042807DAA6
:1057940096480088042803DA95480078002828D021
:1057A40091480088042814DB924800688046002051
:1057B400FCF71FF8FCF77FFDDFF85406FCF7EAF866
:1057C400FCF79DFD01210020FBF7C8FF8948C0F8C4
:1057D400008086480088042803DBDFF83406FCF7E1
:1057E400F9F883480078002803D0DFF82406FDF791
:1057F40005F9472000E0002006B0BDE8F0817CB543
:105804000400BB4800888DF80400B948008880B2C1
:10581400000A8DF8050020008DF8060024B220123D
:105824008DF8070001A8009004230022DFF8D805B2
:105834000188DFF8C8050088FFF74AFA0500EDB2D1
:10584400002D46D0B148006800280CD0DFF8C415FC
:10585400AF4805F09DFEAF490870AE480178AC48EA
:10586400FFF7A7FB33E0AC480088042807DAAB480D
:105874000088042803DAAA480078002827D0A6481C
:105884000088042813DBA748006806000020FBF703
:10589400B0FFFCF710FDDFF87C05FCF77BF8FCF7A4
:1058A4002EFD01210020FBF759FF9E4806609B480E
:1058B4000088042803DBDFF85C05FCF78BF89848C4
:1058C4000078002803D0DFF84C05FDF797F847204F
:1058D40000E0002076BD000098310020E83200206E
:1058E400D2320020AC310020E9320020D032002036
:1058F40070B584B004007E4800888DF804007C48AC
:10590400008880B2000A8DF8050020008DF806009A
:1059140020128DF8070020148DF8080020168DF849
:10592400090001A8009006230022DFF8D8040188AA
:10593400DFF8C8040088FFF7CBF90500EDB2002DAD
:1059440046D07248006800280CD0DFF8CC147048A8
:1059540005F01EFE6F4908706E4801786C48FFF729
:1059640028FB33E06C480088042807DA6B48008879
:10597400042803DA6A480078002827D0664800889B
:10598400042813DB6748006806000020FBF731FF9A
:10599400FCF791FCDFF88004FBF7FCFFFCF7AFFC9D
:1059A40001210020FBF7DAFE5E4806605B480088B0
:1059B400042803DBDFF86004FCF70CF8584800788F
:1059C400002803D0DFF85004FDF718F8472000E062
:1059D400002004B070BD0000603200204C32002072
:1059E4002C2C0020E73200206609002064090020E6
:1059F400F43200209C32002048320020C0320020C3
:105A040094F1020810B50400A4B2DFF8F40300888E
:105A1400401C844208D1DFF80424DFF80414DFF8C2
:105A24000404FFF736FE54E0A4B2DFF8DC03008878
:105A3400401C844206D1DFF8F003006800B2FFF78F
:105A4400DEFE46E0A4B2DFF8C4030088401C8442B2
:105A540016D1DFF8D8030378DFF8D403B0F90000D7
:105A6400020012B2DFF8CC03B0F90000010009B261
:105A7400DFF8C403B0F9000000B2FFF7C4FD28E06A
:105A8400A4B2DFF880030088401C844205D1DFF80B
:105A9400AC030068FFF72CFF1BE0A4B2DFF8A003FF
:105AA4000088401C844202D1FFF743F911E0A4B2FC
:105AB400DFF890030088401C84420AD1FFF752F9B2
:105AC400002806D0DFF880030078401CDFF8781344
:105AD4000870DFF878030088002804D0DFF86C032E
:105AE400008804F0EEF810BDCE32002044F2020823
:105AF400D432002038F5020868090020543200200E
:105B04005832002050320020EA3200204C3200206B
:105B14002C2C0020E73200206609002064090020B4
:105B2400F43200209C320020F8B504000D00160069
:105B3400A4B2C7480088801C844200F0C280A4B28A
:105B4400AF480088801C84420ED12878012803D1F4
:105B540001205C490860B4E02878002840F0B18056
:105B6400002058490860ACE0A4B2A7480088801C13
:105B740084420ED12878012803D10120B549086058
:105B84009FE02878002840F09C800020B1490860FC
:105B940097E0A4B29B480088801C84420ED12878E8
:105BA400012803D10120AC4908608AE02878002844
