:020000040800F2
:10000000C0060020A51D0008D11C0008D31C000854
:10001000F51C0008F71C0008F91C0008000000008F
:10002000000000000000000000000000FB1C0008B1
:10003000FD1C000800000000FF1C0008951D0008C2
:10004000E51D0008E91D0008ED1D0008F11D000870
:10005000F51D0008F91D0008FD1D0008011E00081F
:10006000051E0008091E00080D1E0008111E0008CC
:10007000151E0008191E00081D1E0008211E00087C
:10008000251E0008291E00082D1E0008311E00082C
:10009000011D0008391E00083D1E0008411E000811
:1000A000451E0008491E00084D1E0008511E00088C
:1000B000551E0008591E00085D1E0008611E00083C
:1000C000651E0008691E00086D1E0008711E0008EC
:1000D000751E0008791E00087D1E0008811E00089C
:1000E000851E0008891E0008051D0008911E0008D5
:1000F000951E0008991E00089D1E0008A11E0008FC
:10010000A51E0008A91E0008AD1E0008B11E0008AB
:10011000B51E0008B91E0008BD1E0008C11E00085B
:10012000C51E000810B5DFF8784700B92BE000F0D5
:1001300099F80068804720680A3010BD80B5DFF864
:100140006007DFF8602700685278C1788A420CD3D4
:100150008278002A04BF8288002A06D1817200F0CA
:1001600081F840688047002002BD022002BD10B522
:10017000DFF82C4700B906E000F074F8806880478B
:1001800020680C3010BD216801200882002010BDBD
:1001900010B5DFF80C47DFF8102720681268C17827
:1001A00040799269904721688A7A92B1002804BF09
:1001B000087900280DD1887858B900F053F8C06844
:1001C000804720684179C1722068C178017300209E
:1001D00010BD022010BD10B5DFF8C416096810B9B3
:1001E000022008823CE0DFF8C44600202080002284
:1001F00008787F23184215D1487A81064CBF42F017
:10020000020102F0FD0121704006217854BF01F087
:10021000FE0041F00100207000F024F800698047E2
:10022000204610BD00F07F03012BF9D000F07F00C5
:10023000022815D14879DFF8783600F00F01000662
:1002400053F8210042F0010205D500F030001028DB
:10025000E2D12270E0E700F44050B0F5805FF7E7AC
:10026000002010BDDFF84C0600687047F8B5DFF8D5
:1002700030060068017811F07F0104D1417A01F065
:10028000DF0141724FE0022901BF41880029017955
:1002900000294AD14179DFF8184621F080050A0685
:1002A00054F82520DFF8FC354CBF02F0300202F490
:1002B00040521B789D4238D2002A1CBF807A002809
:1002C00033D0080654F825000BD500F03000102874
:1002D00025D1284600F08AFB3021284600F03EFB5D
:1002E0001DE000F44050B0F5805F18D148F2800660
:1002F0004BF68F7745B900F0ACFA2068384080F4AF
:100300004050304320600AE0284600F05DFB54F87E
:100310002500384080F44050304344F82500FFF772
:10032000A1FF406980470020F2BD0220F2BD38B530
:10033000DFF86C05DFF878150268DFF86855537947
:1003400023F080001C0651F820404CBF04F030041C
:1003500004F440542D78A84206D2558825B9002CC3
:100360001CBF927A002A01D1022032BD1B0651F82F
:10037000203048F2800205D548F6BF74234083F050
:10038000100304E04BF68F74234083F480531A4328
:1003900041F82020FFF766FF80698047002032BDCA
:1003A00080B5DFF8FC040068417A41F02001417219
:1003B000FFF758FFC0698047002002BDDFF8E02446
:1003C0001268538A20B98888C01A108200207047AA
:1003D0000868181870472DE9F843DFF8C444DFF8BF
:1003E000D854206800F110063188002904BF007A33
:1003F000042810D1DFF8C4040178012907D100F0E6
:1004000096F8042730212980002101702CE010206B
:100410000727288028E0B6F80480884505D30427FC
:10042000414588BF4146884600E00227B168404602
:1004300088478146002000F0EAFA014642464846D5
:1004400000F032FB4146002000F0E9FA3088DFF886
:100450007014A0EB08003080708840447080302019
:1004600028804FF44050088020680772BDE8F1836F
:1004700038B5DFF82C442068017845787F22114296
:1004800031D1092D02D1FFF759FE40E0052D14D1DD
:10049000C178802949DA8178002901BF8188002943
:1004A000807A002841D100F042F83021DFF808249A
:1004B000062011802168087231BD032D08D1C17852
:1004C000012904BF8088002823D1FFF769FF1EE0BF
:1004D000012D04BFC17801291BD18188C9B9407A97
:1004E00080060DD415E001F07F00012804D10B2D0A
:1004F0000FD1FFF74DFE0AE002280AD1012D02D1EB
:10050000FFF7B4FE03E0032D03D1FFF710FF00282F
:10051000C9D0DFF894130968496928468847032839
:1005200008BF0920C6D00028BDD00820C2E7DFF8E8
:100530009423DFF894331268002192B243F812102A
:10054000704738B5DFF85853DFF85C4328684178C6
:10055000062913D101787F2211422AD180780128FF
:1005600002D12068C16969E0022802D12068016ACD
:1005700064E003281DD12068416A5FE000293ED174
:100580004188002904BFC188022912D1017981B9AB
:1005900001787F22114204BF8288002A2DD001F009
:1005A0007F02012A0FD100F08BF810B92868807AF9
:1005B00018BB28682168407809698847032846D114
:1005C0002968092051E001F07F010229F1D1407929
:1005D000B74B00F00F0100F07002000653F8210045
:1005E000B04B4CBF00F0300000F440501B789942F3
:1005F000DFD2002ADDD10028DBD0B4491EE0082973
:1006000005D100787F210842D3D1B14916E00A29EB
:1006100002BF017801F07F010129CAD1817A002946
:10062000C7D04188002901BF01790029C18801296B
:10063000BFD100F045F80028BBD1A6490800B8D0CA
:1006400028680022428281610020884700202968B2
:100650000B8A1A464FF6FF75AA4208BF092004D03C
:10066000022818BF002B02D10820087231BD08787B
:1006700000061ED5C88800902468009D9D4202D2C5
:10068000009808820FE083420DD294F82C008B4D25
:10069000834238BF002005D392FBF0F300FB132008
:1006A00008B90120287094F82C008882BDE83140F8
:1006B00091E6032008724FF440508149088031BD13
:1006C0002268407992690021104738B57D48744C02
:1006D0000068814980B231F8100021680A7A400030
:1006E00000F18040092A00F5C04012D002780A705B
:1006F000051D22684178517035F8040B00F0CEF9E1
:1007000021684880288800F0C9F921688880A88875
:10071000C8800120216808722068C08810B9FFF7DE
:10072000A7FE01E0FFF70DFFBDE831407CE010B50A
:1007300000F095F818BF042904D1FFF74CFE20689B
:10074000007A14E0062911D14178052902BF017809
:100750007F22114206D1C07800F086F8FFF782FDB3
:10076000006A8047504800688068804708202168F8
:100770000872BDE8104057E0F8B500F070F818BFF7
:1007800004294CD0032918BF052942D100F11005D6
:10079000A9682E88080018BF002E14D0A8888642A9
:1007A00088BF06463046884707462888801B288031
:1007B000688830186880002000F02AF90146324627
:1007C000384600F084F928883B4E48B13C494FF444
:1007D000405008800021002000F021F930203080B6
:1007E0002888AA882168904228BF032001D210B12E
:1007F000052008720AE00620087200203149324ABA
:10080000096889B242F81100302030802068007AEF
:1008100006E0072903D124480068C0688047082003
:1008200021680872BDE8F14080B500F012F81C485C
:100830000068017A082906D1214A4FF480511180BD
:1008400010211D4A1180007A09280CBF01200020C8
:1008500002BD224890F82C10002000F0E7B8104CA0
:100860002068017A0229704770B50E49104B09784B
:10087000002248F68F760BE0D4B253F8245035406E
:10088000254345F4004545F0800543F82450521CAB
:100890008A42F1D3124940F08000086070BD000028
:1008A000DC0A002058010020E00A0020040B002090
:1008B000005C0040E40A00200A0B00200E0B002020
:1008C000080B0020505C004004600040D701000885
:1008D000250100086F010008086000405C0100204D
:1008E0004C5C00407047F0B40168446883680918A4
:1008F00001EB5402E40748BF4B440C3091422BD02B
:1009000011F8014B14F0030504BF11F8015BED1C55
:1009100026090F2E07D111F8016B0F3603E011F8ED
:10092000017B03F8017B6D1EF9D1002EE6D0A408EF
:1009300011F8015B04F00304032C08BF11F8014B0C
:1009400005EB04241C1BB51CD8D014F8016B03F86C
:10095000016B6D1EF9D1D1E7F0BC704710B500F006
:1009600013F848F6BF742340CC0648BF83F0100349
:10097000890648BF83F02003FFE743F4004141F0BC
:10098000800142F8201010BDDFF8FC2052F8203022
:100990007047DFF8F41051F820204BF68F731A409F
:1009A00082F4405242F4004209E0DFF8DC1051F8D2
:1009B000202048F68F631A4042F40042FFE742F0DD
:1009C000800241F820207047DFF8BC1051F8202049
:1009D00052040AD551F8202048F68F731A4042F489
:1009E000404242F0800241F820207047264951F8E9
:1009F000202052060AD551F8202048F68F731A405D
:100A000042F4004242F0C00241F8202070472EE03C
:100A10001C49096889B201EBC0001C492DE0194A44
:100A2000126892B202EBC000194A1DE0154A126822
:100A300092B202EBC000174A3F2902EB400209DBE9
:100A400048091F23194208BF401E0004800940F4D2
:100A5000004005E04808C90748BF401C0004800961
:100A6000106070474908490042F810107047054966
:100A7000096889B201EBC000074951F8100080B243
:100A800070470000505C0040005C0040086000407F
:100A9000046000400C600040006000400146000619
:100AA000000C40EA1120704710B5490001F1804167
:100AB000521C01F5C041521007E00378447843EA24
:100AC0000423801C21F8043B521EF6D110BD4900BE
:100AD00001F18041521C01F5C041521004E051F86F
:100AE000043B20F8023B521EF9D1704780B500F05C
:100AF0008AFADFF844140020887200F0B9FA00F096
:100B00001FFBDFF838140020086001BD38B5DFF89E
:100B10002814DFF82C44DFF82C24DFF82C540020B4
:100B20008872DFF82814DFF828040968C079487251
:100B300048F68F11002020652068084040F40070BE
:100B4000206048F6BF712068084080F0200040F423
:100B5000004040F0800020601020216D00F018F867
:100B6000FFF764FF216DDFF8EC23502000F010F850
:100B7000FFF755FF0020FFF718FF0020FFF709FFE0
:100B80000020FFF771FEDFF8B4130120086031BDCB
:100B900089B242F81100002095F82C107047DFF858
:100BA0009803807A18B1DFF8941305200860704725
:100BB000DFF888130420086070477047DFF8780377
:100BC0004078032800D0704770B5DFF88C43207858
:100BD000042835D1DFF8845369682868F0B9DFF854
:100BE00080030278002A08BF01291FD04378867845
:100BF00003EB0623C678007903EB0643212A03EBB7
:100C0000006003D1052911D1E8600FE0412A08BF37
:100C100005290BD1E86000F0A6FA07E0022805D309
:100C2000EA68801E02EB802000F0A9FA00206860CC
:100C30002860032103202070CA4800F0F2F870BD3C
:100C4000072804BFBDE8704000F05BB970BD80B5F7
:100C5000BE4909680A7802F07F02212A21D1BE4AE2
:100C60001378022808D1022B18BF092B19D10FF2D3
:100C70002112100017D114E0012808D1022B18BF4F
:100C8000052B0ED1032010700FF2A512F1E70528F5
:100C900008BF0FF2D512ECD0032808BF0FF2DD1207
:100CA000E7D0022002BD00208A61488290470020E0
:100CB00002BD10B5A5490968097801F07F01212915
:100CC0003CD1A54BA7491C78A44A012809D1052C81
:100CD00018BF022C32D19060062000F03AF80620AE
:100CE00004E0022804D100F034F80220087123E067
:100CF00004280FD10A2C02D100F022F806E00A20C5
:100D000018700E20087000F025F80A2008710020E5
:100D1000487111E0062811D1022C18BF032C04D011
:100D2000052C1CBF062C092C06D100F009F808710F
:100D30000020487110605060002010BD022010BDDE
:100D4000022018700020087048708870C870022057
:100D500070471870002048708870C87070478249CA
:100D6000FFF72CBB8149FFF729BB78490968C9788F
:100D7000092901DB002070477D4A02EBC101FFF722
:100D80001DBB0429B6BF03280220002070470000C5
:100D9000F8B5044668488178C278704D6B4EDFF82C
:100DA000B8C112EB01232B60C179807900EB0121DE
:100DB000696032686B48578A13D104292CBF02211D
:100DC00009218CF800109CF8001000F02AF8644803
:100DD000017021214170412181700CBB03201082E0
:100DE00014E0022B16D309228CF800200271002295
:100DF00042708270C270981EEA6802EB802000F098
:100E0000CAF92CB968683168C01B08820020F2BD9D
:100E10003818F2BD0F218CF8001000F002F8002005
:100E2000F2BD0171002141708170C17070470000F6
:100E300010B5414A9378D478484904EB03230B60FA
:100E40009479D37904EB03234B60518A424C0322FB
:100E50002270444C227118B9581A00F04DF810BD98
:100E60003F48081810BD000028B93849096801201A
:100E700008820020704738487047000038B50446A3
:100E80003548384D02783549032A02D0062A16D053
:100E90002BE04A688AB1042202702A71C868096886
:100EA000002902BF2E490978412907BF2A4600219F
:100EB0002A46012100F088F917E005210FE08A6831
:100EC000012A06D1072101700120687029710020D4
:100ED00009E052B90969097D490706D50221017067
:100EE000002029716870A870E8701CB9062000F015
:100EF00003F832BD284632BD144909680882002033
:100F000070471649144A0020886009691548097D10
:100F1000490707D5062111700171002141708170C8
:100F2000C1707047082111700171002141708170FA
:100F3000C17000F057B80000C00A0020FC0A002071
:100F4000005C0040086000405C010020DC0A0020DA
:100F50002C0000200060004008000020400100201C
:100F6000C006002000000020B00100205001002039
:100F7000B801002080B50121012000F03CF900F00B
:100F800053F901214FF4000000F03EF94FF4C06026
:100F900000F0E0F914208DF8000001208DF8010028
:100FA00000208DF8020001208DF80300684600F053
:100FB000D6F900F0D3F8012000F003F800F006FAAB
:100FC00001BD00B1012000F011BA194903200860E9
:100FD000704718491648897A002914BF0521012154
:100FE0000160704780B50020FFF7EBFFBFF34F8F24
:100FF0001148124A016801F4E06111430160BFF336
:101000004F8F00BFFDE738B50D484468016840695F
:1010100040180BD00B4D0822A91C00F015F805F163
:1010200012012046BDE8384004220DE031BD000029
:10103000FC0A0020C00A00200CED00E00400FA05C4
:101040005000F81F8800002030B5002307E001F8A9
:10105000134001EB4305002400016C705B1C9342BC
:1010600005DA040F0A2C34BF30343734EFE730BDD3
:1010700080B50120FFF7A5FF2E482F4A012101600E
:101080000021016041604FF4E051118001600020B7
:1010900002BD2848016841F0080189B20160016879
:1010A00041F0040189B20160FFF78FBF10B5214CF8
:1010B00020684FF6FB7108402060FFF78AFF4FF46D
:1010C0003F40206010BD000010B51C4C072818BF21
:1010D000207021781748052929D8DFE801F0030698
:1010E000090D141EFFF7E2FF21E0FFF7DFFF08E024
:1010F0000220607003201BE06078401E6070607802
:10110000B8B9042014E0016841F0100189B201600F
:10111000052020700A20607010BD6178491E617042
:10112000617831B901684FF6EF7211400160062015
:10113000207010BD405C00400C0B0020000B002014
:101140000448054A002141604FF43F41118001608D
:1011500000207047405C00400C0B002080B5002050
:10116000C046002002BD00F07C41B1F1006F04D107
:101170000F4A1049116000F05DB90120704700F07E
:101180007C42B2F1006F04D10B4B0C4A1A6000F0A4
:101190005FB90120704700F07C42B2F1006F04D1CA
:1011A000074B084A1A6000F0B1B9002070470000F0
:1011B000F00A002035140008F40A00205114000839
:1011C000F80A00200D15000801F001000FF21001CF
:1011D00031F810005070000A90700020D0707047F5
:1011E000640068000D4A0029116814BF084321EA11
:1011F0000000106070470A4A0029116814BF0843B4
:1012000021EA000010607047064A0029116814BFE7
:10121000084321EA00001060704700001C380240BB
:10122000203802402438024010B5DFF8D84020684A
:10123000800707D500F024F8DFF8CC00E060DFF885
:10124000CC00E06010BD38B5054600F02DF804284C
:1012500015D1DFF8B040206840F4007020602068AD
:1012600040F0080020600020286000F01DF8216890
:1012700021F008012160216821F40071216032BD54
:10128000DFF880000168C90705D5DFF884108160A8
:10129000DFF88010816070471A48016841F0010151
:1012A0000160704704460D464FF4004036E038B503
:1012B000FFF7F8FF042801D1257008E032BD38B5EA
:1012C000FFF7F0FF042801D1256000E032BD4FF4A4
:1012D0000040BDE8324021E00F49086070470E49E8
:1012E0000A680420D20701D5012070470A68D20598
:1012F00001D502207047096811F4F05F18BF032080
:1013000070470000043C0240BFAE9D8C16151413BC
:10131000EFCDAB8905040302183C024010B582B042
:10132000044604208DF80000FFF7D9FF8DF8000077
:1013300005E04CB1FFF7D3FF8DF80000641E9DF867
:1013400000000128F5D014B905208DF800009DF8A3
:10135000000016BD1849084318490860704770B569
:101360000378C4781A460121E4B1144B1B68447811
:1013700003F4E063C3F5E0631B0AC3F10405AC406A
:1013800085780F26DE4006EA050323430C4C1B013B
:101390001355007800F01F0291400A4A400942F8B4
:1013A000201070BD03F01F0001FA00F00649520939
:1013B00041F8220070BD00000000FA050CED00E0CD
:1013C00000E400E000E100E080E100E002210448E8
:1013D000044A0172C0614262034901620868004721
:1013E000C00A00208C0100205C0100200D4900286B
:1013F000086812BF40F001004008400008607047D4
:1014000030B5094B01F0030221F003019200CC58E2
:101410000F259540AC43CC509040CC582043C85049
:1014200030BD00000400014008000140DFF800F07A
:10143000E101002010B504463148844206D24FF441
:101440002060FFF749FF2046FFF7FDFE002010BD9A
:101450002DE9F04306462B482B4D8019A1B0B0F57D
:10146000405F0C462F46E84611D2FFF709FF41F6D0
:101470000270FFF731FF002704E0795DB819FFF72C
:1014800016FF7F1CA742F8D3FFF706FF1DE014F0FC
:10149000030F04EB05090AD04FF6FC702040001D35
:1014A000844204D2011BFF22484600F031F816F0B6
:1014B0007F0008D0F109C90103E051F8042B48F876
:1014C000042BB142F9D34F4505D3002021B0BDE82C
:1014D000F08348F8040B20A8804507D205EB840070
:1014E00087422CBF002057F8040BF2E7F609F601FB
:1014F00069463046FFF79AFF8036E846E3E700008A
:10150000000008080000F8F7C0060020704700003F
:1015100062F30F2262F31F42401810F0030308D059
:10152000C91A1FD3DB0748BF00F8012D28BF20F8D8
:10153000022D130030B414461546103928BF20E997
:101540003C00FAD8490728BF20E90C0048BF40F802
:10155000042D890028BF20F8022D48BF00F8012D76
:1015600030BC7047C91818BF00F8012DCB0728BF41
:1015700000F8012D70470000DFF800F0B5020020F0
:1015800070B504460D46FFF77BFE40F60276304606
:10159000FFF7A2FE29462046FFF791FE04281CBF54
:1015A0003046FFF799FEBDE87040FFF775BEFEB507
:1015B00000F0B2F84B484C4D04780021062000F0B2
:1015C000C9F801210420FFF70DFE01210120FFF7DA
:1015D00012FE00208DF808008DF80B0001A92020D4
:1015E0000190424800F016F9002001E00098401CEC
:1015F00000900098A842F9D3012000F049F9012792
:101600003B4E01E0401E7061062000F0F5F8A0B9E5
:1016100070690028F6D1012000F05AF9012000F08D
:10162000EBF801280FBF002732493348FFF7A8FF26
:10163000062000F0E1F80028FAD09CB997B12F49B4
:101640002F48FFF79DFF2F482F4A01681140B1F145
:10165000005F07D141683161F160006880F308885C
:101660000846804700211F48284CFFF789FF0A20C1
:101670003072307030710026FFF77CFC012000F0E2
:1016800007F9012000F040F92046FFF775FF01201F
:1016900000F03AF9002000900098A8423CBF009862
:1016A000401CF8D309E0012000F012F92046FFF7B2
:1016B00063FF012000F01AF90126062000F09CF8D3
:1016C0000028F0D0F007E2D5BFF34F8F1048114A41
:1016D000016801F4E06111430160BFF34F8F00BF67
:1016E000FDE70000F00F0808FFFF070000080240B8
:1016F0000000002000380008F80F0808A6F1DF00FD
:10170000E80F0808003000080000FE2FFFFF3F0030
:101710000CED00E00400FA0503490320087070474F
:101720000148007870470000BE02002001280CBF6D
:1017300001480248704700000008024000000240D3
:1017400001280CBF20200420704701280CBF202056
:101750000420704750B5044685B0012C0E460CBFDE
:10176000042001200121FFF73DFD01210120FFF7A9
:1017700042FD00208DF8100001208DF81300204656
:10178000FFF7DEFF03902046FFF7D0FF03A900F02C
:1017900041F8012E2ED1012C07BF05210220022184
:1017A0000020FFF72DFE2046FFF7CFFF019000201D
:1017B0008DF808000C208DF8090001208DF80A0032
:1017C00001A800F0ADF8012C0CBF172008208DF8FF
:1017D00000000F208DF8010000208DF8020001208C
:1017E0008DF803002046FFF7B0FF00F0CBF8684605
:1017F000FFF7B5FD05B050BD38B50446FFF7A0FFB3
:1018000005462046FFF792FFA9B200F03AF800B172
:10181000012032BDF0B5002201230C6893401C402A
:101820009C422AD154000325A5400668ED432E4072
:10183000066006680F79A7403E4306600E79012EC8
:1018400018BF022E10D186682E40866086684F79B8
:10185000A7403E438660868826EA03038380838808
:101860008E79964033438380C3682B40C360C3683E
:10187000CD7905FA04F42343C360521C102ACBD35C
:10188000F0BD008A0022084218BF012210467047AE
:101890001CB501210220FFF7A5FC012000908DF866
:1018A00004000020ADF8060003208DF8050069460D
:1018B000184C2046FFF7AEFFFFF732FF28B1FFF7C5
:1018C0002FFF012801D1608313BD0120208313BDA8
:1018D00010B5FFF725FF104C28B1FFF721FF0128B5
:1018E00001D1208010BD0120608010BD10B5FFF730
:1018F00017FF094C28B1FFF713FF012801D16080C1
:1019000010BD0120208010BD0448018881F0010134
:101910000180704700040240180402401404024091
:1019200030B501688279CB4318492AB30A46146856
:101930002340136053680468A34353600379CC18B1
:10194000236805682B43236093680468A34393606E
:10195000D3680468A343D36043790568102B07D18B
:10196000916829439160D16800680843D06030BD18
:10197000CC182068284303E000790C182068184030
:10198000206030BD00BF024908607047000401407C
:10199000140401402DE9F84F0020ADF8000048F292
:1019A0008004464D464EDFF81C91DFF81CA148F636
:1019B0000F7840F68F7B4BF6BF7725E056F8201066
:1019C000ADF80010BDF8001009040BD556F8201032
:1019D0000BEA010146F820103C4901EB800050F869
:1019E000040C8047BDF8000000060DD599F80000F2
:1019F00056F8201008EA010146F82010344901EB9E
:101A0000800050F8040C8047706CAAF800000004B5
:101A100052D5BAF8000010F00F0089F80000CDD1BF
:101A200030682880288800F030006880288800F41A
:101A3000405028803068384080F4005080F020000A
:101A400020433060BAF80000C006306805D408EAC8
:101A500000003060FEF76BFE16E0ADF80000BDF848
:101A60000000000506D530680BEA00003060FEF784
:101A70002CFE09E0BDF800000004C5D530680BEA73
:101A800000003060FEF778FE306829883840C904CD
:101A900048BF80F480502988890448BF80F40050F2
:101AA0006988C90648BF80F010006988890648BF68
:101AB00080F0200020433060BDE8F18F080B00204B
:101AC000005C00400F0B0020EE0A002024010020E3
:101AD0000801002039483A4A82B0016841F4807117
:101AE0000160816811408160364A016811400160DF
:101AF000016821F480210160816821F47D01816009
:101B00000021C16001910091016841F480310160C0
:101B1000016801F4003100910199491C019100997B
:101B200019B90199B1F5A06FF2D10168490C01F022
:101B3000010100910099012939D123490A6842F035
:101B400004020A600A6842F002020A600A6842F06F
:101B500001020A604FF40062416A41F08051416223
:101B60001A490A604A68D206FCD48168816081689B
:101B7000816081688160816821F47D018160816874
:101B800041F405018160016841F0807101600168E4
:101B90008901FCD58168890889008160816841F0EC
:101BA00003018160816801F00C010C29FAD14FF02A
:101BB00000600749086002B070470000003802402A
:101BC0000CC0FF88FEFFFEEE003C024000700040AB
:101BD00008ED00E070B5294D294C2868294E608039
:101BE000608831880840000448BFFFF7D3FE608852
:101BF00031880840400505D54FF6FF30286022485F
:101C000040688047308861880140890444BF4DF6B0
:101C1000FF71296061880840C00405D54EF6FF7049
:101C200028600020FFF750FA6088318808400005DE
:101C30000BD51648007810B1FFF72BFA02E002200E
:101C4000FFF742FA4FF2FF70286030886188014048
:101C5000890505D54FF6FF5129602178491C21706F
:101C600061880840C00507D54FF6FF60286007204F
:101C7000BDE87040FFF728BA70BD00BF445C00406B
:101C8000EC0A00200C0B00205C010020BF020020A9
:101C900019E050F8041BCB0744BFA9F10103591800
:101CA000121F0023042A41F8043BF9D25FEA827C28
:101CB0000B4604D54FF0000CA1F800C09B1CD107C7
:101CC00044BF0021197050F8042B002AE1D170475D
:101CD0007047BFF34F8F0548054A016801F4E06182
:101CE00011430160BFF34F8F00BFFDE70CED00E033
:101CF0000400FA05FEE7FEE7FEE77047704770470D
:101D0000FFF768BF4FF48020FFF73CBE10B50749CE
:101D100079441831064C7C44163404E00A68081DE6
:101D2000511888470146A142F8D110BD08000000B3
:101D3000240000005DFFFFFF50040000C0060020EB
:101D400000000000A3EBFFFF80010000080400007A
:101D5000000000200120C046002801D0FFF7D6FF78
:101D60000020C046C046FFF722FC00F000F800F05B
:101D700001B800000746384600F002F8FBE7000013
:101D800080B5C046C046024A11001820ABBEFBE732
:101D90002600020002480168491C016070470000EB
:101DA000E80A00200148804701480047D51A00088A
:101DB000B51D0008C046C046C046C046FFF7CAFF72
:101DC000FFF786BFFFF785BFFFF794BFFFF793BF0D
:101DD000FFF792BFFFF791BFFFF790BFFFF78FBFED
:101DE000FFF7D8BFFFF7FEBFFFF7FEBFFFF7FEBF4D
:101DF000FFF7FEBFFFF7FEBFFFF7FEBFFFF7FEBF17
:101E0000FFF7FEBFFFF7FEBFFFF7FEBFFFF7FEBF06
:101E1000FFF7FEBFFFF7FEBFFFF7FEBFFFF7FEBFF6
:101E2000FFF7FEBFFFF7FEBFFFF7FEBFFFF7FEBFE6
:101E3000FFF7FEBFFFF764BFFFF7FEBFFFF7FEBF70
:101E4000FFF7FEBFFFF7FEBFFFF7FEBFFFF7FEBFC6
:101E5000FFF7FEBFFFF7FEBFFFF7FEBFFFF7FEBFB6
:101E6000FFF7FEBFFFF7FEBFFFF7FEBFFFF7FEBFA6
:101E7000FFF7FEBFFFF7FEBFFFF7FEBFFFF7FEBF96
:101E8000FFF7FEBFFFF7FEBFFFF7FEBFFFF73ABF4A
:101E9000FFF7FEBFFFF7FEBFFFF7FEBFFFF7FEBF76
:101EA000FFF7FEBFFFF7FEBFFFF7FEBFFFF7FEBF66
:101EB000FFF7FEBFFFF7FEBFFFF7FEBFFFF7FEBF56
:101EC000FFF7FEBFFFF7FEBFF2030001100550123F
:101ED00000120100011C100840830411DF00020100
:101EE00002030E100909021B00010100C03209049F
:101EF0001B1023FE01020409210BFF0000041A013C
:101F000000040309042603530054004D00690063D4
:101F10000072006F0065006C0430016300740E32C3
:101F20006E1812733A521428900B330032002000BE
:101F30004400460055001A14B0014C0031971003BC
:101F400062034000494012744E1272081261581226
:101F50002036126C0A10017300680C100520002F47
:101F60000030007804123804810210012F0034126E
:101F7000122A54100135003626100161002C0CD2B3
:101F8000301612676EF00223E508000804B1A910AC
:101F9000063000082C0000201B151528100800ED45
:101FA0000A00080D0B0008BB0412BD0410034F0CFF
:101FB0000008B3041003830D00085F041265044396
:101FC0006B0D44524084F3099F0B6C12B11C121824
:101FD0006012122C1248082586124C08122608128C
:101FE0007408121408128808121A0812A40812623F
:101FF00008103E2DE9F041234F0446386840F001B7
:10200000003860884600F01BF80026042815D1002F
:10201000F01FF840F00800286058F8040B44F82638
:1020200000761C202EF8D300F00AF8296821F00869
:10203000012960081033F48061296003E028604FB3
:10204000F4004024E03968490849003960BDE8F0EF
:10205000810C4D286840F480602860286870470A29
:10206000490A680420D20701D501200E100468D265
:102070000501D5020A1007096811F4F05F18BF03C3
:102080000C1007043C024008E000E01808200E1085
:10209000B582B0044604208DF80000FFF7E0FF0889
:1020A000300505E04CB1FFF7DA0C1001641E9D0607
:1020B00030050128F5D014B905262110000C16BDF5
:0C20C0000146481E0029FBD170470301B7
:0400000508001DB51D
:00000001FF
