:020000040800F2
:10380000280D0020A5630008716300087363000899
:10381000C5630008C9630008CD630008000000000C
:1038200000000000000000000000000075630008B8
:103830007763000800000000796300087B630008DC
:10384000D1630008D5630008D9630008DD63000870
:10385000E1630008E5630008E9630008ED63000820
:10386000F1630008F5630008F9630008FD630008D0
:103870000164000805640008096400080D6400087C
:103880001164000815640008196400081D6400082C
:103890007F6300082164000825640008296400088B
:1038A000000000002D640008316400083564000841
:1038B000396400083D64000841640008456400085C
:1038C000496400084D64000851640008556400080C
:1038D000596400085D6400086164000865640008BC
:1038E00081630008696400086D6400087164000861
:1038F0007564000800000000796400087D64000819
:103900008164000885640008896400088D640008EB
:1039100091640008956400089964000800000000A4
:103920009D6400082DE9F843044641F28938207867
:10393000DFF8B466C0075ED5B06800F00C00082858
:1039400007D0B06800F00C000C280CD1B068C003A0
:1039500009D53068C0F3404000284CD0606800288A
:1039600049D10120ABE1306820F48030306030680C
:1039700020F48020306000F087FB07463068C0F3F9
:10398000404028B100F080FBC01B4045F6D393E1D6
:10399000306820F4803030606068012807D13068DA
:1039A00020F480203060306840F4803006E0052844
:1039B00008BFB07003D0306820F4802030606068A9
:1039C00060B100F061FB07463068C0F3404090B939
:1039D00000F05AFBC01B4045F6D36DE100F054FBEC
:1039E00007463068C0F3404028B100F04DFBC01BD3
:1039F0004045F6D360E12078DFF8F07580071BD5ED
:103A0000B06800F00C00042807D0B06800F00C008B
:103A10000C2831D1B068C0032ED43068C0F3400008
:103A200000281CBFE06801289BD17068216920F440
:103A3000F85040EA012070602078C0064BD5B0688D
:103A400010F00C0F5FD13068C0F3402010B1A069B6
:103A5000002886D0206A716801F4604181422CD22E
:103A600000F089FA0028DFD17068216A20F46040F4
:103A7000084300F02DF92BE0E06878B101203860B0
:103A800000F002FB05463068C0F340000028CCD1AE
:103A900000F0FAFA401B6528F5D30DE1386000F01C
:103AA000F3FA05463068C0F340000028C4D000F0A7
:103AB000EBFA401B6528F5D3FEE0716821F4604104
:103AC000084300F005F9206A00F055FA0028ABD150
:103AD000002000F0C2FA2078000750D56169DFF8B5
:103AE000100500293DD00121016000F0CDFA054606
:103AF000706BC0F34000002841D100F0C5FA401BB4
:103B00006528F5D3D8E0A069E0B10120386200F063
:103B1000BBFA05463068C0F3402028B900F0B4FA7B
:103B2000401B6528F6D3C7E07068216A20F4604026
:103B3000084370607068E1690002000A40EA0160B1
:103B40007060C8E7386200F09FFA05463068C0F33D
:103B500040200028BFD000F097FA401B6528F5D31D
:103B6000AAE0016000F090FA0546706BC0F34000D7
:103B700028B100F089FA401B6528F6D39CE0207834
:103B800040075DD5706ADFF86C9440F08050706239
:103B9000706A00F0805000900098D9F8000040F45E
:103BA0008070C9F8000000F06FFA0546D9F80000EF
:103BB000C00505D400F068FA401B6528F6D37BE009
:103BC000706B00F07EF8706300F05EFA0546706B73
:103BD000C0F3402028B100F057FA401B4045F6D30F
:103BE0006AE0A068012808D008B9706B09E00528D0
:103BF000706B06D140F480607063706B40F480702D
:103C000001E000F05EF87063A06860B100F03CFA7B
:103C10000546706BC0F3402090B900F035FA401BA8
:103C20004045F6D348E000F02FFA0546706BC0F32C
:103C3000402028B100F028FA401B4045F6D33BE075
:103C4000606A00283AD0B16801F00C010C293FF4F9
:103C500088AE022824D100F044F805463068C0F34D
:103C6000406028B100F010FA401B6528F6D323E02D
:103C7000B068A16A20F47D000843E16A0843216B23
:103C80000843B060012000F02DF804463068C0F30E
:103C9000406098B900F0F8F9001B6528F6D30BE0F6
:103CA00000F01FF804463068C0F3406030B100F007
:103CB000EBF9001B6528F6D3032000E00020BDE8E7
:103CC000F28320F480707063706B20F48060704722
:103CD00070607068E1690002000A40EA016070608B
:103CE00070470020386600F0CFB92DE9F843DFF8BF
:103CF0000853DFF8F462044628680F4600F001001C
:103D000041F28938B84269D2012F03D1286840F0C6
:103D1000040028602868400847EA400028602868B6
:103D200000F00100B8421FD12078800705D5B068A7
:103D3000A16820F0F0000843B0602078C00740F18F
:103D4000BD806068022803D13168C1F340410AE0B8
:103D5000032803D13168C1F3406104E031680128D0
:103D600003D1C1F3400121B9A6E0C1F340210029EC
:103D7000FAD000F0BCF80746606802280AD1B068A3
:103D800000F00C00082822D000F07EF9C01B40454E
:103D9000F5D37FE003280AD1B06800F00C000C28AE
:103DA00015D000F071F9C01B4045F5D372E0012831
:103DB0000AD1B06800F00C00042808D000F064F9C3
:103DC000C01B4045F5D365E0B06810F00C0F75D00E
:103DD00000F05AF9C01B4045F6D35BE0207880071D
:103DE00005D5B068A16820F0F0000843B0602078E5
:103DF000C00751D56068022803D13168C1F3404142
:103E00000AE0032803D13168C1F3406104E031685E
:103E1000012803D1C1F3400121B94DE0C1F3402194
:103E2000002949D000F063F88146606802280BD170
:103E3000B06800F00C0008282ED000F025F9A0EBA7
:103E400009004045F4D325E003280BD1B06800F009
:103E50000C000C2820D000F017F9A0EB0900404519
:103E6000F4D317E001280BD1B06800F00C0004284F
:103E700012D000F009F9A0EB09004045F4D309E0A5
:103E8000B06810F00C0F07D000F0FEF8A0EB0900AE
:103E90004045F5D3032028E0012F03D1286840F0E6
:103EA000040028602868400847EA40002860286825
:103EB00000F00100B84201D0012016E02078400750
:103EC00005D5B068E16820F4E0600843B060207870
:103ED000000706D5B068216920F4605040EAC100AF
:103EE000B060002000F0B9F80020BDE8F283B168AE
:103EF000890840EA8100B06000F0C6B830B540499A
:103F000040484A68404B02F00C04042C23D0082C93
:103F100002D00C2C02D015E0184630BD0FF204146C
:103F2000C2F38345C2F381522C5D0FF2F405525D5A
:103F30004968B4FBF2F2C90302D503FB02F030BDBD
:103F4000504330BD0868400B00F007000121401CC1
:103F500001FA00F0C00330BD80B5FFF7CFFF274B5B
:103F60000FF2AC021B682949C3F303139A5CD040DB
:103F70000860086802BDF8B5204F1F4E0446386837
:103F8000002510F0F00F1FD1F869C00002D500F035
:103F90008FF80EE0F86940F08050F861F86900F0A1
:103FA00080500090009800F083F8F96921F080516A
:103FB000F961B0F5C05F08BFB4F5404F04D10125E9
:103FC000306840F0040030603068400845EA400046
:103FD0003060306800F00100A84201D00120F2BD3D
:103FE0000020F2BD000000000038024000004742FF
:103FF0008006474200700040003C02400838024002
:10400000043802400024F40000127A005C00002012
:10401000000000000102030401020304060708096E
:1040200001020304030406080C10182030000000ED
:1040300080B51D48016841F004010160016841F04C
:1040400002010160032000F04DF8002000F005F8A7
:1040500000F002F8002002BD704710B50446FFF7DB
:104060007BFF4FF47A71B0FBF1F000F085F800228D
:1040700021464FF0FF3000F042F8002010BD0B4801
:104080000168491C0160704708480068704711B515
:1040900081B0FFF7F9FF0446FFF7F6FF0199001B17
:1040A0008842F9D313BD0000003C0240901100206B
:1040B0000248006800F4C0507047000000700040E3
:1040C0003C480068C0F3022070470901002806D56B
:1040D000394A00F00F00801800F8041C7047374A76
:1040E0008154704733490A684FF6FF031A4000F0C5
:1040F000070042EA0020324A10430860704770B55A
:1041000004460D461646FFF7DBFF00F007000121CD
:10411000C0F10702052A2EBF0F2201FA02F2521E39
:10412000031D072B34BF0020C01E2A40824001FA25
:1041300000F0401E304040EA02012046BDE87040D9
:10414000C3E7012100F01F0291401E4A04E0012153
:1041500000F01F0291401C4A400942F820107047AD
:10416000BFF34F8F1348194A016801F4E06111430E
:104170000160BFF34F8FFEE710B5401EB0F1807FA6
:1041800001D3012010BD124C60600F214FF0FF30B1
:10419000FFF79BFF0020A06007202060002010BDDB
:1041A0000B49042808680CBF40F0040020F004000C
:1041B000086070470CED00E018ED00E000E400E05E
:1041C0000000FA0500E100E080E100E00400FA05EB
:1041D00010E000E0DFF800F06100002010B500E022
:1041E000521ED2B23AB110F8013B11F8014BA34272
:1041F000F6D0012010BD002010BD10B5044600F01F
:1042000066FB224600F0BBFA044600F06FFB002C70
:1042100004BFBDE81040FFF7A3BF10BD30B58BB0A1
:1042200066208DF8180006AC9A2060700C20A070F3
:104230002020E0700020207108206071A720A0716C
:10424000BA20E071E3202072112060720620A07273
:104250008520E072C0202073F72060739720A07340
:104260008A20E0730A23DFF82C5505F1080000903E
:10427000012206A9022000F022FC00285ED100F0F5
:1042800078F8C02020738C2060732E20A073122039
:10429000E07305F10A0000F054F80220009028892C
:1042A00000F043FC002849D166208DF8180009234E
:1042B00000F063F8F0202073992060730F20A07342
:1042C0002120E07305F10C0000F045F8002835D1FD
:1042D00066208DF81800142300F04FF8802020731A
:1042E000AA2060739120A0732620E07305F10E00D0
:1042F00000F031F8002821D100F03BF86020207355
:1043000057206073DC20A0732B20E07305F11000B0
:1043100000F017F812200090288900F006FC68B918
:10432000698905F11400009008232889002200F013
:104330004EFC20B10FF2704000F0CCFC47200BB0D7
:1043400030BD0590002004901020039004200290BE
:1043500000200190704705900020049010200390E9
:1043600005200290002001900E200090288900F086
:10437000DCBB66208DF8180008239A20607006AA1E
:104380000C20A07002212020E07000202071082065
:104390006071A720A071BA20E071E3202072112083
:1043A00060720820A0728520E072704770B582B0FC
:1043B00004246425DFF8DC632046441EC0B260B1EB
:1043C00000F0C1FC318A308900960823002200F0F9
:1043D000FEFB0546642DEFD01DB10FF2F43000F066
:1043E00079FC284676BD00002DE9F04F85B000210C
:1043F0000191012103910021DFF89853DFF89863C0
:1044000004912960696006F18007AA894188521CDD
:10441000914220D1827AC17A120402EB0161427A80
:1044200001EB0221027A5118F960837BC27B1B04E5
:1044300003EB0262437B007B02EB03228018B8612E
:10444000F861080A090618BF401CB880002078806F
:104450007861F88087E141F602782A8A0FF2B03954
:10446000921C914220D10020F880386100F0E8FDD4
:1044700000F07CF9B888039001A800F0EFF9044639
:1044800000F0F1FD002C07D100202860FFF78EFF1F
:1044900018B1484600F01EFC65E1012000F019FE4D
:1044A000012086F880005EE1EA89521C9142FAD12F
:1044B0007C882246802AF6DA06E0A155A35D797849
:1044C0005940641C7970A4B20379F96803EB020CBB
:1044D000ACF1040C644506DA8C423DBFA11A091800
:1044E000097A0021E9E71B1893F804C093F805E066
:1044F0009B797A787C808EEA0C0C83EA0C035A4014
:104500007A70C4797A78FB88A24240F01E81827E5C
:10451000447E04EB02221FFA82FCBA69634540F034
:10452000BC80581CF88028800020688006F1A40018
:1045300000907F207C887B69044204D0C81A8028C0
:1045400069D2844267D398180024F861A34600F02A
:1045500077FD8F48C0F80080B869F969A2468142AA
:1045600012D18030F86180220098314600F0C0FD01
:104570002021304600F0C2FDB860802404E0F869D4
:104580004C444844A4B2F8617888844234DA001B71
:104590004FF0800904EB060B802807DB72B6F86940
:1045A0005946FFF717FE824662B613E09BF80210E9
:1045B0009BF80300090401EB00609BF8011000EB7D
:1045C0000120A15D0A18F9694FF00409102000F0DC
:1045D00095F98246F8694A465946FFF7FFFD83463A
:1045E000BAF1000F05D051460FF2502000F072FBD7
:1045F00002E0BBF1000FC2D000F035FDBAF1000FB0
:104600003ED1BBF1000F39D17869798808187861FB
:104610000020688078807869F968884236D3688895
:10462000A0BB0098202100F069FDB96881422BD120
:1046300000F006FD5648C0F8008072B60099B869CF
:10464000FFF7C8FD044662B60099B8698022FFF7FB
:10465000C5FD064600988022002100F099FE00F07A
:1046600002FD56EA04000DD101203861F868810886
:10467000B86900F043FD3862686007E03C2004E060
:10468000FF2002E0C32000E0C4206880FFF78EFE18
:10469000002866D00FF2381061E03969002952D045
:1046A0004FF6FF74A4454ED12C80037A467A396ABE
:1046B00043EA0623867AC07A43EA064343EA006067
:1046C000814232D1106835490840B0F1005F29D1EC
:1046D00000F0FDF8BA6900F052F88246B869F9684E
:1046E0000A182A49022000F009F9064600F0FEF8EF
:1046F00056EA0A0014D1688038622C80FFF756FE13
:1047000010B1484600F0E6FABFF34F8F2448254A1F
:10471000016801F4E06111430160BFF34F8FFEE7D0
:10472000C52000E0C620688015E0C720688000F042
:1047300087FC00F01BF80120039001A800F08EF820
:1047400000F091FC07E0F02000E00F2068802B8053
:10475000788810387880FFF729FE10B1484600F0BD
:10476000B9FA0020787005B0BDE8F08F04A90848B8
:10477000C0F80080B869029000200190704702499B
:10478000022000F0BBB80000F80F0808FC0F080872
:10479000183C024000000020F80F00200000FE2F0F
:1047A0000CED00E00400FA054572726F7220776824
:1047B000696C65207570646174696E6720636861F7
:1047C00072616374657269737469632E0A00000014
:1047D0004572726F72207768696C652075706461CC
:1047E00074696E67204578706563746564496D61AE
:1047F000676554555365714E756D626572206368C7
:104800006172616374657269737469632E0A000072
:104810004572726F72207768696C6520757064618B
:1048200074696E67204143432063686172616374F9
:10483000657269737469632E0A0000002A2A206673
:104840006C617368537461747573206572726F72F2
:104850003A203D202564202A2A0D0A002DE9F8433C
:10486000DFF820620446307C0D46012808BF022094
:1048700027D00120307400F026F800BB4FF0FF3144
:104880002960D4F80490DFF8007201E009F580791E
:10489000A168626802EB0121894510D2484600F008
:1048A000B1F800F012F8396821F0080139600028E9
:1048B000396821F400713960E8D0C5F80090002112
:1048C0003174BDE8F2834CF250384046ABE0DFF87B
:1048D000B8010168C90707D5DFF8B0118160DFF8BA
:1048E000B01181600020704701207047DFF8980107
:1048F000016841F001010160002070472DE9F84393
:10490000DFF88091044699F810000D4616460128FC
:1049100008BF02203CD0012089F81000FFF7D3FF28
:10492000002832D1C9F81400042C574F06D1FFF7E4
:10493000CCFF002827D100F02DF821E0082C05D16C
:10494000FFF7C3FFF8B900F025F813E0102C05D1EC
:10495000FFF7BBFFB8B900F01DF804E0022C04D14A
:10496000FFF7B3FF78B92E600BE0012C04D1FFF7FD
:10497000ACFF40B92E8004E02CB9FFF7A6FF10B9B8
:104980002E70FFF7A2FFFFF7A0FF002189F810109B
:10499000BDE8F283386820F48070386070473D4984
:1049A00038480A68D20504D5102242614FF480725B
:1049B0000A600A68920506D5426942F0080242611F
:1049C0004FF400720A600A68520506D5426942F047
:1049D000010242614FF480620A600A68120506D53E
:1049E000426942F0020242614FF400620A600A68C2
:1049F000D20406D5426942F0040242614FF480506D
:104A0000086070471F4A00215161000A1E490A6868
:104A100042F400720A6000020A6842F008020A606A
:104A200000210160704770B50546FFF72DFB064673
:104A3000184C2068C0070AD515F1010FF9D025B12F
:104A4000FFF722FB801B8542F3D2032070BD206854
:104A5000800744BF022020602068C0050BD4206876
:104A6000800508D42068400505D42068C00402D41D
:104A70002068000503D5FFF792FF012070BD0020DC
:104A800070BD000078110020043C0240EFCDAB89DE
:104A900005040302183C024000B587B000F0ECF8B2
:104AA00000F0DBF840F20110ADF8060000F0DDF890
:104AB00000284CBFFF209DF8000007B000BD70B576
:104AC0008CB014461D468DF81C0001280CBF022630
:104AD000102632460DF11D0000F064FC701C07A981
:104AE000C0B203224454441CE4B200A8655400211F
:104AF00000F05EFC00F0C0F800F0AFF84FF48170F9
:104B000000F092F8601C00F058F800F0B1F80028AE
:104B100048BFFF2007D49DF8000020B91099BDF8C8
:104B20000100088000200CB070BDF1B58EB00D46BC
:104B300016461F4602220EA900F0A5F807AC012D6B
:104B4000A5700CBF022510252A46314600F081F8D9
:104B5000E81CC0B2411C0755C9B214980855491C3D
:104B60001598C9B203220855491C1698C9B20855B0
:104B7000491C1798C9B24D1C0855EDB21898285514
:104B800000F021F800F078F800F067F84FF4827038
:104B900000F04AF8681C00F010F800F069F80028EE
:104BA00048BFFF2007D49DF8000020B91999BDF82F
:104BB0000100088000200FB0F0BDC0B2049000A832
:104BC000059003207047002100A800F0F1BB33B529
:104BD0001C46A01DA7B015468128A8BF422021DA97
:104BE000022227A900F04FF8022228A900F050F86D
:104BF0002C998DF820508DF82140224600F019F8AC
:104C000000F03AF800F029F84FF4837000F00CF847
:104C1000A01DC0B2049000F028F800284CBFFF206F
:104C20009DF8000029B030BDADF8060007A803903C
:104C300070470DF1220000F0B5BB3F20ADF8080031
:104C4000002170471822ADF80400002102A800F0EE
:104C5000AFBB0DF11F0000F0A5BB3F20ADF8040075
:104C60000021704704900F20029000A805900120B9
:104C7000069001A800F0FCB81822002101A800F05D
:104C800097BB022228A907A800F08CBB022229A901
:104C90000DF11E0000F086BBADF80A0001A80490DB
:104CA0000220059000A806900120079002A800F0BD
:104CB000DFB800B589B0FFF7C5FFFFF7BEFF40F2D0
:104CC0002710FFF7E9FF00284CBFFF209DF80000E8
:104CD00009B000BD0EB400B582B003A90091024630
:104CE0006B460121034878440A3000F077FB06BC8C
:104CF0005DF810FB9516000038B5AF4C201D00F094
:104D000007FC04F10C0000F003FC00258C2000FBE4
:104D1000054000F11401201D00F00BFC6D1C052D59
:104D2000F4DB31BD00F108010A78042A01D001202A
:104D3000704790F888008978C01E814201D0022017
:104D400070470020704710B5A2B00020009000F01E
:104D5000E0FC994C10E000A904F10C0000F0F7FB16
:104D600000F0DBFC0098083000F0BBFA00F0D1FC4A
:104D70000099201D00F0DDFB04F10C0000F0CBFBDE
:104D80000028E8D0207840B90CE0802101A800F08C
:104D9000CFFC10B101A800F0A4FA00F0B0FC00288C
:104DA000F3D1207000F0B9FC22B010BD10B582B074
:104DB0000020009000F0B4FC7F4C04E0201D00F0C7
:104DC000B1FB00F0ADFC00F0D1FB00B3201D00F002
:104DD000A2FBC0B900A9201D00F0B9FB00988021FA
:104DE000083000F0A5FC00990028E7D081F8880081
:104DF0000098FFF797FF00990028DFD104F10C001D
:104E000000F097FBDDE70120207000F089FC13BD66
:104E100000F00EBD30B5890583B0890D41EA8020D0
:104E2000ADF80400144601208DF800001D468DF8F1
:104E30000640032201A90DF1010000F0B3FA234658
:104E40000422294600A8FFF7E3FF37BD38B5044622
:104E50000D4607E000A9284600F079FB009920469E
:104E600000F067FB284600F056FB0028F2D031BD69
:104E70002DE9F041044686B0608888468005218887
:104E8000800D40EA81254D4800680A21B0FBF1F60B
:104E900000200090ADB202A800F03AFBE268A368DF
:104EA00061882088D2B2FFF7B5FF434FB8F1000FF9
:104EB00059D106B90126314604A800F0FFFC05E0EF
:104EC000009902A800F035FB00F027FC04A800F0D0
:104ED000FDFC002867D107F10C0000F01CFB002846
:104EE000F4D100F016FC00A907F10C0000F02FFB34
:104EF000009800F1080210780428E1D10098527857
:104F000000F10B0190F88800C01E0E2A37D00F2A3E
:104F100004D0102A47D03E2A38D008E04A88AA4256
:104F200041D162680F2A15D0087800283BD100993A
:104F300002A800F0FEFA381D00F0EDFA0028C3D0F8
:104F400001A907F10C0000F002FB0199381D00F0E7
:104F5000F0FAB9E762699042C8BF10466061024644
:104F6000206900F01FFA0099381D00F0DBFA00F00C
:104F700027F800F0D2FB002006B0BDE8F081B1F8C0
:104F80000120AA420FD1C91CC01EE3E70A7863685A
:104F90009A42CCD16269401E9042C8BF10466061FF
:104FA0000246491CDCE700F00BF800F0B6FB4FF0BE
:104FB000FF30E1E700000000280D0020C06300087A
:104FC00002A907F10C0041E707A8039020200490F4
:104FD00000A805900120069001A849E730B58FB0E0
:104FE00000F01DF88DF81C40202CA8BF1F2400F0F5
:104FF00010F800F01BF800F01EF80920ADF80600CC
:10500000FFF7E2FF00284CBFFF209DF800000FB023
:1050100030BD224629460DF11D0000F0C3B90446FB
:105020000D462022002107A800F0C2B91822002155
:1050300001A800F0BDB90820ADF8040000217047B8
:105040000D48016889070CD50168C90703D50B49CC
:1050500081600B4981600B49C1600B49C160002030
:105060007047012070470448016841F00201FFE7E2
:105070000160002070470000043C0240EFCDAB8986
:1050800005040302BFAE9D8C1615141330B50446FB
:105090001548164D87B0016841F00201016001A971
:1050A000006800F00200009000980120019002903A
:1050B0000020039003200490284600F013FC0022F7
:1050C0000121284600F0E5FC204600F004F807B076
:1050D00030BD012200E000220121044800F0D9BCCB
:1050E0000121024800F0D9BC1C38024000040240F3
:1050F00010B5044600F0F8FC204610BD18B5924AE1
:10510000136843F4805313600123126802F4805241
:105110000092009A8D4A9360002303E050F82340E8
:1051200014605B1C8B42F9D3106812BD1FB500F0F0
:1051300069FD00F06DFDFFF7DFFD012000F01CFAB6
:1051400000F0C4FA0020FFF7A1FF0021002000F0CA
:1051500061FD0FF218217E4C0CC968460FF2142134
:105160000CC00CC90CC0062202A9204600F092FD1A
:1051700070B906227749684600F0C6FC80218DF898
:1051800004102620E1218DF805008DF8031004E0BD
:1051900006222146684600F0A7FC6A460621002048
:1051A00000F0A9FDFFF778FC02A8019003AB0DF118
:1051B0000A00009007220021012000F001FE0FF2FA
:1051C000BC11654C0CC901A801A90CC00822634898
:1051D00000F08AFCFFF722F80421012000F0B2FD64
:1051E00000F0A2FEE268E188801A814204D200F059
:1051F00054F800F099FEE060FFF7A5FD607848B133
:105200000020607000230A2000900622A08806215A
:1052100000F08EFE207818B100F046F800202070D3
:10522000002000F026FD0028DAD1FFF759FF00F03A
:1052300031F800F032F800F02DF800F02EF800F010
:1052400029F800F02AF800F025F8002000F011FD00
:105250000028FAD000F024F8A078401CA070C0B25A
:105260000328BDDB00F019F800F01AF800F015F87B
:1052700000F016F800F011F800F012F800F00DF848
:1052800000F00EF8364800680028A9D03548FEF72F
:10529000B4FFA5E7642000F049BE0020FFF720BF5F
:1052A0004FF4C87000F042BE10B50FF2D8018AB0BA
:1052B0001CC907A82C491CC01220FFF78FFE002034
:1052C0000690059004900390002307A80290002206
:1052D0000820019000210020009000F0A4FD0AB0F9
:1052E00010BD411C007804282DD10A781A48052ADF
:1052F00004D03E2A0BD0FF2A16D0704700218160CF
:1053000001210170002141704FF4FA610AE011F8A7
:10531000022F012A17D182604988818001214170C2
:105320004FF4FA71C180704731F8022F40F6014303
:10533000D21A05D0133A06D1808820B1FFF7B9BC44
:10534000881CFFF751B870471C38024000300240FB
:10535000161008085000F81F30000020140000202C
:10536000F80F0808000002081C000020123400E1B9
:1053700080020000000000E180260000080200001A
:105380000807FFFF094F54415765535500000000BF
:1053900010B5044610460A460146204600F0FAFDC4
:1053A000204610BD10B5044600F09EFB204610BDFF
:1053B00010B5044610460A460146204600F0EAFDB4
:1053C000204610BD70B504461E000846154604D0A0
:1053D00015F8011BA047761EFAD170BD2DE9F047E4
:1053E00084B08246894614461F46E84607E00123FA
:1053F000224649465046FFF7E5FF8146641C207867
:1054000010B904B0BDE8F0872528F0D16078A41C5D
:105410002528014618D058285CD063280ED064286F
:1054200018BF692814D06F2854D0702858D073281A
:105430005DD0752818BF78284CD0E0E73868386010
:1054400050F8041B3860C9B24846D0478146D6E7B9
:105450003868386050F8045B3860002D03D52D2182
:105460004846D047814664206F2808BF082205D0EF
:1054700040F02001782914BF0A2210220B21642851
:10548000AC4603D1002D48BFCCF1000CBCFBF2F5BB
:1054900002FB15CC0CF130065FFA86FC4B1EBCF10A
:1054A0003A0FA4BFA0F15106B44403F808C019464E
:1054B0005FEA050C01D00129E8DA68460D18484674
:1054C000D1F10B09C2D015F8011BD047B9F1010980
:1054D000F9D1BBE73968396051F8045B3960C3E73B
:1054E0003868386050F8045B38607820BCE738686A
:1054F000386050F8045B3860284600F07FFD0600F5
:105500004846A3D015F8011BD047761EFAD19DE777
:105510000060406070470168814201D101207047FE
:105520000020704702680A604860016008684160B6
:105530007047086042684A6041604868016070478F
:10554000426801681160416800684160704710B5A9
:105550000C46016821600068FFE7FFF7F1FF216852
:10556000002008602168486010BD00004FF4005121
:10557000DFF8100300F087BA70B50446DFF80803BF
:10558000DFF8086386B0016841F0010101604FF463
:105590000075016801F0010100910099016800F0B7
:1055A0007EF800F07CF800F07AF800F06FF80168FF
:1055B00000F06CF8416841F48051416001A94068F5
:1055C00000F4805000900098019501200290002086
:1055D0000390012000F054F800F08BF8202000F038
:1055E00068F8402000F065F8802000F062F808209C
:1055F00001900120029000200390032004900020DD
:10560000059001A9DFF87C62304600F06BF90122B9
:105610000821304600F03DFA4FF40050019001A9F6
:10562000DFF86C02029002200390032000F028F8BB
:10563000DFF86062DFF860023060B5614FF48270BD
:1056400070600020B060F060306170613062706244
:105650000720F0620820F061304600F0EAFC012CDF
:1056600006D1002203212820FEF749FD00F01AF997
:105670003068016841F040010160002006B070BD53
:10568000049000200590304600F02CB941F0040150
:105690000160016801F0040100910099704741F038
:1056A00001010160016801F00101009100990168A8
:1056B0007047019001A9022002900020039003206E
:1056C000049005200590304600F00CB910B56F4CE1
:1056D000002200F009F800F028F8012200F004F898
:1056E00000F023F800BF10BD4FF40071204600F019
:1056F000D0B900224FF40071644800F0CAB980B5F7
:105700004FF400515F4800F0BEF9012818BF002097
:1057100002BD00BF2820FEF71ABD2820FEF711BDEC
:105720005E494FF40050086070470520FEF7AFBC9B
:105730002DE9F0430D4685B00FF2701104460CC9F7
:1057400002A800260CC072B6DFF8389100F023F8EA
:10575000DFF84081052300AA02A9404600F0ADFC15
:105760009DF8000002280FD19DF804009DF8031059
:1057700051EA002708D0BD42B8BF2F46FAB22146F1
:10578000404600F0CFFC3E4600F00AF862B6F0B2A8
:1057900005B0BDE8F08300220821484600F079B941
:1057A00001220821484600F074B92DE9FF478A46D6
:1057B00016461F460FF2FC0104460CC902A8002140
:1057C0000CC000A8002206C0DFF8B88008214046BF
:1057D00000F05FF9DFF8BC90052300AA02A9484653
:1057E00000F06BFC9DF80000022818BF4FF0FF3757
:1057F00015D19DF80150B542B8BF6FF001070EDB1F
:10580000F2B22146484600F073FCA81BC0B2B84271
:10581000B8BF0746FAB25146484600F069FC01227B
:105820000821404600F035F938B204B0BDE8F087F1
:105830002DE9FC4180461A4800680D460A21B0FB5C
:10584000F1F116461F46002400A800F037F8282082
:10585000FEF77DFC3B46324661194046FFF7A5FF47
:10586000002805D43F1A00190026C4B2BFB227B1E0
:1058700000A800F02BF80028ECD000F013F8BDE8E9
:10588000F3810000000802401C3802400000024082
:1058900000001110201100200030014014040140CC
:1058A000C06300082820FEF74CBC00000B0000007D
:1058B000000000000A0000000000000010B50446CF
:1058C0006160FFE700F030FB206010BD10B50446BA
:1058D00000F02AFB22686168801A401C81428041E6
:1058E000C00F10BD2DE9F8470026734A734BDFF84F
:1058F000D0814FF00F0930E005FA0EF73C4343F832
:105900002C406FEA0A07146807EA040E4C68E403A7
:1059100048BF4AEA0E0EC2F800E0546807EA040ED7
:105920004C68A40348BF4AEA0E0EC2F804E094682B
:1059300007EA040E4C68E40248BF4AEA0E0EC2F8B9
:1059400008E0D46807EA040C4F685FEA872E48BF76
:105950004AEA0C0CC2F80CC0761C0F6837FA06F441
:1059600000F08F80012404FA06FC1CEA070AF3D039
:105970004C68022C18BF122C10D1F40800EB840ED6
:1059800006F00704DEF82050A40009FA04F7BD432E
:105990000F6907FA04F42C43CEF820404FEA460E74
:1059A00005680F79032404FA0EF4E44307F00307B3
:1059B000254007FA0EF73D4305604D68012D18BFDD
:1059C000022D03D0112D18BF122D0FD18568CF687D
:1059D000254007FA0EF73D438560456825EA0C0728
:1059E0004D68C5F30015B5402F434760C768274091
:1059F0008C6804FA0EFE4EEA0707C7604F68FF0086
:105A0000AAD5D8F8004044F00104C8F800404FEA95
:105A1000960CD8F8004004F00104009406F0030549
:105A2000009C53F82C404FEA850E09FA0EF5AC4362
:105A3000244DA84208BF002522D0234DA84208BF0C
:105A400001251DD0214DA84208BF022518D0204DA8
:105A5000A84208BF032513D01E4DA84208BF042545
:105A60000ED01D4DA84208BF052509D01B4DA842E8
:105A700008BF062504D01A4DA8420CBF07250825EB
:105A80003AE7BDE8F1870069084018BF0120C0B2BD
:105A9000704702B909048161704742695140416110
:105AA0007047104A1368034200D1704780B51060F8
:105AB00000F052FB01BD000000040140080001405D
:105AC000203802400000024000040240000802406A
:105AD000000C02400010024000180240001C02406E
:105AE000001402401404014062B38B0708D0521E18
:105AF00011F8013B00F8013B00F024808B07F6D140
:105B0000830740F0208000BF103A07D330B4B1E8DB
:105B10003810103AA0E83810F9D230BC530724BF2F
:105B2000B1E80810A0E8081044BF51F8043B40F861
:105B3000043BD20724BF31F8022B20F8022B44BFCC
:105B40000B7803707047083A07D3B1E80810083A99
:105B500040F8043B40F804CBF7D25307E4E70000D9
:105B600010B5264896B0016841F0805101604FF4AD
:105B70008034016801F0805100910099016841F082
:105B800080510160006800F08050009000981C482F
:105B9000016821F4C05141F40061016005200890C2
:105BA0001294012009900A90022011904FF4802055
:105BB00013904FF40000149008A8FDF7B3FE0120E5
:105BC0000390012103200490002005900690079087
:105BD00003A8FEF78AF801200190029401A800F0C2
:105BE000BDFAFEF7B9F94FF47A71B0FBF1F0FEF7A8
:105BF000C3FA0420FEF7D4FA16B010BD24380240D0
:105C00000070004080B5FEF713FABDE80140A7E739
:105C10007047000030B51B4887B00C4601681A4D2C
:105C200041F00101016001A9006800F0010000904D
:105C3000009800200290039003200490042001901B
:105C40002846FFF74FFE012C11D10420019001A935
:105C500000200390032004900C4802902846FFF790
:105C600041FE0B49302008700820FEF76AFA07B0A1
:105C700030BD80B504210448FFF705FF00B10120C5
:105C800002BD00001C38024000000240000021104C
:105C900008E400E00300002013F0030F09D0521EB7
:105CA00022BF13F8010B11F801CBB0EB0C00F3D0BD
:105CB0007047121F22BF53F8040B51F804CB604504
:105CC000F7D0121D0AD200BA9CFA8CFCB0EB0C0083
:105CD00038BF6FF0000088BF01207047521E22BFFE
:105CE00013F8010B11F801CBB0EB0C00F6D0521CED
:105CF00008BF1046704710B50C461146A21CA8B04C
:105D0000812AA8BF42201BDA8DF81C008DF81D40A7
:105D100022460DF11E00FFF745FB00F03DF800F0B4
:105D200036F80C20ADF8060007A80390A01CC0B2FE
:105D3000049000F038F800284CBFFF209DF80000C8
:105D400028B010BD00B589B08DF800008DF80110A5
:105D500000F013F800F016F80F20ADF80A0000A8C4
:105D600004900220059001A800F024F800284CBF00
:105D7000FF209DF8040009B000BD1822002102A8F0
:105D8000FFF716BB3F20ADF80800002170473F2009
:105D9000ADF80400002170471822002101A8FFF788
:105DA00007BBADF8060000A805900120069001A8E9
:105DB000FFF75EB806900120079002A8FFF758B8D9
:105DC00010B58AB08DF800008DF801108DF8022012
:105DD0001C46072200F098F800F08BF800F09FF8BE
:105DE0008A20ADF80E0000A805900320069001A8B7
:105DF00007900720089003A8FFF73AF8002848BF4B
:105E0000FF200ED49DF8040058B9BDF8050020808D
:105E10000C99BDF8070008800D99BDF809000880AD
:105E200000200AB010BD76B592B0199D1B9C611977
:105E30000E311E46292928BF42201BD200F032F81D
:105E400000F02AF800F036F800F040F800F01CF8F6
:105E500000F012F800F057F800F050F8832000F03E
:105E600042F8C0B2049000F053F800284CBFFF2065
:105E70009DF8000014B070BDA41CE4B207A8022273
:105E80001EA92018FFF78EBA6419E4B207A80222EF
:105E90001DA92018FFF786BA022213A90DF11F00D1
:105EA000FFF780BA8DF81C00022212A90DF11D0027
:105EB000FFF778BA18981A998DF822008DF82160AA
:105EC0008DF823502A4609A8FFF76CBA05F108009F
:105ED000C0B207A9451C4454EDB21C9907A822463C
:105EE0002818FFF75FBAADF8060007A80390A01CBA
:105EF00070471822002103A8FFF75ABA3F20ADF8D7
:105F00000400002170471822002101A8FFF750BAB1
:105F100000A805900120069001A8FEF7A9BF3F2028
:105F2000ADF80C0000217047FEF7AEB8FEF7AFB831
:105F300000B58BB000F01FF804A8FFF739FA3F2036
:105F4000ADF81000002140F28110ADF8120001A858
:105F500006900A2007900F20059000A808900120C5
:105F6000099004A8FEF784FF00284CBFFF209DF88D
:105F700000000BB000BDADF80400ADF80610ADF8A0
:105F80000820ADF80A3018220C98ADF80C0000215A
:105F90007047000062F30F2262F31F42401810F0B6
:105FA000030308D0C91A1FD3DB0748BF00F8012D2F
:105FB00028BF20F8022D130030B4144615461039BE
:105FC00028BF20E93C00FAD8490728BF20E90C0087
:105FD00048BF40F8042D890028BF20F8022D48BF93
:105FE00000F8012D30BC7047C91818BF00F8012D0A
:105FF000CB0728BF00F8012D7047000000F1010316
:10600000810704D010F8011B89B18107FAD1026819
:10601000B2F10131914311F0803F04BF50F8042FD9
:10602000F6E710F8011B11B110F8011BFBE7C01ACD
:10603000704710B5040001D1012010BD94F8510043
:1060400020B984F85000204600F0ECF8022084F8D3
:1060500051002068016821F0400101606068A1687A
:106060000843E16808432169084361690843A1695D
:1060700001F400710843E1690843216A0843A16AF9
:10608000084321680860A069616A000C00F0040000
:106090000843216848602168E06A08612068C16996
:1060A00021F40061C16100206065012084F8510085
:1060B000002010BD0068C16070472DE9F041044622
:1060C0000D461646984600270CE000F027F8206899
:1060D00081688907FCD58168C907FCD5C06806F8C6
:1060E000010B7F1CFFB24745EFD30020BDE8F081D4
:1060F000F8B504460D46164600270AE000F00EF8F3
:10610000206881688907FCD58168C907FCD5C0680B
:106110007F1CFFB2B742F1D30020F2BD15F8011B7E
:106120002046C7E7F8B504460D46164600270EE0A0
:10613000FF212046FFF7BEFF206881688907FCD554
:106140008168C907FCD5C06805F8010B7F1CFFB248
:10615000B742EDD30020F2BDFEF728BEF8B50446E5
:106160002078C00755D52C4D2C4E686A40F08050E1
:106170006862686A00F0805000900098306840F4CF
:1061800080703060FDF780FF07463068C00505D499
:10619000FDF77AFFC01B6528F7D325E0686B6168BF
:1061A00000F4403001F4403188420BD02078C00721
:1061B00008D5686B1A4901220A6020F44030002299
:1061C0000A6068636068B0F5803F0FD1FDF75CFF3F
:1061D0000746686BC0F3402040B9FDF755FFC01B70
:1061E00041F289318842F4D30320F2BD606800F4A3
:1061F0004031B1F5403F06D1296821F0C04100F09F
:10620000C04008432860686B616801F4403108436E
:1062100068630020F2BD00000038024000700040BA
:10622000DC064742704700000D480E4A016841F401
:10623000807101608168114081600B4A01681140E2
:106240000160016821F480210160816821F47D01F1
:1062500081600021C1600548054908607047000061
:10626000003802400CC0FF88FEFFFEEE0038000838
:1062700008ED00E019E050F8041BCB0744BFA9F17A
:1062800001035918121F0023042A41F8043BF9D2D4
:106290005FEA827C0B4604D54FF0000CA1F800C0E9
:1062A0009B1CD10744BF0021197050F8042B002A11
:1062B000E1D1704730B5016842688468091801EB84
:1062C0005203D20748BF4C440C30994200D130BD34
:1062D00011F9012B11F8015B002A04F8015B02D5CA
:1062E000521CF9D1F1E7521EF4D5EEE710B507497B
:1062F00079441831064C7C44163404E00A68081DC1
:10630000511888470146A142F8D110BD080000008D
:106310002400000061FFFFFF6C040000280D002036
:106320000000000091FFFFFF78010000080200005C
:106330000000002000F00BF8002801D0FFF7D6FF86
:106340000020C046C046FEF7F1FE00F002F8012032
:10635000704700F001B800000746384600F002F828
:10636000FBE700002021090326311820ABBEF9E726
:106370007047FEE7704770477047FDF780BE704773
:106380004FF40050FFF78DBB38B504460D46284644
:1063900000F006F8A84218BF0024204632BD0000D5
:1063A0007047000001488047014800472962000803
:1063B000B5630008C046C046C046C046FFF7BAFFF6
:1063C000E8030000FFF7FEBFFFF7FEBFFFF7FEBFC9
:1063D000FFF7FEBFFFF7FEBFFFF7FEBFFFF7FEBFF1
:1063E000FFF7FEBFFFF7FEBFFFF7FEBFFFF7FEBFE1
:1063F000FFF7FEBFFFF7FEBFFFF7FEBFFFF7FEBFD1
:10640000FFF7FEBFFFF7FEBFFFF7FEBFFFF7FEBFC0
:10641000FFF7FEBFFFF7FEBFFFF7FEBFFFF7FEBFB0
:10642000FFF7FEBFFFF7FEBFFFF7FEBFFFF7FEBFA0
:10643000FFF7FEBFFFF7FEBFFFF7FEBFFFF7FEBF90
:10644000FFF7FEBFFFF7FEBFFFF7FEBFFFF7FEBF80
:10645000FFF7FEBFFFF7FEBFFFF7FEBFFFF7FEBF70
:10646000FFF7FEBFFFF7FEBFFFF7FEBFFFF7FEBF60
:10647000FFF7FEBFFFF7FEBFFFF7FEBFFFF7FEBF50
:10648000FFF7FEBFFFF7FEBFFFF7FEBFFFF7FEBF40
:10649000FFF7FEBFFFF7FEBFFFF7FEBFFFF7FEBF30
:1064A000EC001C080070000801FFFF11068A97F736
:1064B000C0850611E3BAA70800200C9A6600000107
:1064C000FB0001D007F80008030406080C10182090
:1064D00030F5007E01020304060708090048E801C0
:1064E0002DE9F8432C4F044600F024F88946002695
:1064F00000F01EF8A8B900F024F840F00800286069
:1065000059F8040B44F82600761C202EF8D300F02E
:106510000FF8296821F008012960296821F48061B9
:106520002960FFE73968490849003960BDE8F2830E
:1065300040460DE0386840F0010038604CF25038B9
:106540007047164D286840F48060286028687047BE
:1065500013490140E020B1401E0A68D207FAD4086E
:10656000B9032070470868800744BF02200860080C
:1065700068C0050BD40868800508D4086840050584
:10658000D40868C00402D40868000501D501207051
:106590004700207047FC000B08E000E0043C02408C
:0465A000183C024061
:04000005080063B5D7
:00000001FF
