:020000040806EC
:10000000200C002011260708F9250708FB25070802
:1000100031260708352607083926070800000000A2
:10002000000000000000000000000000FD2507089F
:10003000FF2507080000000001260708032607081F
:100040003D260708412607084526070849260708D0
:100050004D26070851260708552607085926070880
:100060005D26070861260708652607086926070830
:100070006D260708712607087526070879260708E0
:100080007D26070881260708852607088926070890
:10009000072607088D2607089126070895260708D2
:1000A000992607089D260708A1260708A526070800
:1000B000A9260708AD260708B1260708B5260708B0
:1000C000B9260708BD260708C1260708C526070860
:1000D000C9260708CD260708D1260708D526070810
:1000E00009260708D9260708DD260708E12607089C
:1000F000E526070800000000E9260708ED260708A6
:10010000F1260708F5260708F9260708FD2607083F
:10011000012707080527070809270708000000002E
:100120000D270708F8B504460D46164610F098FC52
:1001300010F096FD07464CF2503010F02CFD38B10F
:1001400010F08EFDC01B4CF251318842F3D3F1BD4B
:10015000B04207D2425D471C0119002010F097FC05
:100160003846F5E7BDE8F14010F089BC70B582B0C3
:1001700004460D460A2602E0002010F0A8FD304695
:10018000461E70B1002CF7D0002010F0A0FDC82052
:1001900010F0AAFD002010F09CFD322010F0A4FD0C
:1001A000EDE745B104480090042269460348FFF793
:1001B000B9FF10F0E1FD73BD00000208F80F080858
:1001C00010B582B010F046FE10F04AFE10F04AFE64
:1001D000012010F0FBFF002010F056FD012010F070
:1001E00053FD002010F075FD012010F072FD11F09C
:1001F00096F8002010F06BFD10F05AFE00F020F889
:1002000018B100210020FFF7B1FF01224FF4843123
:100210000FF2440011F0B8F9040003D000210020CF
:10022000FFF7A4FF10F044FE00F00AF818B1002117
:100230000020FFF79BFF601E8041C00F0121F8E7FF
:1002400000208DF80200ADF8000069460DF10200B3
:1002500011F066BA7047000010B5040000F010F805
:10026000200010BD10B5040010000A00010020009D
:1002700000F09CF9200010BD80B500F0C3F902BD6C
:10028000124207D08B0706D00B78491C0370401C24
:10029000521EF7D87047830706D00B78491C0370AD
:1002A000401C521EF9D1704770B4103A03D378C97C
:1002B000103A78C0FBD2530701D318C918C001D532
:1002C00008C908C0D20704D30B880380891C801C8E
:1002D000002A01D50B78037070BC704730BF70479F
:1002E0000F49602801D120220A60086070470B493D
:1002F000602801D140220A600860704709488021C7
:10030000C90101607047000072B6704762B670475D
:10031000002800D0042004490860704700E100E094
:1003200080E100E004E400E010ED00E038B5964C18
:10033000842200212000FFF795FF646024602000E4
:100340000830E06020000830A06000252801211856
:10035000143120000830F1F76CF96D1C072DF5D32E
:1003600031BDF8B50500687B401E3A2801D3422014
:10037000F2BD854C20000830A168884201D11F20C1
:10038000F2BD694620000830F1F75AF91022290021
:100390000098FFF761FF266800988068FA218900BD
:1003A000484300998860B4421AD0FFF7ADFF774FF9
:1003B000386877490968081A05022D0AFFF7A6FF71
:1003C000280000F0DAF8050000988068854212D312
:1003D0000020B863B0684019B0603668A642F9D111
:1003E00000992000F1F725F90098806800F09CF84A
:1003F00000F0B8F808E000992000F1F71AF9009829
:100400008068401B009988600020F2BD38B55E4DC1
:100410002C68417B00E02468AC4211D0627B9142A1
:10042000F9D121002800F1F723F921002800083034
:10043000F1F7FFF82868854202D156480021016093
:1004400031BDF0B587B000240025FFF75DFF4E4FAA
:10045000387C002860D03C743E68FFF757FF02E00C
:1004600009F0FFFD3668BE422ED0B0680028F9D1F1
:10047000641CEDB2A80069460E506D1C707B411ED5
:10048000022912D9C91EEBD0491E1AD0491E09D023
:10049000891E08290CD9093920290FD921390729A2
:1004A00009D9DFE709F0BAFDDCE707F0BCFAD9E7C4
:1004B00006F038FFD6E708F089FDD3E702F077FBB6
:1004C000D0E7F3F7A5FFCDE700250DE0EDB2A800DA
:1004D00069460E5831003800F1F7CAF8310038008B
:1004E0000830F1F7A6F86D1C2000441E0006EDD17F
:1004F00039688F420CD088688A68824200D2100026
:100500000968B942F8D100F00FF800F02BF805E0C7
:1005100020480021016001E0FFF7F8FE07B0F0BDC0
:10052000194801210174704738B517490A681A4BF8
:10053000984205D9180003E093681B1A936012686B
:100540008A42F9D111490D68144C2540144900F034
:1005500081F80002F5F797F92818210000F07AF8E1
:10056000080032BD0B490002000A802252040243F7
:100570000A60074809680160704780B5F5F790F98F
:10058000000A0749484302BDB40F0020100000A52F
:10059000F8100020480000A580969800FFFFFF009B
:1005A00071020000401A0012704700001206130A80
:1005B0001A43130C1A4300BF094205D0830705D024
:1005C0000270401C491EF9D170470000130030B47E
:1005D00014001500103902D310393CC0FCD2490771
:1005E00000D30CC000D504C0890002D30280801C57
:1005F000002900D5027030BC704700000022DBE704
:100600000022E3E710B402E0401C491C521E002AFD
:1006100009D00B7804789C42F6D002D20020C04367
:1006200002E0012000E0002010BC7047CA0F00D09B
:10063000494203105A400DD004B500D3404200F0A7
:1006400009F8009AD20701D34942124200D540422C
:1006500004BD0000094210D088420BD301220023C0
:1006600000185B418B4200D35B1A5241F8D319004A
:100670001000704701000020704708B500F0E0F856
:1006800008BD000010B50C001A490978032901D0F3
:1006900012200AE0C0688178027840780002104396
:1006A000F3F748FC452800D100200421617210BDF9
:1006B00010B504004120617C062901D0052917D11D
:1006C000012060740422002120000830FFF7CAFDD9
:1006D000FF220021E068FFF7C5FD2020FFF700FEA4
:1006E00021000548F0F7A4FF2020FFF700FE0020BE
:1006F00010BD00008E1800201011002010B504005D
:100700000F20207204206072E0680170E0681249D6
:1007100020310978417011480188E068801CF0F7A9
:1007200004FC200006F0FEFA10BD38B504000D00F0
:100730000E202072E06808492031097801700748CE
:100740000188E068401CF0F7F0FBE068C57020000D
:1007500006F0E8FA32BD0000101100208C180020CD
:1007600031480078704710B52F4C01222270F5F700
:10077000C3F80021217010BD10B582B0A12212066D
:100780000023DB43136190610B784C7824021C43F7
:100790008B781B042343CC7824061C4354617723B5
:1007A00013601369DB07FCD58000204A10580090C5
:1007B00004226846FFF760FD002800D04A2016BDDD
:1007C000F8B504000E00170019482018802109010F
:1007D000884201D34A20F2BD002500E02D1DBD4214
:1007E00008DA7119A0B240198008FFF7C5FF002888
:1007F000F4D0F2BD0020F2BD10B50E4B984207D3E5
:1008000043180D4CA34203D20C4B0024E4431C605C
:10081000002304E0DBB20478D454401C5B1CDCB23F
:100820008C42F7D3002010BD0711002000000210F9
:100830000000FEEF0000011001080210080000A1F6
:1008400070470000F0B583B0324F334D334C606BCE
:100850003349884219D1062221002431681DFFF74F
:10086000FBFC02222100B81DFFF7F6FC1022211D1F
:1008700038000830FFF7F0FC10221434210018373C
:100880003800FFF7E9FC0020FEBD0621681D0BF0D3
:10089000D6FBA87AC0210143A9720622691D200057
:1008A0002430FFF78DFF06000221B81D0BF0C7FBB7
:1008B0000222B91D2000FFF783FF05001021380038
:1008C00008300BF0BCFB102239000831201DFFF767
:1008D00077FF694608711021380018300BF0AFFB24
:1008E00035436846017929430D0010221837390035
:1008F00020001430FFF764FF284301D04A20FEBDDA
:1009000007480090694634342004800CFFF734FF18
:10091000FEBD00BF6C1100209C11002000000210E1
:10092000AAAAAAAAF0B420200004182140180002A4
:100930000022002300240025002600270221FCC0FD
:10094000FCC0FCC0491EFAD1012109024018262131
:10095000FCC0FCC0FCC0FCC0491EF9D1FCC0FCC0FE
:100960003CC03CC0F0BC704710B5084979441C310C
:10097000074C7C441A34A14206D0081D0A68891825
:1009800088470100A142F8D110BD00BFCCF8FEEFAE
:10099000C8F8FEEF10B400210268001D002A0BD039
:1009A0000368001DDC0702D54C46641E1B19196044
:1009B0001B1D121FFBD1EFE710BC7047D9FFFFFFD3
:1009C00000010000901800205C0600009019002033
:1009D00038000000000002102C050000DC0B002095
:1009E00000000000FB349B5F8000008000100000CE
:1009F00000000000FFFFFFFFFFFFFFFFFFFFFFFF03
:100A0000FFFFFFFFFFFFFFFFFFFFFFFFFFFFFFFFF6
:100A1000FFFFFFFFFFFFFFFFFFFFFFFFFFFFFFFFE6
:100A2000FFFFFFFFFFFFFFFFFFFFFFFFFFFFFFFFD6
:100A3000FFFFFFFFFFFFFFFFFFFFFFFFFFFFFFFFC6
:100A4000FFFFFFFFFFFFFFFFFFFFFFFFFFFFFFFFB6
:100A5000FFFFFFFFFFFFFFFF00300020D7DB01108B
:100A60003FDB011049DB0110000000000000000026
:100A70000000000000000000000000000000000076
:100A80000000000000000000000000000000000066
:100A900000000000000000005BDB0110BFDB011064
:100AA00063DB01106FDB01107FDB011081DB0110C4
:100AB000CFDB011077DB011089DB011093DB011024
:100AC0009DDB0110A7DB0110B1DB011059DB011028
:100AD00059DB011059DB011059DB011059DB011002
:100AE00059DB011059DB011059DB011059DB0110F2
:100AF00059DB011059DB011059DB011059DB0110E2
:100B000059DB011059DB011059DB011059DB0110D1
:100B100059DB011059DB0110FFFFFFFF29AA01106B
:100B20004BAA011071AA011013AB01104F63011001
:100B300013630110C1A20110F7A201104DCC0110E6
:100B400009990110D1980110CD9901100598011053
:100B50006B980110799C0110D19A0110399A0110FB
:100B600015A201101D8501103F1C0110CD1C0110A4
:100B7000F58A0110D91E01108B320110EB310110E2
:100B80003B320110ED0A01108DBC011099BC01101F
:100B90006984011039CC01104F840110D7830110F2
:100BA0000F840110A5830110A1840110810D011093
:100BB000D50E01102910011015150110891701100B
:100BC000991A0110351B0110D91B01104330011077
:100BD000833001105D300110CF300110F33201106D
:100BE0008933011031300110FB3301102935011018
:100BF000153601102D3601107134011053360110D5
:100C00000D36011085350110AD3601103137011058
:100C10001D36011021360110D9370110433601105D
:100C2000B53001102536011035360110A51601101A
:100C3000A7BC011077BD011059BC01101D8A01101D
:100C4000217F0110D19101100B010110B50101109C
:100C5000F5220110FB280110C3BE01108FBE011048
:100C60005763011083BE01105DB401102DCE011039
:100C7000B1B3011035AE011035B301106DAE0110E6
:100C8000EDB30110EBAC011011AD011049AD011035
:100C900089B40110DF950110F3950110EF95011053
:100CA000E9950110DD7E0110B5A60110E5B2011035
:100CB000010001100D0001102100011039B50110D3
:100CC00015C90110E5CC0110F1630010A5640010F6
:100CD000E96400105BCB01106DCB0110BF65001003
:100CE000D5CD01109D6700108DCB011071680010EB
:100CF000F5BA0110BD6900105B6A001065C00110F3
:100D00004DC40110956C00103DC70110D96C001046
:100D1000116D0010816D00105BC8011071D20110BF
:100D200099BA0110AD46001011D301104D7C00108E
:100D3000A17C0010217D0010F79501109143001057
:100D4000E5950110F0B593B004A89F490A680260C8
:100D50009E4C5820205CC00701D5632014E1002779
:100D60005820002121549A482C30009082782C2061
:100D7000424398480068FFF775FA20001030606120
:100D800020001030206120000830E0602000083092
:100D9000A0606460246020001830E06120001830FA
:100DA000A0612000203060622000203020622000FE
:100DB0002830E06220002830A062200030306063DC
:100DC00020003030206320003830E06320003830CD
:100DD000A063200040306064200040302064200088
:100DE0004830E06420004830A06420005030606546
:100DF000200050302065582027540020E42149006D
:100E0000611802910101611817224243029B1B687D
:100E10009A180A67401C0A28F4D3002041010918D7
:100E2000029A12685118E6318A225200182343436D
:100E3000E3189950401C0828F0D3002516E02C2612
:100E40006E438021634800688019F5F7C3F9614853
:100E500000688019F721490017226A43029B1B682A
:100E60009A1851184162172181706D1C0098807882
:100E70008542E4D30025280121186831200018306C
:100E8000F0F7D7FB6D1C052DF5D30525280121189A
:100E9000683120002830F0F7CCFB6D1C0A2DF5D30B
:100EA000002584204000182169436118091820009A
:100EB0004030F0F7BEFB6D1C082DF2D3E620400059
:100EC000275200980078460800984078C0080290A1
:100ED000002507E028206843E16D09182000F0F79D
:100EE000A8FB6D1CB542F5D30126009800780121BE
:100EF000014000980170002508E030206843216E11
:100F0000091820001030F0F794FB6D1C0298854200
:100F1000F3D3009840784007400F009948700120B3
:100F200002F0C8F80DA806707E4941800123042212
:100F30000DA901A800F050F8002822D105A86946A3
:100F400089880180784981800425858286702021E6
:100F50008175C7750776072141760C9705A901A809
:100F6000801C00F08DF900280BD103A80780458074
:100F700004AB03AA6846C188808800F031FD0028D0
:100F800002D058342770472013B0F0BD10B582B09E
:100F9000002000900D4C5820205CC00701D4472051
:100FA00016BD694620004030F0F772FB58342078B7
:100FB000800706D5F4F704FA0099814201D2642033
:100FC00016BD002016BD000018E00110DC0B00204B
:100FD0006C110020F4100020F5B589B01E000878CF
:100FE000009005A8891C1022FFF74AF9FFF7CEFFF1
:100FF000002823D16846008D002879D09D4D0098A7
:10100000012809D16846808A4649884204D12800CF
:101010000830A96888426BD12800103029698842BD
:101020000BD002A92800F0F733FB6846078D781E25
:10103000049002980499884201D21F2070E001A90F
:1010400028000830F0F724FB0198002811D0EC6844
:1010500002A920001830F0F71BFB01A92000203066
:10106000F0F716FB208D0299401801994418641C72
:1010700000E0012480204002A4B2001BB84201DA43
:1010800062204DE02F6928680390012E04D13800BA
:101090001830A021890104E0022E29D1380018302F
:1010A00075494182009801281ED1022205A9380005
:1010B0000830FFF7D1F83E001836009830753482BA
:1010C00009980480390028001030F0F7D1FA39006F
:1010D00028000830F0F7ADFA766036602037F76008
:1010E000B760049C002C10E0022801D11022DDE73B
:1010F000612015E003992800F0F7BAFA039930004F
:10110000F0F797FA28680390641EF3D109980088D5
:101110006946098D4118491E89B201F065FA00201F
:101120000BB0F0BD01180000052A0000F1B58AB02F
:101130000D002C88688869460880A888488005A822
:10114000290008311022FFF79BF8AE79FFF71EFF48
:1011500000280ED16846408869460988884247D3EE
:10116000002945D004A9200001F0F0F9012801D0A0
:1011700060207CE0049D03A928001830F0F788FA6D
:10118000039800282ED0A869029001A928002030D9
:10119000F0F77EFA39480199002913D0696A0831BD
:1011A0002A8D039BD218019BD2188B8A9A4201D1B7
:1011B00062205CE00A88824202D1C97E012901D006
:1011C000632054E0012E0FD10621029C0834E182F5
:1011D0002849E62252008F187A883B88D21AE38A7F
:1011E0009A4207DA1F2042E0022E01D10421ECE7E7
:1011F00061203CE02A8D019BD218521C0A9B1A8068
:10120000A2820122E27620803888496E0818206187
:1012100002226946FFF720F8022200A9891C2069F2
:10122000801CFFF719F83888001D3880012E08D17E
:10123000022205A92069001DFFF70EF83888801CDE
:1012400038800020607701212177A076A07702996D
:1012500028001830F0F70CFA029920352800F0F732
:10126000E8F90A980188080001F0BEF900200BB0E7
:10127000F0BD0000DC0B0020012800000228000067
:10128000F1B598B00C00684621884182A078694683
:1012900048720AA8211D1022FEF7F2FFA08A6946B3
:1012A0008881A07D0872E07D8872207E0874607E4F
:1012B000C872E06909900024002568468483FFF71E
:1012C00065FE00280CD168468089C64988426FD2E5
:1012D00008A96846408A01F039F9012801D0602048
:1012E0007DE1089F6846468AF2F705FF864211D1E4
:1012F00002A801900AA883B069460CC80CC10CC8AA
:101300000CC10EBC6846407AF2F7FCFE002801D002
:10131000662064E16846007A3021084204D0012446
:10132000B1482E30007845006846007AC00703D5E2
:10133000641CA4B2AD1CADB26846007A000603D5A9
:10134000641CA4B2AD1CADB206A938001830F0F789
:101350009FF9A61C0698B04239D305A93800203061
:10136000F0F796F9059800280BD0388D06994018AB
:1013700005994018796A898B401AB04201D26220DF
:101380002DE1BE69306801906846407A012801D19C
:10139000052004E06846407A022809D11320F08332
:1013A000019A6846C17A807AF3F70AFF612801D171
:1013B000612014E19E480090408800990988401AF5
:1013C000F18B6A46928989184919884201DA1F20EF
:1013D00005E105A938002030F0F75AF905980028F2
:1013E00002D0786A808B00E0388D401C1899088004
:1013F00018980088B083019D183518980088401C03
:10140000A8807A48308123200121315422200021F4
:1014100031542620315400980088D149496E08186B
:10142000B0616946097A0170022201991C31B069E4
:10143000401CFEF711FFB0696946497A01290ED1B7
:1014400002220AA9C01CFEF707FF02220AA901987E
:101450000830FEF701FF00980088401D0DE01022C3
:101460000AA9C01CFEF7F8FE10220AA9019808304C
:10147000FEF7F2FE00980088133000990880684655
:10148000407AE87268468089E8800998A8726846C0
:101490008089308468468089288100980088B04916
:1014A000496E0818286069468A890021FEF7DAFE2D
:1014B000009800886946898940180099088024208E
:1014C0000121315425200021315429736846007AC6
:1014D000800701D50120287308206946097A014256
:1014E00003D0297B02220A432A7304216A46137A15
:1014F0000B4202D02A7B114329736946097A4906B7
:1015000002D5297B084328736846807A6873684649
:10151000007CA873310038001830F0F7A9F83100CA
:1015200038002030F0F785F8019938001830F0F7CE
:101530009FF8019920373800F0F77BF8200646D055
:101540000EAD6846408A2880B08B68800220A88251
:10155000E8820120287607A815902220012129542D
:1015600021200F21295420206946897A38220A40F7
:101570002A54232007212954002068626846007AF3
:10158000C00706D57748A8800EA903A8801C00F0E4
:10159000EDF86846007A3021084206D07248A880EB
:1015A0000EA903A8801C00F0E1F86846007A000646
:1015B0000DD5A4208001A8802120012129542035A7
:1015C000002028700EA903A8801C00F0CFF81898FE
:1015D00000880119491C89B201F006F8002019B0F1
:1015E000F0BD0000010200006C1100200328000083
:1015F000FDB586B008000E9C199901275A4A012CA6
:1016000006D16B469B8F934202D1BB4B2E331F7882
:1016100014AB1B887B430193054B00935B88009DB3
:101620002D885B1B019DAB4205DA1F2095E000BFB2
:10163000A80D00200068079B2033984227D00300A4
:101640000833DD7E012DF5D16D461B882B816B465D
:101650001B89951EAB4212D06B461B89551EAB42AF
:101660000DD06B461B89934209D06B461B89551CD4
:10167000AB4204D06B461B89D51CAB42DAD16B461A
:101680001B896D46AD8FAB42D4D1632065E00798CE
:101690008669320016A80078F3F792FD612808D019
:1016A0001A98012807D114A8008813A9098888422C
:1016B00001D2612051E03500183513A80088E88078
:1016C0001A98A87214A8008828810898808B401C5A
:1016D000A880EC72012C06D1300008300FA910222E
:1016E000FEF7CEFD05E010220FA930000830FEF70E
:1016F000B3FD009800881A49496E08182860002434
:101700000AE013A90A88159914AB1B8858432B6863
:101710001818FEF7A1FD641CE4B22000B842F0DB0B
:1017200000980088019940180099088016A8007850
:10173000687317A80078287318A80078A873310078
:1017400007981830EFF794FF310007982030EFF733
:1017500070FFA88806990880002009B0F0BD00003D
:10176000DC0B00200329000002290000F1B598B02D
:101770000F003E8868467988018014A8391D102220
:10178000FEF77EFDBC8AFD8A0DA8397E0170F869DE
:1017900013900EA82021795C01700DA8C01C212196
:1017A000795C01700DA8801C2221795C01700DA864
:1017B000401C2321795C01707F6AFFF7E7FB00285A
:1017C00053D19E4884424FDAA5424DDB002F01D110
:1017D000AC4249D112A9300000F0B8FE012808D16E
:1017E000129E10AA310068460088F3F7F5FC012824
:1017F00001D0602039E00FA930001830EFF748FF22
:101800000F98002801D11F202FE011A930002030AF
:10181000EFF73EFF736A308D0F9940181199401809
:10182000998B401A01D162201FE01098083001887E
:10183000834A914218D1C07E012815D110980068C2
:1018400001680DA80078012826D114A80088FD326F
:10185000801A07D0801E012804D9801E07D0401EA0
:1018600008D019E0022C17D0612019B0F0BD072C68
:10187000FAD111E0042CF7DB0020001940104000E1
:10188000201AF1D1012F07D1042DEDDB00204019E2
:1018900040104000281AE7D10C970DA8401C007892
:1018A0000B900DA8801C00780A900DA8C01C007831
:1018B00009900EA800780890139807900695059453
:1018C00014A801AC24C824C424C824C40DA80078DA
:1018D000009032001898FFF78BFE0028C5D114A89D
:1018E00000885849884204D018980188080000F000
:1018F0007BFE0020B9E700006C110020F2B584B037
:10190000010008884C888D88CF880E894E4958314F
:101910000978C9075DD549498E425EDA01A900F010
:1019200015FE012857D16A4601992000F3F754FCAF
:10193000012850D100980830414902888A424CD190
:10194000C07E012849D100980068026800E0126852
:101950000198203082423ED014000834208888420A
:1019600002D1E37E012B36D0A38AAB42EFD1A17E18
:10197000F219002902D1E38A934204DA012928D11D
:10198000218B914225DB01210291E17E012906D1C3
:101990002C49884203D12D482E3000780290002532
:1019A00007E032000499704323691818FEF754FCCD
:1019B0006D1CEDB2280002998842F2DBA07E01285E
:1019C00005D1012F02DB208BE08200E0E6820020BF
:1019D00004E0472002E0602000E0612005B0F0BD97
:1019E000F0B585B006000D0014001F0016485830F1
:1019F0000078C00701D447201DE003A9300000F0A3
:101A0000A5FD012806D102AA03992800F3F7E4FBFB
:101A1000012801D060200EE02088002803D0029821
:101A20000068038C00E0638801970094032229007A
:101A3000300000F00DF805B0F0BD0000010200001C
:101A40000328000002290000DC0B00206C1100209C
:101A5000FDB58AB00D000020039000240890A24834
:101A600058300078C00701D447201AE11298408806
:101A7000079005A96846008D00F068FD012806D191
:101A800004AA05992800F3F7A7FB012801D06020DC
:101A900007E10498009023300078012803D10098D2
:101AA00000899249884200D0EBE0022500988069C5
:101AB00000783021084230D08B48583000782842D6
:101AC0002BD0002104E0400701D501200890491CDB
:101AD000AC482E300078814209DA2C204843AA4ACB
:101AE0001268101880698207EDD06420D9E00BA835
:101AF0000078042801D30BA804700BA80078800795
:101B00000BD00598203009900498006800E00298F6
:101B10000068029002980999884277D008300190B5
:101B200000887249884203D10199C97E01296DD08C
:101B3000BE498842EBD10198C07E0128E7D100213F
:101B400049E02C204843904A126810180288120578
:101B500040D04A00019B1B699A1853781B021278E7
:101B60009A1892B200230BAE3678F6070BD5009E7A
:101B7000B6693678F60606D5D60704D501232600C1
:101B800001243443E4B20BAE37782F420DD0009ECF
:101B9000B6693678B60608D5920706D51A0002232C
:101BA0001343220002241443E4B2DA0703D5826906
:101BB0000126164386612B420CD06A46128D012AFB
:101BC00005D1089A002A02D0027E520702D5826906
:101BD0002A438261491C6B482E3000788142B0DB79
:101BE00003A941484030EFF753FDA00702D0039806
:101BF000002804D0032C8AD10398022887D28020A1
:101C000001F058FA64200021032445E0129800886E
:101C100000990F683E0018363189079A8218914260
:101C200008DBB37A012B07D16B461B8E994201D397
:101C3000934201DA6120E6E7079A1399336818188E
:101C4000FEF70AFBB07A012802D16846008EF080C8
:101C5000F088694608832C4207D033686846028BB7
:101C600039001C31022000F01EF8E00707D5336868
:101C70006846028B1C373900012000F014F8002060
:101C80000FE061200DE02C224A433F4B1B689A185D
:101C90009369A3439361491C3A4A2E3212789142C8
:101CA000F1DB0DB0F0BDF7B505000022364E35482A
:101CB00000E0521C2E21415C8A4213DA2C2454434A
:101CC000316809198F69FFB22F42F2D0009368463C
:101CD0000389019A280000F04DFC306800198169E1
:101CE000A9438161F7BD0000DC0B00200328000040
:101CF000F0B585B005000C00FFF748F900283FD18A
:101D00006946280000F022FC012806D101AA0099AA
:101D10002000F3F761FA012801D0602030E001983B
:101D200008307E4F0188B94229D1C17E012926D1D0
:101D3000009920310391019E34686946808A0881A8
:101D4000B58B310000982030EFF792FC31000098FD
:101D50001830EFF76EFC2600346830000830018838
:101D6000B94202D1C07E012802D003988642E7D151
:101D700029006846008900F037FC002000E061205F
:101D800005B0F0BD6C110020F4100020F0B583B058
:101D900004000025FFF7FAF8002845D1012C01D1F5
:101DA0006320FEBD6946200000F0D0FB012801D071
:101DB0006020FEBD68460099098D8180009C183422
:101DC0002668574F0AE0310000981830EFF750FCB2
:101DD00031003800EFF72DFC26686D1CA642F2D1C9
:101DE000009E203608E0210000982030EFF740FCEC
:101DF00021003800EFF71DFC34686D1CB442F2D1AD
:101E0000009938000830EFF733FC0099103738009C
:101E1000EFF70FFC68468088EDB2411989B2684639
:101E2000808800F0E1FB0020FEBD000002290000D8
:101E300030B583B005000C00FFF7A8F8002829D1C1
:101E40006946280000F082FB012806D101AA00990A
:101E50002000F3F7C1F9012801D060203EBD0198B0
:101E600008300188B04A914213D1C17E012910D1B6
:101E7000848A019900982030EFF7FAFB01990098C5
:101E80001830EFF7D6FB2100200000F0ADFB00205A
:101E90003EBD61203EBDF0B5214B58331B78DB07BA
:101EA00001D46320F0BD1E4B9B6800E01B681C4CF6
:101EB0000834A3422FD01C0028342588854209D13C
:101EC0002079012801D1022000E01020083313609E
:101ED00008801EE01FD21D0020352E6802E0B842A7
:101EE00019D33668AE42E1D034000834A78A87425D
:101EF000F5D10120E37E012B06D12388C44DAB42EE
:101F000002D1C4482E300078E38A43430B80206915
:101F100010600020F0BD4120F0BD0000032800004B
:101F2000DC0B0020F0B589B00188069141886A4633
:101F300091810179089141799170C18801918068FE
:101F40000790069880B202F045FD029000287BD0F1
:101F5000764F05A938003030EFF79AFB0598002836
:101F600000D18CE002988069800300D487E03D6B4B
:101F700000246CE0022203A9701CFEF77DF9002802
:101F800063D168464078162802D168460521017061
:101F9000684600780199AA89121A914255D10A46D9
:101FA00031180798FEF768F900284ED104A93800C7
:101FB0004030EFF745FB0898002816D130781228FA
:101FC00005D1049A2900029803F0AEFB14E0380012
:101FD000303001903800283000903B003833049AAC
:101FE0002900029803F04EFC06E0049B68468289B3
:101FF00041788078F4F7F2F8040080218902029891
:10200000F4F7E4F8002C18D1290038003030EFF74D
:102010002FFB290038002830EFF70BFB069800054E
:10202000000D04990881049948373800EFF701FB47
:1020300010210298F4F7CEF871E0412CEED104990A
:1020400040373800EFF7F5FA6BE02D68641CE4B216
:102050000598844213D2E8890005000D069988424C
:10206000F4D1AE68684631784170032101703800C0
:102070004030396C884200D07CE7642052E005A9EA
:1020800038002030EFF704FB0598002849D002986B
:102090008069400345D53D6A002401E02D68641C39
:1020A000E4B2059884423CD2E8890005000D069907
:1020B0008842F4D1AE683078522801D0D228EDD1D0
:1020C000022203A9701CFEF7D7F80028E6D1019A76
:1020D0000799F01CFEF7D0F80028DFD1069989B2E5
:1020E000F3F722F9089800280AD102988069802124
:1020F000C9040143029881612900029803F084FD1C
:102100008021C9020298F4F761F8290038002030D4
:10211000EFF7AEFA290018373800EFF78AFA0020F7
:1021200000E0412009B0F0BD02280000DC0B0020D7
:10213000F0B583B0070002F04DFC060065D001A9A0
:1021400035483030EFF7A4FA019800285DD03248C6
:10215000046B0198E189B94254D1A568B1690903BA
:1021600050D52D4840302C49096C884248D06946EA
:1021700029484030EFF764FA28780A2805D1009AF8
:102180002100300002F000FF16E00C2805D1009A73
:102190002100300002F08FFF0EE00E2805D1009ADA
:1021A0002100300003F030F806E008282DD1009A15
:1021B0002100300002F068FD050080210903300095
:1021C000F4F704F8002D0AD1210013483030EFF75E
:1021D0004FFA210010482830EFF72BFA01E0022DCA
:1021E0000CD000983905090D018100990A48483042
:1021F000EFF71FFA10213000F3F7ECFF0020FEBDCF
:102200006420FEBD2468401EA4D14120FEBD000014
:10221000022900006C110020DC0B0020F0B589B011
:102220000D00002404948A4F5821795CC90700D41A
:10223000C0E0390018310791012807D005D30328E1
:102240002DD01ED3042800D1B6E07CE1022000F09E
:1022500031FF804900E0641C2E20085CE4B2844217
:10226000F3D22C2060437C4A126810180288002A9E
:10227000F1D10400A878E978090201432180042102
:102280006DE06978A8780002084302F0A3FB04001F
:1022900004D0A0698021C9030143A16153E12889C9
:1022A00002F098FB0400F9D0A069410767D4E968FF
:1022B000891D009169890E1FB6B2012EEEDB0099CF
:1022C00009781E2914D1020712D508212000F3F73E
:1022D0007DFF21880120F3F727F80020029001906C
:1022E0000090002300222188A14804F019FA2AE175
:1022F0004A0623D5D22901D05229F8D121880020BD
:10230000F2F7FFFFA078B042F1DB079800683900D0
:10231000183181424CD00390320000998068FDF75B
:102320009BFF0398868103982989C181039938000E
:102330001830EFF79DF903992037F5E0CA0712D559
:102340001D2914D01B2912D08025ED00284231D13F
:1023500032000099606AFDF77FFF26852900200082
:10236000F3F738FFEFE021880020F2F7CAFF3800CA
:1023700028300799096988421AD0207EC00617D4F0
:1023800003A938002830EFF75BF903988068A1783B
:10239000B14201DA012200E032000099FDF75CFF52
:1023A0000398868103982989C18103993037BBE05E
:1023B0004520C9E04120C7E006942900380040309C
:1023C000EFF737F906A938004030EFF761F90698C2
:1023D000022813D35820385C00060FD5802000F067
:1023E00070FE684606998182029405A801900094C7
:1023F000022300222989904804F092F9288902F0EA
:10240000E9FA040022D0E9688E1D3078032815D03F
:10241000052813D0072811D009280FD00B280DD07C
:102420000D280BD00F2809D0112807D0132805D06C
:10243000172803D0192801D001280FD1102120001E
:10244000F3F7C4FE21880020F2F76EFF7BE000BFA7
:10245000DC0B00206C110020F4100020022817D0A3
:10246000042815D0062813D0082811D00A280FD028
:102470000C280DD00E280BD0102809D0122807D018
:10248000162805D0182803D0522801D0D22815D1FB
:1024900040212000F3F79AFE80252D01A0692842F3
:1024A00051D0E9082000F3F795FE21880220F2F7C9
:1024B00028FF29002000F3F789FE44E05F4E1D2825
:1024C0000CD121880120F2F71CFFE9680B000933C9
:1024D0006889821992B2C91D022032E01E2827D1D4
:1024E0000798856904A938003030EFF7D1F82188C2
:1024F0000320F2F719FF802149012000F3F766FE5F
:1025000002E0002900D02D680498411E04910028A3
:1025100019D0A86800781D28F3D129003800303080
:10252000EFF7A6F8290028373800EFF782F80AE01D
:102530001B2808D10B0009336889821992B2C91D82
:102540000120FFF7B0FB002009B0F0BD10B5A74A8D
:10255000936800E01B6814000834A34205D01C8D6A
:102560008442F7D10B60012010BD002010BD000097
:10257000170C0000F2B5060011001D00FC200642F9
:1025800001D04120F2BD9948076CFC68A41D0222CD
:10259000601CFDF761FE00988078C11E89B228009A
:1025A00002F046FA05002A000699E01CFDF754FEE9
:1025B000ED1C7D81009800880005000D3881012EFA
:1025C00003D11B20894D483502E01D20874D503531
:1025D0002070390085484030EFF74AF8390028006C
:1025E000EFF727F80020F2BD7FB506000D0041246B
:1025F00002A90120FFF7AAFF01281AD103AA029914
:102600000220F2F7E9FD012813D17848583000780C
:1026100080070ED501A8068045806846002101800C
:102620000421418001AB6A4602210120FFF7D8F95D
:102630000400200004B070BD160C0000F9FF00007B
:10264000F8B500200090694E5820305CC00700D4D7
:10265000C1E0002513E040070FD520880005000DDC
:1026600004F03CFE002804D120880005000D00F095
:1026700065FB04212000F3F7A9FD6D1CEDB25C4859
:102680002E300078854219DA2C20684359490968B0
:102690000C1820880028F0D0A069410203D5200042
:1026A00000F036FDE9E78102D5D50023002220881D
:1026B0000105090D504804F075F9F0E7370020379F
:1026C00030005030396B88421CD0694630005030A1
:1026D000EEF7B6FF0098008902F07CF90400207E36
:1026E000000700990AD4042006F021FA002804D13A
:1026F00008212000F3F76EFD04E00099300050300F
:10270000EEF796FF00F092F93000303039698842D8
:1027100007D030004030396A884202D0012000F0F2
:102720006DF8300020303968884209D0002000F070
:1027300065F805E0002C03D080212000F3F74AFD66
:1027400030004830B96A884224D0694630004830A9
:10275000EEF776FF00240098008980256D0128425D
:1027600008D002F037F90400009800890005000D38
:10277000009908810099042006F0D9F90028D9D0E1
:102780000098008905430098058100993000483081
:10279000EEF74EFF30004830B96A88421BD1300056
:1027A00020303968884216D15036386B864212D1B3
:1027B00000250BE02C2068430E4909680818806941
:1027C0009021C900014080290ED16D1C08482E308F
:1027D00000788542EEDBFDF797FD924801780222F2
:1027E0000A430270FDF792FDF1BD0000DC0B0020F2
:1027F0006C110020F4100020020C0000F0B585B030
:102800000225894F002800D1D8E0012800D007E137
:102810003E6B03A938003030EEF73AFF0EE010218E
:102820002000F3F7D7FC029821880905090D0181E2
:10283000029938004830EEF7FCFE049E0398411ED2
:102840000391002803D038004030396C884200D111
:10285000E6E002A938004030EEF7F2FE306804905E
:10286000B0680090F08902F0B5F80400A078B18952
:10287000884208D2029B0022B06801780420F3F756
:10288000ADFC002586E000980178022916D00429C5
:102890001AD006291FD0082923D00A292AD00C29AA
:1028A00031D00E2938D010293FD0122943D0162913
:1028B0004AD0182959D01D2962D063E0029A31000C
:1028C0002000F3F74DFB62E0029B3200210038004C
:1028D000F3F78AFB5BE0029A3100200002F0B2F8C5
:1028E00055E0A069000353D4029A3100200002F0A1
:1028F000CBF94CE0A06900034AD4029A31002000D1
:1029000002F042FB43E0A069000341D4029A310087
:10291000200002F0D0FB3AE0A069000338D4029A0C
:102920003100200002F070FC31E0029A31002000FA
:1029300002F046FD2BE0A069800329D4029A310001
:10294000200002F0F1FE22E0A069800320D43800CC
:10295000303001903800283000903B003833029A24
:102960003100200002F08EFF11E038002830009086
:102970003B003833029A3100200003F01BF806E0D8
:10298000022517E0029B00220620F3F727FC050032
:10299000002D0AD1310038003030EEF769FE3100E9
:1029A00038002830EEF745FE01E0022D02D0412D1F
:1029B00000D034E70299380040303CE73D6A03A973
:1029C00038002030EEF764FE25E02E68A8680090FD
:1029D000E88901F0FFFF040000980078522801D038
:1029E000D2280AD1A069400307D42900200003F0AF
:1029F0000BF921880020F2F797FCA069400309D465
:102A0000290038002030EEF733FE29003800183056
:102A1000EEF70FFE35000398411E03910028D4D134
:102A200005B0F0BD30170020DC0B0020F0B583B0FE
:102A3000002701E07F1CFFB2B8482E3000788742A3
:102A400020DA2C267E43B64800688519288800289D
:102A5000F0D0A869A021C9000140A020C000814297
:102A60002FD1686A019004788021C9002800F3F70B
:102A7000ADFB1D2C25D01B2C23D0A87D844202D079
:102A8000012C02D0F7BD012C04D101994978491CD1
:102A90008142F7D180246400A869204207D02988A8
:102AA0000220F2F741FC21002800F3F78FFB2800F9
:102AB000296A88474528E5D1A1002800F3F78AFB59
:102AC000F7BD97480068851928880028B2D0694664
:102AD00094483030EEF7DCFD9248046B13E01B287D
:102AE00010D15B1CA089421ED2B28F4803F05AFF5E
:102AF00021008C483030EEF7BBFD2100894828309A
:102B0000EEF797FD34000098411E0091002891D007
:102B10002668A3682988E0890005000D0A05120DC2
:102B20009042EFD118781D28D9D1A869C004E9D402
:102B30005B1CA089421ED2B27C4803F033FF298877
:102B40000320F2F7DEFB802149012800F3F742FB66
:102B5000D8E730B501000020754A704B00E0401CFA
:102B60002E241C5DC0B2A04209D22C2444436C4DDB
:102B70002D682C5B144015000D40AC42EFD130BDE8
:102B800010B581080023654A00E05B1C2E20105C14
:102B900083420ADA2C205843614C246820180488A8
:102BA000002CF2D08B42F0D110BD002010BD80B5BA
:102BB0001138C0B2FFF7E4FF002804D081698022F9
:102BC00092030A43826101BD10B51C68A4181C6001
:102BD000584B9C4203D2FDF73FFB002010BD412023
:102BE00010BDF1B5FFB085B00020009084A800882A
:102BF00001F0F0FE03904B48806801E00198006806
:102C00000190009804A908180199464A0832914297
:102C100065D06B4602222831FFF7D6FF6B460122B2
:102C200001992C31009804AC2018FFF7CDFF0098D3
:102C300004A90818019920310291097B01296B46EA
:102C400001D1022200E0102201990831FFF7BCFFF8
:102C500004000298076805E010223100FFF7B4FF76
:102C600004003F6802988742C8D06B4602223900B0
:102C70001C31009804AC2018FFF7A6FF6B46012218
:102C80003900233100982018FFF79EFF009804A90F
:102C900008183E000836F17E01296B46DCD102227D
:102CA0003100FFF791FF0400308823498842D8D1D2
:102CB0000399380000F00CFA05006B460222680008
:102CC00031690918009804AC2018FFF77DFF040053
:102CD0000222002130694019FDF7C4FAC1E7240639
:102CE00019D10099890708D000990A1D03239A4336
:102CF0000092521A0B21FDF7B5FA0398008804F0F0
:102D0000EDFA002807D104AA009984A800880005DC
:102D1000000D06F027FC7FB006B0F0BD6C1100205E
:102D2000F4100020DC0B00200F0C00000E0C000043
:102D3000FF0F00000102000002290000F1B5FFB002
:102D40008BB0614D01246002049000200390079035
:102D50000AAA04A98AA800880005000D06F05AFDF9
:102D60006946887168468079002800D09AE104207D
:102D70000AAA04995118491E09780B2904D104990B
:102D8000491E0491401EF4D10020009000980AA929
:102D90000E180222310001A8FDF75EFA05AB08AA61
:102DA00068468188C248F2F726FA009913310691E5
:102DB0000099491D0991012800D087E0089F0398D8
:102DC000002800D05CE10222390028313000FDF7F4
:102DD00053FA00281AD1B078390028310979814294
:102DE00014D1012807D10222F11C38000830FDF768
:102DF00043FA002814D0B078022807D11022F11C21
:102E000038000830FDF738FA002809D0398D28003D
:102E100001F00EFE0500398D200001F00DFE0400CA
:102E2000B078012801D1099800E006980090009838
:102E30000499884202D30120039005E002220AA9E6
:102E4000091801A8FDF708FA99480830874200D10F
:102E500016E13E6A16E00296B18B68468088814290
:102E600006D30398012891D16846808888428DD284
:102E7000280001F0DDFD0500B18B200001F0DCFD34
:102E800004003668380020308642E4D13F68884824
:102E900008308742D8D0398D68468088814206D371
:102EA00003980128D5D1684680888842D1D228006D
:102EB00001F0BEFD0500398D200001F0BDFD0400CC
:102EC00003980128CFD1C4E7FFFF0000022800D0FB
:102ED000B3E008980290059805900398002800D068
:102EE000CEE0022202991C313000FDF7C5F900281E
:102EF00037D1B078029923310978814231D1012844
:102F000007D10222F11C02980830FDF7B5F900281C
:102F10000AD0B078022824D11022F11C029808307F
:102F2000FDF7AAF900281CD1B078012825D1029814
:102F30000089AC49884223D18AA8008801F04AFD63
:102F40000100029800F0C4F80222711D029B1B8C44
:102F5000434302988069C018FDF77EF9012007906D
:102F60000BE00298818B280001F062FD05000298B9
:102F7000818B200001F060FD0400B078012801D1B0
:102F8000099800E0069800900798012804D100985D
:102F9000801C00900020079000980499884202D37A
:102FA0000120039005E002220AA9091801A8FDF7F3
:102FB00053F9059F029806683D48083087425FD064
:102FC00017E00296B18B68468088814207D3039848
:102FD00001282FD168468088884200D3D6E6280091
:102FE00001F026FD0500B18B200001F025FD040055
:102FF0003668380020308642E3D13F682C480830DC
:103000008742D9D03E6A398D68468088814206D38E
:1030100003980128EDD1684680888842E9D22800CB
:1030200001F006FD0500398D200001F005FD0400CA
:103030000398012800D0A9E6DBE7684681882800CC
:1030400001F0F6FC050068468188200001F0F4FCE0
:103050000400B07801280BD1F078022805D130792E
:10306000292802D10098801C00900098401D00E0A3
:103070000698009000980499884201D3012003909B
:1030800004980099401A042804D3084604998842F9
:1030900000D27BE6AC4205D321002800FFF7A4FA5A
:1030A00069468871684680797FB00CB0F0BD000039
:1030B000DC0B00204C4958228A5C104358310870C0
:1030C0007047494958228A5C824358310A707047D8
:1030D00030B5020000200832D37E012B03D11288C4
:1030E000404B9A4202D0002030BD401C3F4A2E3255
:1030F0001278C0B29042F6D23D4A0B8813402C247D
:1031000044433C4D2D682C5B22409342EDD130BDB1
:10311000F0B585B00500A869800409D5684641214D
:1031200001706B4601222988C120000103F03AFC9E
:103130002D4A18322C492031288800F05FF82A4A9D
:10314000283229493831288800F058F8264A283290
:1031500025493031288800F051F8234A403222496D
:103160005031288800F06DF81F4A40321E4948311E
:10317000288800F066F82888FFF7EBFC0400A6001A
:1031800001AF30001130787301A8FDF73FF930002E
:103190001230787301A8FDF739F9300013307873D5
:1031A00001A8FDF733F914367E7301A8FDF72EF957
:1031B0002888FFF716FD2C2200212800FDF752F881
:1031C00080212800F3F706F8F720400017214C4330
:1031D000094909680919081868621720A87005B01C
:1031E000F0BD000002290000DC0B00206C11002063
:1031F000FF0F0000F4100020A40D0020F4B582B0F1
:1032000007000C000020009069462000EEF740FA0D
:10321000256810E02E00002900D02D68F0893905BE
:10322000090D884207D131002000EEF721FA310064
:103230000298EEF7FEF90098411E00910028E9D1AE
:10324000F7BDF4B582B007000C000020009069467D
:103250002000EEF71DFA256810E02E00002900D0AE
:103260002D6830893905090D884207D131002000C9
:10327000EEF7FEF931000298EEF7DBF90098411EF7
:1032800000910028E9D1F7BDE0B500230293019336
:103290000093012300F051F80EBDE0B50291017AD0
:1032A0000191C1880091022382884188008800F042
:1032B00044F80EBDF0B587B004000D0016001F00E5
:1032C00003A8B91C1022FCF7DBFF0020029003A822
:1032D000019038780090042311E0F0B587B0040025
:1032E0000D0016001F0003A8B91C1022FCF7C8FF30
:1032F0000020029003A80190387800900823320043
:103300002900200000F019F807B0F0BD10B584B016
:10331000002402940193538800931023128800F034
:103320000CF804B010BDE0B50022029201920092A8
:10333000202389B200F001F80EBDF4B58AB00E006A
:103340001C00462505A901F01FFB070076D0059853
:10335000002872D0E00707D56846038D3200059932
:103360003800F2F707FC55E0A0070FD5119880B29E
:10337000029012980190109880B200906846038DD8
:10338000320005993800F2F70BFC43E011990C224A
:10339000144226D0109D06A81022FCF771FF60078A
:1033A0000FD5EDB2049506A86A460AC80AC20AC833
:1033B0000AC26846038D320005993800F2F7C0FC56
:1033C00028E0EDB2049506A86A460AC80AC20AC8EF
:1033D0000AC26846038D320005993800F2F715FCE1
:1033E00018E0E0060BD5109880B201900091684675
:1033F000038D320005993800F2F75FFD0AE0A00660
:1034000015D5012E01D1012200E0002205993800D6
:10341000F2F77FFD05000AD1802189013800F2F71B
:10342000D9FEA74838620599A648483002E00599B8
:10343000A4484030EEF7FDF800E01F2528000BB04F
:10344000F0BD70B582B04625694601F09DFA0400D2
:103450001DD0A06980051AD40098002816D0014616
:103460002000F2F76FFB0500964E09D180218901FB
:103470002000F2F7AFFEC14820620099483601E013
:10348000009940363000EEF7D4F800E01F25280000
:1034900076BDF8B5060001F09DFA04001FD0802526
:1034A0006D01A06928421AD0864F38004030396C2F
:1034B000884212D0694638004030EEF7C1F83543F3
:1034C000009805810099200002F0ACFC0099483773
:1034D0003800EEF7AEF80020F2BD1F20F2BD462006
:1034E000F2BD70B58AB0462505A901F04DFA040079
:1034F00028D00598002824D06846A021890101839E
:103500000120049006A86A460AC80AC20AC80AC26C
:10351000B04B012205992000F2F712FC0500694E1C
:1035200009D1802189012000F2F754FEAA482062C7
:103530000599483601E0059940363000EEF779F8F4
:1035400000E01F2528000AB070BDF0B589B0050065
:1035500046240E7804A8891C1022FCF791FE03A9CA
:10356000280001F011FA050037D00398002833D065
:10357000012E13D10220029004A80190A020800106
:103580000090944B012203992800F2F709FB0400F4
:103590004C4F1BD1012E07D1022208E0022E01D18F
:1035A0001020E8E7422019E0022E04D1102204A9DD
:1035B000281DFCF751FEEE70802189012800F2F7EA
:1035C00009FEA64828620399483701E0039940376D
:1035D0003800EEF72EF800E01F24200009B0F0BDFF
:1035E000F0B58BB00E001700462505A901F0CCF907
:1035F00004002BD00598002827D0C0680021017056
:103600006846974901830120049006A86A460AC8C3
:103610000AC20AC80AC23B00320005992000F2F72C
:10362000F4FA0500274E0AD1A782802189012000E3
:10363000F2F7D0FDB14820620599483601E00599BE
:1036400040363000EDF7F5FF00E01F2528000BB0F5
:10365000F0BDF0B58BB00E001700462505A901F0AE
:1036600093F9040028D00598002824D06846A4497E
:1036700001830120049006A86A460AC80AC20AC843
:103680000AC23B00320005992000F2F7BEFA05009D
:103690000C4E0AD1A782802189012000F2F79AFD01
:1036A000B84820620599483601E005994036300057
:1036B000EDF7BFFF00E01F2528000BB0F0BD0000B4
:1036C00031450110DC0B0020F4B58EB004000F0072
:1036D00046251E7806A8991C1022FCF7D1FD05A9E5
:1036E000200001F051F9040045D00598002841D090
:1036F000684683490185012E03D0022E01D0422065
:103700003AE0012004900AA86A460AC80AC20AC818
:103710000AC26846038F3A0005992000F2F775FA4D
:103720000500C04F20D16846008FA082012E09D12C
:103730001022BD49201DFCF78FFD022206A92000A2
:10374000103004E0022E04D1102206A9201DFCF73F
:1037500083FDE670802189012000F2F73BFDB3482C
:1037600020620599483701E0059940373800EDF7A8
:1037700060FF00E01F2528000FB0F0BDB14401102C
:10378000F8B50E0017004625694601F0FDF8040063
:103790001ED0009800281AD03B00761CB2B2014619
:1037A0002000F2F7E7F905009E4E0AD1A78280219A
:1037B00089012000F2F70EFDC548206200994836C5
:1037C00001E0009940363000EDF733FF00E01F259F
:1037D0002800F2BDFFFF0000853D0110F2B58AB060
:1037E0000500170046241E7806A8991C1022FCF735
:1037F00047FD05A9280001F0C7F805002AD0059863
:10380000002826D0012E03D0022E01D0422022E033
:10381000049606A86A460AC80AC20AC80AC23B0039
:103820006846028D05992800F2F7EFF904007D4EF5
:1038300009D1802189012800F2F7CCFCB248286226
:103840000599483601E0059940363000EDF7F1FE64
:1038500000E01F2420000BB0F0BD00008F3D0110E0
:103860000228000080B500F0BFFF02BD80B500F067
:10387000E5FF02BD10B50AE010B50FE080B500F01D
:10388000B3FF02BD80B500F0D9FF02BD10B51C002A
:103890001300220001F004F810BD10B582B0548866
:1038A0000094128801F025F816BDF8B50E00170037
:1038B0004625694601F068F804001CD000980028ED
:1038C00018D033003A0001462000F2F714FA050040
:1038D000544E09D1802189012000F2F77BFC8B48EE
:1038E00020620099483601E0009940363000EDF73B
:1038F000A0FE00E01F252800F2BD0000993D011048
:1039000003280000FFB583B046256846808901F092
:1039100061F8060033D0347E402004407C4F3800EC
:103920004030396C884226D001A938004030EDF78C
:1039300087FE019869468989802252010A430281E3
:103940006846808A0090069B6846028A019930008A
:10395000F2F757FA050008D1002C03D140213000BE
:10396000F2F734FC0199483701E0019940373800FB
:10397000EDF75FFE03E08020FFF79CFB6425280045
:1039800007B0F0BDA33D0110FFB583B046256846E2
:10399000808901F01FF8060041D06846808904F054
:1039A000C9FB00283BD0684680890005000DF1F76F
:1039B000C9FA400733D4347E40200440544F3800C5
:1039C0004030396C884226D001A938004030EDF7EC
:1039D00037FE019869468989802252010A43028193
:1039E0006846808A0090069B6846028A01993000EA
:1039F000F2F72DFA050008D1002C03D14021300048
:103A0000F2F7E4FB0199483701E0019940373800AB
:103A1000EDF70FFE03E08020FFF74CFB6425280044
:103A200007B0F0BDDC0B00208C070110AD3D01108C
:103A3000FAB585B04625694613884B8152880A81BC
:103A400003A900F0A1FF04003FD0039800283BD059
:103A500068460189A078401F80B200F0E9FF0600A7
:103A600001960698009068464389828A039920004F
:103A7000F2F723FA0500264F20D10698E061684648
:103A8000818A201DEDF751FA68464189A01DEDF7A6
:103A90004CFA6846018920000830EDF746FA3100FB
:103AA00020000A30EDF741FAA02109022000F2F7C8
:103AB00091FB184820620399483701E00399403789
:103AC0003800EDF7B6FD00E01F25280007B0F0BD77
:103AD000B73D011070B51D000C26304201D00E48D4
:103AE0000AE0830601D50D4806E0830701D50C489E
:103AF00002E0C30700D50B480B00D2B2290080B208
:103B000002F050FF61BD0000D53D0110DF3D011006
:103B1000DC0B002019410110060C0000040C000011
:103B2000050C00000A0C0000F0B58DB004000E007A
:103B3000684600210175606A0690258D0491302148
:103B40000E4203D0208806F02DFC0490A81E03909E
:103B500030001021084069460871300002210840F9
:103B600069464870681E087006980178B848720661
:103B700013D5012900D08BE1694641220A75052D34
:103B80000AD10499002916D0B10614D4069A521C01
:103B90006946097806F02EF9E5E001290CD1052DDA
:103BA00069D1069909790A2902D0694641220A7524
:103BB00004990029EAD173E10398029006984778A6
:103BC000182131406846C170300004210840694620
:103BD0008870F0070DD5029800280AD43900FCF748
:103BE00025FD002905D1062F01D0142F01D1012078
:103BF00044E068464078002807D0052D05DB68467C
:103C00000078800701D1022038E0684680780028DB
:103C10000DD0029800280AD43900FCF707FD0029CE
:103C200005D1082F01D0062F01D1042026E06846D7
:103C3000C07800280DD0029800280AD43900FCF77B
:103C4000F5FC002905D1072F01D0152F01D108203F
:103C500014E0B00600D4AAE1012F01D1042702E04C
:103C6000022F08D11227032D00DAA0E103983900B2
:103C7000FCF7DCFC002900D099E11020810709D570
:103C8000681E80100390800006990818411E09786C
:103C900000780DE0C006029800D5401C3900FCF702
:103CA000C5FC0390401E7843069908188178C078B7
:103CB00000020843029068460079002840D002982C
:103CC000A18A884203DA207E400600D502E1002066
:103CD00008E0019B9B1C3A002188B74802F062FE75
:103CE0000898401C089008980399884228DA78437D
:103CF000069908180190072F11D11022AF4909A881
:103D0000FCF7AAFA02220199C91D09A80C30FCF798
:103D1000A3FA1022211D09A8FCF7AEFA04E0102234
:103D2000211DC01DFCF7A8FA0028D9D1049800284D
:103D3000CFD0019A921C39009F4806F05BF8CFE77C
:103D40009F4FE8196946C88238210E4202981AD05E
:103D5000A18A88421ADB23886846C28A0699491CD0
:103D60003000FFF7B7FE802189012000F2F72EFA1C
:103D7000C12000010499002900D181E005AA012198
:103D800006F038F881E080B2B842E4D0207E4006E8
:103D900002D5F00600D49DE08A4840308949096C7C
:103DA000884200D1D1E007A986484030EDF748FCB1
:103DB00020880005000D80214901014307980181F9
:103DC000029A521CA0208001F10769460FD5088491
:103DD0000120049008A86B4622C822C322C822C32F
:103DE0003B0092B207992000F1F7AAFF3AE0497828
:103DF000002910D0E178012901D1022100E0102131
:103E00000291211D019100903B0092B20799200080
:103E1000F1F7C6FE26E0684680780028684601D0A3
:103E2000694904E0C078002814D0684667490184D5
:103E30000120049008A86B4622C822C322C822C3CE
:103E4000A38A92B207992000F1F7DFFE0AE000BFD3
:103E5000110C0000B00605D5A38A92B20799200084
:103E6000F1F788FE079957484830EDF7E2FB2388C1
:103E70006846C28A0699491C3000FFF72BFE04E011
:103E800005AB0122218802F08DFD00200DB0F0BDB0
:103E900005210E420CD0F00701D54D4800E04D48F9
:103EA000069B5B1C69460A78218802F07BFD5AE775
:103EB0006846407800284AD0474EA078854206DA06
:103EC000069B5B1C6846027821883000EDE7207E67
:103ED000400605D58021C9002000F2F77BF9D4E720
:103EE000384840303749096C88422ED007A93548F8
:103EF0004030EDF7A5FB20880005000D8021490129
:103F0000014307980181069B5B1C68460278218863
:103F1000300002F047FDA079E17909020143A07861
:103F20000D186D1EABB2207961790A020243079920
:103F30002000F1F7C1FE079922484830EDF779FBE0
:103F4000A9B2A01DECF7F1FF9FE745209EE7684668
:103F5000007900282ED0032D29DB06984778039D91
:103F6000BD4201DA012009E028003900FCF75EFBC0
:103F700000291CD128003900FCF758FB0090069E50
:103F8000B61C002507E033003A0021880A4802F0F9
:103F900009FDF6196D1C009885420BDA049800287B
:103FA000F1D032003900044805F024FFF1E76846FB
:103FB00041210175D7E60000120C00008C070110AA
:103FC000FFFF0000DC0B0020022800000328000097
:103FD000070C0000090C0000080C000080B501214E
:103FE000FFF7A2FD02BD80B50221FFF79DFD02BDD6
:103FF00080B50421FFF798FD02BD80B50821FFF7C9
:1040000093FD02BD80B51021FFF78EFD02BD80B586
:104010002021FFF789FD02BD80B54121FFF784FD16
:1040200002BD80B54221FFF77FFD02BD80B5502162
:10403000FFF77AFD02BD80B54421FFF775FD02BD93
:1040400080B56021FFF770FD02BDF0B585B00400BA
:10405000684600214173606A0490208DA17AE27A5B
:1040600015020D43A179E27912020A436946CA8119
:10407000217A627A12020A430192411E6A46117342
:104080006946049A12780A70B44E4021B44F6A46C9
:104090001278012A00D083E0052822D06846412208
:1040A0004273A06908422DD1000404D549022000C2
:1040B000F2F78CF841E138004030396C884200D189
:1040C000FCE002A938004030EDF7BAFA208806403B
:1040D000029806818021C9012000F2F77BF80022B6
:1040E000C5E0049842789F48182A07D1049B5B1CBE
:1040F00069460A7B218802F055FC32E0162AD9D1A4
:10410000A2690A4253D10499097909291AD13800C0
:104110004030396C884256D002A938004030EDF763
:104120008FFA208806400298068101220299200019
:10413000F1F7EFFE029948373800EDF77AFAC0211F
:10414000490235E0049B5B1C69460A7B218802F02A
:1041500029FCA069000408D5802109022000F2F79B
:1041600035F8684641214173E7E038004030396C4A
:10417000884228D002A938004030EDF761FA208843
:10418000064002980681002202992000F1F7C1FE44
:10419000029948373800EDF74CFA8021C90107E051
:1041A000A0696A461278172A6BD1084204D0090127
:1041B0002000F2F70FF8CDE0386C01998D423EDA1D
:1041C00039004031814279D002A938004030EDF702
:1041D00037FA20880640029806810198411B89B26F
:1041E000A078401F80B200F023FC06000196E06931
:1041F000401900906846C08943199BB220796179C3
:104200000A02024302992000F1F757FE029948374B
:104210003800EDF70EFAA91989B220000A30ECF740
:1042200084FE802109022000F1F7D0FF049B5B1C73
:104230006846027B21884C4802F0B4FB8AE03900D2
:10424000403181423AD002A938004030EDF7F8F908
:104250002088304002990881049B5B1C6846027BE1
:10426000208806403100404802F09CFB0122029960
:104270002000F1F74EFE029948373800EDF7D9F9E2
:1042800068E0C10347D538004030396C884215D00A
:1042900002A938004030EDF7D3F920880640029893
:1042A0000681A6780198401B012805DA0198711F44
:1042B000FCF7BCF9002903D1711F01E045204AE059
:1042C0006D1AADB20198411B89B2701F80B200F027
:1042D000AFFB06000196E069401900906846C0896E
:1042E00043199BB2207961790A02024302992000A6
:1042F000F1F7E3FD029948373800EDF79AF9A9196B
:1043000089B220000A30ECF710FEC02149022000DB
:10431000F1F75CFF1EE0400407D568464121417378
:104320008021C9012000F1F751FF049B5B1C684606
:10433000027B21880D4802F035FBD0214902200084
:10434000F1F744FF03AB5B1C01222188C12000016F
:1043500002F028FB002005B0F0BD0000FF0F0000B8
:10436000DC0B0020110C00000C0C00000D0C0000F8
:10437000F0B587B00400684600214173606A04907C
:10438000208D0690A07AE17A0E020643A079E179A9
:104390000902014368468182207A617A0902014359
:1043A000019120796179090201436846C18106982B
:1043B000401E694608736846049909780170CF4D1C
:1043C0004021CF4F0078012878D10698052821D0C8
:1043D000684641224273A069084277D1000404D59F
:1043E00049022000F1F7F2FE77E138004030396CE5
:1043F000884229D002A938004030EDF721F9208801
:104400000540029805818021C9012000F1F7E2FEF4
:104410000022FEE004984278BA48182A07D1049B8B
:104420005B1C69460A7B218802F0BCFA33E0162A3D
:10443000DAD1A2690A4249D10499097909291BD123
:1044400038004030396C884200D109E102A93800B7
:104450004030EDF7F5F820880540029805810122EB
:1044600002992000F1F755FD029948373800EDF721
:10447000E0F8C021490271E0049B5B1C69460A7B9D
:10448000218802F08FFAA069000408D58021090272
:104490002000F1F79BFE6846412141731DE1380081
:1044A0004030396C884264D002A938004030EDF7C2
:1044B000C7F8208805400298058143E0A0696A4654
:1044C0001278172A00D0AEE0084201D0090145E079
:1044D0000698421F92B20498007900020499C978A4
:1044E000401880B26946898A8919891A884213D18D
:1044F0000498807800020499497840186946C9896F
:1045000080B2884208D10499491DB01AE36918188D
:10451000FBF7B2FE002825D038004030396C8842C5
:1045200027D002A938004030EDF78AF820880540EE
:1045300002980581049B5B1C6846027B2188BE486B
:1045400002F030FA002202992000F1F7E2FC029911
:1045500048373800EDF76DF88021C9012000F1F7E8
:1045600039FEC7E0386C01998E423CDA390040319F
:10457000814275D002A938004030EDF761F82088FB
:104580000540029805810198811B89B2A078401FDF
:1045900080B200F04DFA05000195E06980190090A5
:1045A0006846808A83199BB26846C28902992000B6
:1045B000F1F783FC029948373800EDF73AF87119A2
:1045C00089B220000A30ECF7B0FC802109022000FB
:1045D000F1F7FCFD049B5B1C6846027B2188964832
:1045E00002F0E0F986E039004031814238D002A97A
:1045F00038004030EDF724F8208805400298058106
:10460000049B5B1C6846027B21888B4802F0CAF938
:10461000012202992000F1F77CFC0299483738000A
:10462000EDF707F866E0C10345D538004030396C36
:10463000884215D002A938004030EDF701F82088F3
:10464000054002980581A5780198801B012805DAAC
:104650000198691FFBF7EAFF002903D1691F01E0F8
:10466000452048E0761AB6B20198811B89B2681FCE
:1046700080B200F0DDF905000195E0698019009035
:104680006846808A83199BB26846C28902992000D5
:10469000F1F713FC029948373800ECF7CAFF71199B
:1046A00089B220000A30ECF740FCC021490220000A
:1046B000F1F78CFD1EE0400407D5684641214173A7
:1046C0008021C9012000F1F781FD049B5B1C684635
:1046D000027B2188BE4802F065F9D0214902200002
:1046E000F1F774FD03AB5B1C01222188C12000019E
:1046F00002F058F9002007B0F0BD0000FF0F0000E5
:10470000DC0B0020110C0000F8B504006846002105
:104710000170656A208D461E41212A78012A1BD02E
:10472000032802D06846017020E08027BF00A069FE
:1047300038420CD1A87800026978411889B2172054
:1047400000F076F9A07039002000F1F743FD6B1CF2
:10475000F2B22188AC4807E06A461170052805D1FD
:104760006B1CF2B22188A94802F01CF98021890152
:104770002000F1F72BFD6B4601222188C1200001AA
:1047800002F010F90020F2BDF8B504002100243138
:104790000B6889881A7800250DA6775DBA4206D184
:1047A0007019407847067F0EC02000013843AD1CC9
:1047B000162DF2D35B1C4A1ED2B2218880B202F0C1
:1047C000F1F8802189012000F1F700FD0020F2BD01
:1047D00001910504070509060B070D080F09110AC9
:1047E000130B170C190D000070B582B00E00462592
:1047F000694600F0C9F804001BD00098002817D0C3
:10480000320001462000F1F73BFA0500804E09D145
:10481000802189012000F1F7DDFC7E4820620099AB
:10482000483601E0009940363000ECF702FF00E026
:104830001F25280076BD00000C0C0000F2B582B0E8
:1048400017004625694600F09FF8040026D000981E
:10485000002822D03B006846028900992000F1F729
:104860002BFA05006A4E12D168460189201DECF72B
:104870005CFB3900A01DECF758FB8021890120006A
:10488000F1F7A8FC644820620099483601E00099DD
:1048900040363000ECF7CDFE00E01F252800FEBDBD
:1048A000F7B50E001F00462501A900F06DF80400C1
:1048B0001DD00198002819D00097029B3200019961
:1048C0002000F1F775FA0500514E09D180218901C8
:1048D0002000F1F77FFC514820620199483601E041
:1048E000019940363000ECF7A4FE00E01F252800B7
:1048F000FEBDFEB584B0462502A900F045F80400CF
:104900003FD0029800283BD06846018EA078401F17
:1049100080B200F08DF80600019606980090684677
:10492000838A028A02992000F1F7C7FA0500384FFE
:1049300020D16846018A201DECF7F7FA6846818A83
:10494000A01DECF7F2FA6846018E20000830ECF763
:10495000ECFA310020000A30ECF7E7FA0698E06143
:10496000A02109022000F1F735FC2D4820620299B0
:10497000483701E0029940373800ECF75AFE00E072
:104980001F25280007B0F0BD70B582B004000E00EE
:1049900000F020F8050019D0A86985218901084296
:1049A00014D11B4801004031026C91420AD0694683
:1049B0004030ECF745FE00988021490121430181F8
:1049C000009800E000203060280076BD002076BD11
:1049D0000D0C000070B501000024124A124B00E0DB
:1049E000641C2E20185CE4B284420BD22C2060435D
:1049F0000E4D2D6828180588154016000E40B5424A
:104A0000EED170BD002070BD030C0000110C000041
:104A1000DC0B0020C13D0110CB3D0110E93D011030
:104A2000F33D0110FF0F00006C110020F410002076
:104A3000884200D90800704702000800904200D266
:104A400010007047F5B587B00D000024A88907282D
:104A500004D2134600220621042025E00222A96880
:104A6000491C01A8FBF7F8FB0222A968C91C01A890
:104A7000801CFBF7F1FB0222A968491D04A8FBF783
:104A8000EBFBA889C01F80B20390A868C01D0590E9
:104A90006846C08869468988884201D3002906D1C2
:104AA000089B0A4606210120F1F798FBE6E00898EA
:104AB000C068801D029069466846808801F08AF9C6
:104AC000002800D0D3E00098008D6946898888428C
:104AD0005CD36946C988814258D36846008A0099E8
:104AE000498D88424CD10398022801D0102847D123
:104AF0000246059900980830FBF7BEFB00283FD11D
:104B0000002C03D1029807210170012407988078B6
:104B1000001B04282FDB022200992831029800197B
:104B2000FBF79AFBA41CE4B22000A41CE4B2029997
:104B3000081800992031009A126A914204D002228A
:104B40000099496A1C3102E0022200992831FBF7E2
:104B500083FB07988078001B04280CDB0098006812
:104B6000009048490831884205D06846C0880099BD
:104B7000098D8842A7D2012C79DB089844817DE019
:104B80000098008D6946C9888842F4D06846008A3A
:104B9000A02189018842E1D06846008A491C8842E8
:104BA000DCD0009F20373D68AF42D7D015E02D689C
:104BB0002868B84202D000898842F8D10222290030
:104BC0001C31029B1819FBF747FBA41CE4B20798A1
:104BD0008078001B0428CEDB2D68BD42BED0A88B98
:104BE000694689888842F7D36946C9888142C2D319
:104BF0002320285C0128EFD107992800FEF768FAE6
:104C0000060028896946098A8842E5D101222900DF
:104C1000079800880005000D01F0B3F80028DBD1EB
:104C2000E88B03998842D7D10A460599288C4643D8
:104C3000A8698019FBF720FB0028CDD1002C03D1F7
:104C4000029807210170012407988078001B04282E
:104C500091DB022229001C3102980019FBF7FCFAB3
:104C6000A41CE4B22889C4498842A7D1A0E7089BC4
:104C70006846828806210A20F1F7B0FA002009B0C0
:104C8000F0BD0000DC0B0020F5B597B00E00002051
:104C90000025002469468883B089072806D0152896
:104CA00004D0189B00220821042018E00222B168D9
:104CB000491C05A8FBF7D0FA0222B168C91C05A857
:104CC000801CFBF7C9FA6846C08A6946898A88420F
:104CD00001D3002906D1189B0A4608210120F1F7CB
:104CE0007DFA45E1A54F102239000CA8FBF7B4FA74
:104CF000B08907280AD11022390008A8FBF7ACFABE
:104D00000222B168491D08A80C3003E01022B168E6
:104D1000491D08A8FBF7A0FA17988069000330D452
:104D20001798018810A8ECF700F910AF6846C08A00
:104D300004906846808A039008A802900CA801900D
:104D400007A80090BB1C189A31008D48F0F767FE49
:104D50006846808B002814D00294BF1C01970094F1
:104D60006846808B4300DBB2002217980188854893
:104D700001F0D6FC802109031798F1F72BFA0220E5
:104D8000F7E01898C768BF1D06A96846808A01F039
:104D900021F8002800D0E4E00698008D6946898A51
:104DA000884261D36946C98A81425DD3022206994D
:104DB0002A310CA80C30FBF74FFA102208A90CA8D6
:104DC000FBF75AFA002849D1002C0BD10920387082
:104DD00006982C300078012801D1042500E0122526
:104DE0007D70022417988078001BA84230DB042DC8
:104DF00004D106982C300078012806D0122D27D136
:104E000006982C300078022822D1022206992831F7
:104E10003819FBF721FAA41CE4B2AA1E069908313E
:104E20003819FBF719FA2819841EE4B2179880780C
:104E3000001BA8420CDB0698006806905049083118
:104E4000884205D06846C08A0699098D8842A3D257
:104E5000012C00DA85E01898448189E00698008DDD
:104E60006946C98A8842F3D00698203001900668C6
:104E7000B042E0D037E07D70022417998978091B91
:104E80007A789142E4DB0028E2D1F08BA91E8842B7
:104E9000DED1022231001C313819FBF7DDF9A41CE8
:104EA000E4B217988078001BA91E89B280B28142B3
:104EB00000D901006846018017993000FEF708F913
:104EC00069460A88318C4843B16909183819FBF7DB
:104ED000C3F9684600882418E4B217988078001B4C
:104EE000A842B5DB366801988642A4D0B08B6946EB
:104EF000898A8842F6D36946C98A8142A8D3232089
:104F0000305C012808D10222310008310CA80C3095
:104F1000FBF7A2F90CA801E030000830102208A924
:104F2000FBF7AAF90028DDD101223100179800888B
:104F30000005000D00F025FF002C9ED1002803D0B5
:104F4000189BB28B082111E009213970F58BAD1C3B
:104F5000EDB2179989788A1EAA428CDA891E797077
:104F60008AE7189B6846828A08210A20F1F736F9F9
:104F7000002019B0F0BD0000032800008C070110CC
:104F8000DC0B0020150C0000F0B587B00600140003
:104F900068460022C2818889032803D023000A21A1
:104FA000042083E002228968491C03A8FBF754F916
:104FB00068468089002874D0E568AD1D05A968465B
:104FC000808900F007FF00286BD10B270598008D22
:104FD00069468989884215D12F7005982C30007850
:104FE000012807D1022205990831681CFBF734F922
:104FF000032654E0102205990831681CFBF72CF9B0
:1050000011264CE004AA059968468089F0F7E4F877
:10501000012846D10122049930880005000D00F0D6
:10502000B0FE002804D0230069468A890A213DE0A9
:1050300004981C30817A490716D5B169090313D445
:105040000021029103A9891C0191002100910223F2
:10505000028831886B4801F063FB8021090330002E
:10506000F1F7B8F8022024E02F7031000498FEF721
:105070002FF80499C98BB278561EB6B28E4200D969
:105080000E0032000499098C484304998969091873
:10509000681CFBF7E1F8761CF6B2012E01DB668195
:1050A00006E02300684682890A210120F1F796F87C
:1050B000002007B0F0BDF0B587B005000E00140069
:1050C00068460021C181B089052804D02300002250
:1050D0000C21042090E00222B168491C03A8FBF7D0
:1050E000BBF80222B168C91C03A8801CFBF7B4F806
:1050F0006846808900287AD0E768BF1D05A9684600
:10510000808900F067FE002871D168468089059982
:10511000098D88421CD004AA059968468089F0F759
:105120005BF8012863D10122049928880005000D4D
:1051300000F027FE002804D0230069468A890C214C
:105140005AE004981C304188AA78D21E8A4205DBB6
:105150002300684682890C210B204DE06A46D289E3
:10516000914205D22300684682890C21072043E042
:10517000817A490717D580263603A969314012D1B3
:105180000021029103A9891C0191002100910223B1
:10519000028829881B4801F0C3FA31002800F1F782
:1051A00019F802202BE00D20387029000498FDF733
:1051B0008FFFA978491E049AD28B6B46DB89D51ADA
:1051C000ADB289B28D4200D90D002A001946049B68
:1051D0001B8C5843049B9B6918184118781CFBF7DB
:1051E0003BF86D1CEDB2012D01DB658106E023006B
:1051F000684682890C210120F0F7F0FF002007B0FB
:10520000F0BD0000140C0000F3B58DB017000025B0
:1052100000246846C5810E988089401E042805DB5D
:10522000C10F091849104900401A06D03B0000225E
:105230000E210420F0F7D2FFBAE0F868801D01903B
:10524000802636030D98806930401FD103A8801C4A
:10525000009006AB0E995848F0F78AFB6846C08963
:10526000002813D0029406A8019000946846C089D3
:105270004300DBB200220D980188504801F050FA3B
:1052800031000D98F0F7A6FF022092E0012626E0FB
:10529000002C03D101980F21017001240D98807812
:1052A000011B012919DB0599C98B051BADB28D4284
:1052B00000D90D000D990598FDF70AFF2A00059900
:1052C000098C484305998969091801980019FAF76A
:1052D000C3FF6419E4B268468589B61CB6B20E985D
:1052E0008089401E864258DA02220E988068811911
:1052F00003A8FAF7B1FF68468089A84201DB002DB8
:1053000002D12D488068049068468089002848D0E2
:1053100004A96846808900F05DFD002841D1049809
:10532000008D6946898988421FD1002C03D10198DC
:105330000F21017001240D988078011B0129CCDB1D
:10534000051B0198001904992C310978012907D10E
:10535000ADB2022D00D902252A0004990831B6E722
:10536000ADB2102DF8D91025F6E705AA04996846C4
:105370008089EFF731FF012813D1012205990D989B
:1053800000880005000D00F0FCFC002800D17FE73C
:105390003B0069468A890E2108E0012C01DB7C81F3
:1053A00006E03B00684682890E210120F0F716FFD7
:1053B00000200FB0F0BD0000DC0B0020150C000039
:1053C000F5B58FB00D0000240027A889072806D066
:1053D000152804D013460022102104206CE002227C
:1053E000A968491C6846FAF737FF0222A968C91C58
:1053F00002A8FAF731FF68460089694609888842A1
:1054000001D3002904D1109B0A461021012053E04A
:10541000C14E102231000AA8FAF71EFFA8890728FA
:105420000AD11022310006A8FAF716FF0222A96855
:10543000491D06A80C3003E01022A968491D06A8E2
:10544000FAF70AFF6846A021890141800AAD0222CD
:1054500000A9891C28000C30FAF7FEFE10220AA9C8
:1054600006A8FAF709FF002829D06846AB49418011
:10547000022200A9891C28000C30FAF7EDFE102248
:105480000AA906A8FAF7F8FE002818D06846A44929
:105490004180022200A9891C0C352800FAF7DCFEA5
:1054A00010220AA906A8FAF7E7FE002807D0109BE9
:1054B0006846028810211020F0F790FE29E19948F3
:1054C00086681098C068801D019005E069460988CB
:1054D000028D91421CD30600308D694609888842AE
:1054E00004D230688F4908318842EFD130688D4945
:1054F000083188420CD130002030316A884200D116
:1055000000E1706A808B69460988884200D2F9E020
:1055100068464088A0218901884204D068464088B6
:10552000491C88426DD1308D6946098888421DD258
:105530001BE0022231002831FAF78EFE0F988078A6
:10554000401B3C1FA4B280B2844200D90400220058
:105550003100083101984019FAF77EFE2C19E4B2A7
:105560000F988078001B042828DB36686D480830C7
:10557000864223D068460089318D88421ED3708DC3
:10558000694649888842F0D1002C0CD1019811213C
:1055900001702C20305C012801D1062700E014277F
:1055A0000198477002240F988078001B042805DBBF
:1055B000062F09D12C20305C01280BD0012C00DAF9
:1055C000A0E010984481A4E0142FF7D12C20305C87
:1055D0000228F3D102223100283101980019FAF78C
:1055E0003BFEA41CE4B2A51CEDB2019800193100E9
:1055F0002031326A91429CD00222716A1C319BE7B1
:105600003668484808308642D8D0308D69460989C6
:105610008842D3D23000203003900568A842EFD0F2
:105620002CE02D6828680399884203D000893C4902
:105630008842F6D1022229001C31019B1819FAF781
:105640000BFEA41CE4B204940F988078001B3C1F4E
:10565000A4B280B2844200D9040022000598816976
:105660000498019B1818FAF7F7FD04980419E4B29E
:105670000F988078001B0428A0DB2D6803988542D2
:10568000BED0A88B694609888842F6D36946098945
:10569000814293D32320285C0128EED12889204918
:1056A0008842EAD1012229000F9800880005000DE8
:1056B00000F067FB002C0DD1002803D0109BAA8BB3
:1056C000102124E0019911220A70EF8B3F1D0199EE
:1056D0004F7002240F998978091B0429CCDB00281C
:1056E00003D1E88BFFB2391F884200D066E702225F
:1056F00029001C3101980019FAF7AEFDA41CE4B290
:1057000005958FE7109B6846028810210A20F0F764
:1057100065FD002011B0F0BD8C07011001280000CC
:1057200003280000DC0B0020F0B587B007000E0056
:105730001400E068801D0690B089032804D223007D
:1057400000221221042098E00222B168491C03A81B
:10575000FAF782FD68468089002800D188E005A913
:105760006846808900F036FB002812D1684680899F
:105770000599098D884205D1230068468289122146
:1057800003207AE004AA059968468089EFF724FD92
:1057900001286DD10222049938880005000D00F01F
:1057A000F0FA002804D0230069468A89122164E0B7
:1057B000B089C51EADB204981C30817900291ED174
:1057C0004188A94220DB817A8A0723D5BA699203EE
:1057D00020D401210291B168C91C019100210091DE
:1057E000EBB202883988714800F09AFF002847D14F
:1057F000802189023800F0F7EDFC022040E0012909
:10580000E1D18188A942DEDA23006846828912212B
:105810000D2032E0C90710D501210291B168C91CE1
:10582000019100210091EBB202883988604800F0B4
:1058300077FF002801D0412022E039000498FDF7CD
:1058400047FC2A00B168C91C049B1B8C5843049B6D
:105850009B691818FAF700FD04981E300179012998
:1058600000D105800698132101700120608106E0B7
:1058700023006846828912210120F0F7AFFC002046
:1058800007B0F0BDF8B586B006000D0014000C9FFF
:10589000E068801D0090A889052804D2230000221A
:1058A000162104207DE00222A968491C03A8FAF70A
:1058B000D3FC6846808900286ED005A96846808997
:1058C00000F088FA002867D1684680890599098D1B
:1058D000884205D12300684682891621032060E0B2
:1058E00004AA059968468089EFF776FC012853D110
:1058F0000222049930880005000D00F042FA0028C9
:1059000004D0230069468A8916214AE03868874214
:1059100005D12300684682891621092041E00498B8
:105920001C30817A89071ED58027BF02B1693940B2
:1059300019D1A968012202924A1D0192CA780979F7
:10594000090211430091A9894B1FDBB202883188FB
:10595000AC4800F0E5FE002826D139003000F0F711
:1059600039FC022020E029000D98EBF781FE290088
:105970000698EBF75EFE009817210170AA89521E67
:10598000A968491C0098401CFAF766FCA889010028
:1059900002D06081012007E0230068468289162139
:1059A0000120F0F71BFC002007B0F0BD130C000035
:1059B000010C0000FDB58AB00D0000200890079092
:1059C0000690002600240390A889022818D108A96F
:1059D0000C98EBF75DFE0898002804D10B9B002281
:1059E0001821FF20F3E00B98C068192181710B98F2
:1059F00001214181A8684078002800D1ABE001284E
:105A000000D0E0E00C98056813E00698401C069072
:105A10002D680C9885420CD10398002804D02630BC
:105A20000078C00700D5BCE00C98056800260396F6
:105A3000002407980899069A891A884200D3DDE065
:105A40002F000222B968491C04A8801CFAF704FC44
:105A5000F8890A9909880905090D8842D5D1012ECE
:105A600004DB6846408AB04223D0D1E7002E01D142
:105A70006846468AB748816800E00100088DB04258
:105A800007DA0868B34A0832904202D0028D964283
:105A9000F3DA03AA3000EFF79FFB012865D1022259
:105AA00003990A9800880005000D00F06AF90028A3
:105AB0005BD10222B968C91C04A8FAF7CDFBB889EA
:105AC000401F80B20090039A1E3213796846008A04
:105AD00000990918002B32D11288531E834234DBFF
