:020000040800F2
:10800000800D0020A5B1000841B1000843B100086F
:10801000C5B10008C9B10008CDB1000800000000DA
:1080200000000000000000000000000045B1000852
:1080300047B100080000000049B100084BB100083A
:10804000D1B10008D5B10008D9B10008DDB10008F0
:10805000E1B10008E5B10008E9B10008EDB10008A0
:10806000F1B10008F5B10008F9B10008FDB1000850
:1080700001B2000805B2000809B200080DB20008FC
:1080800011B2000815B2000819B200081DB20008AC
:108090004FB1000821B2000825B2000829B200083B
:1080A0002DB2000831B2000835B2000839B200081C
:1080B0003DB2000841B2000845B2000849B20008CC
:1080C0004DB2000851B2000855B2000859B200087C
:1080D0005DB2000861B2000865B2000869B200082C
:1080E00059B100086DB2000871B2000875B20008FD
:1080F00079B20008000000007DB2000881B20008DB
:1081000085B2000889B200088DB2000891B200085B
:1081100095B2000899B200089DB200080000000066
:10812000A1B2000838B5044600250CB9012032BDC3
:10813000032084F8E90194F8E90108B984F8E8011A
:10814000204600F00BFE1C2001230CE000FB054143
:1081500001F12802537081F828500021D170D160BC
:10816000116151616D1C61688D42EFD300250023C0
:108170000BE000FB054101F58472537081F8085152
:10818000D370D360136153616D1C61688D42F0D36D
:1081900021680120A1F840004FF43D402168A1F87A
:1081A00040302168A1F844302168A1F8503021689E
:1081B000A1F8400084F82430012084F8E90100206F
:1081C00032BD80B5012100F0CEFE002002BD10B509
:1081D00004462068B0F84400000444BF204600F084
:1081E00033FC2068B0F8441049050DD5B0F84410B0
:1081F0004FF6FF321140A0F84410204600F00BFE6D
:108200000021204600F065F8206800F140018A88CE
:10821000520404D58A884BF6FF731A408A808A88F4
:10822000920404D58A884DF6FF731A408A808988A3
:10823000C90415D5B0F840104FF6FB721140A0F8F4
:1082400040104FF43D41A0F84010204600F0F4FDEE
:108250002068B0F844104EF6FF721140A0F84410A8
:10826000206800F140018A88120516D58A884FF2ED
:10827000FF731A408A80B0F8402042F00802A0F84C
:108280004020B0F8402042F00402A0F84020888846
:10829000C0045CBF204600F0CBFD2068B0F844105D
:1082A000890509D5B0F844104FF6FF521140A0F8E7
:1082B0004410204600F09EFD2068B0F84410C90527
:1082C00006D5B0F844104FF6FF621140A0F84410F4
:1082D00010BD90F8E821012A01D102207047012247
:1082E00080F8E821002903BF80210268A2F84C1021
:1082F00080F82410002180F8E811002070472DE953
:10830000F04701F07F041C2505FB04040D064CBF5B
:10831000283404F5847401F07F052570C909617063
:10832000E260E37090F8E811012908BF022000F034
:108330002C81012180F8E81148F68F13E17829B1EA
:10834000022908D00FD3032908D012E000F01FF94A
:1083500043F400730BE000F01AF908E000F017F99D
:1083600043F4C06303E000F012F943F4806321F8A2
:10837000223025780168A84631F8286048F68F73C6
:108380001E4048F280023543154321F828508E469E
:10839000A77A26784BF68F754CF2800848F6BF799D
:1083A00048F2C00C002F64D1A78894F801A07F0880
:1083B0007F00BAF1000F1CD0B1F8505005EBC60594
:1083C0000EEB450505F580652F60257831F82560B1
:1083D000760606D531F8256033404CEA030321F8D0
:1083E0002530237831F8234009EA040484F020047E
:1083F000C4E0B1F8509009EBC6060EEB460606F550
:1084000081663760B1F85060277806EBC7060EEB3F
:108410004609E66809F20C493F2E0BD34FEA561E77
:1084200016F01F0F08BFAEF1010E4FEA8E2646F47C
:10843000004607E04FEA560EF60748BF0EF1010E60
:108440004FEA8E26B6B2C9F8006094F8009031F871
:108450002960760406D531F82960334048EA0303E1
:1084600021F82930237831F823402C4084F44054FB
:1084700084E031F826701F4047F4014747F0800739
:1084800021F82670B1F85060277806EBC706E78818
:108490000EEB460606F580667F087F003760B1F870
:1084A0005060277806EBC7060EEB460606F5816797
:1084B0002689760876003E60667894F800E0002E03
:1084C00031F82E602ED1760406D531F82E601E408C
:1084D00048EA060621F82E6094F8008031F82860FA
:1084E000760606D531F828601E404CEA060621F8CB
:1084F000286094F8008031F828E003EA0E034CEA83
:10850000030321F82830237831F82360354085F4BF
:108510004055154321F82350237831F8234009EAC8
:1085200004042BE0760406D531F82E601E4048EA9C
:10853000060621F82E6094F800E031F82E607606E9
:1085400006D531F82E601E404CEA060621F82E6052
:1085500094F800C031F82CE003EA0E0348EA030364
:1085600021F82C30237831F8236009EA06061643F7
:1085700021F82360237831F823402C40224321F84E
:108580002320002180F8E8110020BDE8F087016871
:10859000227831F822502B4070472DE9F04301F04A
:1085A0007F021C2303FB02020B064CBF02F12805CD
:1085B00002F5847501F07F022A70C909697090F88C
:1085C000E811012908BF022000F09580012180F800
:1085D000E8114BF68F7395F80A9095F800C06F7804
:1085E00001684CF2800E48F2800248F6BF7448F2EF
:1085F000C00848F68F76B9F1000F18D15FB131F895
:108600002C305B063ED531F82C30334048EA03036A
:1086100021F82C3036E031F82C40640460D531F874
:108620002C4034404EEA040421F82C4058E0002F3E
:1086300031F82C702ED17F0406D531F82C703740DC
:108640004EEA070721F82C7095F800C031F82C701D
:108650007F0606D531F82C70374048EA070721F825
:108660002C7095F800C031F82CE006EA0E0648EAB6
:10867000060621F82C602E7831F826703B40134313
:1086800021F826302B7831F823502C40224321F852
:1086900023202CE07F0406D531F82C7037404EEAB9
:1086A000070721F82C7095F800C031F82C707F0670
:1086B00006D531F82C70374048EA070721F82C70AE
:1086C00095F8008031F828703E404EEA060621F801
:1086D00028602E7831F826703C40144321F826405B
:1086E0002C7831F824502B401A4321F82420002103
:1086F00080F8E8110020BDE8F083F0B501F07F04B8
:108700001C2505FB040404F5847401F07F0122613B
:1087100063610022A2616270217090F8E811012962
:1087200001D10220F0BD012180F8E811E368616900
:108730008B4232BFC91A0B46002161615908A67AE3
:1087400003F00105002E1CBF6678002E1BD10668C1
:10875000B6F85070227807EBC20706EB470606F220
:108760000C463F2B09D3590913F01F0F08BF491EB0
:10877000890241F4004189B203E005B1491C890630
:10878000090C31600BE0012E09D10668B6F85010D3
:10879000227801EBC20106EB4101C1F80C344BF623
:1087A0008F730668217836F821201A4082F44052EF
:1087B00042F4004242F0800226F82120002180F895
:1087C000E8110020F0BD01F07F011C2202FB010036
:1087D000D0F8200180B2704770B504461E4601F003
:1087E0007F001C2303FB004000F1280500202A61C4
:1087F0006E61A8610120687001F07F00287094F814
:10880000E801012801D1022070BD012084F8E801AF
:10881000EE686869864232BF801B064600206861A8
:10882000A87A80B9AA8829692068B3B200F074FADE
:108830002068B0F850102A7801EBC20100EB41002B
:10884000C0F8046446E06878B8B93F2E00F055F8E7
:1088500000F20C4009D3710916F01F0F08BF491E22
:10886000890241F4004189B205E07108F20748BF6E
:10887000491C8906090C016005E0012803D100F0BC
:108880003CF8C0F80C642068297830F821104906BB
:108890004CBF2A89EA882969B3B200F03DFA6878AA
:1088A00048F68F7148B92268287832F8203019408C
:1088B00041F4004141F0C0010AE001280AD12268D8
:1088C000287832F82030194041F4404141F08001CD
:1088D00022F820102168287831F8202048F6BF734C
:1088E0001A4082F0300242F4004242F0800221F845
:1088F0002020002084F8E80170BD2068B0F85010F6
:108900002A7801EBC20100EB4100704730B590F8C6
:10891000E821012A01D1022030BD012280F8E8219E
:108920001C230A460C0605D502F07F0203FB020257
:10893000283203E003FB020202F5847201239370E4
:10894000CC0901F07F031370547048F28002016873
:1089500053B90B884BF6BF74234083F4805383F0E4
:1089600010031A430A8011E0002C31F8234005D08F
:1089700048F6BF752C4084F0100404E04BF68F7568
:108980002C4084F48054224321F82320002180F8D5
:10899000E811002030BD70B51C230A460C0605D531
:1089A00002F07F0203FB0202283203E003FB020213
:1089B00002F584720023937001F07F031370C909DC
:1089C000517090F8E811012901D1022070BD0121F8
:1089D00080F8E81148F28003016856781478002E78
:1089E00031F8246048F68F7513D0760608D531F833
:1089F0002460354045F4004545F0C00521F8245079
:108A000048F6BF75127831F822402C4084F03004CB
:108A100012E0760408D531F82460354045F440452D
:108A200045F0800521F824504BF68F75127831F807
:108A300022402C4084F44054234321F8223000216A
:108A400080F8E811002070BD2DE9F84F04460020A1
:108A5000ADF8000048F68F7A40F68F7648F60F7B27
:108A60001FE001880BEA0101018004F12805FFF7EE
:108A700044FF00F045F9296940182861002120468B
:108A800000F0B0F994F8240058B1686948B994F836
:108A90002400216840F08000A1F84C00002084F8F8
:108AA00024002068B0F84410ADF80210090440F129
:108AB0000C81BDF8021011F00F085ED1BDF8021054
:108AC000C906CED50188ADF8001004F58475BDF84F
:108AD0000010090511D5FFF711FF04F5F67100F03C
:108AE00015F9AA88206800F02BF920680188314028
:108AF0000180204600F067F9D3E7BDF800100904B3
:108B0000CFD5018831400180FFF7F7FE00F0FEF875
:108B100008D0AA882969206800F012F92869A96993
:108B2000081828610021204600F053F92068B0F8A9
:108B3000501000EB4100E96800F20C403F2908D3D7
:108B40004A0911F01F0F08BF521E910241F4004163
:108B500004E04A08C90748BF521C910289B201606B
:108B60004BF68F7220680188114081F4405141F426
:108B7000004141F08001018093E730F82810ADF802
:108B800000101C2101FB0849BDF8001009044AD55A
:108B900030F82810314020F8281009F584752B781A
:108BA0002068A97ADA0051B9B0F8503000F097F88F
:108BB00025D0AA8829693B4600F0C2F81FE030F8AA
:108BC00023305B04B0F8503009D5D21800EB4201D5
:108BD000D1F804148F05BF0D09D0EA8803E000F036
:108BE0007EF804D02A893B46296900F0A9F800F0F4
:108BF0006FF842F4004242F0C00221F82020A96937
:108C00007918A96129697A182A616B6913B1E96831
:108C10008F4204D22978204600F0DBF803E029785F
:108C20002046FFF76AFDBDF80000000649D5206820
:108C300030F828100BEA010109F1280520F8281066
:108C40002A782368A87AD10050B9B3F8502000F0F0
:108C50004EF823D0AA882969206800F05DF81DE04D
:108C600033F822205206B3F8502004D500F03FF824
:108C70000CD0EA8806E0891803EB410000F046F8C2
:108C800004D02A892969206800F046F800F020F80D
:108C900042F4404242F0800221F8202020682978E6
:108CA000B0F8502002EBC10200EB420000F028F8BF
:108CB0002A6982182A6120466B69002B02D100F0D4
:108CC00091F8EEE6FFF788FDEBE60020BDE8F28FB5
:108CD0002168287831F820200AEA02027047D21869
:108CE00000EB4201D1F80C148F05BF0D70478918B5
:108CF00003EB4100D0F8040483059B0DAB61704782
:108D0000D0F804048005800DA8617047D0F80C04E9
:108D100083059B0DAB61704710B500EB42005A1CF8
:108D200000F58060521009E011F8013B11F8014B89
:108D300043EA042320F8023B801C521EF4D110BDEC
:108D400000EB42005A1C00F58060521004E050F81D
:108D5000043B21F8023B521EF9D1704710B5874CF5
:108D600086B0206840F00100206001A9206800F072
:108D70000100009000984FF4C05001900020029034
:108D800001200390032004907D4800F005F9A068BD
:108D900040F40000A0600022A06800F400000090F1
:108DA0000C210098606840F001006060606800F08D
:108DB000010000900098142000F047FA142000F001
:108DC00066FA06B010BD00F5F671D0F81C0200F08E
:108DD000C1BA1C2202FB0102D0F81C02D2F81821F1
:108DE00000F0E4BA1C2202FB0102D0F81C02926BD4
:108DF00000F00FBBD0F81C0290F8FC01032809D149
:108E0000604801684A1C0260052903D10021016005
:108E100000F0C1BB704710B504460121D4F81C0214
:108E200000F06AFBD4F81C02BDE8104000F043BB20
:108E3000D0F81C0200F063BB0168B1F8402042F496
:108E40000072A1F84020D0F81C0200F05EBB10B503
:108E500004464D484D490160C0F81C42082141605C
:108E60000021C16002210161816000218161C4F89B
:108E70002002FFF757F94023D4F8200200220021F6
:108E800000F0D2FB8023D4F820020022194600F023
:108E9000CBFBD4F82002C0230022812100F0C4FBC8
:108EA000D4F820024FF488730022012100F0BCFBAB
:108EB000D4F820024FF480730022822100F0B4FB2A
:108EC000002010BD80B5D0F82002FFF77AF900200D
:108ED00002BD10B51C461346D0F820022246FFF70B
:108EE0000EFA002010BD80B5D0F82002FFF755FB28
:108EF000002002BD80B5D0F82002FFF707FD00205A
:108F000002BD80B5D0F82002FFF745FD002002BD6C
:108F1000D0F8200201F07F021C2303FB02000906A7
:108F200002D590F82A00704790F80A01704780B582
:108F3000D0F82002FFF7CDF9002002BD80B5D0F8AF
:108F40002002FFF749FC002002BD80B5D0F82002C6
:108F5000FFF7D3FB002002BDD0F82002FFF733BC9F
:108F60000B48704770470B48012901680EBF41F05C
:108F70000101490849000160704700001C380240A7
:108F80000000024080290020D4210020005C004025
:108F9000A41F0020040001402DE9F8470026714A73
:108FA000714BDFF8C8814FF00F0930E005FA0EF77A
:108FB0003C4343F82C406FEA0A07146807EA040EA2
:108FC0004C68E40348BF4AEA0E0EC2F800E0546859
:108FD00007EA040E4C68A40348BF4AEA0E0EC2F822
:108FE00004E0946807EA040E4C68E40248BF4AEAC9
:108FF0000E0EC2F808E0D46807EA040C4F685FEA76
:10900000872E48BF4AEA0C0CC2F80CC0761C0F68C9
:1090100037FA06F400F08F80012404FA06FC1CEAFB
:10902000070AF3D04C68022C18BF122C10D1F40898
:1090300000EB840E06F00704DEF82050A40009FAC5
:1090400004F7BD430F6907FA04F42C43CEF820401F
:109050004FEA460E05680F79032404FA0EF4E44340
:1090600007F00307254007FA0EF73D4305604D68FA
:10907000012D18BF022D03D0112D18BF122D0FD1B5
:109080008568CF68254007FA0EF73D43856045683F
:1090900025EA0C074D68C5F30015B5402F4347601E
:1090A000C76827408C6804FA0EFE4EEA0707C760BF
:1090B0004F68FF00AAD5D8F8004044F00104C8F872
:1090C00000404FEA960CD8F8004004F001040094E8
:1090D00006F00305009C53F82C404FEA850E09FA70
:1090E0000EF5AC43224DA84208BF002522D0214DE9
:1090F000A84208BF01251DD01F4DA84208BF022568
:1091000018D01E4DA84208BF032513D01C4DA842FD
:1091100008BF04250ED01B4DA84208BF052509D065
:10912000194DA84208BF062504D0184DA8420CBF0F
:10913000072508253AE7BDE8F1870069084018BF10
:109140000120C0B2704702B9090481617047104A1A
:109150001368034200D1704780B5106000F01AF820
:1091600001BD000000040140080001402038024019
:10917000000002400004024000080240000C0240CF
:109180000010024000180240001C0240001402407F
:10919000140401407047F0B40168446883680918FA
:1091A00001EB5402E40748BF4B440C3091422BD0F2
:1091B00011F8014B14F0030504BF11F8015BED1C1D
:1091C00026090F2E07D111F8016B0F3603E011F8B5
:1091D000017B03F8017B6D1EF9D1002EE6D0A408B7
:1091E00011F8015B04F00304032C08BF11F8014BD4
:1091F00005EB04241C1BB51CD8D014F8016B03F834
:10920000016B6D1EF9D1D1E7F0BC704731480068A1
:10921000C0F3022070470901002806D52E4A00F04D
:109220000F00801800F8041C70472C4A81547047C6
:1092300028490A684FF6FF031A4000F0070042EA87
:109240000020274A10430860704770B504460D4659
:109250001646FFF7DBFF00F007000121C0F107020F
:10926000052A2EBF0F2201FA02F2521E031D072B00
:1092700034BF0020C01E2A40824001FA00F0401E88
:10928000304040EA02012046BDE87040C3E70121BA
:1092900000F01F029140134A04E0012100F01F0278
:1092A0009140114A400942F82010704710B5401E05
:1092B000B0F1807F01D3012010BD0C4C60600F2104
:1092C0004FF0FF30FFF7A7FF0020A06007202060CD
:1092D000002010BD0CED00E018ED00E000E400E01F
:1092E0000000FA0500E100E080E100E010E000E0AD
:1092F00080B508B9022002BDD0F8143213B10023A2
:10930000C0F8143209B1C0F81012012180F8FC1124
:109310000270FFF79CFD002002BD0022002914BF4F
:10932000C0F8141202221046704780B5FFF7CAFD3C
:10933000002002BD10B5D0F8142202241AB1126820
:10934000904700B90024204610BD80B5D0F8142203
:109350005268E0E038B5044604F50275284600F08E
:109360001FFB0120C4F8F40104F5FA70418B416041
:10937000007D10F01F0103D002290BD005D30EE0B1
:109380002946204600F06AF90EE02946204600F002
:1093900005FA09E02946204600F01CFA04E000F036
:1093A00080012046FFF7A6FD002032BD38B50446F7
:1093B000104604F5FA7309BBD4F8F42104F5827160
:1093C000032A24D18D68CA68AA420AD2AB1A8B60DC
:1093D000934238BF1A46014692B2204600F039FB4C
:1093E00015E0186A0169080004D0187A032804BF40
:1093F00020468847204600F034FB08E0186A82695E
:10940000100004D0187A032804BF2046904700209B
:1094100032BD38B50546104605F5FA7400293FD12E
:10942000D5F8F42105F11401022A33D18A68CB68FA
:1094300093420AD2D21A8A60014692B2284600F0BC
:10944000F7FA00220023114614E04868B0FBF3F15C
:1094500003FB110191B9984210D3616888420DD283
:1094600000220021284600F0E3FA00206060034655
:10947000024601462846FFF768FD0BE0206AC168F6
:10948000080004D0207A032804BF284688472846CD
:1094900000F0ECFA207B01280BD10020207308E0BB
:1094A000206A4269100004D0207A032804BF2846AD
:1094B0009047002032BD10B5044640230022002111
:1094C000FFF707FD4020C4F8100103460022802169
:1094D0002046FFF7FEFC4020206204F5FE720120CA
:1094E00084F8FC01D06928B1926961685268C9B2F8
:1094F00020469047002010BD01740020704790F86E
:10950000FC1180F8FD11042101E090F8FD1180F8B4
:10951000FC11002070479047002002BD38B53E4C3A
:1095200004F5805500222146284600F094FB04F5FE
:109530000061284600F097FB002032BD00207047F4
:10954000364A202802D0212812D022E008784B7811
:1095500040EA03208B7840EA0340CB7840EA03607E
:10956000106008791071487950718879907110E015
:10957000106808701068000A48701068000C887045
:109580001068000EC8701079087150794871907990
:1095900088710020704770B5214C606822681E49B0
:1095A00001F58055904217D0824234BFC0F5006665
:1095B000161A4118B2B2284600F04DFB284600F0BA
:1095C00058FB002801BF606830186060B0F5006F7C
:1095D0000CD10020606070BD00220021284600F000
:1095E0003AFB2846BDE8704000F043BB70BD80B533
:1095F000096889B200F080FB0A4800F051FB0020A6
:1096000002BD0749044B0A68D054501CB0F5006FE6
:1096100008BF002008607047800D00203001002046
:1096200070290020801D002030B51C240D0605D5B2
:1096300001F07F0104FB0100283003E004FB01007E
:1096400000F584701AB900218172838004E0012141
:109650008172C380190C0181002030BD70B50D46A8
:1096600004466878211D04F5FE7209284BD8DFE80E
:1096700000F06B804A7C4A0A054A5A252946204652
:1096800000F012F986E0A888002804BFE8880028C6
:1096900039D1A87800F07F0694F8FC01032832D075
:1096A000967031462046FFF742FC00F090F8002EFD
:1096B00014BF0220012084F8FC016BE0364E68885C
:1096C0003070307802281EDA94F8FC1102291DD07F
:1096D000032918D148B9022084F8FC010021002098
:1096E00060602046FFF731FE52E0616888424FD04B
:1096F000C9B22046FFF729FE317861602046FFF7A6
:1097000019FE022844D100F048F943E000283FD078
:109710006060032184F8FC1101462046FFF70AFE31
:109720000228F0D034E0E8880128ECD194F8FC015C
:10973000022803D00328E6D1012212E0002048606D
:10974000012204F108010CE094F8FC01801E0128BC
:10975000D9D89268012002B103208860022204F166
:109760000C01204600F05DF914E06888012811D151
:1097700008E094F8FC01801E0128C4D868880128FC
:1097800008D100209060294692699268204690474F
:1097900000F01DF8002070BDF726002038B5044603
:1097A0000D4694F8FC0103280CD12879022809DA27
:1097B000D4F81422926820469047E88828B900F02F
:1097C00006F802E0204600F0FFF8002032BD2046F7
:1097D00000F047B970B50D4604462878297900F0A5
:1097E000600004F5FE76202802D100F057F853E01F
:1097F0006A7801F07F00002A2BD0012A14D0032AB6
:109800004AD194F8FC01022802D0032803D041E099
:10981000002941D010E0688828B900291EBF80299E
:109820002046FFF767FB0FE094F8FC21022A02D0E4
:10983000032A03D02EE079B3802912E06A885ABB4C
:1098400020B12046FFF75DFB00F028F8FFF7BFFFCF
:1098500022E094F8FC21022A02D0032A06D019E063
:10986000002819D02046FFF745FB15E004EB001057
:109870000A064CBF00F1140500F582752046FFF77B
:1098800047FB00B10120286002222946204600F053
:10989000C8F801E000F081F8002070BDB26992685C
:1098A000294620461047000038B50D460446688812
:1098B000020A04F50471012A08D0022A1ED0032AE4
:1098C00029D0062A53D0072A58D05FE000F061F86B
:1098D000126800A99047BDF8001000291CBFE98854
:1098E00000290AD0BDF800208A4288BF0A460146F6
:1098F000ADF80020204600F094F831BD207C496886
:10990000002800A804D1896A884702214170E2E753
:10991000C96A8847F9E7C0B2052837D8DFE800F000
:1099200003090F151B2100F034F8526800A9904775
:10993000D1E700F02EF8926800A99047CBE700F03D
:1099400028F8D26800A99047C5E700F022F812690C
:1099500000A99047BFE700F01CF8526900A99047A2
:10996000B9E700F016F8926900A99047B3E7207CA8
:1099700060B94968496B00A88847ACE7207C28B9E2
:109980004968096B00A888470721BFE700F005F880
:1099900031BDD4F81022207C70472946204613E0C0
:1099A0000A7802704A784270CB788A7802EB0322F8
:1099B00042804B790A7902EB032282808A79C97945
:1099C00002EB0121C180704710B504468021FFF7EA
:1099D00091FA2046BDE810400021FFF78BBA00B98C
:1099E000704730B50346002400E0641C13F8015BA7
:1099F000002DFAD12406E30D9B1C138012880A70F7
:109A000003224A70022208E010F8013BD2B25354FC
:109A1000521CD2B200235354521C0378002BF3D1B2
:109A200030BD80B50223C0F8F4318261C26100E02C
:109A300080B513460A460021FFF780FA002002BDD8
:109A400080B50323C0F8F431C0F80821C0F80C2118
:109A500000E080B513460A460021FFF776FA0020A1
:109A600002BD80B5042100F006F8E5E780B50521C8
:109A700000F001F8F1E7C0F8F411002200231146CC
:109A80007047000070B505460024287C30B94FF4BB
:109A9000007300F032F84FF4007303E0402300F04D
:109AA0002CF84023022201212846FFF712FA08234E
:109AB000032282212846FFF70CFA4FF40770FFF7C4
:109AC0004FFA0600C5F8186208BF012413D0D5F874
:109AD0001C020068804706F5017004614461287C1F
:109AE000D6F8042200280CBF4FF400734023012154
:109AF0002846FFF72AFA204670BD02228121284617
:109B0000FFF7E7B910B504468121FFF7ECF9012111
:109B10002046FFF7E8F982212046FFF7E4F9D4F860
:109B2000180250B1D4F81C0240688047D4F81802DB
:109B3000FFF718FA0020C4F81802002010BD70B515
:109B40000D4604462978D4F8186211F0600020D040
:109B5000202826D1EA8804F50673A2B168780906A0
:109B600006D55B689B6831469847EA88314615E020
:109B700086F800023146E88886F801022046EA8825
:109B8000FFF75EFF0DE05B6868789B6829469847A1
:109B900007E068780A2804D1012226492046FFF709
:109BA00040FF002070BDD0F8180220B10021C0F89D
:109BB0001412002070470220704738B50446D4F8CC
:109BC0001852FFF7C9F9C5F80C02D4F8180248B1C9
:109BD000D4F81C22D5F80402D26805F50371904729
:109BE000002032BD022032BD10B5D0F8184200F579
:109BF00006704368002B1CBF94F80002FF2807D0B2
:109C000094F801229B6821469847FF2084F80002BF
:109C1000002010BD43210180074870474321018087
:109C20000648704743210180054870470A2101809A
:109C300004487047F6260020A80000206400002099
:109C4000EC00002020000020022211B1C0F81C12FC
:109C5000002210467047D0F81802C0F80812C0F869
:109C6000102200207047D0F81802C0F8041200201B
:109C7000704780B5D0F8181281B101F50272D3682F
:109C800053B90123D3609368D1F808229BB2812194
:109C9000FFF754F9002002BD012002BD022002BDE1
:109CA00080B5D0F8181261B1D1F80422017C0029E6
:109CB0000CBF4FF4007340230121FFF746F9002049
:109CC00002BD022002BD000010B50E490E4C086016
:109CD00000220E492046FFF70BFB0D492046FFF7F7
:109CE0001CFB0C492046FFF7AFFF2046BDE81040A3
:109CF000FFF71BBBFFF785BC024A1268130018BFB1
:109D00001047704778290020801D0020480100205E
:109D10002C000020380100202DE9F843044641F2D0
:109D200089382078DFF8B466C0075ED5B06800F0E7
:109D30000C00082807D0B06800F00C000C280CD1EB
:109D4000B068C00309D53068C0F3404000284CD04B
:109D50006068002849D10120ABE1306820F48030F0
:109D60003060306820F48020306000F087FB0746C8
:109D70003068C0F3404028B100F080FBC01B404574
:109D8000F6D393E1306820F48030306060680128B9
:109D900007D1306820F480203060306840F4803093
:109DA00006E0052808BFB07003D0306820F480209A
:109DB0003060606860B100F061FB07463068C0F356
:109DC000404090B900F05AFBC01B4045F6D36DE10E
:109DD00000F054FB07463068C0F3404028B100F063
:109DE0004DFBC01B4045F6D360E12078DFF8F075ED
:109DF00080071BD5B06800F00C00042807D0B068BD
:109E000000F00C000C2831D1B068C0032ED43068AB
:109E1000C0F3400000281CBFE06801289BD1706897
:109E2000216920F4F85040EA012070602078C006D3
:109E30004BD5B06810F00C0F5FD13068C0F34020F4
:109E400010B1A069002886D0206A716801F46041D1
:109E500081422CD200F089FA0028DFD17068216A93
:109E600020F46040084300F02DF92BE0E06878B161
:109E70000120386000F002FB05463068C0F3400066
:109E80000028CCD100F0FAFA401B6528F5D30DE18B
:109E9000386000F0F3FA05463068C0F3400000284F
:109EA000C4D000F0EBFA401B6528F5D3FEE07168E2
:109EB00021F46041084300F005F9206A00F055FAEA
:109EC0000028ABD1002000F0C2FA2078000750D55E
:109ED0006169DFF8100500293DD00121016000F023
:109EE000CDFA0546706BC0F34000002841D100F068
:109EF000C5FA401B6528F5D3D8E0A069E0B1012080
:109F0000386200F0BBFA05463068C0F3402028B93B
:109F100000F0B4FA401B6528F6D3C7E07068216AE8
:109F200020F46040084370607068E1690002000A34
:109F300040EA01607060C8E7386200F09FFA0546A9
:109F40003068C0F340200028BFD000F097FA401BD3
:109F50006528F5D3AAE0016000F090FA0546706B21
:109F6000C0F3400028B100F089FA401B6528F6D301
:109F70009CE0207840075DD5706ADFF86C9440F073
:109F800080507062706A00F0805000900098D9F89C
:109F9000000040F48070C9F8000000F06FFA054638
:109FA000D9F80000C00505D400F068FA401B652808
:109FB000F6D37BE0706B00F07EF8706300F05EFA21
:109FC0000546706BC0F3402028B100F057FA401BE3
:109FD0004045F6D36AE0A068012808D008B9706B44
:109FE00009E00528706B06D140F480607063706BE7
:109FF00040F4807001E000F05EF87063A06860B12A
:10A0000000F03CFA0546706BC0F3402090B900F0B8
:10A0100035FA401B4045F6D348E000F02FFA0546DC
:10A02000706BC0F3402028B100F028FA401B404577
:10A03000F6D33BE0606A00283AD0B16801F00C0129
:10A040000C293FF488AE022824D100F044F80546DC
:10A050003068C0F3406028B100F010FA401B65285A
:10A06000F6D323E0B068A16A20F47D000843E16ADA
:10A070000843216B0843B060012000F02DF804462E
:10A080003068C0F3406098B900F0F8F9001B65280B
:10A09000F6D30BE000F01FF804463068C0F34060D0
:10A0A00030B100F0EBF9001B6528F6D3032000E087
:10A0B0000020BDE8F28320F480707063706B20F4A0
:10A0C0008060704770607068E1690002000A40EAD1
:10A0D0000160706070470020386600F0CFB92DE94C
:10A0E000F843DFF80853DFF8F462044628680F46A7
:10A0F00000F0010041F28938B84269D2012F03D142
:10A10000286840F0040028602868400847EA4000BA
:10A110002860286800F00100B8421FD1207880072D
:10A1200005D5B068A16820F0F0000843B060207841
:10A13000C00740F1BD806068022803D13168C1F3D7
:10A1400040410AE0032803D13168C1F3406104E0D3
:10A150003168012803D1C1F3400121B9A6E0C1F360
:10A1600040210029FAD000F0BCF8074660680228B8
:10A170000AD1B06800F00C00082822D000F07EF967
:10A18000C01B4045F5D37FE003280AD1B06800F03A
:10A190000C000C2815D000F071F9C01B4045F5D318
:10A1A00072E001280AD1B06800F00C00042808D041
:10A1B00000F064F9C01B4045F5D365E0B06810F0CD
:10A1C0000C0F75D000F05AF9C01B4045F6D35BE088
:10A1D0002078800705D5B068A16820F0F00008431A
:10A1E000B0602078C00751D56068022803D131687B
:10A1F000C1F340410AE0032803D13168C1F3406153
:10A2000004E03168012803D1C1F3400121B94DE0D8
:10A21000C1F34021002949D000F063F8814660680D
:10A2200002280BD1B06800F00C0008282ED000F0F6
:10A2300025F9A0EB09004045F4D325E003280BD114
:10A24000B06800F00C000C2820D000F017F9A0EB4B
:10A2500009004045F4D317E001280BD1B06800F0A5
:10A260000C00042812D000F009F9A0EB09004045C9
:10A27000F4D309E0B06810F00C0F07D000F0FEF83E
:10A28000A0EB09004045F5D3032028E0012F03D1BE
:10A29000286840F0040028602868400847EA400029
:10A2A0002860286800F00100B84201D0012016E0C3
:10A2B0002078400705D5B068E16820F4E0600843E5
:10A2C000B0602078000706D5B068216920F460509E
:10A2D00040EAC100B060002000F0B9F80020BDE8FD
:10A2E000F283B168890840EA8100B06000F0C6B826
:10A2F00030B5404940484A68404B02F00C04042CF9
:10A3000023D0082C02D00C2C02D015E0184630BD0A
:10A310000FF20414C2F38345C2F381522C5D0FF295
:10A32000F405525D4968B4FBF2F2C90302D503FBA0
:10A3300002F030BD504330BD0868400B00F007000C
:10A340000121401C01FA00F0C00330BD80B5FFF7C9
:10A35000CFFF274B0FF2AC021B682949C3F303134D
:10A360009A5CD0400860086802BDF8B5204F1F4EC7
:10A3700004463868002510F0F00F1FD1F869C000BE
:10A3800002D500F08FF80EE0F86940F08050F861D7
:10A39000F86900F080500090009800F083F8F969A7
:10A3A00021F08051F961B0F5C05F08BFB4F5404FAE
:10A3B00004D10125306840F0040030603068400866
:10A3C00045EA40003060306800F00100A84201D04A
:10A3D0000120F2BD0020F2BD000000000038024064
:10A3E000000047428006474200700040003C0240A7
:10A3F00008380240043802400024F40000127A00B9
:10A400001C000020000000000102030401020304FC
:10A410000607080901020304030406080C101820AB
:10A420003000000080B51D48016841F00401016062
:10A43000016841F0020101600320FEF7F9FE0020EF
:10A4400000F005F800F002F8002002BD704710B5DA
:10A450000446FFF77BFF4FF47A71B0FBF1F0FEF793
:10A4600025FF002221464FF0FF30FEF7EEFE0020D0
:10A4700010BD0B480168491C01607047084800681E
:10A48000704711B581B0FFF7F9FF0446FFF7F6FFFB
:10A490000199001B8842F9D313BD0000003C024023
:10A4A0007C2900200248006800F4C050704700007A
:10A4B000007000404FF40051DFF8CC03FEF73DBEC2
:10A4C00070B50446DFF8C403DFF8C46386B00168E2
:10A4D00041F0010101604FF40075016801F00101D4
:10A4E00000910099016800F079F800F077F800F029
:10A4F00075F800F06AF8016800F067F8416841F407
:10A500008051416001A9406800F48050009000989B
:10A5100001950120029000200390012000F04FF8E7
:10A5200000F082F8202000F063F8402000F060F88E
:10A53000802000F05DF808200190012002900020AA
:10A5400000F019F9DFF840633046FEF725FD0122DF
:10A55000082100F07AF84FF400500190DFF834033E
:10A56000029001A902200390032000F028F8DFF8F0
:10A570002863DFF828033060B5614FF482707060A3
:10A580000020B060F060306170613062706207205E
:10A59000F0620820F061304600F090F9012C06D1FD
:10A5A000002203212820FEF750FE00F07BF93068DE
:10A5B000016841F040010160002006B070BD0490C8
:10A5C000002005903046FEF7E7BC41F00401016031
:10A5D000016801F0040100910099704741F0010108
:10A5E0000160016801F00101009100990168704764
:10A5F000019001A902200290002003900320049002
:10A60000052005903046FEF7C7BC10B5DFF8804244
:10A61000002200F0ABF800F012F8012200F0A6F8DA
:10A6200000F00DF800BF10BD00224FF400719848F3
:10A63000FEF789BD012208214846FEF784BD0520AA
:10A64000FFF71FBF00224FF400713046FEF77BBDBD
:10A6500070B586B02820FEF720FE00F023F800F049
:10A660000FF8FFF7EFFFFFF7EAFF0122FFF7EBFF1D
:10A67000FFF7E5FF00F009F800F014F906B070BD2F
:10A68000012221462846FEF75EBD824801900094D3
:10A69000022002906946032003900020049028467F
:10A6A000FEF77ABC012001904FF400540020029084
:10A6B000012003900020049000946946724D744E6E
:10A6C0002846FEF769BC2DE9F0430D460FF2DC1178
:10A6D00085B004460CC902A800260CC072B6DFF88B
:10A6E000A8910022FFF7A7FFDFF8AC8105236A4697
:10A6F00002A9404600F026F99DF8000002280FD17B
:10A700009DF804009DF8031051EA002708D0BD42CF
:10A71000B8BF2F46FAB22146404600F048F93E46FF
:10A72000FFF788FF62B6F0B205B0BDE8F08310B560
:10A7300086B04FF40050019001200290022000F0FA
:10A740001AF8514C2046FEF727FC01224FF4005125
:10A7500000F00EF8002002E000BF0098401C0090BE
:10A760000098B0F5AA7FF7DB06B010BD4FF400717A
:10A770002046FEF7E8BC03900320049000200590DB
:10A7800001A9704700B585B04FF4005000906946AC
:10A7900040480190022002903B48FEF7FDFB05B0C7
:10A7A00000BD2DE9FF478A4616461F460FF20411E9
:10A7B00004460CC902A800210CC06846002206C04D
:10A7C000DFF8C48008214046FEF7BDFCDFF8C890E2
:10A7D00005236A4602A9484600F0B4F89DF8000037
:10A7E000022818BF4FF0FF3715D19DF80150B54230
:10A7F000B8BF6FF001070EDBF2B22146484600F009
:10A80000BCF8AD1BEDB2BD42B8BF2F46FAB25146FF
:10A81000484600F0B2F8012208214046FEF793FCBA
:10A8200038B204B0BDE8F0872DE9FC4180461C48F1
:10A8300000680D460A21B0FBF1F116461F46684636
:10A8400000F0CFF82820FEF728FDFFF770FF002466
:10A850003B46324661194046FFF7A3FF002805D466
:10A860003F1A04190026E4B2BFB237B1684600F0BF
:10A87000C0F80028ECD0FFF785FFFFF783FF00F05A
:10A8800011F8BDE8F3810000000802401C380240C6
:10A890000000024000001110F828002000300140A4
:10A8A000C0B100082820FEF7F2BC00000B00000039
:10A8B000000000000A0000000000000010B50400C5
:10A8C00001D1012010BD94F8510020B984F8500046
:10A8D000204600F09BF8022084F8510020680168AF
:10A8E00021F0400101606068A1680843E168084305
:10A8F0002169084361690843A16901F400710843B3
:10A90000E1690843216A0843A16A08432168086095
:10A91000A069616A000C00F00400084321684860E7
:10A920002168E06A08612068C16921F40061C161A1
:10A9300000206065012084F85100002010BD0068EF
:10A94000C16070472DE9F04104460D461646984611
:10A9500000270CE000F027F8206881688907FCD503
:10A960008168C907FCD5C06806F8010B7F1CFFB2DF
:10A970004745EFD30020BDE8F081F8B504460D4609
:10A98000164600270AE000F00EF820688168890763
:10A99000FCD58168C907FCD5C0687F1CFFB2B742EF
:10A9A000F1D30020F2BD15F8011B2046C7E7F8B52A
:10A9B00004460D46164600270EE0FF212046FFF70D
:10A9C000BEFF206881688907FCD58168C907FCD56E
:10A9D000C06805F8010B7F1CFFB2B742EDD3002021
:10A9E000F2BD10B504466160FFE700F010F820608A
:10A9F00010BD10B5044600F00AF822686168801A9C
:10AA0000401C81428041C00F10BD00007047FFF71D
:10AA100035BDFFF736BD00004CF2503840469AE095
:10AA2000DFF894010168C90707D5DFF8901181604C
:10AA3000DFF88C1181600020704701207047DFF83B
:10AA40007801016841F001010160002070472DE9A3
:10AA5000F843DFF86091044699F810000D46164659
:10AA6000012808BF02203CD0012089F81000FFF720
:10AA7000D3FF002832D1C9F81400042C4E4F06D160
:10AA8000FFF7CCFF002827D100F02DF821E0082C9B
:10AA900005D1FFF7C3FFF8B900F025F813E0102C3B
:10AAA00005D1FFF7BBFFB8B900F01DF804E0022C98
:10AAB00004D1FFF7B3FF78B92E600BE0012C04D16D
:10AAC000FFF7ACFF40B92E8004E02CB9FFF7A6FFDA
:10AAD00010B92E70FFF7A2FFFFF7A0FF002189F841
:10AAE0001010BDE8F283386820F480703860704739
:10AAF000344930480A68D20504D5102242614FF427
:10AB000080720A600A68920506D5426942F008021E
:10AB100042614FF400720A600A68520506D5426924
:10AB200042F0010242614FF480620A600A68120535
:10AB300006D5426942F0020242614FF400620A60A7
:10AB40000A68D20406D5426942F0040242614FF419
:10AB500080500860704770B50546FFF78FFC0646C9
:10AB6000184C2068C0070AD515F1010FF9D025B19E
:10AB7000FFF784FC801B8542F3D2032070BD206860
:10AB8000800744BF022020602068C0050BD42068E5
:10AB9000800508D42068400505D42068C00402D48C
:10ABA0002068000503D5FFF7A3FF012070BD00203A
:10ABB00070BD000050290020043C0240EFCDAB895D
:10ABC00005040302183C0240F8B504460D4616463B
:10ABD000FFF726FFFFF752FC07464CF25030FFF715
:10ABE000BAFF38B1FFF74AFCC01B4CF25131884222
:10ABF000F3D3F1BDB04207D2425D471C01190020DA
:10AC0000FFF725FF3846F5E7BDE8F140FFF717BF2E
:10AC100010B5002302E01C5C5C545B1C9342FAD329
:10AC200010BD13460A461946374B1818CCE7134691
:10AC30000A461946344B1818EAE770B5334C82B00F
:10AC4000FF212170022501216170417821710021CD
:10AC50006171417801290CD0022910D003291DD03F
:10AC6000042924D0052925D0FC2926D0FE2931D05D
:10AC700038E00120A07104250820E07134E08679D5
:10AC8000FA2EA8BF12202EDA03794079A21D314690
:10AC900043EA0020FFF7CBFFB51C25E0817903795B
:10ACA000C21D407943EA0020FFF7BBFF1CE0FFF71D
:10ACB000ACFC19E0FFF7CCFC16E0BFF34F8F144853
:10ACC000144A016801F4E06111430160BFF34F8F42
:10ACD00000BFFDE704221048009069460F48FFF7C7
:10ACE00073FF01E001206071ADB2A57000202D1D41
:10ACF000E070ADB2002603E0305DFEF7FBFF761C8E
:10AD0000AE42F9DB73BD0000002F0808F8260020D2
:10AD10000CED00E00400FA0500000208F80F080836
:10AD2000122008800FF2F8007047042008800FF20C
:10AD30000410704710B5174C0FF2900003E010B5E7
:10AD4000144C0FF2AC000A462146FEF748FE20469E
:10AD500010BD38B51A2008800F4D104844680168AE
:10AD60004069401809D00822A91C00F019F80422F3
:10AD700005F11201204600F013F8284632BD10B547
:10AD8000044C0FF28000DEE710B5024C0FF2800099
:10AD9000D9E70000F8270020640100205000F81FC8
:10ADA00030B5002308E001F8134001EB430500240F
:10ADB0005B1C00016C70DBB2934205DA040F0A2CB5
:10ADC00034BF30343734EEE730BD000053544D33D8
:10ADD00032205669727475616C20436F6D506F72CA
:10ADE0007420696E204653204D6F6465000000009A
:10ADF00053544D6963726F656C656374726F6E69ED
:10AE00006373000056435020436F6E66696700000D
:10AE100056435020496E7465726661636500000098
:10AE200012010002000000408304405700020102AA
:10AE30000301000004030904F8B53E4E04463078CF
:10AE40000D46002710B9708000E030707088B0F5B2
:10AE5000007F60DA3846471CC0B2A8425BD214F8C3
:10AE6000010B71884A1C7280334A8854317849B981
:10AE70000128EAD0022808BF0720E6D0FF28E5D144
:10AE80000320E2E7012908BF0220DED0022908BF23
:10AE90000620DAD0032908BF0420D6D004290346AF
:10AEA00002D1F3800520D0E7B6F806C0052907D106
:10AEB0000CEB0020F0800020B080F088002805E036
:10AEC000062905D10020F380B080002B14D11DE0AD
:10AED000072908BF0820B8D0082908BF0920B4D026
:10AEE000092908BF0A20B0D00A2907D1B2F8030007
:10AEF000F0800021B18048B10B20A6E70B29A5D135
:10AF0000B088401CB08080B260459FD30020307074
:10AF100000F002F89AE7F1BD074806490278FF2AD7
:10AF200004BF4988FFF789BE4B88014600220020F4
:10AF3000FFF77ABC68290020F423002038B500F020
:10AF40008DF800F091F84FF4FA70FFF762FD1E489B
:10AF50001E4CFEF7B9FE0020FFF7B2FAFFF755FBD3
:10AF60000AE0285DFEF7C6FE6D1CB4F800018542BC
:10AF7000F7DB0020A4F8000104211548FEF7DDF8F6
:10AF800098B914480090042269461348FFF71CFE44
:10AF9000BFF34F8F1148124A016801F4E061114379
:10AFA0000160BFF34F8F00BFFDE7FFF783FA012871
:10AFB000E2D1FF212046FFF786FB0028A4F800011C
:10AFC000DAD00025D1E700BF39AE0008F425002013
:10AFD0000000024000000208F80F08080CED00E035
:10AFE0000400FA0500B51B4893B0016841F0805198
:10AFF0000160006800F080500090009816480168D9
:10B0000021F4C05141F4006101604168C906FCD4DB
:10B010000220069010200A900120099002200F9033
:10B02000002010904FF4002011904FF40000129077
:10B0300006A8FEF771FE0F20019001210320029067
:10B04000002003900490059001A8FFF748F813B082
:10B0500000BD0000243802400070004080B5FFF7BA
:10B06000E1F9BDE80140BDE7704700000D480E4A18
:10B07000016841F4807101608168114081600B4A70
:10B08000016811400160016821F48021016081683C
:10B0900021F47D0181600021C160054805490860F7
:10B0A00070470000003802400CC0FF88FEFFFEEE33
:10B0B0000080000808ED00E019E050F8041BCB0701
:10B0C00044BFA9F101035918121F0023042A41F8B3
:10B0D000043BF9D25FEA827C0B4604D54FF0000CAA
:10B0E000A1F800C09B1CD10744BF0021197050F883
:10B0F000042B002AE1D1704710B507497944183173
:10B10000064C7C44163404E00A68081D5118884730
:10B110000146A142F8D110BD080000002400000043
:10B1200099FFFFFF041C0000800D002000000000BC
:10B1300067E0FFFF70010000A80100000000002090
:10B140007047FEE7704770477047FFF792B90148B4
:10B15000FDF73DB8D42100204FF40050FDF7F7BFB4
:10B1600000F00BF8002801D0FFF7C6FF0020C04612
:10B17000C046FFF7E3FE00F002F80120704700F040
:10B1800001B800000746384600F002F8FBE700006F
:10B1900080B5C046C046024A11001820ABBEFBE78E
:10B1A0002600020001488047014800476DB00008B2
:10B1B000B5B10008C046C046C046C046FFF7D0FF44
:10B1C000E8030000FFF7FEBFFFF7FEBFFFF7FEBF7B
:10B1D000FFF7FEBFFFF7FEBFFFF7FEBFFFF7FEBFA3
:10B1E000FFF7FEBFFFF7FEBFFFF7FEBFFFF7FEBF93
:10B1F000FFF7FEBFFFF7FEBFFFF7FEBFFFF7FEBF83
:10B20000FFF7FEBFFFF7FEBFFFF7FEBFFFF7FEBF72
:10B21000FFF7FEBFFFF7FEBFFFF7FEBFFFF7FEBF62
:10B22000FFF7FEBFFFF7FEBFFFF7FEBFFFF7FEBF52
:10B23000FFF7FEBFFFF7FEBFFFF7FEBFFFF7FEBF42
:10B24000FFF7FEBFFFF7FEBFFFF7FEBFFFF7FEBF32
:10B25000FFF7FEBFFFF7FEBFFFF7FEBFFFF7FEBF22
:10B26000FFF7FEBFFFF7FEBFFFF7FEBFFFF7FEBF12
:10B27000FFF7FEBFFFF7FEBFFFF7FEBFFFF7FEBF02
:10B28000FFF7FEBFFFF7FEBFFFF7FEBFFFF7FEBFF2
:10B29000FFF7FEBFFFF7FEBFFFF7FEBFFFF7FEBFE2
:10B2A000FFF7FEBF8008030406080C1018203000CA
:10B2B000011301021610090708090048E8010A06EF
:10B2C00000021B134001051007859A0008059B002A
:10B2D000083F04212F12E90812A70452BB10610194
:10B2E00010031D9C00081504122504122D042009CA
:10B2F00009024300020100C03209045D110B101E57
:10B300000524001001052401000104240202052483
:10B310000600010705820308001009040100020A63
:10B320004E1002070501027B200107058107F22864
:10B330000044224007228107200100090744F2133C
:10B340000444F207FF442700C20A100508001D95B7
:10B3500000083D0412410412EF04100321AD00085F
:10B360002B04123F04123504125304127F04128975
:08B3700004F001081A030001BA
:040000050800B1B589
:00000001FF
